:100000000C94C7010C94F8010C94F8010C94F801BD
:100010000C94F8010C94F8010C94F8010C94F8017C
:100020000C94F8010C94F8010C94F8010C94F8016C
:100030000C946E090C94F8010C94F8010C94F801DE
:100040000C94F8010C94F8010C94F8010C94F8014C
:100050000C94F8010C94F8010C94F8010C94650EC2
:100060000C94F8010C946F100C9445100C94F8014A
:100070000C94F8010C94F8010C94F8010C94F8011C
:100080000C94F8010C94F8010C94F8010C94F8010C
:100090000C94F8010C94F8010C94F8010C94F801FC
:1000A0000C94F8010C94F8010C94F8010C94F801EC
:1000B0000C94F8010C94F8010C94F8010C94F801DC
:1000C0000C94F8010C94F8010C94F8010C94F801CC
:1000D0000C94F8010C94F8010C94F8010C94F801BC
:1000E0000C94F8013C1A3F1A2E1A321A361A761A54
:1000F000431A471A4D1A511A551A5B1A5F1A631A96
:10010000761A691A6D1A711A0C947A110C94711A74
:100110000C94FA020C94F0120C94471A0C943412BA
:100120000C94761A0C9418020C942E1A0C94FB0959
:100130000C9454020C948E110C9451020C947E0B6E
:100140000C94551A0C946A020C943C1A0C945F1A85
:100150000C945F110C94A80A0C9485110C9409025C
:100160000C9411020C9458120C94A4020C94620288
:100170000C94360D0C94F8020C94691A0C94030339
:100180000C94A4110C944D1A0C947C020C94490A02
:100190000C943B020C943F1A0C94FA010C946F02DD
:1001A0000C94100D0C944E020C9414020C94511AE1
:1001B0000C94300C0C941D0E0C9417120C94C60465
:1001C0000C94FA090C9476030C9481040C94790233
:1001D0000C94AC090C946C020C948D110C94130DBE
:1001E0000C940E130C940F0D0C946D1A0C94361A7B
:1001F0000C9418050C94D7130C9456020C94CD1241
:100200000C94F4120C94321A0C94220D0C94E11BF1
:100210000C9404020C9417140C94C0030C94060262
:100220000C9443020C94C20D0C945B1A0C94110AAA
:100230000C946B020C94631A0C9447130C94360BB9
:100240000C945E020C94440D0C94550B0C942602F5
:100250000C941C020C94C3020C9485120C94431A47
:100260000C9473110C94151E0C945B110C94631177
:100270000C947B0D0C94D70F0C94E40C0C947F031E
:100280000C94670200000A0B02090C0D0E0807030C
:100290000401000000000000000000000000000059
:1002A000000000000000000000000000000000004E
:1002B000121110000000000000000000000000000B
:1002C00000000000000000000000000022002500E7
:1002D00028002B002E00310034000201000005012F
:1002E00008010B0100002100240027002A002D0036
:1002F0003000330001010000040107010A01050577
:100300000505070508080808020202020A0A08088B
:1003100004040404010101010101010103030303B9
:1003200003030303040707070C0C0C0C0C0C0C0C48
:100330000202020206060606060606060B0B0B0B59
:100340000B0B0B0B0102102020080810204010207E
:100350004080020102010804020101020408102089
:100360004080804020100804020180040201804087
:1003700020100804020108040201010204081020F0
:1003800040800102040810204080151EE11B11244A
:100390001FBECFEFD1E2DEBFCDBF00E00CBF14E047
:1003A000A0E0B2E0EEEBF9E400E00BBF02C0079082
:1003B0000D92A431B107D9F725E0A4E1B4E001C062
:1003C0001D92AC38B207E1F711E0C6ECD1E000E0D5
:1003D00006C021970109802FFE010E94A01FC53C85
:1003E000D10780E00807A9F70E94E51B0C94CD24F3
:1003F0000C940000DC01ED91FC91048CF58DE02D56
:10040000199591E089270895862F089581E0862720
:10041000089583B7662311F0816001C08E7F83BF8A
:100420000895FC0164830895FC01848190E008959F
:10043000FC01828193810895DC01ED91FC9104849B
:10044000F585E02D61E019958895089544EC450304
:1004500090011124261B3109205F314F37FF02C064
:10046000295F3F4F43E0359527954A95E1F7FC0119
:10047000338322830895FC01228133812150310985
:10048000338322830895FC0183A1811105C08581F6
:10049000823010F481E083A383A10895FC0183815D
:1004A0000895FC01828108950B960895FC01248132
:1004B000822F90E02C3008F00C970895FC01878182
:1004C00090850895FC016481758186810895FC0101
:1004D00063A3089508950895FC01628F08956F5FE6
:1004E0007F4F660F771F860F971FFC0180819181D8
:1004F0000895FC01828D0895CF92DF92EF92FF92D2
:100500000F931F93CF93DF937C016A018B01C0E0AF
:10051000D0E0CC15DD057CF4D8016D917D918D0185
:10052000D701ED91FC910084F185E02DAE01C7016A
:1005300019952196EECFDF91CF911F910F91FF90EA
:10054000EF90DF90CF900895EF92FF920F931F935B
:10055000CF93DF938C017B01C0E0D0E0CE15DF05A7
:100560005CF4D801ED91FC910480F581E02DBE0191
:10057000C80119952196F2CFDF91CF911F910F916C
:10058000FF90EF900895AF92BF92CF92DF92EF92DB
:10059000FF920F931F93CF93DF9361157105E9F0DD
:1005A00012161306D4F479016C01EB018A01A12C17
:1005B000B12C69917991D601ED91FC910190F08176
:1005C000E02DC6011995F801819391938F01FFEFFA
:1005D000AF1ABF0AAE14BF0461F7DF91CF911F912C
:1005E0000F91FF90EF90DF90CF90BF90AF90089564
:1005F000CB010895C0960E94341291E0811101C090
:1006000090E0892F0895CF92DF92EF92FF920F939F
:100610001F93CF93DF93CDB7DEB7AF970FB6F894A4
:10062000DEBF0FBECDBF7C016A010CE513E01A836B
:1006300009831C861B8688EE93E0A0E0B0E08D87DE
:100640009E87AF87B88B88E093E09A878987188F59
:100650000F8B198E1A8E1B8E1C8E84E089A31DA30E
:100660000CA31EA21FA218A619A680915205909154
:100670005305A0915405B09155058CA79DA7AEA731
:10068000BFA78B839C83AD83BE8318861F82AE0178
:100690004C5D5F4FCE0101960E94BE1481309105E2
:1006A000B1F4D701ED91FC910484F585E02D1BA7F1
:1006B0000AA78EA19FA1A8A5B9A58CA79DA7AEA7A3
:1006C000BFA7A601BE01665D7F4FC7011995AF9612
:1006D0000FB6F894DEBF0FBECDBFDF91CF911F9153
:1006E0000F91FF90EF90DF90CF900895672B11F45A
:1006F00060E001C061E0FC0182810C940D1ACF9290
:10070000DF92EF92FF920F931F93CF93DF93EC0151
:100710007B0160E08E810E940D1A61E082E30E94FD
:100720000D1A00E010E08FE0C82ED12C0E151F0529
:10073000A4F461E08C810E940D1AC6010197F1F7C3
:1007400060E08C810E940D1A61E070E080E090E032
:100750000E941F0E0F5F1F4FE9CF60E082E30E94EF
:100760000D1A61E08E810E940D1AF986E886DF91EC
:10077000CF911F910F91FF90EF90DF90CF90089550
:100780000C9444204F925F927F928F929F92AF92EF
:10079000BF92CF92DF92EF92FF920F931F93CF936E
:1007A000DF9300D000D0CDB7DEB78C01CB018DB682
:1007B0009EB6690161E0C61AD108E0E0F0E060E0B1
:1007C00070E0A5ECB9E05D01A21AB30AEA15FB05D9
:1007D0000CF05EC0DC01AE0FBF1FDD963C91DA016C
:1007E000A60FB71F2C9132134DC06F5F7F4F6C1552
:1007F0007D0509F04BC09F012F5F3F4FB901412C90
:10080000512C643CA9E07A074CF57201EE0EFF1EF4
:10081000E80EF91ED701DE967C90D20111967D017B
:10082000BCE37B1217C0CDB6DEB6EDB7FEB7EE194E
:10083000FF090FB6F894FEBF0FBEEDBF6DB77EB7D0
:100840006F5F7F4F235C3F4F820F931FFB01460E6C
:10085000571E06C027016F5F7F4FD3CFB60116C06A
:10086000E415F50529F0DC012D91CD012193F8CF98
:100870001082C8010E94FF0E0FB6F894DEBE0FBEB4
:10088000CDBE23C0E61BF70B60E070E031969ECF33
:100890006BEA73E0CE0101960E94FF0E89819A8176
:1008A000F801918380838B819C81938382838D81E6
:1008B0009E81958384831A8219821C821B821E82E8
:1008C0001D82CE0101960E94FA0EC8010FB6F8945F
:1008D0009EBE0FBE8DBE26960FB6F894DEBF0FBE2D
:1008E000CDBFDF91CF911F910F91FF90EF90DF90DF
:1008F000CF90BF90AF909F908F907F905F904F90E0
:100900000895EF92FF920F931F93CF93DF93EC0123
:100910008A01E881F9810190F081E02D19957C012F
:10092000000F111FC00FD11F8A819B81DC01ED9147
:10093000FC910680F781E02D60E070E019958A81D6
:100940009B81DC01ED91FC910480F581E02DB701E4
:1009500019950A811B81F801C085D1856C2F84818E
:1009600095810E942F1FBE01660F672F661F770BB0
:10097000D80114968D919C9115970196DF91CF9196
:100980001F910F91FF90EF900C942F1FCF92DF9249
:10099000EF92FF920F931F93CF93DF93EB01CC0F56
:1009A000DD1FC80FD91FEA80FB80D7011496CD90B8
:1009B000DC901597C60101960E94271FB0E88B9F17
:1009C00080011124C6010E94271FF801E82BCF01E6
:1009D000D70119969C938E9318970E94A91A8A8121
:1009E0009B81DC01ED91FC910680F781E02D61E0B7
:1009F00070E019958A819B81DC01ED91FC91119742
:100A000018966D917C9119970480F581E02D1995C8
:100A1000EA81FB811286DF91CF911F910F91FF90A8
:100A2000EF90DF90CF90089508958CBD9DBD0895FF
:100A30002F923F924F925F926F927F928F929F92EE
:100A4000AF92BF92CF92DF92EF92FF920F931F93DC
:100A5000CF93DF93CDB7DEB7A6970FB6F894DEBF7E
:100A60000FBECDBF7C012DB73EB73CA32BA36C01BD
:100A700034E2C30ED11C8091730481112AC01092FC
:100A80005B0410925A0488EE93E0A0E0B0E08093FB
:100A90005C0490935D04A0935E04B0935F0488E0CF
:100AA00093E090935904809358048CE593E09093DD
:100AB000670480936604109268041092690410928F
:100AC0006A0410926B0484E08093700481E0809348
:100AD000730485E194E090935705809356056CE28A
:100AE00071E080E090E00E941F0E1FB7F8948091A3
:100AF0001404811124C0E3E3F3E08491E9E7F3E017
:100B0000249190E0880F991F8C519D4FFC01A59175
:100B1000B491EC91E22321F461E085E30E940D1A87
:100B200085E30E948A1A8CB580618CBD8CB5806487
:100B30008CBD84E30E948A1A83E30E948A1A809102
:100B400014048F5F809314041FBF249A80E590E003
:100B50000E94150560E880E090E00E94081165E5BC
:100B60008BE190E00E94081165E58AE190E00E9427
:100B7000081180E090E490939E0480939D0480E0AF
:100B800090E69093A6048093A50480E098E4909367
:100B9000A00480939F0480E098E69093A80480933B
:100BA000A70480E090E59093A2048093A10480E0E4
:100BB00090E79093AA048093A90480E098E590932D
:100BC000A4048093A30480E098E79093AC048093FE
:100BD000AB0480E590E00E94150546E050E0B601C8
:100BE00089E090E00E94D9108CE593E09A83898394
:100BF0001B821C821D821E8244E050E0BE016D5F9C
:100C00007F4F8FE090E00E94D9100091560510911F
:100C10005705D80192961D921D921D921C92959790
:100C2000F80116A217A210A611A69A961D921D925F
:100C30001D921C929D9780E69AEEA0E0B0E086ABF4
:100C400097ABA0AFB1AF80EA9FE0A0E0B0E082AF89
:100C500093AFA4AFB5AFD801189686E0FD01282F59
:100C600011922A95E9F79801225F3F4F94E1F9012B
:100C700011929A95E9F7F60101900D928A95E1F7A4
:100C80004801F2E48F0E911CD4011C920E94DE1EDA
:100C90002FEC37E040E050E00E943D1FDC01CB012B
:100CA0000196A11DB11DF80184839583A683B783A6
:100CB00080839183A283B3835801F3E4AF0EB11C08
:100CC000C5010E94171264E470E0C5010E94581229
:100CD000882309F4D2C20E94590E2B013C01212C19
:100CE000312CD12C42E0C42ED4018C91833009F4F4
:100CF00005C1811121C0F80184819581A681B78148
:100D00000196A11DB11D84839583A683B7830E949C
:100D1000590E641975098609970928EE33E040E0F9
:100D200050E00E946F1FA90161E0C8010E94FF18F6
:100D300081E0D4018C93C4C0843001F5F801848132
:100D40009581A681B7810196A11DB11D84839583EC
:100D5000A683B7830E94590E6419750986099709FD
:100D600028EE33E040E050E00E946F1FA90163E0ED
:100D7000C8010E94FF18D401CC92A2C0813061F555
:100D8000F80142AD53AD64AD75AD9E012F5F3F4F8D
:100D9000C8010E943917D82EF2E08F1391C08981C3
:100DA0009A81AB81BC81F80184839583A683B78344
:100DB0000E94590E641975098609970928EE33E0D7
:100DC00040E050E00E946F1FA90163E0C8010E944B
:100DD000FF18D401DC927AC0823009F071C0F801AA
:100DE00042AD53AD64AD75AD9E012F5F3F4FC8015D
:100DF0000E943917D82EF5E08F135CC0E3E0D401D0
:100E0000EC93F80182A193A1A4A1B5A1892B8A2B0F
:100E10008B2B41F484E893E0A0E0B0E082A393A39D
:100E2000A4A3B5A3F80186A197A1A0A5B1A5892B7C
:100E30008A2B8B2B61F482A193A1A4A1B5A1B695B5
:100E4000A7959795879586A397A3A0A7B1A7F80123
:100E500082A593A5A4A5B5A5892B8A2B8B2BA9F4D4
:100E600082A193A1A4A1B5A1AC01BD0123E0769517
:100E70006795579547952A95D1F7841B950BA60B37
:100E8000B70B82A793A7A4A7B5A7F80186A197A13E
:100E9000A0A5B1A586A797A7A0ABB1AB82A593A546
:100EA000A4A5B5A582AB93ABA4ABB5AB2224239488
:100EB000312C0CC0F6E08F1303C0D4011C9206C085
:100EC000BFEFDB1203C0F4011082D12CF1E02F162A
:100ED000310409F409CF0E94590EDC01CB018419B9
:100EE0009509A609B709F80126A937A940AD51AD62
:100EF000281739074A075B0708F0F6CEC5010E949C
:100F00001712F80184819581A681B7810196A11DF0
:100F1000B11D84839583A683B7830E94590EF8017F
:100F2000FE9660837183828393832A94232809F039
:100F3000A4C180E590E00E9415056091560570916E
:100F40005705625F7F4FCE0101960E94351044E045
:100F500050E0BE016D5F7F4F8FE090E00E94D9109E
:100F600060915605709157056A5E7F4FCE010196DC
:100F70000E94351044E050E0BE016D5F7F4F81E07C
:100F800090E00E94D91060915605709157056E5EF1
:100F90007F4FCE0101960E94351044E050E0BE0123
:100FA0006D5F7F4F85E090E00E94D91060915605FB
:100FB00070915705625E7F4FCE0101960E943510F9
:100FC0008B819C81AD81BE818093520590935305A6
:100FD000A0935405B0935505D70118961C921E9204
:100FE0001797CDB6DEB69E960D911C919F97C801BE
:100FF0000196EDB7FEB7E81BF90B0FB6F894FEBFEC
:101000000FBEEDBF2DB73EB72F5F3F4F5901892B64
:10101000A1F02115310589F00115110519F4D90147
:101020001C920BC0F70162A573A5A801C9010E941B
:10103000E721F501E00FF11F10828701005D1F4FCE
:1010400040E550E0B501C8010E9403030197B9F4DF
:1010500064E673E0C8010E94211063E773E0C801F1
:101060000E94211067E973E0C8010E94211069EA1B
:1010700073E0C8010E94790F9924939401C0912CC8
:101080000FB6F894DEBE0FBECDBE992009F4F0C0B5
:10109000A12CB12CD701ED91FC910684F785E02DB0
:1010A000C7011995D82E8823B9F06501BDE3CB0E91
:1010B000D11CCE0CDF1CC8010E940E13892B51F3EA
:1010C000C8010E94F412D6018D936D01BFEFAB1AD7
:1010D000BB0AF6011082EFCF86E1E3ECF3E0DE011C
:1010E000119601900D928A95E1F726E130E0AE016C
:1010F0004F5F5F4FB701CE014D960E94C20389A199
:101100009AA1892B09F447C0ED8DFE8D808188233B
:1011100009F441C022E030E040E050E0BE01635EEF
:101120007F4FCE0147960E94140FCE0147960E9432
:10113000AF0EF7016483CE0147960E94FA0E25E0B8
:1011400030E043E050E0BE01635E7F4FCE01479642
:101150000E94140FCE0147960E94AF0ED70115963C
:101160006C93CE0147960E94FA0E28E030E046E0EC
:1011700050E0BE01635E7F4FCE0147960E94140F80
:10118000CE0147960E94AF0EF7016683CE014796C7
:101190000E94FA0ED92CCE014D960E94FA0EDD2047
:1011A00009F466C05701FBE0AF0EB11C01E010E08E
:1011B0008CEA882E83E0982ECDB6DEB60A30110573
:1011C0001CF027E130E002C026E130E08DB79EB789
:1011D000821B930B0FB6F8949EBF0FBE8DBFADB7A9
:1011E000BEB711963D011F930F939F928F927F92EE
:1011F000AF932DA33EA30E94F6212DA13EA1A301F2
:10120000B701CE0101960E94C2030F900F900F907C
:101210000F900F900F908D819E81892B01F1E981B4
:10122000FA8180818823D9F0CE0101960E94AF0E09
:10123000F501619371935F01CE0101960E94FA0E50
:101240000FB6F894DEBE0FBECDBE0F5F1F4F0D3040
:10125000110509F0B1CF81E0F70182831FC0CE01F3
:1012600001960E94FA0E0FB6F894DEBE0FBECDBEF8
:1012700081E0D70113968C9311C0D70117968D91F9
:101280009C911897019618969C938E9317970A979E
:1012900029F481E0F7018383108617822BA13CA1FA
:1012A0000FB6F8943EBF0FBE2DBFA6960FB6F894AA
:1012B000DEBF0FBECDBFDF91CF911F910F91FF9089
:1012C000EF90DF90CF90BF90AF909F908F907F90E6
:1012D0006F905F904F903F902F9008951F920F92C4
:1012E0000FB60F9211240BB60F922F933F934F938B
:1012F0005F936F937F938F939F93AF93BF93EF937E
:10130000FF9380917D0490917E04DC01ED91FC912E
:101310000284F385E02D61E0199580917D04909120
:101320007E04DC01ED91FC910484F585E02D60E004
:101330001995FF91EF91BF91AF919F918F917F91FF
:101340006F915F914F913F912F910F900BBE0F9036
:101350000FBE0F901F90189508950F931F93CF9372
:10136000DF93EC018B018AE392E0998388831A82F0
:101370001B8218861F828FEF9FEF9A8789871BA297
:10138000CE018A961BA61AA61DA61CA61FA61EA6DF
:101390008417950751F0FA0160817181611571051B
:1013A00021F0448155810E94BA0E1BAA1AAA88EE28
:1013B00093E0A0E0B0E08CAB9DABAEABBFAB86E101
:1013C00092E099AB88AB84E08CAFF80180818CA36C
:1013D00081818DA382818EA383818FA3848188A73D
:1013E000858189A71C821D821E82DF91CF911F916A
:1013F0000F9108950895CF93DF931F92CDB7DEB775
:101400006983DC01ED91FC910280F381E02D41E0E4
:1014100050E0BE016F5F7F4F19950F90DF91CF9124
:101420000895CF93FC01C08D80E590E00E941505E2
:1014300060E270E08C2F0E94E81A62E070E08C2F6E
:101440000E94211384FD19C062E070E08C2F0E947D
:10145000211383FF0BC048E162E070E08C2F0E94F3
:1014600017130E94140580E090E011C00E9414053B
:1014700080E590E00E941505E0CF40E162E070E079
:101480008C2F0E9417130E94140581E090E0CF91E9
:101490000895AF92BF92CF92DF92FF920F931F9366
:1014A000CF93DF938C015B01EA01FC01C688D788EA
:1014B000F08C80E590E00E9415058F2D0E945D1B49
:1014C0008C179D0720F48F2D0E945D1BEC019E015F
:1014D000A501B6018F2D0E94F81A0E941405F8018B
:1014E000868997898C0F9D1F978B868BCE01DF9104
:1014F000CF911F910F91FF90DF90CF90BF90AF9051
:1015000008958EBD00000DB407FEFDCF8EB5089581
:101510001F93CF93DF931F921F92CDB7DEB7182F83
:1015200080E590E069837A830E94150521E041E01F
:1015300050E069817A81812F0E94791B0E941405F5
:1015400081E090E00F900F90DF91CF911F9108956F
:10155000CF93DF931F92CDB7DEB7FC01218D328D83
:10156000232B49F0BE016F5F7F4F808D0E94880A58
:10157000898190E002C08FEF9FEF0F90DF91CF91B4
:101580000895FF920F931F93CF93DF93F82E80E57A
:1015900090E00E941505C0E0D0E08F2D0E942B1135
:1015A0008C01892B21F08F2D0E942B11EC01C0178B
:1015B000D10799F70E941405CE01DF91CF911F91B9
:1015C0000F91FF900895AF92BF92CF92DF92EF926A
:1015D000FF921F93CF93DF93182F5B017A0180E571
:1015E00090E00E941505C0E0D0E0812F0E942B11F1
:1015F0006C01892B21F0812F0E942B11EC01CC155D
:10160000DD0599F7209799F463E070E0812F0E943F
:1016100021138431F1F08823E1F0C1E0D0E08C3176
:1016200011F4C0E0D0E0D195C195D10912C0EC16FB
:10163000FD060CF4E7011C161D065CF420E0AE016B
:10164000B501812F0E94791B60E470E0812F0E9418
:10165000E81A0E941405CE01DF91CF911F91FF90EF
:10166000EF90DF90CF90BF90AF900895CF93DF932E
:10167000FC01218D328D2115310519F48FEF9FEF7B
:1016800011C0EC014217530708F0A901888D0E9490
:10169000E30A1816190694F7298D3A8D281B390B81
:1016A0003A8F298FDF91CF9108950F931F93CF9396
:1016B000DF931F92CDB7DEB7FC01218D328D232B36
:1016C00061F08C0141E050E0BE016F5F7F4F808D83
:1016D0000E94E30A181619061CF08FEF9FEF08C04E
:1016E000F801818D928D0197928F818F898190E091
:1016F0000F90DF91CF911F910F9108950F931F933A
:10170000CF93DF93CDB7DEB728970FB6F894DEBF3F
:101710000FBECDBF8C01F801818D928D892B49F0D0
:10172000D801ED91FC910680F781E02DC801199553
:10173000F2CF808D0E94C10A181619065CF548E0A8
:1017400050E0BE016F5F7F4FD80158968C910E9488
:10175000E30A9C0118161906DCF489819A81AB8191
:10176000BC81F801808B918BA28BB38B8D8190E033
:10177000982F88272E81820F911D958B848B2F8126
:1017800030E0322F22278885280F311D328F218F9C
:10179000C90102C080E090E028960FB6F894DEBF41
:1017A0000FBECDBFDF91CF911F910F910895CF93C1
:1017B000C82F80E590E00E94150560E170E08C2F55
:1017C0000E94E81A4FEF62E070E08C2F0E9417131E
:1017D000CF910C941405FF920F931F93CF93DF9337
:1017E0001F921F92CDB7DEB7F82E8A012A83698334
:1017F0000E94D70B80E590E00E9415052A8169813F
:10180000462F422B60E070E08F2D0E9417130115C8
:10181000110551F400917B0410917C040F5F1F4F60
:1018200010937C0400937B04412F64E070E08F2DC3
:101830000E941713402F65E070E08F2D0E94171350
:1018400061E070E08F2D0E94E81A0E94140581E08B
:101850000F900F90DF91CF911F910F91FF900895FE
:10186000BF92CF92DF92EF92FF920F931F93CF938D
:10187000DF9300D000D0CDB7DEB7FC01208D24303F
:1018800009F053C06A017B018C01B12C63E070E068
:101890008B2D0E942113811103C0F801B08E06C068
:1018A0008831D9F3B394F4E0BF12F0CFF801808D02
:1018B0008430D9F196E0E2E5F2E0DE011196019084
:1018C0000D929A95E1F7F70193819F779C8394811C
:1018D0009D8395819E83B7016E5F7F4F90E0982F27
:1018E000882744E050E0845F9B4F0E94D910B601E6
:1018F000F801808D0E94C613F801808D90E0982F2A
:10190000882746E050E0BE016F5F7F4F8A5F9B4FA4
:101910000E94D910F801128E118E20E8A60162E013
:10192000808D0E94EB0B81E001C080E026960FB60F
:10193000F894DEBF0FBECDBFDF91CF911F910F9105
:10194000FF90EF90DF90CF90BF9008951F93CF93BB
:10195000DF931F92CDB7DEB7182F80E590E00E948D
:10196000150563E070E0812F0E94211389830E9496
:10197000140589810F90DF91CF911F9108953FB792
:10198000F8948091910490919204A0919304B09165
:10199000940426B5A89B05C02F3F19F00196A11D00
:1019A000B11D3FBFBA2FA92F982F8827820F911DF5
:1019B000A11DB11DBC01CD0142E0660F771F881F3C
:1019C000991F4A95D1F70895CF92DF92EF92FF9237
:1019D0000F931F93CF93DF936C017A018B01C0E0CB
:1019E000D0E0CE15DF0589F0D8016D918D01D601CB
:1019F000ED91FC910190F081E02DC6011995892BA4
:101A000011F47E0102C02196ECCFC701DF91CF9186
:101A10001F910F91FF90EF90DF90CF900895089560
:101A200080E090E00895FC01538D448D252F30E037
:101A3000842F90E0821B930B541710F0CF960895DB
:101A400001970895FC01918D828D981761F0828D28
:101A5000DF01A80FB11D5D968C91928D9F5F9F73E2
:101A6000928F90E008958FEF9FEF0895FC01918D84
:101A7000828D981731F0828DE80FF11D858D90E0F1
:101A800008958FEF9FEF0895FC01918D228D892F8E
:101A900090E0805C9F4F821B91098F739927089576
:101AA00083EB94E00E94440D21E0892B09F420E0AF
:101AB000822F0895FC01848DDF01A80FB11DA35A68
:101AC000BF4F2C91848D90E001968F739927848F5E
:101AD000A689B7892C93A089B1898C9180648C9355
:101AE000938D848D981306C00288F389E02D808140
:101AF0008F7D80830895EF92FF920F931F93CF9372
:101B0000DF93EC0181E0888F9B8D8C8D981305C04D
:101B1000E889F989808185FD24C0F62E0B8D10E0BF
:101B20000F5F1F4F0F731127E02E8C8DE8120CC032
:101B30000FB607FCFACFE889F989808185FFF5CFD8
:101B4000CE010E945A0DF1CF8B8DFE01E80FF11DE1
:101B5000E35AFF4FF0820B8FEA89FB898081806214
:101B600007C0EE89FF896083E889F98980818064F4
:101B7000808381E090E0DF91CF911F910F91FF90E2
:101B8000EF900895CF93DF93EC01888D8823C9F0FF
:101B9000EA89FB89808185FD05C0A889B9898C9176
:101BA00086FD0FC00FB607FCF5CF808185FFF2CF11
:101BB000A889B9898C9185FFEDCFCE010E945A0D7D
:101BC000E7CFDF91CF91089580E090E0892B21F05D
:101BD0000E94500D811125C080E090E0892B41F0DA
:101BE00080E090E0892B21F00E94000081111CC050
:101BF00080E090E0892B41F080E090E0892B21F09B
:101C00000E940000811113C080E090E0892BA1F0B8
:101C100080E090E0892B81F00E94000081110AC0D1
:101C200008950E940000D8CF0E940000E1CF0E94DA
:101C30000000EACF0C94000008950E94C5218F9205
:101C40009F92AF92BF92CF92DF92EF92FF926B0181
:101C50007C010E94BF0C4B015C01C114D104E10462
:101C6000F104F1F00E94BF0CDC01CB018819990945
:101C7000AA09BB09883E9340A105B10570F321E094
:101C8000C21AD108E108F10888EE880E83E0981E98
:101C9000A11CB11CC114D104E104F10419F7DDCF7A
:101CA000FF90EF90DF90CF90BF90AF909F908F907C
:101CB00008952FB7F89460918D0470918E048091EF
:101CC0008F04909190042FBF08951F920F920FB62A
:101CD0000F9211242F933F938F939F93AF93BF93B2
:101CE00080918D0490918E04A0918F04B091900406
:101CF00030918C0423E0230F2D3720F40196A11D91
:101D0000B11D05C026E8230F0296A11DB11D209329
:101D10008C0480938D0490938E04A0938F04B093D1
:101D200090048091910490919204A0919304B091B9
:101D300094040196A11DB11D809391049093920487
:101D4000A0939304B0939404BF91AF919F918F910E
:101D50003F912F910F900FBE0F901F901895FC018F
:101D600080819181009711F00C94EB1E60E070E08F
:101D7000CB010895EF92FF920F931F93CF93DF93C0
:101D8000EC017B018A0188819981009729F02A81E1
:101D90003B8124173507F8F4B8016F5F7F4F0E942D
:101DA000DC20009759F0998388831B830A832C8158
:101DB0003D81232B81F4FC0110820DC08881998123
:101DC000009711F00E944420198218821D821C8203
:101DD0001B821A8207C01D830C83B70188819981F9
:101DE0000E94E021CE01DF91CF911F910F91FF90D2
:101DF000EF900895FC01808191810C944420FC01B6
:101E0000118210821382128215821482611571056B
:101E100051F0FB0101900020E9F73197AF01461B1B
:101E2000570B0C94BA0E0895BF92CF92DF92EF92A7
:101E3000FF920F931F93CF93DF937C016B01EA0115
:101E400089012417350720F48D2FE901042F182F5D
:101E50006BEA73E0C7010E94FF0ED60114968D91C4
:101E60009C911597C817D907C8F58017910708F4F2
:101E70008C01D601ED91FC911197E00FF11FB0801C
:101E800010824D915C91BA016C0F7D1F6115710537
:101E900061F0FB0101900020E9F73197AF01461B8B
:101EA000570BC7010E94BA0E13C0F70180819181C0
:101EB000009711F00E944420D70111961C921E92A7
:101EC00015961C921E92149713961C921E921297AE
:101ED000D601ED91FC91E00FF11FB082C701DF91B7
:101EE000CF911F910F91FF90EF90DF90CF90BF9017
:101EF00008956115710579F0FB0101900020E9F763
:101F00003197AF01461B570BDC01ED91FC9102802C
:101F1000F381E02D199480E090E008954F925F9254
:101F20006F927F92EF92FF920F931F93CF93DF9365
:101F3000CDB7DEB7A1970FB6F894DEBF0FBECDBF09
:101F40007C01FA01CB0119A2223008F42AE08E01AB
:101F50000F5D1F4F422E512C612C712CBF01A3012C
:101F600092010E946F1FF901CA01015011096A30E4
:101F700014F4605D01C0695CD8016C93232B242BA1
:101F8000252B61F7B801C7010E94790FA1960FB602
:101F9000F894DEBF0FBECDBFDF91CF911F910F919F
:101FA000FF90EF907F906F905F904F9008958F9289
:101FB0009F92AF92BF92CF92DF92EF92FF920F93D8
:101FC0001F93CF93DF937C01EB016C0182E0C80E7D
:101FD000D11C4701E5E08E0E911C00E010E0F601F7
:101FE00041916F0150E060E070E02AE0CE010E9474
:101FF0008E0F5C01E881F9810190F081E02D6EE2A5
:10200000CE0119958A0D9B1D080F191FC814D904FC
:1020100031F7F701458150E060E070E02AE0CE0141
:102020000E948E0F800F911FDF91CF911F910F9112
:10203000FF90EF90DF90CF90BF90AF909F908F90E8
:1020400008950F931F93CF93DF93EC010E94790FB4
:102050008C0169EA73E0CE010E94790F800F911F15
:10206000DF91CF911F910F9108952CE533E0FC0192
:1020700031832083FB014081518162817381FC01A6
:10208000428353836483758308951F920F920FB622
:102090000F9211240BB60F922F933F934F935F93A0
:1020A0006F937F938F939F93AF93BF93EF93FF9320
:1020B00083EB94E00E945A0DFF91EF91BF91AF9195
:1020C0009F918F917F916F915F914F913F912F9150
:1020D0000F900BBE0F900FBE0F901F9018951F9280
:1020E0000F920FB60F9211240BB60F922F938F936E
:1020F0009F93EF93FF93E091C304F091C404808118
:10210000E091C904F091CA0482FD12C090818091CF
:10211000CC048F5F8F732091CD04821751F0E09132
:10212000CC04F0E0ED54FB4F958F8093CC0401C0BC
:102130008081FF91EF919F918F912F910F900BBE16
:102140000F900FBE0F901F9018952C9A08952C9801
:102150000895CF92DF92EF92FF920F931F93CF9348
:10216000DF93EC017A018B016C01C40ED51ECC15F6
:10217000DD05A9F00E94A7108FE00E94810A8D2F33
:102180000E94810A8C2F0E94810A219680E00E9481
:10219000810AF80181938F010E94A510E8CFC70141
:1021A000DF91CF911F910F91FF90EF90DF90CF9033
:1021B0000895CF92DF92EF92FF920F931F93CF93E8
:1021C000DF93EC017A018B016C01C40ED51ECC1596
:1021D000DD05A1F00E94A71080EF0E94810A8D2FDB
:1021E0000E94810A8C2F0E94810A2196F801819118
:1021F0008F010E94810A0E94A510E9CFC701DF91DB
:10220000CF911F910F91FF90EF90DF90CF900895A5
:102210001F93CF93DF931F921F92CDB7DEB7182F76
:102220006A8399830E94A71080EF0E94810A998196
:10223000892F0E94810A812F0E94810A6A81862F3C
:102240000E94810A0E94A51081E00F900F90DF91FB
:10225000CF911F9108951F93CF93DF93182F66E2BC
:1022600070E00E942113C82FD0E067E270E0812F58
:102270000E942113DC2FCC279E01282BC901DF915E
:10228000CF911F9108951F93CF93DF93182F60E292
:1022900070E00E942113C82FD0E061E270E0812F2E
:1022A0000E942113DC2FCC279E01282BC901DF912E
:1022B000CF911F910895FC01818D928D0895FC01AD
:1022C0008489958908952CE533E0FC0131832083CE
:1022D000FB014089518962897389FC0142835383E0
:1022E000648375830895DC01ED91FC91008CF18D80
:1022F000E02D1994FC019485FB018485981303C09B
:1023000081E0943009F480E0089521E0FC018485A7
:10231000843009F420E0822F08950895CF93DF934D
:102320001F92CDB7DEB76983DC01ED91FC9102808D
:10233000F381E02D41E050E0BE016F5F7F4F1995C2
:102340000F90DF91CF910895CF92DF92EF92FF929D
:102350000F931F93CF93DF93CDB7DEB7AF970FB631
:10236000F894DEBF0FBECDBF7C016A010CE513E01F
:102370001A8309831C861B8688EE93E0A0E0B0E0F8
:102380008D879E87AF87B88B88E093E09A8789878F
:10239000188F0F8B198E1A8E1B8E1C8E84E089A3CA
:1023A0001DA30CA31EA21FA218A619A68091520558
:1023B00090915305A0915405B09155058CA79DA708
:1023C000AEA7BFA78B839C83AD83BE8318861F8275
:1023D000AE014C5D5F4FCE0101960E94BE1481306C
:1023E0009105B1F4D701ED91FC910088F189E02DC0
:1023F0001BA70AA78EA19FA1A8A5B9A58CA79DA7D9
:10240000AEA7BFA7A601BE01665D7F4FC7011995A4
:10241000AF960FB6F894DEBF0FBECDBFDF91CF9160
:102420001F910F91FF90EF90DF90CF900895CF9381
:10243000DF93EC01888D843061F00E94D70BE88D2A
:10244000F0E0EE0FFF1FEB56FB4F1182108284E08D
:10245000888FDF91CF910895FC018485843011F03D
:102460000C94A60C80E00895CF93DF93FC012485A3
:102470002430D1F0EC010E942C12843181F08823A9
:1024800071F0883161F08C3161F4E881F981048068
:10249000F581E02DCE01199521E0892B19F420E07A
:1024A00001C021E0822F01C080E0DF91CF9108952B
:1024B000EF92FF921F93CF93DF93FC01208D243086
:1024C00011F080E01CC07B01EC0110E0812F0E9424
:1024D000A60C811102C0188F05C08831E1F31F5F7F
:1024E0001430A1F7888D843061F3FD86EC861A8E56
:1024F000198E20E0A70162E00E94EB0B81E0DF91E2
:10250000CF911F91FF90EF900895CF92DF92EF92BD
:10251000FF921F93CF93DF93FC0114851430A9F130
:10252000EC0180E590E00E94150568E070E0812FE5
:102530000E94E81A0E9414050E94590E6B017C014A
:10254000CE010E942C128823B1F061E070E080E09F
:1025500090E00E941F0E0E94590EDC01CB018C19E5
:102560009D09AE09BF09883E9340A105B10540F31E
:102570008C850E94D70BEC85F0E0EE0FFF1FEB5629
:10258000FB4F1182108284E08C87DF91CF911F91E5
:10259000FF90EF90DF90CF9008950F931F93CF930C
:1025A000DF931F92CDB7DEB78C01DC01ED91FC917A
:1025B0000480F581E02D1995892B51F0BE016F5FE4
:1025C0007F4FF80184850E94880A898190E002C0CB
:1025D0008FEF9FEF0F90DF91CF911F910F91089593
:1025E000FC0184850C94E30ACF93DF931F92CDB74F
:1025F000DEB741E050E0BE016F5F7F4FFC01848594
:102600000E94E30A181619061CF4898190E002C0A2
:102610008FEF9FEF0F90DF91CF910895FC0184859C
:10262000843011F00C94C10A80E090E008959B0181
:1026300090E00496982F8827642F820F931F0C94A4
:1026400008110F931F93CF93DF931F92CDB7DEB77F
:1026500090E00496982F88278C01060F171F0E9480
:10266000A7108FE00E94810A812F0E94810A802F8B
:102670000E94810A80E00E94810A89830E94A5103D
:1026800089810F90DF91CF911F910F9108958F92C3
:102690009F92AF92BF92CF92DF92EF92FF920F93F1
:1026A0001F93CF93DF936C015B017A01FC01C4851A
:1026B000C43041F481E090E0F6019383828380E0AE
:1026C00090E057C08A014130584010F000E018E017
:1026D00080E590E00E9415058C2F0E945D1B4C0147
:1026E00063E070E08C2F0E942113D82F0E94140504
:1026F000D73111F0DC3121F48016910648F302C085
:1027000000E010E080E590E00E9415059801A50129
:1027100060E070E08C2F0E94F81A60E270E08C2F6D
:102720000E94E81A62E070E08C2F0E94211384FD61
:1027300014C063E070E08C2F0E942113811106C049
:102740000E9414058C2F0E94D70BB4CF0E94140551
:1027500080E590E00E941505E5CF40E162E070E081
:102760008C2F0E9417130E941405012B09F4A2CF8D
:10277000C701DF91CF911F910F91FF90EF90DF90F4
:10278000CF90BF90AF909F908F900895CF93DF939D
:10279000C82FD62F472F60E170E00E9417134D2FEE
:1027A00061E170E08C2FDF91CF910C941713FF92B1
:1027B0000F931F93CF93DF93FB01DC0157961C927D
:1027C0001E9256975896FC908281811109C0838190
:1027D000811106C08481811103C085818823F9F0AD
:1027E00041155105E1F08A01EF0180E590E00E947A
:1027F0001505BE016E5F7F4F2F2D30E0922F882789
:1028000044E050E0845F9B4F0E94D910B8018F2DA7
:102810000E94C6130E94140581E090E002C080E08F
:1028200090E0DF91CF911F910F91FF900895CF928B
:10283000DF92FF920F931F93CF93DF93FC012485C8
:10284000243009F079C06A01EB018C01F12C8F2D45
:102850000E94A60C811103C0F801F48607C08B7F8B
:102860008831D1F3F394F4E0FF12F1CFF8018485BD
:10287000843009F461C020910602309107022F5F75
:102880003F4F11F420E030EC309307022093060212
:10289000409106025091070220E061E00E94EB0B9C
:1028A000F801F4848A818F3F51F48B818F3F91F43A
:1028B0008C818F3F79F48D818F3F61F43AC0811113
:1028C00009C08B81811106C08C81811103C08D816B
:1028D000882379F1C114D10461F180E590E00E9470
:1028E0001505BE016E5F7F4F8F2D90E0982F8827D2
:1028F00044E050E0845F9B4F0E94D910B6018F2DB9
:102900000E94C61364E070E08F2D0E94E81A0E94B6
:102910001405C8010E942C12873189F061E070E033
:1029200080E090E00E941F0EC8010E942C128111CD
:10293000F0CF84E0F801848780E090E002C081E07D
:1029400090E0DF91CF911F910F91FF90DF90CF909A
:10295000089580E3FB0180833296842F82958F70E7
:1029600090E1899F401911244A3014F4405D01C060
:10297000495C4293482F8111F0CF08952F923F92E6
:102980004F925F926F927F928F929F92AF92BF927F
:10299000CF92DF92EF92FF920F931F93CF93DF932B
:1029A000CDB7DEB765970FB6F894DEBF0FBECDBFCB
:1029B0007C016B013A01FB0120E080E090E06AE0DD
:1029C0003191332309F140ED430F4A3080F4689F81
:1029D000A001699F500D1124CA01C097830F911D5A
:1029E00037FD9A958F3F910559F350F313C03E324E
:1029F00089F4233079F0D301A20FB11D12968C9384
:102A00002F5F80E090E0DCCF233021F4F301858359
:102A100081E021C0F70142815381648175818091F9
:102A2000AF049091B004A091B104B091B2044817E2
:102A300059076A077B0709F49EC10E94590E870156
:102A4000085F1F4F6F7077277C5FC8010E94581284
:102A5000813019F080E090E0F3C18CE593E09A8337
:102A60008983F70182819381A481B5818B839C83C3
:102A7000AD83BE8345E350E0BE016F5F7F4FC80169
:102A80000E94D713892B19F4C12CD12C6FC10E943D
:102A9000590EF701778366837627672776277A832F
:102AA000698342E050E0BE016F5F7F4FC8010E9422
:102AB000490A81E090E09E878D8742E050E0BE01A8
:102AC000635F7F4FC8010E94490A80E091E09E87C2
:102AD0008D8742E050E0BE01635F7F4FC8010E94D6
:102AE000490A1E861D8642E050E0BE01635F7F4FAB
:102AF000C8010E94490A42E050E0BE01635F7F4F77
:102B0000C8010E94490A42E050E0BE01635F7F4F66
:102B1000C8010E94490A5601F5018081882311F1FC
:102B2000F6015F018191811115C045018C189D0846
:102B30001814190494F48F8641E050E0BE01615FDF
:102B40007F4FC8010E94490AA401B601C8010E9432
:102B5000490A03C08E3229F7E8CF6501FFEFCF1A8B
:102B6000DF0ADACF1F8641E050E0BE01615F7F4F90
:102B7000C8010E94490AC12CDD24D394DE86CD868B
:102B800042E050E0BE01635F7F4FC8010E94490AE6
:102B9000DE86CD8642E050E0BE01635F7F4FC80114
:102BA0000E94490AC8010E94110A892B09F46CCFBE
:102BB00063E0A62EB12CF2E06F0E711C0E94590E3C
:102BC0001B012C01C8010E947E0B18161906A4F0E7
:102BD0000E94590EDC01CB0182199309A409B509A1
:102BE00089389341A105B105D0F462E370E080E03B
:102BF00090E00E941F0EE6CFF7014281538164816D
:102C00007581808D918DA28DB38D481759076A0704
:102C10007B0741F4848D958DC59721F406C02FEF75
:102C20003FEF9AC02EEF3FEF97C0F70181A192A12D
:102C30000C970CF4A6C04CE050E0BE016F5F7F4FD4
:102C4000C8010E94360B8B8190E0982F88272C8139
:102C5000822B9A8B898B298130E0322F22274A815F
:102C6000242BF701468157814217530709F086C08C
:102C700097FF84C08F709270892B09F0DEC0CF80DF
:102C8000D12CDC2CCC248885C82AC114D10409F4A9
:102C9000D1C0812C912C8D8190E0982F88272E8196
:102CA000822B8816990608F46FC0812C912C41E084
:102CB00050E0BE016D5E7F4FC8010E94360B8B89CC
:102CC000982F907C09F093C0811186C08B89811167
:102CD000EECF42E050E0BE01615F7F4FC8010E942D
:102CE000360B42E050E0BE01635F7F4FC8010E9497
:102CF000360BC8010E94550BC8010E94550BC80134
:102D00000E94550BC8010E94550B42E050E0BE01E5
:102D10006F5E7F4FC8010E94360B8F8598898115A1
:102D2000914009F069C02D853E853227232732273F
:102D30002130310509F060C089899A898115944054
:102D400009F075C044E050E0B301C8012C8B3D8B05
:102D50000E94360B2C893D896901F1E0AF1AB10858
:102D600029F02FEFC216D20609F428CFC8010E941D
:102D70001712C60165C08EEF9FEF62C02CEF3FEFC8
:102D8000EBCF2DEF3FEFE8CF41E050E0BE01635FB6
:102D90007F4FC8010E94360B8D85811113C08D8530
:102DA0008111F2CFC8010E94550BC8010E94550B3A
:102DB000C8010E94550BC8010E94550BFFEF8F1AE6
:102DC0009F0A69CF8D859FEF980F9D87882339F3E0
:102DD000C8010E94550BF6CF8B899FEF980F9B8BF4
:102DE000882309F473CFC8010E94550BF5CFC801A1
:102DF0000E94550B1B8A6ACF412C512C89899A89D4
:102E00009827892798274816590638F4C8010E9440
:102E1000550B8FEF481A580AF1CFEFEF8E1A9E0A22
:102E20008C149D0409F043CF26EF3FEF95CF27EF99
:102E30003FEF92CF2AEF3FEF8FCF2BEF3FEF8CCFBB
:102E400065960FB6F894DEBF0FBECDBFDF91CF9170
:102E50001F910F91FF90EF90DF90CF90BF90AF90B8
:102E60009F908F907F906F905F904F903F902F90AA
:102E700008952F923F924F925F926F927F928F921E
:102E80009F92AF92BF92CF92DF92EF92FF920F93F9
:102E90001F93CF93DF93CDB7DEB7E3970FB6F894C8
:102EA000DEBF0FBECDBF7C011A012B0139010E948C
:102EB000590E4B015C0187010D5B1F4FC8010E9439
:102EC0007E0B18161906A4F00E94590EDC01CB01E6
:102ED00088199909AA09BB09281639064A065B060A
:102EE000D8F062E370E080E090E00E941F0EE6CF31
:102EF00042E250E0BE016F5F7F4FC8010E94360B77
:102F00008981823011F080E061C1F801848995895E
:102F100083349105C1F702C08FEF58C16D817E8166
:102F20008F8198850E94A81F4B015C01F30160838B
:102F300071838283938346E050E0B701685F7F4FDF
:102F4000CE014D960E94CA21892BE9F6F7018081B6
:102F50009181A281B38188169906AA06BB0698F2D0
:102F600084819581A681B78188159905AA05BB053D
:102F700050F289899A89AB89BC8986879787A08B0B
:102F8000B18B8EECA82EB12CC8010E94550BF1E03C
:102F9000AF1AB108C9F719A6670182E2C80ED11CA1
:102FA000F701B696FBA7EAA7C7018A969DA78CA74B
:102FB0003C974F0189969FA78EA73897F9ABE8AB4E
:102FC0001701F6E12F0E311CC5979BAB8AABF801B8
:102FD000818D928D181619060CF0F7C0C8010E9459
:102FE000550B8333910509F4CBC0FCF48130910576
:102FF000C9F11CF4892B59F3DCC083309105D1F160
:10300000069709F0D6C0C8010E94550B5C0144E048
:1030100050E06AA97BA9C8010E94360B412C512CB3
:10302000BB24F4E0AF1AB10840C08A33910509F41B
:103030007BC03CF48533910569F0C69709F440C024
:10304000B8C08B33910509F485C08F3F910509F411
:10305000BECFAFC0C8010E94550BC8010E94550BDE
:1030600089A7B5CFC8010E94550B44E050E068A97C
:1030700079A93AC0C8010E94550B5C0144E050E0B8
:10308000B101C8010E94360B412C512CBB2494E0A5
:10309000A91AB1084A145B040CF099CFC8010E9428
:1030A000550BEFEF4E1A5E0AF5CF4A145B040CF095
:1030B0008ECFC8010E94550B8FEF481A580AF5CFE2
:1030C000C8010E94550BB82EF701828D811110C0E6
:1030D000838D81110DC0848D81110AC0858D811170
:1030E00007C044E050E0B401C8010E94360B6FCF26
:1030F000EEA5FFA54080518062807380B401CE01AF
:1031000083960E9435108DA19EA1AFA1B8A584150C
:103110009505A605B70529F3BB2009F458CFC801CA
:103120000E94550BBA94F8CFC8010E94550B44E099
:1031300050E06AA57BA5C8010E94360BF70166A185
:1031400077A180A591A50E94A81F66A377A380A759
:1031500091A73DCFC8010E94550B44E050E06CA5FB
:103160007DA5C8010E94360BF70162A573A584A551
:1031700095A50E94A81F62A773A784A795A727CF2C
:10318000C8010E94550B44E050E0B601C8010E94FE
:10319000360BF70162A173A184A195A10E94A81F1B
:1031A00062A373A384A395A366A777A780AB91AB13
:1031B0000ECFC8010E94550BB82EBB2009F407CFD3
:1031C000C8010E94550BBA94F8CF89A5E3960FB6B3
:1031D000F894DEBF0FBECDBFDF91CF911F910F914D
:1031E000FF90EF90DF90CF90BF90AF909F908F9027
:1031F0007F906F905F904F903F902F9008957F92B7
:103200008F929F92AF92BF92CF92DF92EF92FF92F6
:103210000F931F93CF93DF93CDB7DEB7A6970FB66B
:10322000F894DEBF0FBECDBF8C01762E942E852E76
:1032300020E2B22ECE0101967C01FC012B2D1192D1
:103240002A95E9F78CE593E09AA389A38FEF8BA3E6
:103250008CA38DA38EA3680183E4C80ED11C43E424
:1032600050E0BE016F5D7F4FC6010E94D7130196EB
:1032700009F4BFC081E089838A8386E0A82EAB82EF
:103280001C82F80164817581868197810E94A81F44
:103290006D837E838F83988789869A8680E890E005
:1032A0009C878B874CE150E0B701C6010E94490A18
:1032B000F7012B2D11922A95E9F7480188E0880E35
:1032C000911CF401D70101900D92AA94E1F740E11D
:1032D00050E0B701C6010E94490AF7011192BA9461
:1032E000E9F796E0A92EB12C40E250E0B701C60103
:1032F0000E94490AF1E0AF1AB108B1F783E6898369
:1033000092E89A8393E59B838C8385E38D8381E0A8
:103310008E837F829DE3988797E099878A8786E0EE
:10332000F401DE011B9601900D928A95E1F78CE085
:10333000898B8A8B6DE074E0CE0143960E94E02178
:10334000F8014385BE01675E7F4FC8010E94A91442
:10335000F8014485BE01655E7F4FC8010E94A91433
:10336000F8014585BE01635E7F4FC8010E94A91424
:103370004EE150E0B701C6010E94490AF3E07F1216
:103380001EC082E3898384E08A83F80196859B834B
:1033900097859C8390899D8391899E8396E39F83E3
:1033A0008887828D8987838D8A87848D8B87858D99
:1033B0008C874CE050E0B701C6010E94490A87E3C0
:1033C000898386E08A8391E09B8393E09C838D834D
:1033D0008FE08E838AE38F838BE388878FEF8987E3
:1033E00049E050E0B701C6010E94490AC6010E94A7
:1033F000110AA6960FB6F894DEBF0FBECDBFDF91BF
:10340000CF911F910F91FF90EF90DF90CF90BF90E1
:10341000AF909F908F907F900895362F90E0FC01A1
:10342000EC57FD4F4491FC01EC5BFC4F2491FC01F7
:10343000E250FD4F9491992309F46BC0442309F4A1
:1034400055C050E0FA013197E231F10508F04EC065
:103450008827EE58FF4F8F4F0C94A01F809180005B
:103460008F7707C0809180008F7D03C0809180009E
:10347000877F809380003AC084B58F7702C084B57F
:103480008F7D84BD33C08091B0008F7703C0809161
:10349000B0008F7D8093B00029C0809190008F771D
:1034A00007C0809190008F7D03C080919000877F3E
:1034B000809390001BC08091A0008F7707C08091FF
:1034C000A0008F7D03C08091A000877F8093A00023
:1034D0000DC0809120018F7707C0809120018F7DE2
:1034E00003C080912001877F80932001E92FF0E0C5
:1034F000EE0FFF1FE653FD4FA591B4918FB7F894DF
:10350000EC91311103C020952E2301C02E2B2C935A
:103510008FBF089590E0FC01EC5BFC4F2491FC010F
:10352000E250FD4F8491882399F090E0880F991F15
:10353000FC01EC51FD4FA591B491FC01E653FD4F08
:10354000859194918FB7F894EC91E22BEC938FBF17
:103550000895CF92DF92EF92FF92CF93DF936C01A9
:10356000990FEE08FF08F7FE1CC0E091B304F0913C
:10357000B4040190F081E02D6DE283EB94E01995A5
:10358000EC0144275527BA014C195D096E097F09E2
:103590002AE083EB94E00E948E0F7C01EC0EFD1E6E
:1035A00008C02AE0B701A60183EB94E00E948E0FC9
:1035B0007C0169EA73E083EB94E00E94790F8E0D41
:1035C0009F1DDF91CF91FF90EF90DF90CF900895F6
:1035D000CF93C82F462F61E070E00E94171361E07F
:1035E00070E08C2F0E9421138111F9CFCF910895A3
:1035F0009F92AF92BF92CF92DF92EF92FF920F9382
:103600001F93CF93DF93982E8B015A01690164E2D7
:1036100070E00E942113E82EF12C65E270E0892D04
:103620000E942113FE2CEE24E82AE701C00FD11FCF
:103630009E013770E92CF12CC701880F991FAC014E
:1036400043565B4F7A01FA0180819181820F931F6B
:10365000A9014C0D5D1D4130584090F000E018E08C
:10366000021B130BA801B5010E94D910A601401B33
:10367000510BB501600F711FF7018081918102C06C
:10368000A601B5010E94D910CC0DDD1D4D2F64E2BD
:1036900070E0892D0E9417134C2F65E270E0892D90
:1036A000DF91CF911F910F91FF90EF90DF90CF901E
:1036B000BF90AF909F900C941713FF920F931F939E
:1036C000CF93DF93F82EC0E0D0E08F2D0E944311FE
:1036D0008C01892B21F08F2D0E944311EC01C01722
:1036E000D10799F7CE01DF91CF911F910F91FF90F4
:1036F00008958F929F92AF92BF92CF92DF92EF92F6
:10370000FF920F931F93CF93DF93B82E4B018A0143
:10371000A22E68E270E00E942113C82FD0E069E277
:1037200070E08B2D0E942113DC2FCC27C82B9E012B
:103730003770CB2CD12CC601880F991FAC014B558B
:103740005B4F6A01FA0180819181820F931FA8016A
:10375000420F531F4130584098F060E078E07B0101
:10376000E21AF30AA701B4010E94A910A8014E1998
:103770005F09B4016E0D7F1DF6018081918102C049
:10378000A801B4010E94A910A1100EC0C00FD11F42
:103790004D2F68E270E08B2D0E9417134C2F69E2C9
:1037A00070E08B2D0E941713DF91CF911F910F9125
:1037B000FF90EF90DF90CF90BF90AF909F908F9051
:1037C000089588E595E00C94FA0ECF93DF93CDB77A
:1037D000DEB7A4970FB6F894DEBF0FBECDBF7894C6
:1037E00084B5826084BD84B5816084BD85B5826006
:1037F00085BD85B5816085BD80916E0081608093B7
:103800006E0010928100809181008260809381001F
:10381000809181008160809381008091800081602F
:10382000809380008091B10084608093B10080918A
:10383000B00081608093B00080919100826080939D
:10384000910080919100816080939100809190001F
:103850008160809390008091A10082608093A1009C
:103860008091A10081608093A1008091A00081607F
:103870008093A0008091210182608093210180913A
:1038800021018160809321018091200181608093DA
:10389000200180917A00846080937A0080917A0080
:1038A000826080937A0080917A00816080937A00B0
:1038B00080917A00806880937A001092C100E09134
:1038C000C304F091C40482E08083E091BF04F091CE
:1038D000C0041082E091C104F091C2048FEC808397
:1038E0001092CB04E091C704F091C80486E0808375
:1038F000E091C504F091C604808180618083E091ED
:10390000C504F091C604808188608083E091C5047D
:10391000F091C604808180688083E091C504F091B5
:10392000C60480818F7D808388E9682E82E0782EAE
:10393000CE0101966C017E0199E1E90EF11C560160
:1039400096E0592E3E2C4F2C2CE5822E22E0922E12
:10395000F301DE015F96852D01900D928A95E1F7C6
:103960008BE090E00E94AF1F8C01FE017F96A32D9B
:10397000B42D852D01900D928A95E1F7D8018D9295
:103980009D92E32DF42D852D01900D928A95E1F7FE
:10399000D80119961C921E9218971A961C921A9783
:1039A00012968C910E948A1AF80184810E948A1AC8
:1039B000D80116968C910E948A1A82E30E948A1A74
:1039C000F501019311935F01F6E06F0E711CAE14C7
:1039D000BF0409F0BDCF81E090E00E94AF1F5C0101
:1039E00090938904809388048DE190E00E94AF1F3A
:1039F0008C0184E792E0D80111969C938E935A969D
:103A00001C925A975C96BC92AE925B97F8013296E4
:103A1000D6018D919D916D0181939193AE15BF0556
:103A2000B9F782E30E948A1A1093870400938604F0
:103A300018A21F8E1AA219A21CA21BA260915805DF
:103A4000709159056115710541F040915C055091E7
:103A50005D05CE014F960E94BA0E81E09AE00E9469
:103A6000AF1F8C01AE01415E5F4F60E072E00E94CB
:103A7000AD0910938B0400938A04CE014F960E94E7
:103A8000FA0E85E090E00E94AF1F8C018AE892E078
:103A9000F8019183808313821282148210937E0432
:103AA00000937D04F89484B7877F84BF83B78460D4
:103AB00083BF88E18093600081E680936000789402
:103AC000109385040093840486E090E00E94AF1F69
:103AD000DC0112961D921D921D921C9215979093D7
:103AE00083048093820488E090E00E94AF1FFC0171
:103AF00080918A0490918B042091860430918704F0
:103B000011821082338322839583848317830683F3
:103B1000F0938104E093800410927F0480918A04E2
:103B200090918B04DC01ED91FC910688F789E02DE2
:103B3000199569ED73E083EB94E00E942110809168
:103B40008A0490918B04DC01ED91FC910288F38949
:103B5000E02D1995882331F069EE73E083EB94E052
:103B60000E94211080918A0490918B04DC01ED91D8
:103B7000FC910680F781E02D1995F62E072F182F5E
:103B800061E074E083EB94E00E94790F4F2D50E0E8
:103B900060E070E02AE083EB94E00E948E0F6BE01F
:103BA00074E083EB94E00E94790F402F50E060E0D6
:103BB00070E02AE083EB94E00E948E0F6BE074E0EB
:103BC00083EB94E00E94790F412F50E060E070E0B9
:103BD0002AE083EB94E00E948E0F69EA73E083EBA6
:103BE00094E00E94790F80918A0490918B04DC010B
:103BF000ED91FC910484F585E02D19958C017C01F3
:103C0000B8E1EB0EF11CF801819191918F010E94B6
:103C1000A91A0E151F05B9F760E472E48FE090E071
:103C20000E941F0E0E94E40D79CFEDEAF4E08CE5CE
:103C300093E0918380831282138214821582E4E6DA
:103C4000F5E0918380831282138214821582EAE662
:103C5000F5E0918380831282138214821582E3EB54
:103C6000F4E01382128248EE53E060E070E0448397
:103C70005583668377832EE233E03183208325ECFE
:103C800030E03587248724EC30E03787268720EC26
:103C900030E0318B208B21EC30E0338B228B22EC17
:103CA00030E0358B248B26EC30E0378B268B118E61
:103CB000128E138E148EE0E7F5E0918380831282DA
:103CC000138214821582E6E7F5E0918380831282E5
:103CD000138214821582ECE7F5E0918380831282CF
:103CE000138214821582E0E5F5E0918380831282CD
:103CF000138214821582E2E8F5E0918380831282B8
:103D0000138214821582EEE5F5E09183808312829E
:103D100013821482158269E773E088E595E00C94BC
:103D2000FF0E8F929F92AF92BF92CF92DF92EF924F
:103D3000FF92CF93DF93EC01688179818A819B8127
:103D4000611571058105910521F464E279ED8BE53A
:103D500097E02DE133EF41E050E00E943D1F490123
:103D60005A019B01AC01A7EAB1E40E945C1F6B0100
:103D70007C01ACEEB4EFA50194010E946A1FDC0146
:103D8000CB018C0D9D1DAE1DBF1DB7FF03C001975C
:103D9000A109B04888839983AA83BB83BC01CD0164
:103DA0009F77DF91CF91FF90EF90DF90CF90BF9002
:103DB000AF909F908F9008950C94911E88E092E0B0
:103DC0000C94911E609308027093090280930A027A
:103DD00090930B0208951F93FC0199278827BC013B
:103DE000E89411911032E9F3193010F01E30C8F345
:103DF0001B3251F01D3249F4689406C00E94121F14
:103E0000610F711D811D911D119110531A30B0F376
:103E10003EF490958095709561957F4F8F4F9F4FA1
:103E20001F910895592F482F372F262F660F771F80
:103E3000881F991F660F771F881F991F620F731FB6
:103E4000841F951F660F771F881F991F0895F99982
:103E5000FECF92BD81BDF89A992780B50895262F8F
:103E6000F999FECF1FBA92BD81BD20BD0FB6F8945F
:103E7000FA9AF99A0FBE01960895052E97FB1EF443
:103E800000940E94541F57FD07D00E946F1F07FC2B
:103E900003D04EF40C94541F5095409530952195C5
:103EA0003F4F4F4F5F4F0895909580957095619566
:103EB0007F4F8F4F9F4F08950E94911FA59F900D98
:103EC000B49F900DA49F800D911D11240895B7FFFC
:103ED0000C945C1F0E945C1F821B930B0895A1E24F
:103EE0001A2EAA1BBB1BFD010DC0AA1FBB1FEE1F74
:103EF000FF1FA217B307E407F50720F0A21BB30BBF
:103F0000E40BF50B661F771F881F991F1A9469F73A
:103F100060957095809590959B01AC01BD01CF0196
:103F20000895A29FB001B39FC001A39F700D811D92
:103F30001124911DB29F700D811D1124911D0895B2
:103F4000EE0FFF1F881F8BBF0790F691E02D19948D
:103F50006927962769277827872778270895CF9399
:103F6000DF938230910510F482E090E0E0918A05C1
:103F7000F0918B0520E030E0C0E0D0E0309711F107
:103F80004081518148175907C0F04817590761F41B
:103F900082819381209719F09B838A832BC0909311
:103FA0008B0580938A0526C02115310519F042172B
:103FB000530718F49A01BE01DF01EF010280F3817B
:103FC000E02DDCCF2115310509F1281B390B2430F8
:103FD000310590F412968D919C911397611571059E
:103FE00021F0FB019383828304C090938B0580931F
:103FF0008A05FD01329644C0FD01E20FF31F819353
:104000009193225031092D933C933AC02091880519
:1040100030918905232B41F420910E0230910F023B
:10402000309389052093880520910C0230910D0270
:104030002115310541F42DB73EB740911002509142
:104040001102241B350BE0918805F0918905E217D8
:10405000F307A0F42E1B3F0B2817390778F0AC01AB
:104060004E5F5F4F2417350748F04E0F5F1F509388
:104070008905409388058193919302C0E0E0F0E0C8
:10408000CF01DF91CF9108950F931F93CF93DF93CB
:10409000009709F48CC0FC013297138212820091C0
:1040A0008A0510918B050115110581F4208131815C
:1040B000820F931F209188053091890528173907B1
:1040C00079F5F0938905E093880571C0D80140E047
:1040D00050E0AE17BF0750F412962D913C91139704
:1040E000AD012115310509F1D901F3CF9D01DA01A7
:1040F0003383228360817181860F971F8217930714
:1041000069F4EC0128813981260F371F2E5F3F4F5C
:10411000318320838A819B8193838283452B29F479
:10412000F0938B05E0938A0542C01396FC93EE93BF
:104130001297ED01499159919E01240F351FE21705
:10414000F30771F480819181840F951F0296119677
:104150009C938E938281938113969C938E93129756
:10416000E0E0F0E0D80112968D919C9113970097B2
:1041700019F0F8018C01F6CF8D919C9198012E5F7A
:104180003F4F820F931F2091880530918905281792
:10419000390769F4309729F410928B0510928A053B
:1041A00002C0138212821093890500938805DF9163
:1041B000CF911F910F9108956F927F928F929F924E
:1041C000AF92BF92CF92DF92EF92FF920F931F9325
:1041D000CF93DF93EC01009789F4CB01DF91CF916E
:1041E0001F910F91FF90EF90DF90CF90BF90AF9015
:1041F0009F908F907F906F900C94AF1FFC01E60F03
:10420000F71F9C0122503109E217F30708F4ACC0F4
:10421000D9010D911C91119706171707B0F00530C1
:10422000110508F49FC0C80104978617970708F482
:1042300099C002501109061B170B019311936D933E
:104240007C93CF010E9444208DC05B01A01AB10A6B
:104250004C01800E911EA0918A05B0918B0540E023
:1042600050E0E12CF12C109709F44AC0A815B905CB
:10427000D1F56D907C901197630182E0C80ED11C3E
:10428000CA14DB0480F1A3014A195B096A0182E0C8
:10429000C80ED11C1296BC9012971396AC91B5E043
:1042A000CB16D10440F0B282A38351834083D9015D
:1042B0006D937C930AC00E5F1F4FC301800F911F47
:1042C000F90191838083EB2DFA2FE114F10431F091
:1042D000D7011396FC93EE93129744C0F0938B058D
:1042E000E0938A053FC08D919C911197481759071B
:1042F00008F4AC017D0112960D90BC91A02DB3CFB6
:10430000809188059091890588159905E1F44617F3
:104310005707C8F480910C0290910D02009741F468
:104320008DB79EB74091100250911102841B950BDE
:10433000E817F907C8F4F0938905E0938805F901B7
:10434000718360830FC0CB010E94AF1F7C01009777
:1043500059F0A801BE010E94D721CE010E9444203D
:10436000C70104C0CE0102C080E090E0DF91CF9190
:104370001F910F91FF90EF90DF90CF90BF90AF9083
:104380009F908F907F906F90089581E090E0F894D7
:104390000C94CD24FB01DC0104C08D9101908019A7
:1043A00021F441505040C8F7881B990B0895FB0138
:1043B000DC0102C001900D9241505040D8F70895A1
:1043C000FB01DC0101900D920020E1F70895FB0153
:1043D000DC014150504048F001900D920020C9F797
:1043E00001C01D9241505040E0F708950F931F9374
:1043F000CF93DF93CDB7DEB72E970FB6F894DEBF1D
:104400000FBECDBF0E891F8986E08C831A83098376
:104410008FEF9FE79E838D83AE01465E5F4F688D71
:10442000798DCE0101960E9426222F813885F801D0
:10443000E20FF31F10822E960FB6F894DEBF0FBE68
:10444000CDBFDF91CF911F910F9108952F923F9291
:104450004F925F926F927F928F929F92AF92BF9294
:10446000CF92DF92EF92FF920F931F93CF93DF9340
:10447000CDB7DEB72C970FB6F894DEBF0FBECDBF19
:104480007C016B018A01FC0117821682838181FF06
:10449000BDC1CE0101964C01F7019381F60193FD58
:1044A000859193FF81916F01882309F4ABC1853217
:1044B00039F493FD859193FF81916F01853229F441
:1044C000B70190E00E943724E7CF512C312C20E037
:1044D0002032A0F48B3269F030F4803259F083320C
:1044E00069F420612CC08D3239F0803339F42160B9
:1044F00026C02260246023C0286021C027FD27C079
:1045000030ED380F3A3078F426FF06C0FAE05F9EAF
:10451000300D1124532E13C08AE0389E300D112423
:10452000332E20620CC08E3221F426FD6BC1206434
:1045300006C08C3611F4206802C0883641F4F601BA
:1045400093FD859193FF81916F018111C1CF982FC8
:104550009F7D9554933028F40C5F1F4FFFE3F98340
:104560000DC0833631F0833771F0833509F05BC0BD
:1045700022C0F801808189830E5F1F4F4424439439
:10458000512C540115C03801F2E06F0E711CF80176
:10459000A080B18026FF03C0652D70E002C06FEFE0
:1045A0007FEFC5012C870E942C242C0183012C85D0
:1045B0002F77222E17C03801F2E06F0E711CF80120
:1045C000A080B18026FF03C0652D70E002C06FEFB0
:1045D0007FEFC5012C870E9421242C012C852068A7
:1045E000222E830123FC1BC0832D90E04816590620
:1045F000B0F4B70180E290E00E9437243A94F4CFFF
:10460000F50127FC859127FE81915F01B70190E0BC
:104610000E94372431103A94F1E04F1A51084114A6
:10462000510471F7E5C0843611F0893639F5F80187
:1046300027FF07C060817181828193810C5F1F4FCA
:1046400008C060817181072E000C880B990B0E5FEA
:104650001F4F2F76722E97FF09C090958095709509
:1046600061957F4F8F4F9F4F2068722E2AE030E078
:10467000A4010E946F24A82EA81844C0853729F4ED
:104680002F7EB22E2AE030E025C0F22FF97FBF2E18
:104690008F36C1F018F4883579F0B4C0803719F03E
:1046A000883721F0AFC02F2F2061B22EB4FE0DC08D
:1046B0008B2D8460B82E09C024FF0AC09F2F9660FE
:1046C000B92E06C028E030E005C020E130E002C08D
:1046D00020E132E0F801B7FE07C06081718182817C
:1046E00093810C5F1F4F06C06081718180E090E074
:1046F0000E5F1F4FA4010E946F24A82EA818FB2D47
:10470000FF777F2E76FE0BC0372D3E7FA51450F429
:1047100074FE0AC072FC08C0372D3E7E05C0BA2C5C
:10472000372D03C0BA2C01C0B52C34FF0DC0FE01DB
:10473000EA0DF11D8081803311F4397E09C032FF0A
:1047400006C0B394B39404C0832F867809F0B39461
:1047500033FD13C030FF06C05A2CB31418F4530CA9
:104760005B18B32CB31468F4B70180E290E03C8787
:104770000E943724B3943C85F5CFB31410F43B1852
:1047800001C0312C34FF12C0B70180E390E03C87B8
:104790000E9437243C8532FF17C031FD03C088E7F3
:1047A00090E002C088E590E0B7010CC0832F8678C6
:1047B00059F031FF02C08BE201C080E237FD8DE28B
:1047C000B70190E00E943724A51438F4B70180E3C4
:1047D00090E00E9437245A94F7CFAA94F401EA0D8E
:1047E000F11D8081B70190E00E943724A110F5CF20
:1047F000332009F451CEB70180E290E00E943724C3
:104800003A94F6CFF7018681978102C08FEF9FEF30
:104810002C960FB6F894DEBF0FBECDBFDF91CF91BF
:104820001F910F91FF90EF90DF90CF90BF90AF90CE
:104830009F908F907F906F905F904F903F902F90C0
:104840000895FC010590615070400110D8F78095E3
:1048500090958E0F9F1F0895FC016150704001904C
:104860000110D8F7809590958E0F9F1F08950F9394
:104870001F93CF93DF93FB01238121FD03C08FEFB3
:104880009FEF28C022FF16C04681578124813581C1
:104890004217530744F4A081B1819D012F5F3F4F20
:1048A000318320838C93268137812F5F3F4F37835D
:1048B000268310C0EB01092F182F0084F185E02D0D
:1048C0001995892BE1F68E819F8101969F838E83B6
:1048D000812F902FDF91CF911F910F910895FA01B1
:1048E000AA27283051F1203181F1E8946F936E7F2F
:1048F0006E5F7F4F8F4F9F4FAF4FB1E03ED0B4E020
:104900003CD0670F781F891F9A1FA11D680F791F60
:104910008A1F911DA11D6A0F711D811D911DA11D71
:1049200020D009F468943F912AE0269F1124301981
:10493000305D3193DEF6CF010895462F4770405D1C
:104940004193B3E00FD0C9F7F6CF462F4F70405DCB
:104950004A3318F0495D31FD4052419302D0A9F726
:10496000EACFB4E0A6959795879577956795BA9520
:10497000C9F700976105710508959B01AC010A2EE6
:1049800006945795479537952795BA95C9F7620FBD
:10499000731F841F951FA01D089511E0C6ECD1E080
:1049A00000E006C0802FFE010E94A01F2196011D7D
:0E49B000C73CD10780E00807A9F7F894FFCFB5
:1049BE0090A2DA0D1A6A00C00100000000008C05FA
:1049CE008000000000008E1147130E13F412CD125A
:1049DE008D1117140303F01285123412851106027D
:1049EE0004027A11FA01000000006B026A026702EB
:1049FE0062025E0256025402FA0251024E02430253
:104A0E00180501005E00000000000000AC09C003A4
:104A1E007F03760300000000000000001D0E1D0E37
:104A2E0000000000F802C302C604A40281047C0246
:104A3E0079026F026C02000000003B0226021C028B
:104A4E0018021402110209021E001D001C0018009B
:104A5E001700160002000300040002000300040009
:104A6E000200030004000200030004000200030021
:104A7E000400020003000400020003000400020010
:104A8E0003000400020003000400020003000400FF
:104A9E00000000001D0E1D0E1D0E1D0E1D0E1D0E06
:104AAE001D0E1D0E1D0E1D0E1D0E1D0E1D0E1D0EA0
:104ABE001D0E1D0E00000000FB09490A5B11550B6F
:104ACE00A80AFA0958121712D713A411110A7E0B4D
:104ADE00360B731163115F11300C000000007B0D5B
:104AEE00E40C130DC20D440D220D360D0000000016
:104AFE001D0EE40C1D0E1D0E1D0E1D0E00000000E1
:104B0E001D0EE40C100D0F0D00000000D70F00005D
:104B1E0000001D0E474554202F20485454502F316D
:104B2E002E3100486F73743A20766972747565750C
:104B3E00736167652E617A757265776562736974E4
:104B4E0065732E6E657400436F6E6E656374696F68
:104B5E006E3A20636C6F7365000D0A003C737061D2
:104B6E006E2069643D2263746C30315F4C5F256446
:104B7E00223E003C7370616E2069643D2263746C4A
:104B8E0030315F4C5F30223E0045746865726E6551
:104B9E007420496E666F3A20004661696C65642028
:104BAE00746F20726574726569766520696E666FC2
:104BBE00006C6F63616C74696D65003A0057495AF9
:044BCE006E6574009C
:00000001FF
