:100000000C94C9010C94FA010C94FA010C94FA01B5
:100010000C94FA010C94FA010C94FA010C94FA0174
:100020000C94FA010C94FA010C94FA010C94FA0164
:100030000C94E0170C94FA010C94FA010C94FA0158
:100040000C94FA010C94FA010C94FA010C94FA0144
:100050000C94FA010C94FA010C94FA010C943F1AD6
:100060000C94FA010C94D00A0C94A60A0C94FA0190
:100070000C94FA010C94FA010C94FA010C94FA0114
:100080000C94FA010C94FA010C94FA010C94FA0104
:100090000C94FA010C94FA010C94FA010C94FA01F4
:1000A0000C94FA010C94FA010C94FA010C94FA01E4
:1000B0000C94FA010C94FA010C94FA010C94FA01D4
:1000C0000C94FA010C94FA010C94FA010C94FA01C4
:1000D0000C94FA010C94FA010C94FA010C94FA01B4
:1000E0000C94FA01AB19AE199D19A119A519E519BE
:1000F000B219B619BC19C019C419CA19CE19D21926
:10010000E519D819DC19E0190C94A5190C945809B3
:100110000C94D5130C941C160C94B2190C9448141E
:100120000C945D140C94E41B0C94FF010C947C0A59
:100130000C948E080C9439160C94E0190C94CB0B8B
:100140000C94D5080C94D9020C94A1190C94FF15A9
:100150000C942D020C94AB190C94E4120C942615FB
:100160000C94E5190C94310A0C94A2020C94C41955
:100170000C9411030C9423090C9443180C94D60985
:100180000C94E81B0C94DC160C940E160C941713AC
:100190000C948F090C94590C0C941C020C941302AF
:1001A0000C9407160C9420020C9427090C94DC196B
:1001B0000C94BC190C94CA190C9483020C94D81991
:1001C0000C940F020C94E8120C9440130C942A0225
:1001D0000C94C0190C9407020C9405020C94FA15A7
:1001E0000C94DA150C941D020C94FC120C94240946
:1001F0000C94D2030C9436090C94FC010C94B6199F
:100200000C944A090C945C160C941B020C94AE19C5
:100210000C94EC120C9492150C9453160C94DD145F
:100220000C9418020C9412160C94CE120C949D137C
:100230000C94CE190C940A160C94D10C0C94CF1675
:100240000C946E150C940E130C949D190C94320A98
:100250000C9416130C9455020C94D2190C9403139D
:100260000C9450170C94F0150C9429040C948A14D7
:100270000C94D7020C94FC150C9431160C94441376
:100280000C94E2020C9402020000220025002800D7
:100290002B002E003100340002010000050108018E
:1002A0000B0100002100240027002A002D0030004F
:1002B000330001010000040107010A0105050505DD
:1002C000070508080808020202020A0A08080404CE
:1002D00004040101010101010101030303030303FC
:1002E0000303040707070C0C0C0C0C0C0C0C02028B
:1002F000020206060606060606060B0B0B0B0B0B88
:100300000B0B010210202008081020401020408014
:1003100002010201080402010102040810204080C9
:100320008040201008040201800402018040201057
:1003300008040201080402010102040810204080A0
:10034000010204081020408000000A0B02090C0D75
:100350000E08070304010000000000000000000078
:10036000000000000000000000000000000000008D
:10037000000000001211100000000000000000004A
:100380000000000000000000000000000000E81B6A
:10039000E41B11241FBECFEFD1E2DEBFCDBF00E0D2
:1003A0000CBF14E0A0E0B2E0E2E6FCE400E00BBF2A
:1003B00002C007900D92A631B107D9F725E0A6E15A
:1003C000B4E001C01D92AE38B207E1F711E0C8EC0D
:1003D000D1E000E006C021970109802FFE010E94B4
:1003E000E920C73CD10780E00807A9F70E94641CF8
:1003F0000C941F260C940000FC0183A10895FC01BD
:1004000083810895FC01828108950B960895FC0173
:100410002481822F90E02C3008F00C970895FC0185
:10042000878190850895FC01648175818681089596
:10043000FC0163A3089508950895FC01628F089557
:100440006F5F7F4F660F771F860F971FFC018081BC
:1004500091810895FC01828D0895CF92DF92EF92F1
:10046000FF920F931F93CF93DF937C016A018B015F
:10047000C0E0D0E0CC15DD057CF4D8016D917D9114
:100480008D01D701ED91FC910084F185E02DAE0145
:10049000C70119952196EECFDF91CF911F910F9152
:1004A000FF90EF90DF90CF900895EF92FF920F931F
:1004B0001F93CF93DF93EC018A01E881F9810190CA
:1004C000F081E02D19957C01000F111FC00FD11F85
:1004D0008A819B81DC01ED91FC910680F781E02D02
:1004E00060E070E019958A819B81DC01ED91FC91BF
:1004F0000480F581E02DB701DF91CF911F910F911D
:10050000FF90EF901994EF92FF920F931F93CF9368
:10051000DF938C017B01C0E0D0E0CE15DF055CF4F9
:10052000D801ED91FC910480F581E02DBE01C80158
:1005300019952196F2CFDF91CF911F910F91FF90E6
:10054000EF900895AF92BF92CF92DF92EF92FF9219
:100550000F931F93CF93DF9361157105E9F0121686
:100560001306D4F479016C01EB018A01A12CB12CA2
:1005700069917991D601ED91FC910190F081E02D86
:10058000C6011995F801819391938F01FFEFAF1A7E
:10059000BF0AAE14BF0461F7DF91CF911F910F9195
:1005A000FF90EF90DF90CF90BF90AF900895CB0178
:1005B0000895C0960E946E1591E0811101C090E0EF
:1005C000892F0895CF92DF92EF92FF920F931F939E
:1005D000CF93DF93EC017B0160E08E810E947C1958
:1005E00000E010E08FE0C82ED12C61E00E151F0551
:1005F0006CF48C810E947C19C6010197F1F760E0D0
:100600008C810E947C190F5F1F4FEFCF8E81DF918D
:10061000CF911F910F91FF90EF90DF90CF900C94AE
:100620007C190C948D214F925F927F928F929F92B2
:10063000AF92BF92CF92DF92EF92FF920F931F93F0
:10064000CF93DF9300D000D0CDB7DEB78C01CB01C4
:100650008DB69EB6690161E0C61AD108E0E0F0E00F
:1006600060E070E0A1EDB7E05D01A21AB30AEA15FF
:10067000FB050CF05EC0DC01AE0FBF1FDD963C91A8
:10068000DA01A60FB71F2C9132134DC06F5F7F4F59
:100690006C157D0509F04BC09F012F5F3F4FB901DD
:1006A000412C512C603DA7E07A074CF57201EE0E0B
:1006B000FF1EE80EF91ED701DE967C90D20111963E
:1006C0007D01BCE37B1217C0CDB6DEB6EDB7FEB739
:1006D000EE19FF090FB6F894FEBF0FBEEDBF6DB760
:1006E0007EB76F5F7F4F235C3F4F820F931FFB01ED
:1006F000460E571E06C027016F5F7F4FD3CFB6014E
:1007000016C0E415F50529F0DC012D91CD012193EA
:10071000F8CF1082C8010E94F81A0FB6F894DEBE16
:100720000FBECDBE23C0E61BF70B60E070E0319634
:100730009ECF6FEA73E0CE0101960E94F81A89817C
:100740009A81F801918380838B819C81938382833A
:100750008D819E81958384831A8219821C821B82DB
:100760001E821D82CE0101960E94F31AC8010FB6A7
:10077000F8949EBE0FBE8DBE26960FB6F894DEBFCF
:100780000FBECDBFDF91CF911F910F91FF90EF90E2
:10079000DF90CF90BF90AF909F908F907F905F90B1
:1007A0004F9008950F931F93CF93DF93CDB7DEB78C
:1007B000AB970FB6F894DEBF0FBECDBF8C0185E2BC
:1007C000E8E6F3E0DE01119601900D928A95E1F7DB
:1007D00025E230E0AE014F5F5F4FB801CE01869653
:1007E0000E9413036FEA73E0CE0186960E94941A6A
:1007F00081111BC064EA73E0CE0186960E94941AB0
:10080000882321F081E0F80183A30AC066E673E043
:10081000CE0186960E94941A882311F0F80113A243
:1008200081E0F801828311E004C081E0F801838354
:1008300010E0CE0186960E94F31A812FAB960FB678
:10084000F894DEBF0FBECDBFDF91CF911F910F9106
:1008500008952F923F924F925F926F927F928F9264
:100860009F92AF92BF92CF92DF92EF92FF920F933F
:100870001F93CF93DF93CDB7DEB7A6970FB6F8944B
:10088000DEBF0FBECDBF7C012DB73EB73CA32BA36F
:100890006C0134E2C30ED11C8091750481112AC011
:1008A00010925D0410925C0488EE93E0A0E0B0E04A
:1008B00080935E0490935F04A0936004B0936104FE
:1008C0008CEB92E090935B0480935A048CE892E066
:1008D000909369048093680410926A0410926B04E8
:1008E00010926C0410926D0484E08093720481E095
:1008F0008093750487E194E09093330580933205EB
:100900006CE271E080E090E00E94F9191FB7F89462
:1009100080911604811124C0E1EFF2E08491E7E3B5
:10092000F3E0249190E0880F991F8E559D4FFC01B4
:10093000A591B491EC91E22321F461E085E30E945A
:100940007C1985E30E94600D8CB580618CBD8CB5EF
:1009500080648CBD84E30E94600D83E30E94600D7F
:10096000809116048F5F809316041FBF249A80E540
:1009700090E00E94D91660E880E090E00E94880B29
:1009800065E58BE190E00E94880B65E58AE190E0E7
:100990000E94880B0E94D81680E090E49093800417
:1009A00080937F0480E090E690938804809387048E
:1009B00080E098E4909382048093810480E098E63C
:1009C00090938A048093890480E090E59093840456
:1009D0008093830480E090E790938C0480938B0451
:1009E00080E098E5909386048093850480E098E702
:1009F00090938E0480938D0480E590E00E94D91638
:100A000046E050E0B60189E090E00E94590B8CE886
:100A100092E09A8389831B821C821D821E8244E09D
:100A200050E0BE016D5F7F4F8FE090E00E94590B58
:100A30000E94D8160091320510913305D801929684
:100A40001D921D921D921C929597F80116A217A255
:100A500010A611A69A961D921D921D921C929D970A
:100A600080E69AEEA0E0B0E086AB97ABA0AFB1AF66
:100A700080EA9FE0A0E0B0E082AF93AFA4AFB5AF53
:100A8000D801189686E0FD01282F11922A95E9F7E2
:100A90009801225F3F4F94E1F90111929A95E9F78D
:100AA000F60101900D928A95E1F74801F2E48F0E6C
:100AB000911CD4011C920E9435202FEC37E040E0BD
:100AC00050E00E948620DC01CB010196A11DB11DE2
:100AD000F80184839583A683B78380839183A2835F
:100AE000B3835801F3E4AF0EB11CC5010E94481452
:100AF00064E470E0C5010E945D14882309F4DDC23E
:100B00000E94331A2B013C01212C312CD12C42E0C4
:100B1000C42ED4018C91833009F405C1811121C008
:100B2000F80184819581A681B7810196A11DB11D2F
:100B300084839583A683B7830E94331A6419750949
:100B40008609970928EE33E040E050E00E94B82083
:100B5000A90161E0C8010E946E1881E0D4018C9364
:100B6000C4C0843001F5F80184819581A681B781E4
:100B70000196A11DB11D84839583A683B7830E942E
:100B8000331A641975098609970928EE33E040E0A5
:100B900050E00E94B820A90163E0C8010E946E18CD
:100BA000D401CC92A2C0813061F5F80142AD53ADC1
:100BB00064AD75AD9E012F5F3F4FC8010E940811C3
:100BC000D82EF2E08F1391C089819A81AB81BC81CC
:100BD000F80184839583A683B7830E94331A64192E
:100BE00075098609970928EE33E040E050E00E943D
:100BF000B820A90163E0C8010E946E18D401DC92FC
:100C00007AC0823009F071C0F80142AD53AD64ADD5
:100C100075AD9E012F5F3F4FC8010E940811D82E6D
:100C2000F5E08F135CC0E3E0D401EC93F80182A1FE
:100C300093A1A4A1B5A1892B8A2B8B2B41F484E825
:100C400093E0A0E0B0E082A393A3A4A3B5A3F8012E
:100C500086A197A1A0A5B1A5892B8A2B8B2B61F426
:100C600082A193A1A4A1B5A1B695A79597958795C3
:100C700086A397A3A0A7B1A7F80182A593A5A4A5D1
:100C8000B5A5892B8A2B8B2BA9F482A193A1A4A1B2
:100C9000B5A1AC01BD0123E07695679557954795C1
:100CA0002A95D1F7841B950BA60BB70B82A793A7A8
:100CB000A4A7B5A7F80186A197A1A0A5B1A586A76D
:100CC00097A7A0ABB1AB82A593A5A4A5B5A582AB10
:100CD00093ABA4ABB5AB22242394312C0CC0F6E02B
:100CE0008F1303C0D4011C9206C0BFEFDB1203C0F8
:100CF000F4011082D12CF1E02F16310409F409CF50
:100D00000E94331ADC01CB0184199509A609B709A1
:100D1000F80126A937A940AD51AD281739074A0770
:100D20005B0708F0F6CEC5010E944814F8018481E3
:100D30009581A681B7810196A11DB11D84839583FC
:100D4000A683B7830E94331AF801FE9660837183ED
:100D5000828393832A94232809F0AFC180E590E031
:100D60000E94D9166091320570913305625F7F4F02
:100D7000CE0101960E94960A44E050E0BE016D5FEC
:100D80007F4F8FE090E00E94590B60913205709187
:100D900033056A5E7F4FCE0101960E94960A44E0B9
:100DA00050E0BE016D5F7F4F81E090E00E94590BE3
:100DB00060913205709133056E5E7F4FCE010196D2
:100DC0000E94960A44E050E0BE016D5F7F4F85E0CF
:100DD00090E00E94590B0E94D816609132057091E4
:100DE0003305625E7F4FCE0101960E94960A8B8189
:100DF0009C81AD81BE8180932E0590932F05A09399
:100E00003005B0933105D70118961C921E921797A2
:100E1000CDB6DEB69E960D911C919F97C8010196A6
:100E2000EDB7FEB7E81BF90B0FB6F894FEBF0FBE87
:100E3000EDBF2DB73EB72F5F3F4F5901892BA1F072
:100E40002115310589F00115110519F4D9011C92FC
:100E50000BC0F70162A573A5A801C9010E9439233F
:100E6000F501E00FF11F10828701005D1F4F40E583
:100E700050E0B501C8010E945C16019769F56DE864
:100E800073E08FE894E00E94D01B67E973E0C8012B
:100E90000E94D01B66EA73E0C8010E94721BD70152
:100EA0009E964D915C919F979A966D917C919B97A0
:100EB000C8010E94DC166DEA73E0C8010E94721B33
:100EC00060EB73E0C8010E94D01B6DEA73E0C801BB
:100ED0000E94721B81E001C080E00FB6F894DEBE74
:100EE0000FBECDBE882309F4E4C06701BDE3CB0E7D
:100EF000D11CC8010E945316892B41F0C8010E94E1
:100F00003916F60181936F011082F3CFD701ED916D
:100F1000FC91008CF18DE02DC7011995882309F40F
:100F2000C8C0F70183A1882309F4C3C05701FBE0BF
:100F3000AF0EB11C01E010E082EC882E83E0982E09
:100F4000CDB6DEB60A3011051CF027E130E002C054
:100F500026E130E08DB79EB7821B930B0FB6F89455
:100F60009EBF0FBE8DBFADB7BEB711963D011F939B
:100F70000F939F928F927F92AF932DA33EA30E94D7
:100F800048232DA13EA1A301B701CE0101960E94E5
:100F900013036FEA73E0CE0101960E94941A0F903A
:100FA0000F900F900F900F900F90811118C0CE01ED
:100FB00001960E94891AF501619371935F01CE0138
:100FC00001960E94F31A0FB6F894DEBE0FBECDBE96
:100FD0000F5F1F4F0D30110509F0B2CF0AC0CE01CF
:100FE00001960E94F31A0FB6F894DEBE0FBECDBE76
:100FF00060C086E1E9EDF3E0DE01119601900D920B
:101000008A95E1F726E130E0AE014F5F5F4FB7010F
:10101000CE014D960E9413036FEA73E0CE014D9608
:101020000E94941A811141C022E030E040E050E07B
:10103000BE01635E7F4FCE0147960E940D1BCE011D
:1010400047960E94891AD70114966C93CE01479651
:101050000E94F31A25E030E043E050E0BE01635EF9
:101060007F4FCE0147960E940D1BCE0147960E94EE
:10107000891AF7016583CE0147960E94F31A28E08A
:1010800030E046E050E0BE01635E7F4FCE01479600
:101090000E940D1BCE0147960E94891AD701169611
:1010A0006C93CE0147960E94F31ACE014D960E9492
:1010B000F31A81E0F701838311C0F70187819085DE
:1010C0000196908787830A9749F481E0D7011396A8
:1010D0008C93139718961C921E9217972BA13CA1E4
:1010E0000FB6F8943EBF0FBE2DBFA6960FB6F8946C
:1010F000DEBF0FBECDBFDF91CF911F910F91FF904B
:10110000EF90DF90CF90BF90AF909F908F907F90A7
:101110006F905F904F903F902F900895CF92DF9205
:10112000EF92FF920F931F93CF93DF93EB01CC0FBE
:10113000DD1FC80FD91F0A811B81D8011496CD90DD
:10114000DC901597C6010E947E20B0E88B9F70014D
:101150001124C60101960E947E20E82AF801F1863A
:10116000E0860190F081E02D0680F781E02D61E0BE
:1011700070E0C80119958A819B81DC01ED91FC9199
:10118000119718966D917C9119970480F581E02D47
:101190001995EA81FB811286DF91CF911F910F9102
:1011A000FF90EF90DF90CF90089508950F931F93D5
:1011B000CF93DF93EC018B018AE392E099838883DC
:1011C0001A821B8218861F828FEF9FEF9A8789876A
:1011D0001BA2CE018A961BA61AA61DA61CA61FA698
:1011E0001EA68417950751F0FA016081718161157F
:1011F000710521F0448155810E94B31A1BAA1AAAD5
:1012000088EE93E0A0E0B0E08CAB9DABAEABBFABA3
:1012100086E192E099AB88AB84E08CAFF8018081E5
:101220008CA381818DA382818EA383818FA38481EE
:1012300088A7858189A71C821D821E82DF91CF919C
:101240001F910F910895089580E090E00895FC01AA
:10125000538D448D252F30E0842F90E0821B930B1B
:10126000541710F0CF96089501970895FC01918DC1
:10127000828D981761F0828DDF01A80FB11D5D96F8
:101280008C91928D9F5F9F73928F90E008958FEF66
:101290009FEF0895FC01918D828D981731F0828D1A
:1012A000E80FF11D858D90E008958FEF9FEF089571
:1012B000FC01918D228D892F90E0805C9F4F821BD5
:1012C00091098F73992708958FE894E00E94580937
:1012D00021E0892B09F420E0822F0895FC01848D00
:1012E000DF01A80FB11DA35ABF4F2C91848D90E050
:1012F00001968F739927848FA689B7892C93A0892B
:10130000B1898C9180648C93938D848D981306C0E1
:101310000288F389E02D80818F7D80830895EF928C
:10132000FF920F931F93CF93DF93EC0181E0888F9F
:101330009B8D8C8D981305C0E889F989808185FD86
:1013400024C0F62E0B8D10E00F5F1F4F0F73112777
:10135000E02E8C8DE8120CC00FB607FCFACFE8899E
:10136000F989808185FFF5CFCE010E946E09F1CF0A
:101370008B8DFE01E80FF11DE35AFF4FF0820B8FBA
:10138000EA89FB898081806207C0EE89FF896083DA
:10139000E889F98980818064808381E090E0DF9131
:1013A000CF911F910F91FF90EF900895CF93DF930E
:1013B000EC01888D8823C9F0EA89FB89808185FD4D
:1013C00005C0A889B9898C9186FD0FC00FB607FCAE
:1013D000F5CF808185FFF2CFA889B9898C9185FFEF
:1013E000EDCFCE010E946E09E7CFDF91CF91089536
:1013F00080E090E0892B21F00E946409811125C0D2
:1014000080E090E0892B41F080E090E0892B21F092
:101410000E94000081111CC080E090E0892B41F007
:1014200080E090E0892B21F00E940000811113C020
:1014300080E090E0892BA1F080E090E0892B81F0A2
:101440000E94000081110AC008950E940000D8CFB8
:101450000E940000E1CF0E940000EACF0C9400003F
:10146000089508958F929F92AF92BF92CF92DF928C
:10147000EF92FF920F931F93CF93DF937C01EB01C9
:101480006C0182E0C80ED11C4701E5E08E0E911C74
:1014900000E010E0F60141916F0150E060E070E083
:1014A0002AE0CE010E94871B5C01E881F98101904E
:1014B000F081E02D6EE2CE0119958A0D9B1D080F7B
:1014C000191FC814D90431F7F701458150E060E0D5
:1014D00070E02AE0CE010E94871B800F911FDF91F0
:1014E000CF911F910F91FF90EF90DF90CF90BF9021
:1014F000AF909F908F9008950E940E231F93CF93DB
:10150000DF93182F66E270E00E94B714C82FD0E076
:1015100067E270E0812F0E94B714DC2FCC279E0178
:10152000282BC901DF91CF911F9108952CE832E05B
:10153000FC0131832083FB014081518162817381F1
:10154000FC01428353836483758308951F920F9235
:101550000FB60F9211240BB60F922F933F934F9318
:101560005F936F937F938F939F93AF93BF93EF930B
:10157000FF938FE894E00E946E09FF91EF91BF9175
:10158000AF919F918F917F916F915F914F913F911B
:101590002F910F900BBE0F900FBE0F901F901895BC
:1015A0001F920F920FB60F9211240BB60F922F932A
:1015B0008F939F93EF93FF93E0919F04F091A0048A
:1015C0008081E091A504F091A60482FD12C0908173
:1015D0008091A8048F5F8F732091A904821751F026
:1015E000E091A804F0E0E157FB4F958F8093A804A9
:1015F00001C08081FF91EF919F918F912F910F906A
:101600000BBE0F900FBE0F901F9018952C9A089547
:101610002C9808951F93CF93DF93182F60E270E00A
:101620000E94B714C82FD0E061E270E0812F0E94C1
:10163000B714DC2FCC279E01282BC901DF91CF9155
:101640001F9108958EBD00000DB407FEFDCF8EB52D
:101650000895CF92DF92EF92FF920F931F93CF9353
:10166000DF93EC017A018B016C01C40ED51ECC1501
:10167000DD05A9F00E94080B8FE00E94220B8D2F40
:101680000E94220B8C2F0E94220B219680E00E9448
:10169000220BF80181938F010E94060BE8CFC7014E
:1016A000DF91CF911F910F91FF90EF90DF90CF903E
:1016B0000895CF92DF92EF92FF920F931F93CF93F3
:1016C000DF93EC017A018B016C01C40ED51ECC15A1
:1016D000DD05A1F00E94080B80EF0E94220B8D2FE8
:1016E0000E94220B8C2F0E94220B2196F8018191DF
:1016F0008F010E94220B0E94060BE9CFC701DF91E8
:10170000CF911F910F91FF90EF90DF90CF900895B0
:101710001F93CF93DF931F921F92CDB7DEB7182F81
:101720006A8399830E94080B80EF0E94220B9981A3
:10173000892F0E94220B812F0E94220B6A81862F03
:101740000E94220B0E94060B81E00F900F90DF9108
:10175000CF911F9108951F93CF93DF931F921F92F4
:10176000CDB7DEB7182F80E590E069837A830E94B9
:10177000D91621E041E050E069817A81812F0E94F1
:10178000100E0E94D81681E090E00F900F90DF912C
:10179000CF911F910895CF93DF931F92CDB7DEB7FE
:1017A000FC01218D328D232B49F0BE016F5F7F4FED
:1017B000808D0E94AB0B898190E002C08FEF9FEF7C
:1017C0000F90DF91CF910895FF920F931F93CF93C6
:1017D000DF93F82E80E590E00E94D916C0E0D0E0BB
:1017E0008F2D0E947E0A8C01892B21F08F2D0E9463
:1017F0007E0AEC01C017D10799F70E94D816CE01D6
:10180000DF91CF911F910F91FF900895AF92BF92FA
:10181000CF92DF92EF92FF921F93CF93DF93182F17
:101820005B017A0180E590E00E94D916C0E0D0E02B
:10183000812F0E947E0A6C01892B21F0812F0E944A
:101840007E0AEC01CC15DD0599F7209799F463E049
:1018500070E0812F0E94B7148431F1F08823E1F009
:10186000C1E0D0E08C3111F4C0E0D0E0D195C19559
:10187000D10912C0EC16FD060CF4E7011C161D067A
:101880005CF420E0AE01B501812F0E94100E60E4EF
:1018900070E0812F0E947F0D0E94D816CE01DF914B
:1018A000CF911F91FF90EF90DF90CF90BF90AF90BE
:1018B0000895CF93DF93FC01218D328D21153105E1
:1018C00019F48FEF9FEF11C0EC014217530708F096
:1018D000A901888D0E94060C1816190694F7298D07
:1018E0003A8D281B390B3A8F298FDF91CF910895BC
:1018F000CF93C82F80E590E00E94D91660E170E098
:101900008C2F0E947F0D4FEF62E070E08C2F0E94C1
:10191000AD14CF910C94D816FF920F931F93CF93D1
:10192000DF931F921F92CDB7DEB7F82E8A012A836C
:1019300069830E94780C80E590E00E94D9162A8184
:101940006981462F422B60E070E08F2D0E94AD141C
:101950000115110551F400917D0410917E040F5F73
:101960001F4F10937E0400937D04412F64E070E0CC
:101970008F2D0E94AD14402F65E070E08F2D0E94E6
:10198000AD1461E070E08F2D0E947F0D0E94D8168B
:1019900081E00F900F90DF91CF911F910F91FF90F9
:1019A0000895BF92CF92DF92EF92FF920F931F9311
:1019B000CF93DF9300D000D0CDB7DEB7FC01208DF0
:1019C000243009F053C06A017B018C01B12C63E023
:1019D00070E08B2D0E94B714811103C0F801B08E06
:1019E00006C08831D9F3B394F4E0BF12F0CFF80108
:1019F000808D8430D9F196E0E4E5F2E0DE011196C5
:101A000001900D929A95E1F7F70193819F779C835E
:101A100094819D8395819E83B7016E5F7F4F90E097
:101A2000982F882744E050E0845F9B4F0E94590B19
:101A3000B601F801808D0E941515F801808D90E0A7
:101A4000982F882746E050E0BE016F5F7F4F8A5F86
:101A50009B4F0E94590BF801128E118E20E8A601AF
:101A600062E0808D0E948C0C81E001C080E02696AF
:101A70000FB6F894DEBF0FBECDBFDF91CF911F919F
:101A80000F91FF90EF90DF90CF90BF9008951F933C
:101A9000CF93DF931F92CDB7DEB7182F80E590E08C
:101AA0000E94D91663E070E0812F0E94B7148983E9
:101AB0000E94D81689810F90DF91CF911F910895D0
:101AC00090E0FC01EE5FFC4F2491FC01E454FD4FDB
:101AD0008491882399F090E0880F991FFC01EE55BE
:101AE000FD4FA591B491FC01E857FD4F859194916C
:101AF0008FB7F894EC91E22BEC938FBF0895CF93BE
:101B0000C82F462F61E070E00E94AD1461E070E0E4
:101B10008C2F0E94B7148111F9CFCF9108959F9215
:101B2000AF92BF92CF92DF92EF92FF920F931F93EB
:101B3000CF93DF93982E8B015A01690164E270E024
:101B40000E94B714E82EF12C65E270E0892D0E9406
:101B5000B714FE2CEE24E82AE701C00FD11F9E0126
:101B60003770E92CF12CC701880F991FAC0141583F
:101B70005B4F7A01FA0180819181820F931FA90145
:101B80004C0D5D1D4130584090F000E018E0021B04
:101B9000130BA801B5010E94590BA601401B510B64
:101BA000B501600F711FF7018081918102C0A6010C
:101BB000B5010E94590BCC0DDD1D4D2F64E270E084
:101BC000892D0E94AD144C2F65E270E0892DDF91C4
:101BD000CF911F910F91FF90EF90DF90CF90BF902A
:101BE000AF909F900C94AD14FF920F931F93CF93DF
:101BF000DF93F82EC0E0D0E08F2D0E940A0B8C01FD
:101C0000892B21F08F2D0E940A0BEC01C017D10700
:101C100099F7CE01DF91CF911F910F91FF90089519
:101C20008F929F92AF92BF92CF92DF92EF92FF92EC
:101C30000F931F93CF93DF93B82E4B018A01A22EEF
:101C400068E270E00E94B714C82FD0E069E270E04B
:101C50008B2D0E94B714DC2FCC27C82B9E01377028
:101C6000CB2CD12CC601880F991FAC0149575B4F73
:101C70006A01FA0180819181820F931FA801420FAE
:101C8000531F4130584098F060E078E07B01E21A41
:101C9000F30AA701B4010E94290BA8014E195F099C
:101CA000B4016E0D7F1DF6018081918102C0A801F3
:101CB000B4010E94290BA1100EC0C00FD11F4D2FDF
:101CC00068E270E08B2D0E94AD144C2F69E270E049
:101CD0008B2D0E94AD14DF91CF911F910F91FF903A
:101CE000EF90DF90CF90BF90AF909F908F9008952E
:101CF0002F923F924F925F926F927F928F929F921C
:101D0000AF92BF92CF92DF92EF92FF920F931F9309
:101D1000CF93DF93CDB7DEB765970FB6F894DEBFEC
:101D20000FBECDBF7C016B013A01FB0120E080E0DA
:101D300090E06AE03191332309F140ED430F4A30DE
:101D400080F4689FA001699F500D1124CA01C097BB
:101D5000830F911D37FD9A958F3F910559F350F3ED
:101D600013C03E3289F4233079F0D301A20FB11DA4
:101D700012968C932F5F80E090E0DCCF233021F42B
:101D8000F301858381E021C0F701428153816481A1
:101D900075818091420590914305A0914405B091D1
:101DA0004505481759076A077B0709F49EC10E9439
:101DB000331A8701085F1F4F6F7077277C5FC80158
:101DC0000E945D14813019F080E090E0F3C18CE84E
:101DD00092E09A838983F70182819381A481B581FE
:101DE0008B839C83AD83BE8345E350E0BE016F5F70
:101DF0007F4FC8010E942615892B19F4C12CD12CC4
:101E00006FC10E94331AF7017783668376276727AD
:101E100076277A83698342E050E0BE016F5F7F4F8F
:101E2000C8010E949D1381E090E09E878D8742E06B
:101E300050E0BE01635F7F4FC8010E949D1380E0A8
:101E400091E09E878D8742E050E0BE01635F7F4F47
:101E5000C8010E949D131E861D8642E050E0BE010F
:101E6000635F7F4FC8010E949D1342E050E0BE01B6
:101E7000635F7F4FC8010E949D1342E050E0BE01A6
:101E8000635F7F4FC8010E949D135601F501808159
:101E9000882311F1F6015F018191811115C045017F
:101EA0008C189D081814190494F48F8641E050E0B2
:101EB000BE01615F7F4FC8010E949D13A401B6015E
:101EC000C8010E949D1303C08E3229F7E8CF650137
:101ED000FFEFCF1ADF0ADACF1F8641E050E0BE01E4
:101EE000615F7F4FC8010E949D13C12CDD24D394F4
:101EF000DE86CD8642E050E0BE01635F7F4FC801C1
:101F00000E949D13DE86CD8642E050E0BE01635FF5
:101F10007F4FC8010E949D13C8010E94DD14892BC8
:101F200009F46CCF63E0A62EB12CF2E06F0E711CA9
:101F30000E94331A1B012C01C8010E944413181679
:101F40001906A4F00E94331ADC01CB01821993090F
:101F5000A409B50989389341A105B105D0F462E31C
:101F600070E080E090E00E94F919E6CFF70142812D
:101F7000538164817581808D918DA28DB38D4817B9
:101F800059076A077B0741F4848D958DC59721F425
:101F900006C02FEF3FEF9AC02EEF3FEF97C0F7013B
:101FA00081A192A10C970CF4A6C04CE050E0BE01B8
:101FB0006F5F7F4FC8010E94590C8B8190E0982F72
:101FC00088272C81822B9A8B898B298130E0322FB4
:101FD00022274A81242BF701468157814217530754
:101FE00009F086C097FF84C08F709270892B09F02A
:101FF000DEC0CF80D12CDC2CCC248885C82AC1142B
:10200000D10409F4D1C0812C912C8D8190E0982FBE
:1020100088272E81822B8816990608F46FC0812CA0
:10202000912C41E050E0BE016D5E7F4FC8010E94DF
:10203000590C8B89982F907C09F093C0811186C030
:102040008B898111EECF42E050E0BE01615F7F4F8E
:10205000C8010E94590C42E050E0BE01635F7F4F0F
:10206000C8010E94590CC8010E941713C8010E94A0
:102070001713C8010E941713C8010E94171342E0EA
:1020800050E0BE016F5E7F4FC8010E94590C8F85E2
:1020900098898115914009F069C02D853E853227C8
:1020A000232732272130310509F060C089899A89B8
:1020B0008115944009F075C044E050E0B301C801B7
:1020C0002C8B3D8B0E94590C2C893D896901F1E0D4
:1020D000AF1AB10829F02FEFC216D20609F428CFA3
:1020E000C8010E944814C60165C08EEF9FEF62C010
:1020F0002CEF3FEFEBCF2DEF3FEFE8CF41E050E08B
:10210000BE01635F7F4FC8010E94590C8D8581110C
:1021100013C08D858111F2CFC8010E941713C80129
:102120000E941713C8010E941713C8010E941713B9
:10213000FFEF8F1A9F0A69CF8D859FEF980F9D87BC
:10214000882339F3C8010E941713F6CF8B899FEFBC
:10215000980F9B8B882309F473CFC8010E94171333
:10216000F5CFC8010E9417131B8A6ACF412C512C4E
:1021700089899A899827892798274816590638F413
:10218000C8010E9417138FEF481A580AF1CFEFEFDA
:102190008E1A9E0A8C149D0409F043CF26EF3FEF60
:1021A00095CF27EF3FEF92CF2AEF3FEF8FCF2BEF67
:1021B0003FEF8CCF65960FB6F894DEBF0FBECDBF54
:1021C000DF91CF911F910F91FF90EF90DF90CF9013
:1021D000BF90AF909F908F907F906F905F904F9047
:1021E0003F902F90089580E3FB0180833296842FE7
:1021F00082958F7090E1899F401911244A3014F420
:10220000405D01C0495C4293482F8111F0CF089591
:102210002F923F924F925F926F927F928F929F92F6
:10222000AF92BF92CF92DF92EF92FF920F931F93E4
:10223000CF93DF93CDB7DEB7E3970FB6F894DEBF49
:102240000FBECDBF7C011A012B0139010E94331A48
:102250004B015C0187010D5B1F4FC8010E944413B5
:1022600018161906A4F00E94331ADC01CB01881954
:102270009909AA09BB09281639064A065B06D8F04F
:1022800062E370E080E090E00E94F919E6CF42E25C
:1022900050E0BE016F5F7F4FC8010E94590C8981D9
:1022A000823011F080E061C1F8018489958983341E
:1022B0009105C1F702C08FEF58C16D817E818F817A
:1022C00098850E94F1204B015C01F30160837183CA
:1022D0008283938346E050E0B701685F7F4FCE0171
:1022E0004D960E941323892BE9F6F7018081918195
:1022F000A281B38188169906AA06BB0698F284814A
:102300009581A681B78188159905AA05BB0550F26C
:1023100089899A89AB89BC8986879787A08BB18B7D
:102320008EECA82EB12CC8010E941713F1E0AF1A51
:10233000B108C9F719A6670182E2C80ED11CF701DE
:10234000B696FBA7EAA7C7018A969DA78CA73C97DC
:102350004F0189969FA78EA73897F9ABE8AB170175
:10236000F6E12F0E311CC5979BAB8AABF801818D2E
:10237000928D181619060CF0F7C0C8010E941713A9
:102380008333910509F4CBC0FCF481309105C9F188
:102390001CF4892B59F3DCC083309105D1F10697E9
:1023A00009F0D6C0C8010E9417135C0144E050E058
:1023B0006AA97BA9C8010E94590C412C512CBB244D
:1023C000F4E0AF1AB10840C08A33910509F47BC02C
:1023D0003CF48533910569F0C69709F440C0B8C054
:1023E0008B33910509F485C08F3F910509F4BECF69
:1023F000AFC0C8010E941713C8010E94171389A714
:10240000B5CFC8010E94171344E050E068A979A92C
:102410003AC0C8010E9417135C0144E050E0B101CA
:10242000C8010E94590C412C512CBB2494E0A91ADC
:10243000B1084A145B040CF099CFC8010E9417132D
:10244000EFEF4E1A5E0AF5CF4A145B040CF08ECF04
:10245000C8010E9417138FEF481A580AF5CFC80118
:102460000E941713B82EF701828D811110C0838D41
:1024700081110DC0848D81110AC0858D811107C025
:1024800044E050E0B401C8010E94590C6FCFEEA5A2
:10249000FFA54080518062807380B401CE01839695
:1024A0000E94960A8DA19EA1AFA1B8A5841595059D
:1024B000A605B70529F3BB2009F458CFC8010E942F
:1024C0001713BA94F8CFC8010E94171344E050E0E4
:1024D0006AA57BA5C8010E94590CF70166A177A1E6
:1024E00080A591A50E94F12066A377A380A791A75C
:1024F0003DCFC8010E94171344E050E06CA57DA5B4
:10250000C8010E94590CF70162A573A584A595A581
:102510000E94F12062A773A784A795A727CFC801BF
:102520000E94171344E050E0B601C8010E94590C04
:10253000F70162A173A184A195A10E94F12062A379
:1025400073A384A395A366A777A780AB91AB0ECFA7
:10255000C8010E941713B82EBB2009F407CFC80189
:102560000E941713BA94F8CF89A5E3960FB6F89492
:10257000DEBF0FBECDBFDF91CF911F910F91FF90B6
:10258000EF90DF90CF90BF90AF909F908F907F9013
:102590006F905F904F903F902F900895CF93DF936F
:1025A0001F92CDB7DEB76983DC01ED91FC9102800B
:1025B000F381E02D41E050E0BE016F5F7F4F199540
:1025C0000F90DF91CF910895FC01818D928D089538
:1025D000FC018489958908952CE832E0FC0131835F
:1025E0002083FB014089518962897389FC01428300
:1025F0005383648375830895DC01ED91FC91008C15
:10260000F18DE02D1994FC019485FB0184859813CC
:1026100003C081E0943009F480E0089521E0FC01DA
:102620008485843009F420E0822F089508950F9363
:102630001F93CF93DF931F92CDB7DEB7FC01218D9F
:10264000328D232B61F08C0141E050E0BE016F5FC1
:102650007F4F808D0E94060C181619061CF08FEF14
:102660009FEF08C0F801818D928D0197928F818F25
:10267000898190E00F90DF91CF911F910F91089584
:10268000FC0184850C94060C0F931F93CF93DF936A
:10269000CDB7DEB728970FB6F894DEBF0FBECDBF1B
:1026A0008C01F801818D928D892B49F0D801ED9133
:1026B000FC910680F781E02DC8011995F2CF808D3D
:1026C0000E94E40B181619065CF548E050E0BE01C4
:1026D0006F5F7F4FD80158968C910E94060C9C0129
:1026E00018161906DCF489819A81AB81BC81F80146
:1026F000808B918BA28BB38B8D8190E0982F882754
:102700002E81820F911D958B848B2F8130E0322F8B
:1027100022278885280F311D328F218FC90102C0E1
:1027200080E090E028960FB6F894DEBF0FBECDBFD4
:10273000DF91CF911F910F910895AF92BF92CF92E9
:10274000DF92FF920F931F93CF93DF938C015B0176
:10275000EA01FC01C688D788F08C80E590E00E94F1
:10276000D9168F2D0E94F40D8C179D0720F48F2D04
:102770000E94F40DEC019E01A501B6018F2D0E946F
:102780008F0D0E94D816F801868997898C0F9D1F9E
:10279000978B868BCE01DF91CF911F910F91FF9088
:1027A000DF90CF90BF90AF900895CF92DF92EF92DD
:1027B000FF920F931F93CF93DF93CDB7DEB7AF9701
:1027C0000FB6F894DEBF0FBECDBF7C016A010CE8E6
:1027D00012E01A8309831C861B8688EE93E0A0E032
:1027E000B0E08D879E87AF87B88B8CEB92E09A879D
:1027F0008987188F0F8B198E1A8E1B8E1C8E84E082
:1028000089A31DA30CA31EA21FA218A619A680911E
:102810002E0590912F05A0913005B09131058CA720
:102820009DA7AEA7BFA78B839C83AD83BE8318866D
:102830001F82AE014C5D5F4FCE0101960E94780E63
:1028400081309105B1F4D701ED91FC910088F189B7
:10285000E02D1BA70AA78EA19FA1A8A5B9A58CA7AB
:102860009DA7AEA7BFA7A601BE01665D7F4FC701AA
:102870001995AF960FB6F894DEBF0FBECDBFDF91AE
:10288000CF911F910F91FF90EF90DF90CF9008951F
:10289000CF93DF93EC01888D843061F00E94780C37
:1028A000E88DF0E0EE0FFF1FE659FA4F118210821B
:1028B00084E0888FDF91CF910895EF92FF921F936C
:1028C000CF93DF93FC01208D243011F080E01CC0F9
:1028D0007B01EC0110E0812F0E94470D811102C0A5
:1028E000188F05C08831E1F31F5F1430A1F7888D80
:1028F000843061F3FD86EC861A8E198E20E0A701E4
:1029000062E00E948C0C81E0DF91CF911F91FF90DB
:10291000EF9008950F931F93CF93DF931F92CDB73E
:10292000DEB78C01DC01ED91FC910480F581E02D96
:102930001995892B51F0BE016F5F7F4FF801848597
:102940000E94AB0B898190E002C08FEF9FEF0F9048
:10295000DF91CF911F910F9108959B0190E0049614
:10296000982F8827642F820F931F0C94880B0F9346
:102970001F93CF93DF931F92CDB7DEB790E00496FD
:10298000982F88278C01060F171F0E94080B8FE0D5
:102990000E94220B812F0E94220B802F0E94220B6B
:1029A00080E00E94220B89830E94060B89810F9090
:1029B000DF91CF911F910F910895CF93FC01C08DAE
:1029C00080E590E00E94D91660E270E08C2F0E94B2
:1029D0007F0D62E070E08C2F0E94B71484FD19C057
:1029E00062E070E08C2F0E94B71483FF0BC048E1B7
:1029F00062E070E08C2F0E94AD140E94D81680E037
:102A000090E011C00E94D81680E590E00E94D9168F
:102A1000E0CF40E162E070E08C2F0E94AD140E9494
:102A2000D81681E090E0CF910895CF93DF93C82F1F
:102A3000D62F472F60E170E00E94AD144D2F61E169
:102A400070E08C2FDF91CF910C94AD14FF920F9317
:102A50001F93CF93DF93FB01DC0157961C921E92CC
:102A600056975896FC908281811109C0838181110B
:102A700006C08481811103C085818823F9F0411546
:102A80005105E1F08A01EF0180E590E00E94D9163E
:102A9000BE016E5F7F4F2F2D30E0922F882744E0DC
:102AA00050E0845F9B4F0E94590BB8018F2D0E940C
:102AB00015150E94D81681E090E002C080E090E0F9
:102AC000DF91CF911F910F91FF900895FC018485B4
:102AD000843011F00C94470D80E00895CF93DF937C
:102AE000FC0124852430D1F0EC010E94661584316C
:102AF00081F0882371F0883161F08C3161F4E881D4
:102B0000F9810480F581E02DCE01199521E0892B12
:102B100019F420E001C021E0822F01C080E0DF91A4
:102B2000CF910895CF92DF92EF92FF921F93CF93B0
:102B3000DF93FC0114851430A9F1EC0180E590E0ED
:102B40000E94D91668E070E0812F0E947F0D0E94DC
:102B5000D8160E94331A6B017C01CE010E946615C3
:102B60008823B1F061E070E080E090E00E94F91904
:102B70000E94331ADC01CB018C199D09AE09BF09F3
:102B8000883E9340A105B10540F38C850E94780CE6
:102B9000EC85F0E0EE0FFF1FE659FA4F118210822C
:102BA00084E08C87DF91CF911F91FF90EF90DF90B1
:102BB000CF900895CF93DF931F92CDB7DEB769838F
:102BC000DC01ED91FC910280F381E02D41E050E0C9
:102BD000BE016F5F7F4F19950F90DF91CF910895E0
:102BE000DC01ED91FC91048CF58DE02D199591E0BF
:102BF00089270895862F089581E08627089583B751
:102C0000662311F0816001C08E7F83BF0895FC01AF
:102C100064830895FC01848190E00895FC01828121
:102C200093810895DC01ED91FC910484F585E02DFC
:102C300061E019958895089544EC450390011124AD
:102C4000261B3109205F314F37FF02C0295F3F4FFC
:102C500043E0359527954A95E1F7FC0133832283BC
:102C60000895FC012281338121503109338322836D
:102C70000895CF93DF931F92CDB7DEB741E050E0C8
:102C8000BE016F5F7F4FFC0184850E94060C181601
:102C900019061CF4898190E002C08FEF9FEF0F901E
:102CA000DF91CF910895FC018485843011F00C945C
:102CB000E40B80E090E00895CF92DF92EF92FF92D4
:102CC0000F931F93CF93DF93CDB7DEB7AF970FB6B8
:102CD000F894DEBF0FBECDBF7C016A010CE812E0A4
:102CE0001A8309831C861B8688EE93E0A0E0B0E07F
:102CF0008D879E87AF87B88B8CEB92E09A87898708
:102D0000188F0F8B198E1A8E1B8E1C8E84E089A350
:102D10001DA30CA31EA21FA218A619A680912E0502
:102D200090912F05A0913005B09131058CA79DA7FA
:102D3000AEA7BFA78B839C83AD83BE8318861F82FB
:102D4000AE014C5D5F4FCE0101960E94780E81303E
:102D50009105B1F4D701ED91FC910484F585E02D46
:102D60001BA70AA78EA19FA1A8A5B9A58CA79DA75F
:102D7000AEA7BFA7A601BE01665D7F4FC70119952B
:102D8000AF960FB6F894DEBF0FBECDBFDF91CF91E7
:102D90001F910F91FF90EF90DF90CF900895672BD8
:102DA00011F460E001C061E0FC0182810C947C19A7
:102DB00008958CBD9DBD08958F929F92AF92BF9252
:102DC000CF92DF92EF92FF920F931F93CF936C01FC
:102DD0005B017A01FC01C485C43041F481E090E0DC
:102DE000F6019383828380E090E04EC08A014130F7
:102DF000584010F000E018E080E590E00E94D916FD
:102E00008C2F0E94F40D4C0163E070E08C2F0E9427
:102E1000B714873111F08C3121F48016910660F3DC
:102E200002C000E010E080E590E00E94D916980111
:102E3000A50160E070E08C2F0E948F0D60E270E0D1
:102E40008C2F0E947F0D62E070E08C2F0E94B714DF
:102E500084FD10C063E070E08C2F0E94B7148111D4
:102E600004C08C2F0E94780CB9CF80E590E00E94BE
:102E7000D916E9CF40E162E070E08C2F0E94AD14DA
:102E8000012B09F4ABCFC701CF911F910F91FF9098
:102E9000EF90DF90CF90BF90AF909F908F9008956C
:102EA000CF92DF92FF920F931F93CF93DF93FC019A
:102EB0002485243009F077C06A01EB018C01F12CE4
:102EC0008F2D0E94470D811103C0F801F48607C0C1
:102ED0008B7F8831D1F3F394F4E0FF12F1CFF80146
:102EE0008485843009F45FC0209100023091010292
:102EF0002F5F3F4F11F420E030EC3093010220931C
:102F00000002409100025091010220E061E00E9425
:102F10008C0CF801F4848A818F3F51F48B818F3FB0
:102F200091F48C818F3F79F48D818F3F61F438C0AB
:102F3000811109C08B81811106C08C81811103C070
:102F40008D81882369F1C114D10451F180E590E0AD
:102F50000E94D916BE016E5F7F4F8F2D90E0982F93
:102F6000882744E050E0845F9B4F0E94590BB601D4
:102F70008F2D0E94151564E070E08F2D0E947F0D4B
:102F8000C8010E946615873189F061E070E080E039
:102F900090E00E94F919C8010E9466158111F0CFD6
:102FA00084E0F801848780E090E002C081E090E056
:102FB000DF91CF911F910F91FF90DF90CF900895F7
:102FC0001F920F920FB60F9211240BB60F922F93F0
:102FD0003F934F935F936F937F938F939F93AF93A1
:102FE000BF93EF93FF938091720590917305DC017D
:102FF000ED91FC910284F385E02D61E019958091BB
:10300000720590917305DC01ED91FC910484F585C6
:10301000E02D60E01995FF91EF91BF91AF919F91E5
:103020008F917F916F915F914F913F912F910F9071
:103030000BBE0F900FBE0F901F9018953FB7F894DE
:103040008091860590918705A0918805B0918905AA
:1030500026B5A89B05C02F3F19F00196A11DB11DF3
:103060003FBFBA2FA92F982F8827820F911DA11D2E
:10307000B11DBC01CD0142E0660F771F881F991F6B
:103080004A95D1F70895CF92DF92EF92FF920F9376
:103090001F93CF93DF936C017A018B01C0E0D0E0E6
:1030A000CE15DF0589F0D8016D918D01D601ED9126
:1030B000FC910190F081E02DC6011995892B11F446
:1030C0007E0102C02196ECCFC701DF91CF911F9105
:1030D0000F91FF90EF90DF90CF9008957F928F92A5
:1030E0009F92AF92BF92CF92DF92EF92FF920F9397
:1030F0001F93CF93DF93CDB7DEB7A6970FB6F894A3
:10310000DEBF0FBECDBF8C01762E942E852E20E221
:10311000B22ECE0101967C01FC012B2D11922A9535
:10312000E9F78CE892E09AA389A38FEF8BA38CA395
:103130008DA38EA3680183E4C80ED11C43E450E044
:10314000BE016F5D7F4FC6010E942615019609F4EE
:10315000BFC081E089838A8386E0A82EAB821C826F
:10316000F80164817581868197810E94F1206D83C9
:103170007E838F83988789869A8680E890E09C87F3
:103180008B874CE150E0B701C6010E949D13F70107
:103190002B2D11922A95E9F7480188E0880E911CA1
:1031A000F401D70101900D92AA94E1F740E150E0BB
:1031B000B701C6010E949D13F7011192BA94E9F775
:1031C00096E0A92EB12C40E250E0B701C6010E9462
:1031D0009D13F1E0AF1AB108B1F783E6898392E855
:1031E0009A8393E59B838C8385E38D8381E08E8333
:1031F0007F829DE3988797E099878A8786E0F4012C
:10320000DE011B9601900D928A95E1F78CE0898B87
:103210008A8B6EE074E0CE0143960E943223F8015F
:103220004385BE01675E7F4FC8010E94F310F8011D
:103230004485BE01655E7F4FC8010E94F310F8010E
:103240004585BE01635E7F4FC8010E94F3104EE1C9
:1032500050E0B701C6010E949D13F3E07F121EC02B
:1032600082E3898384E08A83F80196859B8397852E
:103270009C8390899D8391899E8396E39F83888711
:10328000828D8987838D8A87848D8B87858D8C87B6
:103290004CE050E0B701C6010E949D1387E389838B
:1032A00086E08A8391E09B8393E09C838D838FE00B
:1032B0008E838AE38F838BE388878FEF898749E04A
:1032C00050E0B701C6010E949D13C6010E94DD14A3
:1032D000A6960FB6F894DEBF0FBECDBFDF91CF919B
:1032E0001F910F91FF90EF90DF90CF90BF90AF9024
:1032F0009F908F907F900895362F90E0FC01E85BBF
:10330000FC4F4491FC01EE5FFC4F2491FC01E4541E
:10331000FD4F9491992309F46BC0442309F455C0DF
:1033200050E0FA013197E231F10508F04EC08827EC
:10333000EE58FF4F8F4F0C94E920809180008F77DB
:1033400007C0809180008F7D03C080918000877FBF
:10335000809380003AC084B58F7702C084B58F7D9A
:1033600084BD33C08091B0008F7703C08091B000DE
:103370008F7D8093B00029C0809190008F7707C027
:10338000809190008F7D03C080919000877F809313
:1033900090001BC08091A0008F7707C08091A00093
:1033A0008F7D03C08091A000877F8093A0000DC017
:1033B000809120018F7707C0809120018F7D03C00D
:1033C00080912001877F80932001E92FF0E0EE0FAC
:1033D000FF1FE857FD4FA591B4918FB7F894EC917A
:1033E000311103C020952E2301C02E2B2C938FBFAB
:1033F00008958F929F92AF92BF92CF92DF92EF92F9
:10340000FF926B017C010E941E184B015C01C114EC
:10341000D104E104F104F1F00E941E18DC01CB019B
:1034200088199909AA09BB09883E9340A105B105ED
:1034300070F321E0C21AD108E108F10888EE880E85
:1034400083E0981EA11CB11CC114D104E104F10455
:1034500019F7DDCFFF90EF90DF90CF90BF90AF9046
:103460009F908F9008952FB7F89460918205709186
:10347000830580918405909185052FBF08951F9243
:103480000F920FB60F9211242F933F938F939F9318
:10349000AF93BF938091820590918305A09184059D
:1034A000B09185053091810523E0230F2D3720F45D
:1034B0000196A11DB11D05C026E8230F0296A11D8E
:1034C000B11D209381058093820590938305A0937D
:1034D0008405B09385058091860590918705A0911C
:1034E0008805B09189050196A11DB11D80938605BF
:1034F00090938705A0938805B0938905BF91AF91FC
:103500009F918F913F912F910F900FBE0F901F9021
:103510001895FC0180819181009711F00C94422054
:1035200060E070E0CB010895FC0124813581232BFC
:1035300031F421E061157105A1F0FB0108C0FC0127
:10354000808191816115710531F421E0FC01808158
:10355000882339F005C00E94292321E0892B09F036
:1035600020E0822F0895EF92FF920F931F93CF9345
:10357000DF93EC017B018A0188819981009729F012
:103580002A813B8124173507F8F4B8016F5F7F4F1C
:103590000E942522009759F0998388831B830A8310
:1035A0002C813D81232B81F4FC0110820DC0888188
:1035B0009981009711F00E948D21198218821D8235
:1035C0001C821B821A8207C01D830C83B70188816D
:1035D00099810E943223CE01DF91CF911F910F91EB
:1035E000FF90EF900895FC01808191810C948D21D2
:1035F000FC011182108213821282158214826115DD
:10360000710551F0FB0101900020E9F73197AF01FE
:10361000461B570B0C94B31A0895BF92CF92DF92BA
:10362000EF92FF920F931F93CF93DF937C016B0177
:10363000EA0189012417350720F48D2FE901042FB1
:10364000182F6FEA73E0C7010E94F81AD60114968A
:103650008D919C911597C817D907C8F580179107C8
:1036600008F48C01D601ED91FC911197E00FF11F48
:10367000B08010824D915C91BA016C0F7D1F611575
:10368000710561F0FB0101900020E9F73197AF016E
:10369000461B570BC7010E94B31A13C0F701808164
:1036A0009181009711F00E948D21D70111961C92F3
:1036B0001E9215961C921E92149713961C921E929F
:1036C0001297D601ED91FC91E00FF11FB082C70176
:1036D000DF91CF911F910F91FF90EF90DF90CF90EE
:1036E000BF9008956115710579F0FB0101900020EC
:1036F000E9F73197AF01461B570BDC01ED91FC91C7
:103700000280F381E02D199480E090E008954F92BB
:103710005F926F927F92EF92FF920F931F93CF93DE
:10372000DF93CDB7DEB7A1970FB6F894DEBF0FBE1B
:10373000CDBF7C01FA01CB0119A2223008F42AE0A6
:103740008E010F5D1F4F422E512C612C712CBF0139
:10375000A30192010E94B820F901CA010150110988
:103760006A3014F4605D01C0695CD8016C93232B4E
:10377000242B252B61F7B801C7010E94721BA1966B
:103780000FB6F894DEBF0FBECDBFDF91CF911F9172
:103790000F91FF90EF907F906F905F904F90089502
:1037A0000F931F93CF93DF93EC010E94721B8C0148
:1037B0006DEA73E0CE010E94721B800F911FDF91B2
:1037C000CF911F910F91089584E395E00C94F31A23
:1037D000E0E4F5E08CE892E091838083128213822A
:1037E00014821582E6E4F5E09183808312821382CD
:1037F00014821582ECE4F5E09183808312821382B7
:1038000014821582EFE8F4E01382128248EE53E04E
:1038100060E070E044835583668377832EE532E071
:103820003183208325EC30E03587248724EC30E099
:103830003787268720EC30E0318B208B21EC30E07D
:10384000338B228B22EC30E0358B248B26EC30E05E
:10385000378B268B118E128E138E148EE2E5F5E0D7
:10386000918380831282138214821582E8E5F5E049
:10387000918380831282138214821582EEE5F5E033
:10388000918380831282138214821582ECE2F5E028
:10389000918380831282138214821582E4E6F5E01C
:1038A000918380831282138214821582EAE3F5E009
:1038B0009183808312821382148215826FEE73E0EB
:1038C00084E395E00C94F81ACF93DF93CDB7DEB77D
:1038D000A5970FB6F894DEBF0FBECDBF789484B520
:1038E000826084BD84B5816084BD85B5826085BDFC
:1038F00085B5816085BD80916E00816080936E008A
:10390000109281008091810082608093810080917B
:10391000810081608093810080918000816080932C
:1039200080008091B10084608093B1008091B000EC
:1039300081608093B00080919100826080939100BB
:1039400080919100816080939100809190008160CE
:10395000809390008091A10082608093A10080916B
:10396000A10081608093A1008091A000816080937C
:10397000A00080912101826080932101809121012A
:1039800081608093210180912001816080932001DA
:1039900080917A00846080937A0080917A008260BE
:1039A00080937A0080917A00816080937A00809180
:1039B0007A00806880937A001092C100E0919F04A1
:1039C000F091A00482E08083E0919B04F0919C043C
:1039D0001082E0919D04F0919E048FEC8083109200
:1039E000A704E091A304F091A40486E08083E09111
:1039F000A104F091A204808180618083E091A10400
:103A0000F091A204808188608083E091A104F0910C
:103A1000A204808180688083E091A104F091A204D7
:103A200080818F7D80837EE1472E73E0572ECE010B
:103A300001967C015E0199E1A90EB11C3701DE2CD3
:103A4000CF2C26E01501E2EE8E2EE2E09E2EF20152
:103A5000DE015F96822F01900D928A95E1F78BE04F
:103A600090E02DA30E94F8208C01FE017F96D101E9
:103A70002DA1822F01900D928A95E1F7D8018D92A8
:103A80009D92F101822F01900D928A95E1F7D80164
:103A900019961C921E9218971A961C921A971296B3
:103AA0008C912DA30E94600DF80184810E94600D0D
:103AB000D80116968C910E94600DF3010193119329
:103AC0003F01F6E04F0E511C2DA16A147B0409F052
:103AD000BECF81E090E00E94F8208C0190937505A4
:103AE000809374058DE190E00E94F820FC018AEF3C
:103AF00092E091838083128E148F038F9F012E5F3B
:103B00003F4FD7018D919D917D01D9018D939D935B
:103B10009D01EA14FB04A9F7F0937705E09376057D
:103B200018A21F8E1AA219A21CA21BA26091340512
:103B3000709135056115710541F04091380550913E
:103B40003905CE014F960E94B31A8DE098E00E948D
:103B5000F8208C01AE01415E5F4F62E072E00E948E
:103B6000D6081093790500937805CE014F960E94F0
:103B7000F31A85E090E00E94F8208C0180E193E048
:103B8000F80191838083138212821482109373054B
:103B900000937205F89484B7877F84BF83B78460ED
:103BA00083BF88E18093600081E680936000789411
:103BB00010937B0500937A0586E090E00E94F82040
:103BC000DC0112961D921D921D921C9215979093E6
:103BD0007E0580937D0588E090E00E94F820FC013E
:103BE000809178059091790520917605309177053F
:103BF0001182108233832283958384831783068303
:103C0000F0938005E0937F0510927C05FF24F394E8
:103C100080917A0590917B05DC01ED91FC91008407
:103C2000F185E02D1995892B79F080917A05909195
:103C30007B05DC01ED91FC910284F385E02D60E0D1
:103C4000199584E090E06BC080917805909179059A
:103C5000DC01ED91FC910288F389E02D1995A0918A
:103C60007805B0917905ED91FC911197882349F081
:103C70000280F381E02D60E0CD01199580E090E0B5
:103C80004EC00088F189E02DCD011995882379F087
:103C90008091780590917905DC01ED91FC9101907E
:103CA000F081E02D60E0199581E090E038C08091CE
:103CB000760590917705DC01ED91FC910484F58502
:103CC000E02D1995882379F08091760590917705FC
:103CD000DC01ED91FC910088F189E02D60E01995FF
:103CE00082E090E01CC080917A0590917B05DC0118
:103CF000ED91FC910680F781E02D199518161906B3
:103D00004CF480917C05882341F010927C0585E07D
:103D100090E005C083E090E002C086E090E0009172
:103D20007F0510918005F801208131812130310516
:103D300009F44BC02230310509F404C1232B09F0EA
:103D400023C18230910509F417C18530910589F1AD
:103D50000197C1F5D8010280F381E02D0190F08137
:103D6000E02DA280B38014968D919C911597DC0173
:103D7000ED91FC910484F585E02D19952CE030E05F
:103D80004D2D5C2DBC01F80182819381F5011995BF
:103D9000D80112968D919C911397DC01ED91FC91C5
:103DA0000284F385E02D4CE050E06D2D7C2D1995BB
:103DB00009C084819581DC01ED91FC910688F78929
:103DC000E02D199580E090E0DCC08130910509F18B
:103DD0008530910509F493C0892B09F0ADC0F80135
:103DE00084819581DC01ED91FC910480F581E02DC9
:103DF00060E01995F80182819381DC01ED91FC91DD
:103E00000680F781E02D6CE070E0199580E090E08D
:103E100095C084819581DC01ED91FC910480F58150
:103E2000E02D60E01995F80184819581DC01ED9128
:103E3000FC910284F385E02D19955C01F8018281E3
:103E40009381DC01ED91FC910480F581E02DB501B9
:103E50001995F80184819581DC01ED91FC91048430
:103E6000F585E02D1995F801A281B3814D915C9102
:103E700011979501220F331F820F931FFC01608160
:103E80007181FA0120813181CD01F9011995F80183
:103E9000A281B381ED91FC9111970084F185E02D11
:103EA000AC01B501CD011995D8011696ED91FC91A3
:103EB00017970190F081E02DA280B38014968D9128
:103EC0009C911597DC01ED91FC910680F781E02D26
:103ED0001995AB01682FF80186819781F501199535
:103EE000D80116968D919C911797DC01ED91FC916C
:103EF0000480F581E02D199582E090E01FC0F80163
:103F000084819581DC01ED91FC910488F589E02D97
:103F10001995F801A481B581ED91FC911197882341
:103F200031F00688F789E02DCD01199505C0008C88
:103F3000F18DE02DCD01199581E090E0D8018D93B0
:103F40009C9322C083309105B9F00497C1F4F80125
:103F500086819781DC01ED91FC910190F081E02D4B
:103F60001995F80186819781DC01ED91FC9104801F
:103F7000F581E02D199503C081E090E002C082E058
:103F800090E0F8019183808300917D0510917E057A
:103F90000E94331AD80112968D909D90AD90BC90DE
:103FA0001597AB01BC01481959096A097B098D9124
:103FB0009C91092E000CAA0BBB0B481759076A07E6
:103FC0007B0718F40E94F80923CEF0927C05FACF03
:103FD0008F929F92AF92BF92CF92DF92EF92FF9219
:103FE000CF93DF93EC01688179818A819B81611590
:103FF00071058105910521F464E279ED8BE597E087
:104000002DE133EF41E050E00E94862049015A0142
:104010009B01AC01A7EAB1E40E94A5206B017C01E1
:10402000ACEEB4EFA50194010E94B320DC01CB01FA
:104030008C0D9D1DAE1DBF1DB7FF03C00197A109CB
:10404000B04888839983AA83BB83BC01CD019F7745
:10405000DF91CF91FF90EF90DF90CF90BF90AF9026
:104060009F908F9008950C94E81F88E092E00C9444
:10407000E81F609308027093090280930A029093EC
:104080000B0208951F93FC0199278827BC01E8942F
:1040900011911032E9F3193010F01E30C8F31B32C1
:1040A00051F01D3249F4689406C00E946920610FE6
:1040B000711D811D911D119110531A30B0F33EF402
:1040C00090958095709561957F4F8F4F9F4F1F9171
:1040D0000895592F482F372F262F660F771F881FD7
:1040E000991F660F771F881F991F620F731F841F08
:1040F000951F660F771F881F991F0895F999FECFA6
:1041000092BD81BDF89A992780B50895052E97FB39
:104110001EF400940E949D2057FD07D00E94B820F5
:1041200007FC03D04EF40C949D205095409530959B
:1041300021953F4F4F4F5F4F089590958095709513
:1041400061957F4F8F4F9F4F08950E94DA20A59F62
:10415000900DB49F900DA49F800D911D1124089582
:10416000B7FF0C94A5200E94A520821B930B0895F5
:10417000A1E21A2EAA1BBB1BFD010DC0AA1FBB1F6B
:10418000EE1FFF1FA217B307E407F50720F0A21BDD
:10419000B30BE40BF50B661F771F881F991F1A944A
:1041A00069F760957095809590959B01AC01BD0174
:1041B000CF010895A29FB001B39FC001A39F700DCE
:1041C000811D1124911DB29F700D811D1124911D1F
:1041D0000895EE0FFF1F881F8BBF0790F691E02D0B
:1041E00019946927962769277827872778270895BC
:1041F000CF93DF938230910510F482E090E0E0915C
:104200008C05F0918D0520E030E0C0E0D0E03097E3
:1042100011F14081518148175907C0F048175907DB
:1042200061F482819381209719F09B838A832BC04C
:1042300090938D0580938C0526C02115310519F0CA
:104240004217530718F49A01BE01DF01EF01028003
:10425000F381E02DDCCF2115310509F1281B390B45
:104260002430310590F412968D919C91139761152D
:10427000710521F0FB019383828304C090938D0527
:1042800080938C05FD01329644C0FD01E20FF31FBF
:1042900081939193225031092D933C933AC0209100
:1042A0008A0530918B05232B41F420910E02309129
:1042B0000F0230938B0520938A0520910C023091D8
:1042C0000D022115310541F42DB73EB74091100282
:1042D00050911102241B350BE0918A05F0918B055A
:1042E000E217F307A0F42E1B3F0B2817390778F0CD
:1042F000AC014E5F5F4F2417350748F04E0F5F1F2C
:1043000050938B0540938A058193919302C0E0E01E
:10431000F0E0CF01DF91CF9108950F931F93CF93DA
:10432000DF93009709F48CC0FC013297138212824C
:1043300000918C0510918D050115110581F42081E6
:104340003181820F931F20918A0530918B052817A8
:10435000390779F5F0938B05E0938A0571C0D80190
:1043600040E050E0AE17BF0750F412962D913C91FB
:104370001397AD012115310509F1D901F3CF9D0145
:10438000DA013383228360817181860F971F821740
:10439000930769F4EC0128813981260F371F2E5FBE
:1043A0003F4F318320838A819B8193838283452B76
:1043B00029F4F0938D05E0938C0542C01396FC938D
:1043C000EE931297ED01499159919E01240F351FEB
:1043D000E217F30771F480819181840F951F029693
:1043E00011969C938E938281938113969C938E93C6
:1043F0001297E0E0F0E0D80112968D919C9113970E
:10440000009719F0F8018C01F6CF8D919C919801DD
:104410002E5F3F4F820F931F20918A0530918B05AD
:104420002817390769F4309729F410928D051092F6
:104430008C0502C01382128210938B0500938A05AB
:10444000DF91CF911F910F9108956F927F928F927C
:104450009F92AF92BF92CF92DF92EF92FF920F9313
:104460001F93CF93DF93EC01009789F4CB01DF9189
:10447000CF911F910F91FF90EF90DF90CF90BF9061
:10448000AF909F908F907F906F900C94F820FC01DC
:10449000E60FF71F9C0122503109E217F30708F4D9
:1044A000ACC0D9010D911C91119706171707B0F0F8
:1044B0000530110508F49FC0C801049786179707B7
:1044C00008F499C002501109061B170B01931193B0
:1044D0006D937C93CF010E948D218DC05B01A01A4A
:1044E000B10A4C01800E911EA0918C05B0918D05F2
:1044F00040E050E0E12CF12C109709F44AC0A815D7
:10450000B905D1F56D907C901197630182E0C80EDA
:10451000D11CCA14DB0480F1A3014A195B096A01AA
:1045200082E0C80ED11C1296BC9012971396AC91E3
:10453000B5E0CB16D10440F0B282A383518340830F
:10454000D9016D937C930AC00E5F1F4FC301800F8A
:10455000911FF90191838083EB2DFA2FE114F1046F
:1045600031F0D7011396FC93EE93129744C0F09369
:104570008D05E0938C053FC08D919C911197481754
:10458000590708F4AC017D0112960D90BC91A02D45
:10459000B3CF80918A0590918B0588159905E1F438
:1045A00046175707C8F480910C0290910D020097AE
:1045B00041F48DB79EB74091100250911102841BB7
:1045C000950BE817F907C8F4F0938B05E0938A057B
:1045D000F901718360830FC0CB010E94F8207C0138
:1045E000009759F0A801BE010E942023CE010E942D
:1045F0008D21C70104C0CE0102C080E090E0DF91B0
:10460000CF911F910F91FF90EF90DF90CF90BF90CF
:10461000AF909F908F907F906F90089581E090E091
:10462000F8940C941F26FB01DC0104C08D910190CD
:10463000801921F441505040C8F7881B990B089508
:10464000FB01DC0102C001900D9241505040D8F7AF
:104650000895FB01DC018D91019080190110D9F3BF
:10466000990B0895FB01DC0101900D920020E1F708
:104670000895FB01DC014150504048F001900D923B
:104680000020C9F701C01D9241505040E0F7089545
:104690000F931F93CF93DF93CDB7DEB72E970FB64F
:1046A000F894DEBF0FBECDBF0E891F8986E08C83D4
:1046B0001A8309838FEF9FE79E838D83AE01465E49
:1046C0005F4F688D798DCE0101960E9478232F81EE
:1046D0003885F801E20FF31F10822E960FB6F8947A
:1046E000DEBF0FBECDBFDF91CF911F910F91089517
:1046F0002F923F924F925F926F927F928F929F92F2
:10470000AF92BF92CF92DF92EF92FF920F931F93DF
:10471000CF93DF93CDB7DEB72C970FB6F894DEBFFB
:104720000FBECDBF7C016B018A01FC01178216828E
:10473000838181FFBDC1CE0101964C01F7019381B8
:10474000F60193FD859193FF81916F01882309F410
:10475000ABC1853239F493FD859193FF81916F014F
:10476000853229F4B70190E00E948925E7CF512CCA
:10477000312C20E02032A0F48B3269F030F480320A
:1047800059F0833269F420612CC08D3239F08033C6
:1047900039F4216026C02260246023C0286021C033
:1047A00027FD27C030ED380F3A3078F426FF06C0D9
:1047B000FAE05F9E300D1124532E13C08AE0389E1C
:1047C000300D1124332E20620CC08E3221F426FDD0
:1047D0006BC1206406C08C3611F4206802C0883694
:1047E00041F4F60193FD859193FF81916F01811151
:1047F000C1CF982F9F7D9554933028F40C5F1F4FA5
:10480000FFE3F9830DC0833631F0833771F08335D0
:1048100009F05BC022C0F801808189830E5F1F4FC1
:1048200044244394512C540115C03801F2E06F0E1A
:10483000711CF801A080B18026FF03C0652D70E0D7
:1048400002C06FEF7FEFC5012C870E947E252C01EF
:1048500083012C852F77222E17C03801F2E06F0ECE
:10486000711CF801A080B18026FF03C0652D70E0A7
:1048700002C06FEF7FEFC5012C870E9473252C01CA
:104880002C852068222E830123FC1BC0832D90E001
:1048900048165906B0F4B70180E290E00E948925DD
:1048A0003A94F4CFF50127FC859127FE81915F01B1
:1048B000B70190E00E94892531103A94F1E04F1A37
:1048C00051084114510471F7E5C0843611F089365E
:1048D00039F5F80127FF07C06081718182819381DA
:1048E0000C5F1F4F08C060817181072E000C880B80
:1048F000990B0E5F1F4F2F76722E97FF09C0909570
:104900008095709561957F4F8F4F9F4F2068722ED5
:104910002AE030E0A4010E94C125A82EA81844C0B6
:10492000853729F42F7EB22E2AE030E025C0F22F01
:10493000F97FBF2E8F36C1F018F4883579F0B4C0F6
:10494000803719F0883721F0AFC02F2F2061B22EA9
:10495000B4FE0DC08B2D8460B82E09C024FF0AC0A0
:104960009F2F9660B92E06C028E030E005C020E1F8
:1049700030E002C020E132E0F801B7FE07C06081FC
:104980007181828193810C5F1F4F06C060817181AC
:1049900080E090E00E5F1F4FA4010E94C125A82E69
:1049A000A818FB2DFF777F2E76FE0BC0372D3E7F9C
:1049B000A51450F474FE0AC072FC08C0372D3E7E68
:1049C00005C0BA2C372D03C0BA2C01C0B52C34FF5A
:1049D0000DC0FE01EA0DF11D8081803311F4397E96
:1049E00009C032FF06C0B394B39404C0832F867805
:1049F00009F0B39433FD13C030FF06C05A2CB31432
:104A000018F4530C5B18B32CB31468F4B70180E2AC
:104A100090E03C870E948925B3943C85F5CFB31480
:104A200010F43B1801C0312C34FF12C0B70180E3F1
:104A300090E03C870E9489253C8532FF17C031FDFC
:104A400003C088E790E002C088E590E0B7010CC0A1
:104A5000832F867859F031FF02C08BE201C080E2DB
:104A600037FD8DE2B70190E00E948925A51438F446
:104A7000B70180E390E00E9489255A94F7CFAA9469
:104A8000F401EA0DF11D8081B70190E00E948925B3
:104A9000A110F5CF332009F451CEB70180E290E0A8
:104AA0000E9489253A94F6CFF7018681978102C04A
:104AB0008FEF9FEF2C960FB6F894DEBF0FBECDBFE1
:104AC000DF91CF911F910F91FF90EF90DF90CF90EA
:104AD000BF90AF909F908F907F906F905F904F901E
:104AE0003F902F900895FC01059061507040011097
:104AF000D8F7809590958E0F9F1F0895FC01615007
:104B0000704001900110D8F7809590958E0F9F1FEF
:104B100008950F931F93CF93DF93FB01238121FD12
:104B200003C08FEF9FEF28C022FF16C04681578138
:104B3000248135814217530744F4A081B1819D013E
:104B40002F5F3F4F318320838C93268137812F5FE6
:104B50003F4F3783268310C0EB01092F182F0084A5
:104B6000F185E02D1995892BE1F68E819F810196C3
:104B70009F838E83812F902FDF91CF911F910F9173
:104B80000895FA01AA27283051F1203181F1E894E3
:104B90006F936E7F6E5F7F4F8F4F9F4FAF4FB1E030
:104BA0003ED0B4E03CD0670F781F891F9A1FA11D2B
:104BB000680F791F8A1F911DA11D6A0F711D811D2C
:104BC000911DA11D20D009F468943F912AE0269FF1
:104BD00011243019305D3193DEF6CF010895462F50
:104BE0004770405D4193B3E00FD0C9F7F6CF462F31
:104BF0004F70405D4A3318F0495D31FD405241939A
:104C000002D0A9F7EACFB4E0A69597958795779556
:104C10006795BA95C9F700976105710508959B01DD
:104C2000AC010A2E06945795479537952795BA9566
:104C3000C9F7620F731F841F951FA01D089511E00F
:104C4000C8ECD1E000E006C0802FFE010E94E92000
:104C50002196011DC93CD10780E00807A9F7F89407
:024C6000FFCF84
:104C620000C00101010101010100000000008E05E8
:104C7200800000000000DA15DC16531639168A147B
:104C8200161350175C16401392156E150E13FC1571
:104C9200FA150313F015000000001C021B02180293
:104CA20013020F0207020502D9020202FF01FC01F0
:104CB2002904D20301005E000000000000008F09F9
:104CC20043182709D609580936094A090000000085
:104CD2007C0A43187C0A7C0A7C0A7C0A00000000D9
:104CE2007C0A43182409230900000000320A00004C
:104CF20000007C0A000000007C0A7C0A7C0A7C0A14
:104D02007C0A7C0A7C0A7C0A7C0A7C0A7C0A7C0A71
:104D12007C0A7C0A7C0A7C0A00000000CE129D13E9
:104D2200E4121713CB0B310A5D1448142615D51360
:104D3200DD144413590CFC12EC12E812D10C0000E1
:104D42000000D5081103E202CF16000000000000A7
:104D520000007C0A7C0A00000000D702A2028E0832
:104D6200830255022D022A0220021D0200000000C9
:104D720031161C1612160E160A160716FF15020019
:104D82000300040002000300040002000300040008
:104D920002000300040002000300040002000300FA
:104DA20004000200030004000200030004000200E9
:104DB20003000400020003000400020003000400D8
:104DC20002000300040030003C7370616E206964CD
:104DD2003D22446174614C697374315F616C6C6F24
:104DE2007765644C6162656C5F30223E00436F6E92
:104DF2006E656374656400474554202F20485454FF
:104E0200502F312E3100486F73743A20000D0A0082
:104E1200436F6E6E656374696F6E3A20636C6F7375
:104E220065003C7370616E2069643D2263746C306E
:104E3200315F4C5F2564223E003C7370616E2069D5
:104E4200643D2263746C30315F4C5F30223E0076E9
:104E5200697274756575736167652E617A757265BD
:104E620077656273697465732E6E65742F00574996
:064E72005A6E6574000099
:00000001FF
