:100000000C948B000C94BC000C94BC000C94BC00B1
:100010000C94BC000C94BC000C94BC000C94BC0070
:100020000C94BC000C94BC000C94BC000C94BC0060
:100030000C94BC000C94BC000C94BC000C94BC0050
:100040000C94BC000C94BC000C94BC000C94BC0040
:100050000C94BC000C94BC000C94BC000C942102C9
:100060000C94BC000C9495020C946B020C94BC0094
:100070000C94BC000C94BC000C94BC000C94BC0010
:100080000C94BC000C94BC000C94BC000C94BC0000
:100090000C94BC000C94BC000C94BC000C94BC00F0
:1000A0000C94BC000C94BC000C94BC000C94BC00E0
:1000B0000C94BC000C94BC000C94BC000C94BC00D0
:1000C0000C94BC000C94BC000C94BC000C94BC00C0
:1000D0000C94BC000C94BC000C94BC000C94BC00B0
:1000E0000C94BC000C94F8010C94ED000C949C0151
:1000F0000C941E010C94BE000C94FC000C94CB02DA
:100100000C9455010C94F9010C9415020C941001F7
:100110000C940C02CB0211241FBECFEFD1E2DEBF44
:10012000CDBF00E00CBF23E0ACE6B2E001C01D9201
:10013000A032B207E1F712E0A0E0B2E0E4E3FCE0B5
:1001400000E00BBF02C007900D92AC36B107D9F7A3
:1001500010E0CBE8D0E000E006C021970109802F35
:10016000FE010E94DE04CA38D10780E00807A9F723
:100170000E9493030C9418060C940000CF92DF9217
:10018000EF92FF920F931F93CF93DF936C017A014D
:100190008B01C0E0D0E0CE15DF0589F0D8016D916C
:1001A0008D01D601ED91FC910190F081E02DC60109
:1001B0001995892B11F47E0102C02196ECCFC7015D
:1001C000DF91CF911F910F91FF90EF90DF90CF9033
:1001D0000895089580E090E00895FC01538D448DCA
:1001E000252F30E0842F90E0821B930B541710F0E2
:1001F000CF96089501970895FC01918D828D9817EF
:1002000061F0828DDF01A80FB11D5D968C91928DFA
:100210009F5F9F73928F90E008958FEF9FEF0895F7
:10022000FC01918D828D981731F0828DE80FF11DC0
:10023000858D90E008958FEF9FEF0895FC01918DDB
:10024000228D892F90E0805C9F4F821B91098F73D4
:100250009927089585E792E00E941E0121E0892BED
:1002600009F420E0822F0895FC01848DDF01A80F9E
:10027000B11DA35ABF4F2C91848D90E001968F73CE
:100280009927848FA689B7892C93A089B1898C91ED
:1002900080648C93938D848D981306C00288F389B3
:1002A000E02D80818F7D80830895EF92FF920F93E0
:1002B0001F93CF93DF93EC0181E0888F9B8D8C8D12
:1002C000981305C0E889F989808185FD24C0F62E40
:1002D0000B8D10E00F5F1F4F0F731127E02E8C8DD9
:1002E000E8120CC00FB607FCFACFE889F9898081C3
:1002F00085FFF5CFCE010E943401F1CF8B8DFE0139
:10030000E80FF11DE35AFF4FF0820B8FEA89FB895A
:100310008081806207C0EE89FF896083E889F9895E
:1003200080818064808381E090E0DF91CF911F9194
:100330000F91FF90EF900895CF93DF93EC01888D9C
:100340008823C9F0EA89FB89808185FD05C0A889D9
:10035000B9898C9186FD0FC00FB607FCF5CF80815F
:1003600085FFF2CFA889B9898C9185FFEDCFCE01A9
:100370000E943401E7CFDF91CF91089580E090E0B3
:10038000892B21F00E942A01811125C080E090E094
:10039000892B41F080E090E0892B21F00E94000041
:1003A00081111CC080E090E0892B41F080E090E05A
:1003B000892B21F00E940000811113C080E090E0A1
:1003C000892BA1F080E090E0892B81F00E94000051
:1003D00081110AC008950E940000D8CF0E94000039
:1003E000E1CF0E940000EACF0C9400000895089528
:1003F00008950895009769F0FC0101900020E9F745
:100400003197AF01481B590BBC0185E792E00C9472
:10041000BE0080E090E0089524E332E0FC013183E7
:100420002083878190850C947B05CF93DF93EC012B
:100430000E940C02CE01DF91CF910C947B050E94AB
:1004400013061F920F920FB60F9211242F933F9312
:100450008F939F93AF93BF9380917102909172029B
:10046000A0917302B09174023091700223E0230FC7
:100470002D3720F40196A11DB11D05C026E8230FDC
:100480000296A11DB11D209370028093710290937A
:100490007202A0937302B093740280916C029091E7
:1004A0006D02A0916E02B0916F020196A11DB11D67
:1004B00080936C0290936D02A0936E02B0936F02D2
:1004C000BF91AF919F918F913F912F910F900FBE50
:1004D0000F901F9018951F920F920FB60F92112434
:1004E0000BB60F922F933F934F935F936F937F932E
:1004F0008F939F93AF93BF93EF93FF9385E792E022
:100500000E943401FF91EF91BF91AF919F918F9124
:100510007F916F915F914F913F912F910F900BBE03
:100520000F900FBE0F901F9018951F920F920FB64D
:100530000F9211240BB60F922F938F939F93EF93EB
:10054000FF93E0918502F09186028081E0918B0219
:10055000F0918C0282FD12C0908180918E028F5F9B
:100560008F7320918F02821751F0E0918E02F0E09C
:10057000EB58FD4F958F80938E0201C08081FF91D3
:10058000EF919F918F912F910F900BBE0F900FBE07
:100590000F901F9018958F929F92AF92BF92CF921B
:1005A000DF92EF92FF920F931F93CF93DF931092FE
:1005B00078021092770288EE93E0A0E0B0E080939A
:1005C000790290937A02A0937B02B0937C0282E23C
:1005D00092E0909376028093750285EC90E0909380
:1005E00082028093810284EC90E090938402809355
:1005F000830280EC90E0909386028093850281ECE8
:1006000090E0909388028093870282EC90E0909330
:100610008A028093890286EC90E090938C0280930A
:100620008B0210928E0210928F0210929002109202
:10063000910281E090E00E94E604EC0190931B039C
:1006400080931A038BE190E00E94E6048C01FC0188
:10065000108ED28FC18F80E0E82E82E0F82E6801E4
:1006600094E3A92E92E0B92E88248A94982C89E0EC
:1006700090E00E94E604EC01F701819191917F01E5
:10068000B982A8829B838A831D821C821E8286E097
:1006900090E00E94E604FC01918280829382828233
:1006A0001582148298878F83F601C193D1936F01CD
:1006B000F8E1EF16F2E0FF06D1F61093190300936C
:1006C000180381E090E00E94E6047C0190931703F8
:1006D0008093160382E090E00E94E604EC01198208
:1006E0001882909315038093140388E090E00E9491
:1006F000E604FC011182108213830283F582E482F6
:10070000D783C6839093130380931203DF91CF9115
:100710001F910F91FF90EF90DF90CF90BF90AF901F
:100720009F908F900895CF93DF93CDB7DEB7A197B9
:100730000FB6F894DEBF0FBECDBF789484B582604B
:1007400084BD84B5816084BD85B5826085BD85B575
:10075000816085BD80916E00816080936E001092F3
:10076000810080918100826080938100809181006E
:1007700081608093810080918000816080938000FF
:100780008091B10084608093B1008091B00081605D
:100790008093B0008091910082608093910080915D
:1007A000910081608093910080919000816080939E
:1007B00090008091A10082608093A1008091A100AF
:1007C00081608093A1008091A00081608093A0004F
:1007D00080912101826080932101809121018160BB
:1007E000809321018091200181608093200180917C
:1007F0007A00846080937A0080917A00826080938E
:100800007A0080917A00816080937A0080917A00EA
:10081000806880937A001092C100E0918502F09187
:10082000860282E08083E0918102F0918202108250
:10083000E0918302F09184028FEC808310928D020C
:10084000E0918902F0918A0286E08083E09187023C
:10085000F0918802808180618083E0918702F0912D
:100860008802808188608083E0918702F09188020D
:10087000808180688083E0918702F0918802808186
:100880008F7D80838AE0882E912CA12CB12C009141
:10089000120310911303F801808191818230910538
:1008A00071F02CF4009771F0019761F013C0833060
:1008B000910541F0049771F484E090E007C082E074
:1008C00090E004C0F8011182108253C0F8019183B6
:1008D00080834FC08CE392E00E94FA01F801C0804F
:1008E000D1800D2C000CEE08FF08F7FE26C0E09129
:1008F0007502F09176020190F081E02D6DE285E7BE
:1009000092E0199522273327A9012C193D094E0998
:100910005F0919A28E010F5D1F4FCA01B901A50120
:1009200094010E94BC04605DF80162938F0121155F
:1009300031054105510589F715C0A701960119A296
:100940008E010F5D1F4FCA01B901A50194010E94DC
:10095000BC04605DF80162938F01211531054105EA
:10096000510589F7C8010E94FA0189E692E00E94C8
:10097000FA010E94BE018BCFA1E21A2EAA1BBB1B5B
:10098000FD010DC0AA1FBB1FEE1FFF1FA217B3075B
:10099000E407F50720F0A21BB30BE40BF50B661F71
:1009A000771F881F991F1A9469F760957095809535
:1009B00090959B01AC01BD01CF010895EE0FFF1F83
:1009C000881F8BBF0790F691E02D1994CF93DF938A
:1009D0008230910510F482E090E0E0911E03F091E6
:1009E0001F0320E030E0C0E0D0E0309711F14081FB
:1009F000518148175907C0F04817590761F482819F
:100A00009381209719F09B838A832BC090931F03B7
:100A100080931E0326C02115310519F04217530794
:100A200018F49A01BE01DF01EF010280F381E02D8D
:100A3000DCCF2115310509F1281B390B2430310594
:100A400090F412968D919C9113976115710521F088
:100A5000FB019383828304C090931F0380931E0342
:100A6000FD01329644C0FD01E20FF31F8193919383
:100A7000225031092D933C933AC020911C033091B0
:100A80001D03232B41F420911A0230911B02309355
:100A90001D0320931C032091180230911902211587
:100AA000310541F42DB73EB740911C0250911D0213
:100AB000241B350BE0911C03F0911D03E217F30793
:100AC000A0F42E1B3F0B2817390778F0AC014E5FBE
:100AD0005F4F2417350748F04E0F5F1F50931D03DB
:100AE00040931C038193919302C0E0E0F0E0CF01BA
:100AF000DF91CF9108950F931F93CF93DF930097CA
:100B000009F48CC0FC0132971382128200911E03FB
:100B100010911F030115110581F420813181820F8D
:100B2000931F20911C0330911D032817390779F575
:100B3000F0931D03E0931C0371C0D80140E050E026
:100B4000AE17BF0750F412962D913C911397AD014B
:100B50002115310509F1D901F3CF9D01DA01338364
:100B6000228360817181860F971F8217930769F432
:100B7000EC0128813981260F371F2E5F3F4F3183CB
:100B800020838A819B8193838283452B29F4F09370
:100B90001F03E0931E0342C01396FC93EE9312973B
:100BA000ED01499159919E01240F351FE217F3077A
:100BB00071F480819181840F951F029611969C9308
:100BC0008E938281938113969C938E931297E0E08B
:100BD000F0E0D80112968D919C911397009719F02F
:100BE000F8018C01F6CF8D919C9198012E5F3F4FBB
:100BF000820F931F20911C0330911D032817390782
:100C000069F4309729F410921F0310921E0302C05A
:100C10001382128210931D0300931C03DF91CF9166
:100C20001F910F91089581E090E0F8940C941806BC
:040C3000F894FFCF66
:100C3400010002000300040005000600070008008C
:100C440009000A000B000C000000200380000000D3
:100C540000005501BE00ED009C011E01FC001001C6
:100C6400000000000C021502F901F8014552524F30
:100C7400523A20696C6C6567616C2F756E68616EA1
:100C8400646C65642073746174652077697468208A
:0C0C94006E756D6265723A20000D0A005A
:00000001FF
