:100000000C94C7010C94F8010C94F8010C94F801BD
:100010000C94F8010C94F8010C94F8010C94F8017C
:100020000C94F8010C94F8010C94F8010C94F8016C
:100030000C94F6170C94F8010C94F8010C94F80148
:100040000C94F8010C94F8010C94F8010C94F8014C
:100050000C94F8010C94F8010C94F8010C94151B05
:100060000C94F8010C94F7090C94CD090C94F80148
:100070000C94F8010C94F8010C94F8010C94F8011C
:100080000C94F8010C94F8010C94F8010C94F8010C
:100090000C94F8010C94F8010C94F8010C94F801FC
:1000A0000C94F8010C94F8010C94F8010C94F801EC
:1000B0000C94F8010C94F8010C94F8010C94F801DC
:1000C0000C94F8010C94F8010C94F8010C94F801CC
:1000D0000C94F8010C94F8010C94F8010C94F801BC
:1000E0000C94F801811A841A731A771A7B1ABB1AB6
:1000F000881A8C1A921A961A9A1AA01AA41AA81A6E
:10010000BB1AAE1AB21AB61A0C9469160C942013C4
:100110000C9499110C9415020C9458160C94A01A76
:100120000C94731A0C9464080C941E020C94A61080
:100130000C9495110C9463160C9445110C94961A1A
:100140000C94771A0C94B21A0C94A81A0C94F51605
:100150000C94CF080C9462070C949B1C0C946308BD
:100160000C9466160C9467080C9435140C94811A40
:100170000C9426020C9497130C94BB1A0C948A08C6
:100180000C94B3110C9434180C9419020C94C902F9
:100190000C94BB090C9433020C9423020C94A7100A
:1001A0000C947B1A0C949E100C9476080C94710994
:1001B0000C94B4120C9468130C9408020C94A41AB6
:1001C0000C94C5200C949A1A0C94B2070C94841ABF
:1001D0000C94C3140C9430020C94BD100C94E214D3
:1001E0000C948C1A0C940B150C940D020C9456164E
:1001F0000C94E0160C94FA010C94BD150C946D1639
:100200000C9493100C9466170C9469130C9460175B
:100210000C94AE1A0C94881A0C94EC110C941717C9
:100220000C94D2020C9421020C9416090C940B022B
:100230000C9474100C94B5020C9424120C942202A9
:100240000C9498080C944C160C9419190C94FC12EC
:100250000C9405170C94921A0C945B020C947D027A
:100260000C945B160C94B61A0C9472110C947C10BE
:100270000C9478100C9405020C948C100C9420179C
:100280000C94301100002200250028002B002E00C5
:100290003100340002010000050108010B010000DB
:1002A0002100240027002A002D0030003300010126
:1002B0000000040107010A010505050507050808F6
:1002C0000808020202020A0A0808040404040101E0
:1002D00001010101010103030303030303030407F5
:1002E00007070C0C0C0C0C0C0C0C0202020206068C
:1002F0000606060606060B0B0B0B0B0B0B0B01027F
:100300001020200808102040102040800201020127
:1003100008040201010204081020408080402010DF
:100320000804020180040201804020100804020138
:1003300008040201010204081020408001020408A0
:100340001020408000000A0B02090C0D0E08070364
:100350000401000000000000000000000000000098
:10036000000000000000000000000000000000008D
:10037000121110000000000000000000000000004A
:1003800000000000000000000000C5209B1C11249C
:100390001FBECFEFD1E2DEBFCDBF00E00CBF15E046
:1003A000A0E0B2E0E0EAF1E500E00BBF02C0079098
:1003B0000D92A835B107D9F726E0A8E5B5E001C050
:1003C0001D92A83DB207E1F711E0C6ECD1E000E0D4
:1003D00006C021970109802FFE010E949123C53C90
:1003E000D10780E00807A9F70E94B71C0C94BE282B
:1003F0000C940000FC0183A1811105C0858182302D
:1004000010F481E083A381E00895FC0183810895C5
:10041000FC01828108950B960895FC012481822FAE
:1004200090E02C3008F00C970895FC0187819085AE
:100430000895FC016481758186810895FC0163A3A0
:10044000089508950895FC01628F08956F5F7F4FAE
:10045000660F771F860F971FFC0180819181089599
:10046000FC01828D0895CF92DF92EF92FF920F935D
:100470001F93CF93DF937C016A018B01C0E0D0E032
:10048000CC15DD057CF4D8016D917D918D01D701EE
:10049000ED91FC910084F185E02DAE01C701199525
:1004A0002196EECFDF91CF911F910F91FF90EF90AA
:1004B000DF90CF900895EF92FF920F931F93CF9309
:1004C000DF938C017B01C0E0D0E0CE15DF055CF44A
:1004D000D801ED91FC910480F581E02DBE01C801A9
:1004E00019952196F2CF81E0F801828FDF91CF91AB
:1004F0001F910F91FF90EF900895AF92BF92CF920E
:10050000DF92EF92FF920F931F93CF93DF936115CA
:10051000710539F089016C01EB017A01A12CB12C34
:1005200004C012161306B4F315C0A016B10694F455
:1005300069917991D601ED91FC910190F081E02DC6
:10054000C6011995F701819391937F01FFEFAF1ACF
:10055000BF0AEBCFDF91CF911F910F91FF90EF90EA
:10056000DF90CF90BF90AF90089568537F4F660F94
:10057000771F072E000C880B990B0E94E42120E0C6
:1005800030E040E250E40E94E9220E945B23CB016C
:100590000895C0960E94FC1291E0811101C090E084
:1005A000892F08952F923F924F925F926F927F9280
:1005B0008F929F92AF92BF92CF92DF92EF92FF9273
:1005C0000F931F93CF93DF93CDB7DEB7A6970FB6E8
:1005D000F894DEBF0FBECDBF7C012DB63EB63CA267
:1005E0002BA26C0124E2C20ED11C8091B7058111AF
:1005F0002AC010929F0510929E0588EE93E0A0E01D
:10060000B0E08093A0059093A105A093A205B093BC
:10061000A30584E593E090939D0580939C0584E277
:1006200093E09093AB058093AA051092AC051092CD
:10063000AD051092AE051092AF0584E08093B4052D
:1006400081E08093B70589E595E0909382068093D9
:1006500081066CE271E080E090E00E94CF1A1FB743
:10066000F89480915805811124C0EDEEF2E0849158
:10067000E3E3F3E0249190E0880F991F82569D4FA9
:10068000FC01A591B491EC91E22321F461E085E3B2
:100690000E94521A85E30E948C0A8CB580618CBD41
:1006A0008CB580648CBD84E30E948C0A83E30E9435
:1006B0008C0A809158058F5F809358051FBF249A3C
:1006C00080E590E00E94631760E880E090E00E947F
:1006D000F21365E58BE190E00E94F21365E58AE193
:1006E00090E00E94F2130E94621780E090E49093E1
:1006F000CF058093CE0580E090E69093D705809358
:10070000D60580E098E49093D1058093D00580E0F1
:1007100098E69093D9058093D80580E090E5909372
:10072000D3058093D20580E090E79093DB0580931A
:10073000DA0580E098E59093D5058093D40580E0B4
:1007400098E79093DD058093DC0580E590E00E94BA
:10075000631746E050E0B60189E090E00E945D0A30
:1007600084E293E09A8389831B821C821D821E820D
:1007700044E050E0BE016D5F7F4F8FE090E00E944B
:100780005D0A0E9462170091810610918206D801CD
:1007900092961D921D921D921C929597F80116A299
:1007A00017A210A611A69A961D921D921D921C9238
:1007B0009D9780E69AEEA0E0B0E086AB97ABA0AF45
:1007C000B1AF80EA9FE0A0E0B0E082AF93AFA4AF0A
:1007D000B5AFD801189686E0FD01282E11922A9413
:1007E000E9F79801225F3F4F94E1F90111929A9540
:1007F000E9F7F60101900D928A95E1F74801F2E4DC
:100800008F0E911CD4011C920E9499212FEC37E08D
:1008100040E050E00E948622DC01CB010196A11D40
:10082000B11DF80184839583A683B7838083918368
:10083000A283B3835801F3E4AF0EB11CC5010E943B
:10084000301164E470E0C5010E944511882309F469
:100850000DC30E94091B2B013C01212C312CD12CF2
:1008600042E0C42ED4018C91833009F405C181117A
:1008700021C0F80184819581A681B7810196A11DCF
:10088000B11D84839583A683B7830E94091B6419D5
:1008900075098609970928EE33E040E050E00E9490
:1008A000B822A90161E0C8010E94441981E0D40185
:1008B0008C93C4C0843001F5F80184819581A681B0
:1008C000B7810196A11DB11D84839583A683B7834B
:1008D0000E94091B641975098609970928EE33E0FF
:1008E00040E050E00E94B822A90163E0C8010E94E4
:1008F0004419D401CC92A2C0813061F5F80142AD17
:1009000053AD64AD75AD9E012F5F3F4FC8010E948E
:10091000AE0ED82EF2E08F1391C089819A81AB81FF
:10092000BC81F80184839583A683B7830E94091B49
:10093000641975098609970928EE33E040E050E014
:100940000E94B822A90163E0C8010E944419D401A1
:10095000DC927AC0823009F071C0F80142AD53AD2B
:1009600064AD75AD9E012F5F3F4FC8010E94AE0E72
:10097000D82EF5E08F135CC0E3E0D401EC93F801CE
:1009800082A193A1A4A1B5A1892B8A2B8B2B41F421
:1009900084E893E0A0E0B0E082A393A3A4A3B5A36E
:1009A000F80186A197A1A0A5B1A5892B8A2B8B2B35
:1009B00061F482A193A1A4A1B5A1B695A79597953D
:1009C000879586A397A3A0A7B1A7F80182A593A5B1
:1009D000A4A5B5A5892B8A2B8B2BA9F482A193A161
:1009E000A4A1B5A1AC01BD0123E07695679557950B
:1009F00047952A95D1F7841B950BA60BB70B82A7B9
:100A000093A7A4A7B5A7F80186A197A1A0A5B1A512
:100A100086A797A7A0ABB1AB82A593A5A4A5B5A5C2
:100A200082AB93ABA4ABB5AB22242394312C0CC086
:100A3000F6E08F1303C0D4011C9206C0BFEFDB1297
:100A400003C0F4011082D12CF1E02F16310409F417
:100A500009CF0E94091BDC01CB0184199509A60965
:100A6000B709F80126A937A940AD51AD28173907B4
:100A70004A075B0708F0F6CEC5010E943011F80165
:100A800084819581A681B7810196A11DB11D8483C2
:100A90009583A683B7830E94091BF801FE966083A5
:100AA0007183828393832A94232809F0DFC180E530
:100AB00090E00E9463176091810670918206625FE8
:100AC0007F4FCE0101960E94BD0944E050E0BE0177
:100AD0006D5F7F4F8FE090E00E945D0A609181061C
:100AE000709182066A5E7F4FCE0101960E94BD0919
:100AF00044E050E0BE016D5F7F4F81E090E00E94D6
:100B00005D0A60918106709182066E5E7F4FCE0114
:100B100001960E94BD0944E050E0BE016D5F7F4F29
:100B200085E090E00E945D0A0E9462176091810654
:100B300070918206625E7F4FCE0101960E94BD09D0
:100B40008B819C81AD81BE8180937D0690937E06D2
:100B5000A0937F06B0938006D70118961C921E9230
:100B60001797CDB6DEB69E960D911C919F97C80142
:100B70000196EDB7FEB7E81BF90B0FB6F894FEBF70
:100B80000FBEEDBF2DB73EB72F5F3F4F5901892BE9
:100B9000A1F02115310589F00115110519F4D901CC
:100BA0001C920BC0F70162A573A5A801C9010E94A0
:100BB000D825F501E00FF11F10828701005D1F4F5E
:100BC00040E550E0B501C8010E946D160197B9F4E7
:100BD0006CE773E0C8010E94871C6BE873E0C801F2
:100BE0000E94871C6FEA73E0C8010E94871C61ECB9
:100BF00073E0C8010E94291C7724739401C0712CF2
:100C00000FB6F894DEBE0FBECDBE772009F42EC11C
:100C100064EC73E08EED95E00E94871C86E090E026
:100C20000E94A0235C010E94091BD50112966D93BE
:100C30007D938D939C931597812C912CD701ED91E9
:100C4000FC910684F785E02DC70119958823D1F121
:100C50000E94091BF50122813381448155811B01CA
:100C60002C01221A330A440A550A80819181092EE7
:100C7000000CAA0BBB0B281639064A065B0638F493
:100C800064012DE3C20ED11CCE0CDF1C0AC00E94F1
:100C9000091BD50112966D937D938D939C931597A7
:100CA00011C0C8010E94B311892B41F2C8010E94F2
:100CB0009911F60181936F01FFEF8F1A9F0AD601F8
:100CC0001C92EFCF86E1E9EEF3E0DE011196019090
:100CD0000D928A95E1F726E130E0AE014F5F5F4F5C
:100CE000B701CE014D960E94351889A19AA1892B92
:100CF00009F447C0ED8DFE8D8081882309F441C041
:100D000022E030E040E050E0BE01635E7F4FCE0164
:100D100047960E94C41BCE0147960E945F1BF701B5
:100D20006483CE0147960E94AA1B25E030E043E091
:100D300050E0BE01635E7F4FCE0147960E94C41B08
:100D4000CE0147960E945F1BD70115966C93CE018A
:100D500047960E94AA1B28E030E046E050E0BE0122
:100D6000635E7F4FCE0147960E94C41BCE0147961B
:100D70000E945F1BF7016683CE0147960E94AA1B63
:100D800001C0712CCE014D960E94AA1B772009F458
:100D90006DC05701FBE0AF0EB11C01E010E089EC23
:100DA000882E83E0982ECDB6DEB60A3011051CF0F1
:100DB00027E130E002C026E130E02DB63EB6221A2F
:100DC000330A0FB6F8943EBE0FBE2DBE8DB79EB748
:100DD00001963C011F930F939F928F927F928F9366
:100DE0002DA33EA30E94E7252DA13EA1A301B7019B
:100DF000CE0101960E9435180F900F900F900F9022
:100E00000F900F908D819E81892B39F1E981FA81B4
:100E10008081882311F1CE0101960E945F1BD501CC
:100E20006D937D935D01CE0101960E94AA1B0FB6C2
:100E3000F894DEBE0FBECDBE0F5F1F4F0D30110503
:100E400009F0B1CF60EE73E08EED95E00E94871C53
:100E500081E0D70112968C9315C0CE0101960E94B5
:100E6000AA1B0FB6F894DEBE0FBECDBEF701878178
:100E700090850196908787830A9724F081E0838389
:100E8000108617822BA03CA00FB6F8943EBE0FBE72
:100E90002DBEA6960FB6F894DEBF0FBECDBFDF9174
:100EA000CF911F910F91FF90EF90DF90CF90BF9067
:100EB000AF909F908F907F906F905F904F903F90FA
:100EC0002F900895CF92DF92EF92FF920F931F938E
:100ED000CF93DF938C017B01EA01CC0FDD1FC00FA4
:100EE000D11F8A819B81DC01ED91FC910680F78105
:100EF000E02D60E070E01995EA81FB810190F081BE
:100F0000E02DC480D580D801ED91FC910190F08155
:100F1000E02DB701C8011995BC018A819B81F601BA
:100F200019950A811B81D8011A96CD91DC911B97E6
:100F30006C2F16968D919C9117970E947822BE0176
:100F4000660F672F661F770BF801868197810196E0
:100F5000DF91CF911F910F91FF90EF90DF90CF9095
:100F60000C947822CF92DF92EF92FF920F931F930F
:100F7000CF93DF93EB01CC0FDD1FC80FD91F0A8180
:100F80001B81D8011696CD90DC901797C60101966B
:100F90000E947022B0E88B9F70011124C6010E944C
:100FA0007022E82AF801F386E2860190F081E02DB4
:100FB0000680F781E02D61E070E0C80119958A8113
:100FC0009B81DC01ED91FC9111971A966D917C91BA
:100FD0001B970480F581E02D1995EA81FB81148629
:100FE000DF91CF911F910F91FF90EF90DF90CF9005
:100FF0000895EF92FF920F931F93CF93DF93EC012D
:101000007B018AE392E0998388831A821B82188687
:101010001F828FEF9FEF9A8789871BA28E01065D43
:101020001F4F1BA61AA61DA61CA61FA61EA60417A8
:10103000150759F0FA01608171816115710529F078
:1010400044815581C8010E946A1B1BAA1AAA88EE16
:1010500093E0A0E0B0E08CAB9DABAEABBFAB86E164
:1010600092E099AB88AB84E08CAFF701DE019496F7
:1010700081918D93A017B107D9F71C821D821E8222
:10108000DF91CF911F910F91FF90EF9008950097FE
:1010900011F00E94871C8DE00E948C0A61E08DE0B7
:1010A0000E94521A6AEF70E080E090E00E94CF1A2E
:1010B00060E08DE00E94521A6AEF70E080E090E0FC
:1010C0000E94CF1AEBCF089580E090E00895FC01D4
:1010D000538D448D252F30E0842F90E0821B930B9D
:1010E000541710F0CF96089501970895FC01918D43
:1010F000828D981761F0828DDF01A80FB11D5D967A
:101100008C91928D9F5F9F73928F90E008958FEFE7
:101110009FEF0895FC01918D828D981731F0828D9B
:10112000E80FF11D858D90E008958FEF9FEF0895F2
:10113000FC01918D228D892F90E0805C9F4F821B56
:1011400091098F73992708958EED95E00E94980874
:1011500021E0892B09F420E0822F0895FC01848D81
:10116000DF01A80FB11DA35ABF4F2C91848D90E0D1
:1011700001968F739927848FA689B7892C93A089AC
:10118000B1898C9180648C93938D848D981306C063
:101190000288F389E02D80818F7D80830895EF920E
:1011A000FF920F931F93CF93DF93EC0181E0888F21
:1011B0009B8D8C8D981305C0E889F989808185FD08
:1011C00024C0F62E0B8D10E00F5F1F4F0F731127F9
:1011D000E02E8C8DE8120CC00FB607FCFACFE88920
:1011E000F989808185FFF5CFCE010E94AE08F1CF4D
:1011F0008B8DFE01E80FF11DE35AFF4FF0820B8F3C
:10120000EA89FB898081806207C0EE89FF8960835B
:10121000E889F98980818064808381E090E0DF91B2
:10122000CF911F910F91FF90EF900895CF93DF938F
:10123000EC01888D8823C9F0EA89FB89808185FDCE
:1012400005C0A889B9898C9186FD0FC00FB607FC2F
:10125000F5CF808185FFF2CFA889B9898C9185FF70
:10126000EDCFCE010E94AE08E7CFDF91CF91089578
:1012700080E090E0892B21F00E94A408811125C014
:1012800080E090E0892B41F080E090E0892B21F014
:101290000E94000081111CC080E090E0892B41F089
:1012A00080E090E0892B21F00E940000811113C0A2
:1012B00080E090E0892BA1F080E090E0892B81F024
:1012C0000E94000081110AC008950E940000D8CF3A
:1012D0000E940000E1CF0E940000EACF0C940000C1
:1012E00008958F929F92AF92BF92CF92DF92EF922A
:1012F000FF920F931F93CF93DF937C01EB016C015F
:1013000082E0C80ED11C4701E5E08E0E911C00E082
:1013100010E0F60141916F0150E060E070E02AE0DA
:10132000CE010E943E1C5C01E881F9810190F081B0
:10133000E02D6EE2CE0119958A0D9B1D080F191F35
:10134000C814D90431F7F701458150E060E070E03E
:101350002AE0CE010E943E1C800F911FDF91CF91A9
:101360001F910F91FF90EF90DF90CF90BF90AF90C3
:101370009F908F9008950E94B62524E233E0FC01EF
:1013800031832083FB014081518162817381FC01A3
:10139000428353836483758308951F920F920FB61F
:1013A0000F9211240BB60F922F933F934F935F939D
:1013B0006F937F938F939F93AF93BF93EF93FF931D
:1013C0008EED95E00E94AE08FF91EF91BF91AF9135
:1013D0009F918F917F916F915F914F913F912F914D
:1013E0000F900BBE0F900FBE0F901F9018951F927D
:1013F0000F920FB60F9211240BB60F922F938F936B
:101400009F93EF93FF93E091EE05F091EF058081BC
:10141000E091F405F091F50582FD12C09081809174
:10142000F7058F5F8F732091F805821751F0E091D7
:10143000F705F0E0E252FA4F958F8093F70501C06F
:101440008081FF91EF919F918F912F910F900BBE13
:101450000F900FBE0F901F901895CF92DF92EF92D2
:10146000FF920F931F93CF93DF93EC017A018B01CF
:101470006C01C40ED51ECC15DD05A9F00E94D11358
:101480008FE00E94EB138D2F0E94EB138C2F0E9494
:10149000EB13219680E00E94EB13F80181938F01FA
:1014A0000E94CF13E8CFC701DF91CF911F910F9119
:1014B000FF90EF90DF90CF900895CF92DF92EF9260
:1014C000FF920F931F93CF93DF93EC017A018B016F
:1014D0006C01C40ED51ECC15DD05A1F00E94D11300
:1014E00080EF0E94EB138D2F0E94EB138C2F0E9434
:1014F000EB132196F80181918F010E94EB130E945A
:10150000CF13E9CFC701DF91CF911F910F91FF90CA
:10151000EF90DF90CF90089590E0FC01E250FD4FF6
:101520002491FC01E854FD4F8491882399F090E0C8
:10153000880F991FFC01E256FD4FA591B491FC0163
:10154000EC57FD4F859194918FB7F894EC91E22B75
:10155000EC938FBF08950F931F93CF93DF938C016C
:10156000C0918906D0918A0684E090E00E94A02371
:10157000FC0190938A0680938906892B41F46FE0E1
:1015800075E080918306909184060E94470813823B
:101590001282118300838091870690918806892B9F
:1015A00029F4F0938806E093870602C0FB83EA8360
:1015B0008091850690918606019690938606809389
:1015C0008506DF91CF911F910F910895CF92DF9201
:1015D000EF92FF92CF93DF936C01990FEE08FF0813
:1015E000F7FE1CC0E091DE05F091DF050190F0816F
:1015F000E02D6DE28EED95E01995EC01442755271D
:10160000BA014C195D096E097F092AE08EED95E05B
:101610000E943E1C7C01EC0EFD1E08C02AE0B701B2
:10162000A6018EED95E00E943E1C7C0161EC73E00A
:101630008EED95E00E94291C8E0D9F1DDF91CF91AC
:10164000FF90EF90DF90CF900895CF93C82F462F53
:1016500061E070E00E94BC1161E070E08C2F0E949C
:10166000C6118111F9CFCF9108958F929F92AF92B9
:10167000BF92CF92DF92EF92FF920F931F93CF937F
:10168000DF93B82E4B018A01A22E68E270E00E941F
:10169000C611C82FD0E069E270E08B2D0E94C61100
:1016A000DC2FCC27C82B9E013770CB2CD12CC60148
:1016B000880F991FAC014A525A4F6A01FA01808182
:1016C0009181820F931FA801420F531F4130584050
:1016D00098F060E078E07B01E21AF30AA701B40118
:1016E0000E942D0AA8014E195F09B4016E0D7F1DDD
:1016F000F6018081918102C0A801B4010E942D0AE7
:10170000A1100EC0C00FD11F4D2F68E270E08B2DCD
:101710000E94BC114C2F69E270E08B2D0E94BC111D
:10172000DF91CF911F910F91FF90EF90DF90CF90BD
:10173000BF90AF909F908F9008959F92AF92BF926D
:10174000CF92DF92EF92FF920F931F93CF93DF938D
:10175000982E8B015A01690164E270E00E94C61163
:10176000E82EF12C65E270E0892D0E94C611FE2C56
:10177000EE24E82AE701C00FD11F9E013770E92C43
:10178000F12CC701880F991FAC0142535A4F7A01BF
:10179000FA0180819181820F931FA9014C0D5D1D7B
:1017A0004130584090F000E018E0021B130BA801F4
:1017B000B5010E945D0AA601401B510BB501600FE7
:1017C000711FF7018081918102C0A601B5010E94BD
:1017D0005D0ACC0DDD1D4D2F64E270E0892D0E9465
:1017E000BC114C2F65E270E0892DDF91CF911F91E4
:1017F0000F91FF90EF90DF90CF90BF90AF909F90B0
:101800000C94BC11FF920F931F93CF93DF93F82E8C
:10181000C0E0D0E08F2D0E94D3138C01892B21F0E2
:101820008F2D0E94D313EC01C017D10799F7CE0179
:10183000DF91CF911F910F91FF9008952F923F92CA
:101840004F925F926F927F928F929F92AF92BF92D0
:10185000CF92DF92EF92FF920F931F93CF93DF937C
:10186000CDB7DEB765970FB6F894DEBF0FBECDBF1C
:101870007C016B013A01FB0120E080E090E06AE02E
:101880003191332309F140ED430F4A3080F4689FD2
:10189000A001699F500D1124CA01C097830F911DAB
:1018A00037FD9A958F3F910559F350F313C03E329F
:1018B00089F4233079F0D301A20FB11D12968C93D5
:1018C0002F5F80E090E0DCCF233021F4F3018583AB
:1018D00081E021C0F701428153816481758180914B
:1018E000990690919A06A0919B06B0919C06481784
:1018F00059076A077B0709F49EC10E94091B8701EB
:10190000085F1F4F6F7077277C5FC8010E944511E9
:10191000813019F080E090E0F3C184E293E09A8393
:101920008983F70182819381A481B5818B839C8314
:10193000AD83BE8345E350E0BE016F5F7F4FC801BA
:101940000E94B412892B19F4C12CD12C6FC10E94B2
:10195000091BF701778366837627672776277A83C3
:10196000698342E050E0BE016F5F7F4FC8010E9473
:10197000971381E090E09E878D8742E050E0BE01A2
:10198000635F7F4FC8010E94971380E091E09E87BC
:101990008D8742E050E0BE01635F7F4FC8010E9427
:1019A00097131E861D8642E050E0BE01635F7F4FA5
:1019B000C8010E94971342E050E0BE01635F7F4F71
:1019C000C8010E94971342E050E0BE01635F7F4F61
:1019D000C8010E9497135601F5018081882311F1F7
:1019E000F6015F018191811115C045018C189D0898
:1019F0001814190494F48F8641E050E0BE01615F31
:101A00007F4FC8010E949713A401B601C8010E942C
:101A1000971303C08E3229F7E8CF6501FFEFCF1A85
:101A2000DF0ADACF1F8641E050E0BE01615F7F4FE1
:101A3000C8010E949713C12CDD24D394DE86CD8685
:101A400042E050E0BE01635F7F4FC8010E949713E0
:101A5000DE86CD8642E050E0BE01635F7F4FC80165
:101A60000E949713C8010E94EC11892B09F46CCFD6
:101A700063E0A62EB12CF2E06F0E711C0E94091BD0
:101A80001B012C01C8010E940B1518161906A4F0A1
:101A90000E94091BDC01CB0182199309A409B50935
:101AA00089389341A105B105D0F462E370E080E08C
:101AB00090E00E94CF1AE6CFF70142815381648102
:101AC0007581808D918DA28DB38D481759076A0756
:101AD0007B0741F4848D958DC59721F406C02FEFC7
:101AE0003FEF9AC02EEF3FEF97C0F70181A192A17F
:101AF0000C970CF4A6C04CE050E0BE016F5F7F4F26
:101B0000C8010E94C3148B8190E0982F88272C81F4
:101B1000822B9A8B898B298130E0322F22274A81B0
:101B2000242BF701468157814217530709F086C0DD
:101B300097FF84C08F709270892B09F0DEC0CF8030
:101B4000D12CDC2CCC248885C82AC114D10409F4FA
:101B5000D1C0812C912C8D8190E0982F88272E81E7
:101B6000822B8816990608F46FC0812C912C41E0D5
:101B700050E0BE016D5E7F4FC8010E94C3148B8987
:101B8000982F907C09F093C0811186C08B898111B8
:101B9000EECF42E050E0BE01615F7F4FC8010E947E
:101BA000C31442E050E0BE01635F7F4FC8010E9452
:101BB000C314C8010E94E214C8010E94E214C801C3
:101BC0000E94E214C8010E94E21442E050E0BE010B
:101BD0006F5E7F4FC8010E94C3148F85988981155D
:101BE000914009F069C02D853E8532272327322791
:101BF0002130310509F060C089899A8981159440A6
:101C000009F075C044E050E0B301C8012C8B3D8B56
:101C10000E94C3142C893D896901F1E0AF1AB10813
:101C200029F02FEFC216D20609F428CFC8010E946E
:101C30003011C60165C08EEF9FEF62C02CEF3FEF01
:101C4000EBCF2DEF3FEFE8CF41E050E0BE01635F07
:101C50007F4FC8010E94C3148D85811113C08D85EB
:101C60008111F2CFC8010E94E214C8010E94E2145F
:101C7000C8010E94E214C8010E94E214FFEF8F1A0B
:101C80009F0A69CF8D859FEF980F9D87882339F331
:101C9000C8010E94E214F6CF8B899FEF980F9B8BAF
:101CA000882309F473CFC8010E94E214F5CFC8015C
:101CB0000E94E2141B8A6ACF412C512C89899A898F
:101CC0009827892798274816590638F4C8010E9492
:101CD000E2148FEF481A580AF1CFEFEF8E1A9E0ADE
:101CE0008C149D0409F043CF26EF3FEF95CF27EFEB
:101CF0003FEF92CF2AEF3FEF8FCF2BEF3FEF8CCF0D
:101D000065960FB6F894DEBF0FBECDBFDF91CF91C1
:101D10001F910F91FF90EF90DF90CF90BF90AF9009
:101D20009F908F907F906F905F904F903F902F90FB
:101D3000089580E3FB0180833296842F82958F7013
:101D400090E1899F401911244A3014F4405D01C08C
:101D5000495C4293482F8111F0CF08952F923F9212
:101D60004F925F926F927F928F929F92AF92BF92AB
:101D7000CF92DF92EF92FF920F931F93CF93DF9357
:101D8000CDB7DEB7E3970FB6F894DEBF0FBECDBF79
:101D90007C011A012B0139010E94091B4B015C01D6
:101DA00087010D5B1F4FC8010E940B1518161906FD
:101DB000A4F00E94091BDC01CB0188199909AA092A
:101DC000BB09281639064A065B06D8F062E370E0C4
:101DD00080E090E00E94CF1AE6CF42E250E0BE01E0
:101DE0006F5F7F4FC8010E94C3148981823011F058
:101DF00080E061C1F8018489958983349105C1F738
:101E000002C08FEF58C16D817E818F8198850E94BD
:101E100099234B015C01F301608371838283938377
:101E200046E050E0B701685F7F4FCE014D960E94BB
:101E3000BB25892BE9F6F70180819181A281B381CD
:101E400088169906AA06BB0698F284819581A68118
:101E5000B78188159905AA05BB0550F289899A8929
:101E6000AB89BC8986879787A08BB18B8EECA82E17
:101E7000B12CC8010E94E214F1E0AF1AB108C9F711
:101E800019A6670182E2C80ED11CF701B696FBA71E
:101E9000EAA7C7018A969DA78CA73C974F01899610
:101EA0009FA78EA73897F9ABE8AB1701F6E12F0E85
:101EB000311CC5979BAB8AABF801818D928D1816AA
:101EC00019060CF0F7C0C8010E94E2148333910593
:101ED00009F4CBC0FCF481309105C9F11CF4892BC5
:101EE00059F3DCC083309105D1F1069709F0D6C0D3
:101EF000C8010E94E2145C0144E050E06AA97BA999
:101F0000C8010E94C314412C512CBB24F4E0AF1A29
:101F1000B10840C08A33910509F47BC03CF4853395
:101F2000910569F0C69709F440C0B8C08B3391059C
:101F300009F485C08F3F910509F4BECFAFC0C80139
:101F40000E94E214C8010E94E21489A7B5CFC8011B
:101F50000E94E21444E050E068A979A93AC0C8019F
:101F60000E94E2145C0144E050E0B101C8010E940B
:101F7000C314412C512CBB2494E0A91AB1084A1473
:101F80005B040CF099CFC8010E94E214EFEF4E1AE7
:101F90005E0AF5CF4A145B040CF08ECFC8010E9494
:101FA000E2148FEF481A580AF5CFC8010E94E214D4
:101FB000B82EF701828D811110C0838D81110DC063
:101FC000848D81110AC0858D811107C044E050E0E5
:101FD000B401C8010E94C3146FCFEEA5FFA54080D5
:101FE000518062807380B401CE0183960E94BD0946
:101FF0008DA19EA1AFA1B8A584159505A605B7052D
:1020000029F3BB2009F458CFC8010E94E214BA9406
:10201000F8CFC8010E94E21444E050E06AA57BA515
:10202000C8010E94C314F70166A177A180A591A5FC
:102030000E94992366A377A380A791A73DCFC801EB
:102040000E94E21444E050E06CA57DA5C8010E9406
:10205000C314F70162A573A584A595A50E949923D1
:1020600062A773A784A795A727CFC8010E94E2148F
:1020700044E050E0B601C8010E94C314F70162A118
:1020800073A184A195A10E94992362A373A384A341
:1020900095A366A777A780AB91AB0ECFC8010E942E
:1020A000E214B82EBB2009F407CFC8010E94E21445
:1020B000BA94F8CF89A5E3960FB6F894DEBF0FBEA9
:1020C000CDBFDF91CF911F910F91FF90EF90DF90E7
:1020D000CF90BF90AF909F908F907F906F905F90C8
:1020E0004F903F902F900895FC01818D928D08951F
:1020F000FC0184899589089524E233E0FC01318351
:102100002083FB014089518962897389FC014283E4
:102110005383648375830895DC01ED91FC91008CF9
:10212000F18DE02D1994FC019485FB0184859813B1
:1021300003C081E0943009F480E0089521E0FC01BF
:102140008485843009F420E0822F08950895CF9388
:10215000DF931F92CDB7DEB76983DC01ED91FC916F
:102160000280F381E02D41E050E0BE016F5F7F4FC0
:1021700019950F90DF91CF910895CF92DF92EF9252
:10218000FF920F931F93CF93DF93CDB7DEB7AF9737
:102190000FB6F894DEBF0FBECDBF7C016A0104E22A
:1021A00013E01A8309831C861B8688EE93E0A0E067
:1021B000B0E08D879E87AF87B88B84E593E09A87E0
:1021C0008987188F0F8B198E1A8E1B8E1C8E84E0B8
:1021D00089A31DA30CA31EA21FA218A619A6809155
:1021E0007D0690917E06A0917F06B09180068CA717
:1021F0009DA7AEA7BFA78B839C83AD83BE831886A4
:102200001F82AE014C5D5F4FCE0101960E941E0CF5
:1022100081309105B1F4D701ED91FC910088F189ED
:10222000E02D1BA70AA78EA19FA1A8A5B9A58CA7E1
:102230009DA7AEA7BFA7A601BE01665D7F4FC701E0
:102240001995AF960FB6F894DEBF0FBECDBFDF91E4
:10225000CF911F910F91FF90EF90DF90CF90089555
:10226000CF93DF93EC01888D843061F00E94641578
:10227000E88DF0E0EE0FFF1FEF53F94F118210824F
:1022800084E0888FDF91CF910895EF92FF921F93A2
:10229000CF93DF93FC01208D243011F080E01CC02F
:1022A0007B01EC0110E0812F0E943316811102C0E6
:1022B000188F05C08831E1F31F5F1430A1F7888DB6
:1022C000843061F3FD86EC861A8E198E20E0A7011A
:1022D00062E00E94781581E0DF91CF911F91FF901D
:1022E000EF9008950F931F93CF93DF931F92CDB775
:1022F000DEB78C01DC01ED91FC910480F581E02DCD
:102300001995892B51F0BE016F5F7F4FF8018485CD
:102310000E941514898190E002C08FEF9FEF0F900B
:10232000DF91CF911F910F910895FC0184850C944A
:102330007014CF93DF931F92CDB7DEB741E050E02A
:10234000BE016F5F7F4FFC0184850E9470141816D8
:1023500019061CF4898190E002C08FEF9FEF0F9067
:10236000DF91CF910895FC018485843011F00C94A5
:102370004E1480E090E008959B0190E00496982F21
:102380008827642F820F931F0C94F2130F931F93CF
:10239000CF93DF931F92CDB7DEB790E00496982FCE
:1023A00088278C01060F171F0E94D1138FE00E940F
:1023B000EB13812F0E94EB13802F0E94EB1380E020
:1023C0000E94EB1389830E94CF1389810F90DF91C4
:1023D000CF911F910F910895CF93FC01C08D80E59F
:1023E00090E00E94631760E270E08C2F0E94250B42
:1023F00062E070E08C2F0E94C61184FD19C062E07B
:1024000070E08C2F0E94C61183FF0BC048E162E090
:1024100070E08C2F0E94BC110E94621780E090E057
:1024200011C00E94621780E590E00E946317E0CF20
:1024300040E162E070E08C2F0E94BC110E946217A4
:1024400081E090E0CF9108958F929F92AF92BF92DA
:10245000CF92DF92EF92FF920F931F93CF93DF9370
:102460006C015B017A01FC01C485C43041F481E058
:1024700090E0F6019383828380E090E057C08A0168
:102480004130584010F000E018E080E590E00E94F4
:1024900063178C2F0E94020C4C0163E070E08C2FBC
:1024A0000E94C611D82F0E946217D73111F0DC317B
:1024B00021F48016910648F302C000E010E080E5A8
:1024C00090E00E9463179801A50160E070E08C2FF6
:1024D0000E949D0B60E270E08C2F0E94250B62E051
:1024E00070E08C2F0E94C61184FD14C063E070E080
:1024F0008C2F0E94C611811106C00E9462178C2F7A
:102500000E946415B4CF0E94621780E590E00E949B
:102510006317E5CF40E162E070E08C2F0E94BC11B0
:102520000E946217012B09F4A2CFC701DF91CF915E
:102530001F910F91FF90EF90DF90CF90BF90AF90E1
:102540009F908F900895CF93DF93C82FD62F472F5A
:1025500060E170E00E94BC114D2F61E170E08C2FB2
:10256000DF91CF910C94BC11FF920F931F93CF93E7
:10257000DF93FB01DC0157961C921E9256975896EA
:10258000FC908281811109C08381811106C0848100
:10259000811103C085818823F9F041155105E1F0CF
:1025A0008A01EF0180E590E00E946317BE016E5F33
:1025B0007F4F2F2D30E0922F882744E050E0845F3A
:1025C0009B4F0E945D0AB8018F2D0E94A3120E94AA
:1025D000621781E090E002C080E090E0DF91CF914F
:1025E0001F910F91FF900895FC018485843011F0B4
:1025F0000C94331680E00895CF93DF93FC0124857B
:102600002430D1F0EC010E94F412843181F088234F
:1026100071F0883161F08C3161F4E881F9810480D6
:10262000F581E02DCE01199521E0892B19F420E0E8
:1026300001C021E0822F01C080E0DF91CF91089599
:10264000CF92DF92EF92FF921F93CF93DF93FC0123
:1026500014851430A9F1EC0180E590E00E94631725
:1026600068E070E0812F0E94250B0E9462170E9493
:10267000091B6B017C01CE010E94F4128823B1F08A
:1026800061E070E080E090E00E94CF1A0E94091B98
:10269000DC01CB018C199D09AE09BF09883E93402E
:1026A000A105B10540F38C850E946415EC85F0E02E
:1026B000EE0FFF1FEF53F94F1182108284E08C87D9
:1026C000DF91CF911F91FF90EF90DF90CF90089511
:1026D0000895CF93DF931F92CDB7DEB76983DC01F6
:1026E000ED91FC910280F381E02D41E050E0BE01CC
:1026F0006F5F7F4F19950F90DF91CF9108951F93D2
:10270000CF93DF93182F66E270E00E94C611C82FA6
:10271000D0E067E270E0812F0E94C611DC2FCC2749
:102720009E01282BC901DF91CF911F910895AF928F
:10273000BF92CF92DF92FF920F931F93CF93DF93BD
:102740008C015B01EA01FC01C688D788F08C80E52A
:1027500090E00E9463178F2D0E94020C8C179D073A
:1027600020F48F2D0E94020CEC019E01A501B60100
:102770008F2D0E949D0B0E946217F8018689978910
:102780008C0F9D1F978B868BCE01DF91CF911F9170
:102790000F91FF90DF90CF90BF90AF9008952C9A4B
:1027A00008952C9808951F93CF93DF93182F60E21C
:1027B00070E00E94C611C82FD0E061E270E0812F66
:1027C0000E94C611DC2FCC279E01282BC901DF9166
:1027D000CF911F9108958EBD00000DB407FEFDCF6F
:1027E0008EB508951F93CF93DF931F921F92CDB79D
:1027F000DEB7182F6A8399830E94D11380EF0E945D
:10280000EB139981892F0E94EB13812F0E94EB1308
:102810006A81862F0E94EB130E94CF1381E00F90F4
:102820000F90DF91CF911F9108951F93CF93DF9366
:102830001F921F92CDB7DEB7182F80E590E0698315
:102840007A830E94631721E041E050E069817A8138
:10285000812F0E94350B0E94621781E090E00F905B
:102860000F90DF91CF911F910895CF93DF931F9227
:10287000CDB7DEB7FC01218D328D232B49F0BE018F
:102880006F5F7F4F808D0E941514898190E002C098
:102890008FEF9FEF0F90DF91CF910895FF920F93ED
:1028A0001F93CF93DF93F82E80E590E00E9463178B
:1028B000C0E0D0E08F2D0E947F138C01892B21F086
:1028C0008F2D0E947F13EC01C017D10799F70E944A
:1028D0006217CE01DF91CF911F910F91FF90089564
:1028E000AF92BF92CF92DF92EF92FF921F93CF935E
:1028F000DF93182F5B017A0180E590E00E94631757
:10290000C0E0D0E0812F0E947F136C01892B21F061
:10291000812F0E947F13EC01CC15DD0599F72097DC
:1029200099F463E070E0812F0E94C6118431F1F0C8
:102930008823E1F0C1E0D0E08C3111F4C0E0D0E0B8
:10294000D195C195D10912C0EC16FD060CF4E70132
:102950001C161D065CF420E0AE01B501812F0E941B
:10296000350B60E470E0812F0E94250B0E946217F6
:10297000CE01DF91CF911F91FF90EF90DF90CF902C
:10298000BF90AF900895CF93DF93FC01218D328DDE
:102990002115310519F48FEF9FEF11C0EC0142179B
:1029A000530708F0A901888D0E94701418161906A3
:1029B00094F7298D3A8D281B390B3A8F298FDF9197
:1029C000CF9108950F931F93CF93DF931F92CDB7AD
:1029D000DEB7FC01218D328D232B61F08C0141E0AB
:1029E00050E0BE016F5F7F4F808D0E9470141816FB
:1029F00019061CF08FEF9FEF08C0F801818D928DB2
:102A00000197928F818F898190E00F90DF91CF9114
:102A10001F910F9108950F931F93CF93DF93CDB71D
:102A2000DEB728970FB6F894DEBF0FBECDBF8C017E
:102A3000F801818D928D892B49F0D801ED91FC919F
:102A40000680F781E02DC8011995F2CF808D0E9494
:102A50004E14181619065CF548E050E0BE016F5F91
:102A60007F4FD80158968C910E9470149C011816C3
:102A70001906DCF489819A81AB81BC81F801808BD5
:102A8000918BA28BB38B8D8190E0982F88272E811C
:102A9000820F911D958B848B2F8130E0322F22275E
:102AA0008885280F311D328F218FC90102C080E037
:102AB00090E028960FB6F894DEBF0FBECDBFDF9131
:102AC000CF911F910F910895CF93C82F80E590E08B
:102AD0000E94631760E170E08C2F0E94250B4FEF7E
:102AE00062E070E08C2F0E94BC11CF910C946217B1
:102AF000FF920F931F93CF93DF931F921F92CDB737
:102B0000DEB7F82E8A012A8369830E94641580E566
:102B100090E00E9463172A816981462F422B60E072
:102B200070E08F2D0E94BC110115110551F4009128
:102B3000C9061091CA060F5F1F4F1093CA06009373
:102B4000C906412F64E070E08F2D0E94BC11402F18
:102B500065E070E08F2D0E94BC1161E070E08F2D68
:102B60000E94250B0E94621781E00F900F90DF9169
:102B7000CF911F910F91FF900895BF92CF92DF9256
:102B8000EF92FF920F931F93CF93DF9300D000D06B
:102B9000CDB7DEB7FC01208D243009F053C06A01A7
:102BA0007B018C01B12C63E070E08B2D0E94C6117B
:102BB000811103C0F801B08E06C08831D9F3B394F7
:102BC000F4E0BF12F0CFF801808D8430D9F196E0A7
:102BD000E6E7F3E0DE01119601900D929A95E1F798
:102BE000F70193819F779C8394819D8395819E8338
:102BF000B7016E5F7F4F90E0982F882744E050E048
:102C0000845F9B4F0E945D0AB601F801808D0E948F
:102C1000A312F801808D90E0982F882746E050E0BD
:102C2000BE016F5F7F4F8A5F9B4F0E945D0AF80174
:102C3000128E118E20E8A60162E0808D0E94781528
:102C400081E001C080E026960FB6F894DEBF0FBE8B
:102C5000CDBFDF91CF911F910F91FF90EF90DF904B
:102C6000CF90BF9008951F93CF93DF931F92CDB75E
:102C7000DEB7182F80E590E00E94631763E070E0F4
:102C8000812F0E94C61189830E94621789810F904B
:102C9000DF91CF911F910895DC01ED91FC91048C9F
:102CA000F58DE02D199591E089270895862F0895D7
:102CB00081E08627089583B7662311F0816001C003
:102CC0008E7F83BF0895FC0164830895FC01848195
:102CD0000895FC01828193810895CF92DF92EF9253
:102CE000FF920F931F93CF93DF93CDB7DEB7AF97CC
:102CF0000FB6F894DEBF0FBECDBF7C016A0104E2BF
:102D000013E01A8309831C861B8688EE93E0A0E0FB
:102D1000B0E08D879E87AF87B88B84E593E09A8774
:102D20008987188F0F8B198E1A8E1B8E1C8E84E04C
:102D300089A31DA30CA31EA21FA218A619A68091E9
:102D40007D0690917E06A0917F06B09180068CA7AB
:102D50009DA7AEA7BFA78B839C83AD83BE83188638
:102D60001F82AE014C5D5F4FCE0101960E941E0C8A
:102D700081309105B1F4D701ED91FC910484F58582
:102D8000E02D1BA70AA78EA19FA1A8A5B9A58CA776
:102D90009DA7AEA7BFA7A601BE01665D7F4FC70175
:102DA0001995AF960FB6F894DEBF0FBECDBFDF9179
:102DB000CF911F910F91FF90EF90DF90CF900895EA
:102DC000CF93DF93EC0160E475E08EED95E00E9417
:102DD000871CE881F9810484F585E02D61E0CE014E
:102DE00019958895DF91CF910895CF93DF93EC01EA
:102DF00067E475E08EED95E00E94871C81E090E02D
:102E00009B838A83DF91CF910895CF93DF93EC0169
:102E100067E475E08EED95E00E94871C2A813B8176
:102E2000215031093B832A83DF91CF910895672B8D
:102E300011F460E001C061E0FC0184810C94521A3D
:102E4000CF92DF92EF92FF920F931F93CF93DF9376
:102E5000EC017B0161E08A810E94521A60E0888562
:102E60000E94521A00E010E08FE0C82ED12C61E0E1
:102E70000E151F059CF48E810E94521AC6010197FF
:102E8000F1F760E08E810E94521A61E070E080E00C
:102E900090E00E94CF1A0F5F1F4FE9CF88850E94F4
:102EA000521A60E08A810E94521AFB86EA86DF91FC
:102EB000CF911F910F91FF90EF90DF90CF900895E9
:102EC0000C94352408958CBD9DBD0895CF92DF925A
:102ED000FF920F931F93CF93DF93FC01248524303F
:102EE00009F077C06A01EB018C01F12C8F2D0E9453
:102EF0003316811103C0F801F48607C08B7F883137
:102F0000D1F3F394F4E0FF12F1CFF801848584301B
:102F100009F45FC020910602309107022F5F3F4FF6
:102F200011F420E030EC3093070220930602409128
:102F300006025091070220E061E00E947815F80136
:102F4000F4848A818F3F51F48B818F3F91F48C817F
:102F50008F3F79F48D818F3F61F438C0811109C0B2
:102F60008B81811106C08C81811103C08D818823E2
:102F700069F1C114D10451F180E590E00E9463171A
:102F8000BE016E5F7F4F8F2D90E0982F882744E021
:102F900050E0845F9B4F0E945D0AB6018F2D0E9416
:102FA000A31264E070E08F2D0E94250BC8010E94DF
:102FB000F412873189F061E070E080E090E00E94D7
:102FC000CF1AC8010E94F4128111F0CF84E0F801F9
:102FD000848780E090E002C081E090E0DF91CF91B3
:102FE0001F910F91FF90DF90CF9008951F920F9245
:102FF0000FB60F9211240BB60F922F933F934F935E
:103000005F936F937F938F939F93AF93BF93EF9350
:10301000FF938091BF059091C005DC01ED91FC917B
:103020000284F385E02D61E019958091BF059091B0
:10303000C005DC01ED91FC910484F585E02D60E094
:103040001995FF91EF91BF91AF919F918F917F91D2
:103050006F915F914F913F912F910F900BBE0F9009
:103060000FBE0F901F90189508954F925F927F9218
:103070008F929F92AF92BF92CF92DF92EF92FF9288
:103080000F931F93CF93DF9300D000D0CDB7DEB75F
:103090008C01CB018DB69EB6690161E0C61AD108DC
:1030A000E0E0F0E060E070E0A5ECB9E05D01A21ABC
:1030B000B30AEA15FB050CF05EC0DC01AE0FBF1FC2
:1030C000DD963C91DA01A60FB71F2C9132134DC04B
:1030D0006F5F7F4F6C157D0509F04BC09F012F5F1F
:1030E0003F4FB901412C512C643CA9E07A074CF5C3
:1030F0007201EE0EFF1EE80EF91ED701DE967C90DF
:10310000D20111967D01BCE37B1217C0CDB6DEB6AD
:10311000EDB7FEB7EE19FF090FB6F894FEBF0FBE6C
:10312000EDBF6DB77EB76F5F7F4F235C3F4F820F60
:10313000931FFB01460E571E06C027016F5F7F4F8E
:10314000D3CFB60116C0E415F50529F0DC012D91A9
:10315000CD012193F8CF1082C8010E94AF1B0FB69A
:10316000F894DEBE0FBECDBE23C0E61BF70B60E0B9
:1031700070E031969ECF63EC73E0CE0101960E9421
:10318000AF1B89819A81F801918380838B819C8117
:10319000938382838D819E81958384831A82198291
:1031A0001C821B821E821D82CE0101960E94AA1BD8
:1031B000C8010FB6F8949EBE0FBE8DBE26960FB600
:1031C000F894DEBF0FBECDBFDF91CF911F910F915D
:1031D000FF90EF90DF90CF90BF90AF909F908F9037
:1031E0007F905F904F9008953FB7F8948091D006FC
:1031F0009091D106A091D206B091D30626B5A89B96
:1032000005C02F3F19F00196A11DB11D3FBFBA2F78
:10321000A92F982F8827820F911DA11DB11DBC01D8
:10322000CD0142E0660F771F881F991F4A95D1F79D
:103230000895CF92DF92EF92FF920F931F93CF9357
:10324000DF936C017A018B01C0E0D0E0CE15DF0581
:1032500089F0D8016D918D01D601ED91FC9101901D
:10326000F081E02DC6011995892B11F47E0102C071
:103270002196ECCFC701DF91CF911F910F91FF9065
:10328000EF90DF90CF9008957F928F929F92AF92B0
:10329000BF92CF92DF92EF92FF920F931F93CF9343
:1032A000DF93CDB7DEB7A6970FB6F894DEBF0FBE9B
:1032B000CDBF8C01762E942E852E20E2B22ECE012B
:1032C00001967C01FC012B2D11922A95E9F784E2ED
:1032D00093E09AA389A38FEF8BA38CA38DA38EA3D6
:1032E000680183E4C80ED11C43E450E0BE016F5D69
:1032F0007F4FC6010E94B412019609F4BFC081E05D
:1033000089838A8386E0A82EAB821C82F8016481BF
:103310007581868197810E9499236D837E838F8337
:10332000988789869A8680E890E09C878B874CE115
:1033300050E0B701C6010E949713F7012B2D11929F
:103340002A95E9F7480188E0880E911CF401D7011D
:1033500001900D92AA94E1F740E150E0B701C60157
:103360000E949713F7011192BA94E9F796E0A92EFB
:10337000B12C40E250E0B701C6010E949713F1E082
:10338000AF1AB108B1F783E6898392E89A8393E58F
:103390009B838C8385E38D8381E08E837F829DE395
:1033A000988797E099878A8786E0F401DE011B966B
:1033B00001900D928A95E1F78CE0898B8A8B61E50B
:1033C00075E0CE0143960E94D125F8014385BE01E8
:1033D000675E7F4FC8010E94990EF8014485BE01C7
:1033E000655E7F4FC8010E94990EF8014585BE01B8
:1033F000635E7F4FC8010E94990E4EE150E0B70115
:10340000C6010E949713F3E07F121EC082E38983F6
:1034100084E08A83F80196859B8397859C839089B5
:103420009D8391899E8396E39F838887828D898778
:10343000838D8A87848D8B87858D8C874CE050E0C7
:10344000B701C6010E94971387E3898386E08A83C8
:1034500091E09B8393E09C838D838FE08E838AE34E
:103460008F838BE388878FEF898749E050E0B7012E
:10347000C6010E949713C6010E94EC11A6960FB6D2
:10348000F894DEBF0FBECDBFDF91CF911F910F919A
:10349000FF90EF90DF90CF90BF90AF909F908F9074
:1034A0007F900895362F90E0FC01EC5BFC4F449137
:1034B000FC01E250FD4F2491FC01E854FD4F949132
:1034C000992309F46BC0442309F455C050E0FA0174
:1034D0003197E231F10508F04EC08827EE58FF4FD2
:1034E0008F4F0C949123809180008F7707C080913B
:1034F00080008F7D03C080918000877F8093800053
:103500003AC084B58F7702C084B58F7D84BD33C047
:103510008091B0008F7703C08091B0008F7D809341
:10352000B00029C0809190008F7707C080919000F3
:103530008F7D03C080919000877F809390001BC097
:103540008091A0008F7707C08091A0008F7D03C07D
:103550008091A000877F8093A0000DC08091200102
:103560008F7707C0809120018F7D03C0809120015B
:10357000877F80932001E92FF0E0EE0FFF1FEC57CB
:10358000FD4FA591B4918FB7F894EC91311103C020
:1035900020952E2301C02E2B2C938FBF08958F9240
:1035A0009F92AF92BF92CF92DF92EF92FF926B0108
:1035B0007C010E94F4184B015C01C114D104E104A8
:1035C000F104F1F00E94F418DC01CB01881999098B
:1035D000AA09BB09883E9340A105B10570F321E01B
:1035E000C21AD108E108F10888EE880E83E0981E1F
:1035F000A11CB11CC114D104E104F10419F7DDCF01
:10360000FF90EF90DF90CF90BF90AF909F908F9002
:1036100008952FB7F8946091CC067091CD068091F3
:10362000CE069091CF062FBF08951F920F920FB62E
:103630000F9211242F933F938F939F93AF93BF9338
:103640008091CC069091CD06A091CE06B091CF0688
:103650003091CB0623E0230F2D3720F40196A11DD6
:10366000B11D05C026E8230F0296A11DB11D2093B0
:10367000CB068093CC069093CD06A093CE06B09354
:10368000CF068091D0069091D106A091D206B0913C
:10369000D3060196A11DB11D8093D0069093D1064B
:1036A000A093D206B093D306BF91AF919F918F9113
:1036B0003F912F910F900FBE0F901F901895FC0116
:1036C00080819181009711F00C94A62160E070E058
:1036D000CB010895EF92FF920F931F93CF93DF9347
:1036E000EC017B018A0188819981009729F02A8168
:1036F0003B8124173507F8F4B8016F5F7F4F0E94B4
:10370000CD24009759F0998388831B830A832C81E9
:103710003D81232B81F4FC0110820DC088819981A9
:10372000009711F00E943524198218821D821C8294
:103730001B821A8207C01D830C83B701888199817F
:103740000E94D125CE01DF91CF911F910F91FF9063
:10375000EF900895FC01808191810C943524FC0147
:1037600011821082138212821582148261157105F2
:1037700051F0FB0101900020E9F73197AF01461BA2
:10378000570B0C946A1B0895BF92CF92DF92EF9271
:10379000FF920F931F93CF93DF937C016B01EA019C
:1037A00089012417350720F48D2FE901042F182FE4
:1037B00063EC73E0C7010E94AF1BD60114968D9194
:1037C0009C911597C817D907C8F58017910708F479
:1037D0008C01D601ED91FC911197E00FF11FB080A3
:1037E00010824D915C91BA016C0F7D1F61157105BE
:1037F00061F0FB0101900020E9F73197AF01461B12
:10380000570BC7010E946A1B13C0F7018081918189
:10381000009711F00E943524D70111961C921E9238
:1038200015961C921E92149713961C921E92129734
:10383000D601ED91FC91E00FF11FB082C701DF913D
:10384000CF911F910F91FF90EF90DF90CF90BF909D
:1038500008956115710579F0FB0101900020E9F7E9
:103860003197AF01461B570BDC01ED91FC910280B3
:10387000F381E02D199480E090E008954F925F92DB
:103880006F927F92EF92FF920F931F93CF93DF93EC
:10389000CDB7DEB7A1970FB6F894DEBF0FBECDBF90
:1038A0007C01FA01CB0119A2223008F42AE08E0132
:1038B0000F5D1F4F422E512C612C712CBF01A301B3
:1038C00092010E94B822F901CA01015011096A301F
:1038D00014F4605D01C0695CD8016C93232B242B28
:1038E000252B61F7B801C7010E94291CA1960FB6CC
:1038F000F894DEBF0FBECDBFDF91CF911F910F9126
:10390000FF90EF907F906F905F904F9008950F938E
:103910001F93CF93DF93EC010E94291C8C0161EC73
:1039200073E0CE010E94291C800F911FDF91CF917F
:103930001F910F910895CF93DF93C0918706D09187
:103940008806CD2B71F08091870690918806FC0146
:10395000C281D3810E943524D0938806C093870604
:10396000F0CF8BE896E0DF91CF910C94AA1BCF9318
:10397000DF93CDB7DEB7A9970FB6F894DEBF0FBEC1
:10398000CDBF789484B5826084BD84B5816084BDE8
:1039900085B5826085BD85B5816085BD80916E00ED
:1039A000816080936E00109281008091810082601E
:1039B000809381008091810081608093810080915B
:1039C00080008160809380008091B100846080934A
:1039D000B1008091B00081608093B000809191002F
:1039E000826080939100809191008160809391002A
:1039F000809190008160809390008091A10082600E
:103A00008093A1008091A10081608093A1008091AA
:103A1000A00081608093A00080912101826080934A
:103A200021018091210181608093210180912001F9
:103A300081608093200180917A00846080937A0075
:103A400080917A00826080937A0080917A00816010
:103A500080937A0080917A00806880937A00109237
:103A6000C100E091EE05F091EF0582E08083E091E6
:103A7000EA05F091EB051082E091EC05F091ED057F
:103A80008FEC80831092F605E091F205F091F3053A
:103A900086E08083E091F005F091F10580818061FE
:103AA0008083E091F005F091F1058081886080834A
:103AB000E091F005F091F105808180688083E091CC
:103AC000F005F091F10580818F7D808372E9472EAA
:103AD00072E0572ECE0101967C015E0199E1A90E9C
:103AE000B11C3701DE2CCF2C28E01501E6E58E2E27
:103AF000E2E09E2EF201DE019196822F01900D925E
:103B00008A95E1F78DE090E029A70E94A0238C011F
:103B1000FE01B196D10129A5822F01900D928A95BF
:103B2000E1F7D8018D929D92F101822F01900D92C3
:103B30008A95E1F7D8011B961C921E921A971C9643
:103B40001C921C9714968C9129A70E948C0AF8014C
:103B500086810E948C0AD80118968C910E948C0A4A
:103B6000F80182810E948C0AD3010D931D933D01BF
:103B7000B8E04B0E511C29A56A147B0409F0BACF9A
:103B800081E090E00E94A0234C019093C2058093B5
:103B9000C1058DE190E00E94A0238C018EE692E0A9
:103BA000F80191838083128E948E838E3296D70192
:103BB0008D919D917D0181939193AA15BB05B9F7D4
:103BC00082E30E948C0A1093C4050093C3051AA2D5
:103BD00019A21CA21BA21EA21DA260918B067091AD
:103BE0008C066115710541F040918F065091900649
:103BF000CE0181960E946A1B81E09AE00E94A02378
:103C00008C01AE014F5D5F4F60E072E00E94F907EA
:103C10001093C6050093C505CE0181960E94AA1B8C
:103C200085E090E00E94A0238C0184E892E0F801F6
:103C3000918380831382128214821093C0050093B3
:103C4000BF0583B78E7F83BF1093C8050093C70558
:103C500086E090E00E94A0237C010E94091BD7010E
:103C600012966D937D938D939C931597F092CB054F
:103C7000E092CA0588E090E00E94A023FC01209118
:103C8000C5053091C6058091C3059091C405118288
:103C90001082938382833583248317830683F09372
:103CA000CD05E093CC051092C905DC01ED91FC91A6
:103CB0000680F781E02D6CE070E01995BB24B39489
:103CC000E0918706F0918806309709F09CC08091BA
:103CD000C7059091C805DC01ED91FC910084F18548
:103CE000E02D1995882301F18091C7059091C805B1
:103CF000DC01ED91FC910284F385E02D60E01995E3
:103D00008091C7059091C805DC01ED91FC9106807A
:103D1000F781E02D1995892B19F483E090E002C01A
:103D200084E090E00E94AB0A8091C5059091C605A1
:103D3000DC01ED91FC910288F389E02D199588232F
:103D4000B1F06FEF73E08EED95E00E94871C8091DB
:103D5000C5059091C605DC01ED91FC910280F381CF
:103D6000E02D60E0199580E090E00E94AB0A809120
:103D7000C5059091C605DC01ED91FC910088F189A3
:103D8000E02D19958823B1F06FE074E08EED95E099
:103D90000E94871C8091C5059091C605DC01ED91BC
:103DA000FC910190F081E02D60E0199581E090E0B8
:103DB0000E94AB0A8091C3059091C405DC01ED918E
:103DC000FC910484F585E02D1995882381F080917C
:103DD000C3059091C405DC01ED91FC910088F18947
:103DE000E02D60E0199582E090E00E94AB0A80919E
:103DF000C905882309F49FC11092C90585E090E0A8
:103E00000E94AB0A98C1E080F1800091CC0510912E
:103E1000CD05F801808191818130910509F45AC066
:103E20008230910509F435C1892B09F062C16CE13A
:103E300074E08EED95E00E94291CC7010E94E60AFD
:103E4000F2E0EF16F10409F445C185E0E816F1044B
:103E5000A1F1EA94EF2809F002C1D8011296ED9180
:103E6000FC9113970190F081E02DE280F38014968D
:103E70008D919C911597DC01ED91FC910484F58561
:103E8000E02D19952CE030E04D2D5C2DBC01F801A2
:103E900082819381F7011995D80112968D919C9199
:103EA0001397DC01ED91FC910284F385E02D4CE049
:103EB00050E06D2D7C2D1995D2C0D80114968D91AE
:103EC0009C911597DC01ED91FC910688F789E02D16
:103ED0001995C5C065E374E08EED95E00E94291C3C
:103EE000C7010E94E60AF1E0EF16F10401F185E056
:103EF000E816F10409F4B6C0EF2809F0EBC0F801A8
:103F000084819581DC01ED91FC910480F581E02DA7
:103F100060E01995F80182819381DC01ED91FC91BB
:103F20000680F781E02D6CE070E0199598C06CE494
:103F300074E08EED95E00E94871CD80114968D9157
:103F40009C911597DC01ED91FC910480F581E02DA9
:103F500060E019956EE674E08EED95E00E94291CF4
:103F6000F80184819581DC01ED91FC910284F38557
:103F7000E02D19957C010E94E60AF8018281938167
:103F8000DC01ED91FC910480F581E02DB7011995DC
:103F900060E874E08EED95E00E94871CF801848152
:103FA0009581DC01ED91FC910484F585E02D199556
:103FB000F801A281B3814D915C9111979701220F75
:103FC000331F820F931FFC0160817181FA012081F0
:103FD0003181CD01F90119954C016CE874E08EED49
:103FE00095E00E94871CD80112968D919C911397A1
:103FF000DC01ED91FC910084F185E02DA401B70175
:10400000199563E974E08EED95E00E94871CD80154
:104010001696ED91FC9117970190F081E02DE280CA
:10402000F38014968D919C911597DC01ED91FC9194
:104030000680F781E02D1995AB01682FF801868184
:104040009781F701199565EA74E08EED95E00E947D
:10405000871CD80116968D919C9117973EC080E0E1
:1040600090E044C0F80184819581DC01ED91FC91E0
:104070000488F589E02D1995882361F1F801848180
:104080009581DC01ED91FC910688F789E02D199569
:1040900021C063EC74E08EED95E00E94291CC701FD
:1040A0000E94E60AF3E0EF16F104A1F084E0E816BE
:1040B000F104D1F4D80116968D919C911797DC01EB
:1040C000ED91FC910190F081E02D1995F801868128
:1040D000978103C081E090E009C0DC01ED91FC9183
:1040E0000480F581E02D199582E090E0F80191833C
:1040F00080838091870690918806009741F46DED4A
:1041000074E080918306909184060E944708DC0148
:1041100012960D911C9113970E94352410938806D6
:10412000009387068091850690918606019790936B
:104130008606809385060091CA051091CB050E94E2
:10414000091BF8014280538064807580AB01BC017B
:10415000441955096609770980819181092E000C5F
:10416000AA0BBB0B481759076A077B0758F00E9438
:10417000091BD80112966D937D938D939C9315978F
:10418000B092C9050E9438099BCDE7E9F6E084E2C8
:1041900093E0918380831282138214821582EDE969
:1041A000F6E0918380831282138214821582E3EAFF
:1041B000F6E0918380831282138214821582EEEDE1
:1041C000F5E01382128248EE53E060E070E0448331
:1041D00055836683778326EF32E03183208325EC95
:1041E00030E03587248724EC30E03787268720ECC1
:1041F00030E0318B208B21EC30E0338B228B22ECB2
:1042000030E0358B248B26EC30E0378B268B118EFB
:10421000128E138E148EE9EAF6E091838083128267
:10422000138214821582EFEAF6E091838083128272
:10423000138214821582E5EBF6E09183808312826B
:10424000138214821582EBE7F6E091838083128259
:10425000138214821582EBEBF6E091838083128245
:10426000138214821582E1E9F6E091838083128241
:1042700013821482158261E973E08BE896E00E9454
:10428000AF1BE3E8F6E013821282158214821782D4
:1042900016821182108208958F929F92AF92BF92E0
:1042A000CF92DF92EF92FF92CF93DF93EC01688180
:1042B00079818A819B81611571058105910521F4C0
:1042C00064E279ED8BE597E02DE133EF41E050E0DA
:1042D0000E94862249015A019B01AC01A7EAB1E480
:1042E0000E94A5226B017C01ACEEB4EFA501940104
:1042F0000E94B322DC01CB018C0D9D1DAE1DBF1DA4
:10430000B7FF03C00197A109B04888839983AA83A6
:10431000BB83BC01CD019F77DF91CF91FF90EF90E0
:10432000DF90CF90BF90AF909F908F9008950C94A6
:104330004C2188E092E00C944C2160930802709329
:10434000090280930A0290930B0208951F93FC01C7
:1043500099278827BC01E89411911032E9F31930AC
:1043600010F01E30C8F31B3251F01D3249F468942E
:1043700006C00E94CD21610F711D811D911D1191FB
:1043800010531A30B0F33EF4909580957095619576
:104390007F4F8F4F9F4F1F910895592F482F372FD1
:1043A000262F660F771F881F991F660F771F881F9C
:1043B000991F620F731F841F951F660F771F881F39
:1043C000991F0895E89409C097FB3EF49095809555
:1043D000709561957F4F8F4F9F4F9923A9F0F92FCB
:1043E00096E9BB279395F695879577956795B79549
:1043F000F111F8CFFAF4BB0F11F460FF1BC06F5F2F
:104400007F4F8F4F9F4F16C0882311F096E911C040
:10441000772321F09EE8872F762F05C0662371F061
:1044200096E8862F70E060E02AF09A95660F771F75
:10443000881FDAF7880F9695879597F9089597F969
:104440009F6780E870E060E008959FEF80EC08953A
:1044500000240A9416161706180609060895002463
:104460000A9412161306140605060895092E0394DD
:10447000000C11F4882352F0BB0F40F4BF2B11F451
:1044800060FF04C06F5F7F4F8F4F9F4F089557FDB0
:104490009058440F551F59F05F3F71F04795880FB2
:1044A00097FB991F61F09F3F79F087950895121649
:1044B00013061406551FF2CF4695F1DF08C01616F5
:1044C00017061806991FF1CF8695710561050894A6
:1044D0000895E894BB2766277727CB0197F90895BD
:1044E000F999FECF92BD81BDF89A992780B50895BC
:1044F000262FF999FECF1FBA92BD81BD20BD0FB600
:10450000F894FA9AF99A0FBE01960895052E97FB32
:104510001EF400940E949D2257FD07D00E94B822ED
:1045200007FC03D04EF40C949D2250954095309595
:1045300021953F4F4F4F5F4F08959095809570950F
:1045400061957F4F8F4F9F4F08950E94DA22A59F5C
:10455000900DB49F900DA49F800D911D112408957E
:10456000B7FF0C94A5220E94A522821B930B0895ED
:10457000A1E21A2EAA1BBB1BFD010DC0AA1FBB1F67
:10458000EE1FFF1FA217B307E407F50720F0A21BD9
:10459000B30BE40BF50B661F771F881F991F1A9446
:1045A00069F760957095809590959B01AC01BD0170
:1045B000CF010895A29FB001B39FC001A39F700DCA
:1045C000811D1124911DB29F700D811D1124911D1B
:1045D00008950E94FD220C9436220E942F2258F04A
:1045E0000E94282240F029F45F3F29F00C941F22FA
:1045F00051110C946A220C9425220E94472268F3E0
:104600009923B1F3552391F3951B550BBB27AA278B
:1046100062177307840738F09F5F5F4F220F331FC5
:10462000441FAA1FA9F335D00E2E3AF0E0E832D08D
:1046300091505040E695001CCAF72BD0FE2F29D090
:10464000660F771F881FBB1F261737074807AB0762
:10465000B0E809F0BB0B802DBF01FF2793585F4FD7
:104660003AF09E3F510578F00C941F220C946A2278
:104670005F3FE4F3983ED4F3869577956795B795B9
:10468000F7959F5FC9F7880F911D9695879597F9C4
:104690000895E1E0660F771F881FBB1F621773073D
:1046A0008407BA0720F0621B730B840BBA0BEE1F52
:1046B00088F7E09508950E9462236894B1110C94E4
:1046C0006A2208950E944F2288F09F5798F0B92FD0
:1046D0009927B751B0F0E1F0660F771F881F991F37
:1046E0001AF0BA95C9F714C0B13091F00E9469224E
:1046F000B1E008950C946922672F782F8827B85F5E
:1047000039F0B93FCCF3869577956795B395D9F78E
:104710003EF490958095709561957F4F8F4F9F4F98
:104720000895EE0FFF1F881F8BBF0790F691E02DB5
:104730001994692796276927782787277827089566
:10474000CF93DF938230910510F482E090E0E09106
:10475000D606F091D70620E030E0C0E0D0E03097F8
:1047600011F14081518148175907C0F04817590786
:1047700061F482819381209719F09B838A832BC0F7
:104780009093D7068093D60626C02115310519F0DF
:104790004217530718F49A01BE01DF01EF010280AE
:1047A000F381E02DDCCF2115310509F1281B390BF0
:1047B0002430310590F412968D919C9113976115D8
:1047C000710521F0FB019383828304C09093D70687
:1047D0008093D606FD01329644C0FD01E20FF31F1F
:1047E00081939193225031092D933C933AC02091AB
:1047F000D4063091D506232B41F420910E0230913E
:104800000F023093D5062093D40620910C023091EC
:104810000D022115310541F42DB73EB7409110022C
:1048200050911102241B350BE091D406F091D5066E
:10483000E217F307A0F42E1B3F0B2817390778F077
:10484000AC014E5F5F4F2417350748F04E0F5F1FD6
:104850005093D5064093D4068193919302C0E0E033
:10486000F0E0CF01DF91CF9108950F931F93CF9385
:10487000DF93009709F48CC0FC01329713821282F7
:104880000091D6061091D7060115110581F42081FB
:104890003181820F931F2091D4063091D5062817BD
:1048A000390779F5F093D506E093D40671C0D801A5
:1048B00040E050E0AE17BF0750F412962D913C91A6
:1048C0001397AD012115310509F1D901F3CF9D01F0
:1048D000DA013383228360817181860F971F8217EB
:1048E000930769F4EC0128813981260F371F2E5F69
:1048F0003F4F318320838A819B8193838283452B21
:1049000029F4F093D706E093D60642C01396FC93A1
:10491000EE931297ED01499159919E01240F351F95
:10492000E217F30771F480819181840F951F02963D
:1049300011969C938E938281938113969C938E9370
:104940001297E0E0F0E0D80112968D919C911397B8
:10495000009719F0F8018C01F6CF8D919C91980188
:104960002E5F3F4F820F931F2091D4063091D506C2
:104970002817390769F4309729F41092D706109256
:10498000D60602C0138212821093D5060093D40675
:10499000DF91CF911F910F9108956F927F928F9227
:1049A0009F92AF92BF92CF92DF92EF92FF920F93BE
:1049B0001F93CF93DF93EC01009789F4CB01DF9134
:1049C000CF911F910F91FF90EF90DF90CF90BF900C
:1049D000AF909F908F907F906F900C94A023FC01DC
:1049E000E60FF71F9C0122503109E217F30708F484
:1049F000ACC0D9010D911C91119706171707B0F0A3
:104A00000530110508F49FC0C80104978617970761
:104A100008F499C002501109061B170B019311935A
:104A20006D937C93CF010E9435248DC05B01A01A49
:104A3000B10A4C01800E911EA091D606B091D70606
:104A400040E050E0E12CF12C109709F44AC0A81581
:104A5000B905D1F56D907C901197630182E0C80E85
:104A6000D11CCA14DB0480F1A3014A195B096A0155
:104A700082E0C80ED11C1296BC9012971396AC918E
:104A8000B5E0CB16D10440F0B282A38351834083BA
:104A9000D9016D937C930AC00E5F1F4FC301800F35
:104AA000911FF90191838083EB2DFA2FE114F1041A
:104AB00031F0D7011396FC93EE93129744C0F09314
:104AC000D706E093D6063FC08D919C911197481769
:104AD000590708F4AC017D0112960D90BC91A02DF0
:104AE000B3CF8091D4069091D50688159905E1F44D
:104AF00046175707C8F480910C0290910D02009759
:104B000041F48DB79EB74091100250911102841B61
:104B1000950BE817F907C8F4F093D506E093D4068F
:104B2000F901718360830FC0CB010E94A0237C0137
:104B3000009759F0A801BE010E94C825CE010E942D
:104B40003524C70104C0CE0102C080E090E0DF91AF
:104B5000CF911F910F91FF90EF90DF90CF90BF907A
:104B6000AF909F908F907F906F90089581E090E03C
:104B7000F8940C94BE28FB01DC0104C08D910190D7
:104B8000801921F441505040C8F7881B990B0895B3
:104B9000FB01DC0102C001900D9241505040D8F75A
:104BA0000895FB01DC0101900D920020E1F70895CA
:104BB000FB01DC014150504048F001900D92002073
:104BC000C9F701C01D9241505040E0F708950F937E
:104BD0001F93CF93DF93CDB7DEB72E970FB6F89420
:104BE000DEBF0FBECDBF0E891F8986E08C831A837E
:104BF00009838FEF9FE79E838D83AE01465E5F4FF3
:104C0000688D798DCE0101960E9417262F813885F7
:104C1000F801E20FF31F10822E960FB6F894DEBF54
:104C20000FBECDBFDF91CF911F910F9108952F92AD
:104C30003F924F925F926F927F928F929F92AF922C
:104C4000BF92CF92DF92EF92FF920F931F93CF9379
:104C5000DF93CDB7DEB72C970FB6F894DEBF0FBE4B
:104C6000CDBF7C016B018A01FC0117821682838112
:104C700081FFBDC1CE0101964C01F7019381F60180
:104C800093FD859193FF81916F01882309F4ABC156
:104C9000853239F493FD859193FF81916F018532BF
:104CA00029F4B70190E00E942828E7CF512C312C3D
:104CB00020E02032A0F48B3269F030F4803259F0D9
:104CC000833269F420612CC08D3239F0803339F49D
:104CD000216026C02260246023C0286021C027FDF7
:104CE00027C030ED380F3A3078F426FF06C0FAE0DE
:104CF0005F9E300D1124532E13C08AE0389E300D74
:104D00001124332E20620CC08E3221F426FD6BC19B
:104D1000206406C08C3611F4206802C0883641F445
:104D2000F60193FD859193FF81916F018111C1CFB0
:104D3000982F9F7D9554933028F40C5F1F4FFFE30D
:104D4000F9830DC0833631F0833771F0833509F074
:104D50005BC022C0F801808189830E5F1F4F44240D
:104D60004394512C540115C03801F2E06F0E711CB0
:104D7000F801A080B18026FF03C0652D70E002C05D
:104D80006FEF7FEFC5012C870E941D282C01830146
:104D90002C852F77222E17C03801F2E06F0E711C80
:104DA000F801A080B18026FF03C0652D70E002C02D
:104DB0006FEF7FEFC5012C870E9412282C012C85F4
:104DC0002068222E830123FC1BC0832D90E048160F
:104DD0005906B0F4B70180E290E00E9428283A9486
:104DE000F4CFF50127FC859127FE81915F01B70182
:104DF00090E00E94282831103A94F1E04F1A5108AF
:104E00004114510471F7E5C0843611F0893639F543
:104E1000F80127FF07C060817181828193810C5F57
:104E20001F4F08C060817181072E000C880B990B01
:104E30000E5F1F4F2F76722E97FF09C090958095B9
:104E4000709561957F4F8F4F9F4F2068722E2AE09B
:104E500030E0A4010E946028A82EA81844C085371D
:104E600029F42F7EB22E2AE030E025C0F22FF97F00
:104E7000BF2E8F36C1F018F4883579F0B4C0803772
:104E800019F0883721F0AFC02F2F2061B22EB4FE69
:104E90000DC08B2D8460B82E09C024FF0AC09F2F3F
:104EA0009660B92E06C028E030E005C020E130E071
:104EB00002C020E132E0F801B7FE07C060817181D5
:104EC000828193810C5F1F4F06C06081718180E0F9
:104ED00090E00E5F1F4FA4010E946028A82EA81822
:104EE000FB2DFF777F2E76FE0BC0372D3E7FA5145E
:104EF00050F474FE0AC072FC08C0372D3E7E05C017
:104F0000BA2C372D03C0BA2C01C0B52C34FF0DC00C
:104F1000FE01EA0DF11D8081803311F4397E09C054
:104F200032FF06C0B394B39404C0832F867809F08F
:104F3000B39433FD13C030FF06C05A2CB31418F4D9
:104F4000530C5B18B32CB31468F4B70180E290E003
:104F50003C870E942828B3943C85F5CFB31410F405
:104F60003B1801C0312C34FF12C0B70180E390E040
:104F70003C870E9428283C8532FF17C031FD03C0C2
:104F800088E790E002C088E590E0B7010CC0832F6D
:104F9000867859F031FF02C08BE201C080E237FD14
:104FA0008DE2B70190E00E942828A51438F4B701DB
:104FB00080E390E00E9428285A94F7CFAA94F40145
:104FC000EA0DF11D8081B70190E00E942828A11010
:104FD000F5CF332009F451CEB70180E290E00E9472
:104FE00028283A94F6CFF7018681978102C08FEF87
:104FF0009FEF2C960FB6F894DEBF0FBECDBFDF91AA
:10500000CF911F910F91FF90EF90DF90CF90BF90C5
:10501000AF909F908F907F906F905F904F903F9058
:105020002F900895FC010590615070400110D8F751
:10503000809590958E0F9F1F0895FC0161507040E0
:1050400001900110D8F7809590958E0F9F1F0895BD
:105050000F931F93CF93DF93FB01238121FD03C0A7
:105060008FEF9FEF28C022FF16C046815781248111
:1050700035814217530744F4A081B1819D012F5F10
:105080003F4F318320838C93268137812F5F3F4FA1
:105090003783268310C0EB01092F182F0084F18578
:1050A000E02D1995892BE1F68E819F8101969F83D2
:1050B0008E83812F902FDF91CF911F910F910895B3
:1050C000FA01AA27283051F1203181F1E8946F9339
:1050D0006E7F6E5F7F4F8F4F9F4FAF4FB1E03ED0DF
:1050E000B4E03CD0670F781F891F9A1FA11D680F7D
:1050F000791F8A1F911DA11D6A0F711D811D911DB0
:10510000A11D20D009F468943F912AE0269F112424
:105110003019305D3193DEF6CF010895462F477088
:10512000405D4193B3E00FD0C9F7F6CF462F4F70E3
:10513000405D4A3318F0495D31FD4052419302D041
:10514000A9F7EACFB4E0A6959795879577956795E7
:10515000BA95C9F700976105710508959B01AC01E7
:105160000A2E06945795479537952795BA95C9F70E
:10517000620F731F841F951FA01D089511E0C6ECD8
:10518000D1E000E006C0802FFE010E94912321960D
:10519000011DC73CD10780E00807A9F7F894FFCFAD
:1051A00090A2DA0F2E0600C0010000000000D80611
:1051B000800000000000A7102412B3119911721191
:1051C000A61066176D1695112013FC129E10581626
:1051D000561693104C1600000000220221021E02F7
:1051E000190215020D020B02C90208020502FA019A
:1051F000D2020000000034186017201717170000B3
:10520000000000000000BB09BB0900000000B5025F
:105210007D02B2075B0262073302300226022302DC
:10522000000000000517F516E016691666166316ED
:105230005B161F001E001D001C001900180017003F
:105240001600060002000300040001000200030033
:10525000040001000200030004000100020003003A
:10526000040001000200030004000100020003002A
:10527000040001000200030004000100020003001A
:10528000040001000200030004000100020003000A
:10529000040000000000CF081919670816099808D3
:1052A00076088A0800000000BB091919BB09BB0970
:1052B000BB09BB0900000000BB0919196408630899
:1052C00000000000710900000000BB0900000000A0
:1052D000BB09BB09BB09BB09BB09BB09BB09BB09AE
:1052E000BB09BB09BB09BB09BB09BB09BB09BB099E
:1052F00000000000691397137410E214351468134A
:1053000045113011B412BD10EC110B15C3148C10E3
:105310007C107810BD1501005E0000004745542048
:105320002F20485454502F312E3100486F73743A57
:105330002076697274756575736167652E617A751B
:10534000726577656273697465732E6E6574004368
:105350006F6E6E656374696F6E3A20636C6F736510
:10536000000D0A0073656E64003C7370616E206905
:10537000643D2263746C30315F4C5F2564223E00D3
:105380007265636569766564003C7370616E20695F
:10539000643D2263746C30315F4C5F30223E0044C8
:1053A0006174614E6F74526563656976656400442B
:1053B00061746152656365697665640053746174F4
:1053C000655F496E697469616C697A65436C6F6386
:1053D0006B203A200053746174655F526571756586
:1053E0007374456E65726779203A2000536574497D
:1053F00073416C6C6F776564546F5265717565733A
:1054000074456E657267793D46616C7365005265DF
:105410007365744261722C206D6F746F723A200054
:10542000476574456E6572676965730053657442BC
:1054300061720043616C63756C617465576174637C
:1054400068646F6700526573756C743D5374617462
:10545000655F5761746368446F6748616E646C6927
:105460006E670053746174655F5761746368446F5D
:105470006748616E646C696E67203A20005155453B
:1054800055453A2063616E277420706F70206974EF
:10549000656D2066726F6D2071756575653A207156
:1054A0007565756520697320656D7074792E00517E
:1054B000554555453A20696E737566666963696539
:1054C0006E74206D656D6F727920746F20637265E4
:1054D0006174652061206E6577206E6F64652E00B3
:1054E000656E61626C650063616C63756C617465A7
:0854F0000057495A6E65740073
:00000001FF
