:100000000C9493010C94C4010C94C4010C94C4018D
:100010000C94C4010C94C4010C94C4010C94C4014C
:100020000C94C4010C94C4010C94C4010C94C4013C
:100030000C94C4010C94C4010C94C4010C94C4012C
:100040000C94C4010C94C4010C94C4010C94C4011C
:100050000C94C4010C94C4010C94C4010C94A10C24
:100060000C94C4010C9437030C940D030C94C4013C
:100070000C94C4010C94C4010C94C4010C94C401EC
:100080000C94C4010C94C4010C94C4010C94C401DC
:100090000C94C4010C94C4010C94C4010C94C401CC
:1000A0000C94C4010C94C4010C94C4010C94C401BC
:1000B0000C94C4010C94C4010C94C4010C94C401AC
:1000C0000C94C4010C94C4010C94C4010C94C4019C
:1000D0000C94C4010C94C4010C94C4010C94C4018C
:1000E0000C94C401330B360B250B290B2F0B6D0B16
:1000F0003A0B3E0B440B480B4C0B520B560B5A0B56
:100100006D0B600B640B680B0C947F050C949A04C8
:100110000C949F090C94360B0C944F070C945A0BBB
:100120000C94E8010C941F020C947D070C944C0B6A
:100130000C943A0B0C94BF070C9400080C940A081A
:100140000C9495090C94290B0C94330B0C94520BC2
:100150000C943D080C94EA070C94D6070C94E20624
:100160000C94560B0C94B4080C94600B0C94B707C9
:100170000C948D080C940F080C946D0B0C942F0BA1
:100180000C94E1070C94B9060C94ED0A0C940B0343
:100190000C94440B0C949A060C940C080C94E509EE
:1001A0000C94BB070C94480B0C94F0040C94B00412
:1001B0000C94640B0C94680B0C94DA010C946A0890
:1001C0000C9410080C94CF070C9466050C94C10293
:1001D0000C94C6010C948C090C947A110C9491081F
:1001E0000C943E0B0C94250B0C9499040C94B705BD
:1001F0000C9419080C9466020C94E9070C94750A87
:100200000C94AB0800002100240027002A002D00D8
:100210003000330001010000040107010A01000061
:100220002200250028002B002E003100340002019E
:100230000000050108010B0100002000230026003A
:1002400029002C002F0032000001000003010601EC
:10025000090105050505070508080808020202024C
:100260000A0A080804040404010101010101010152
:100270000303030303030303040707070C0C0C0C1D
:100280000C0C0C0C02020202060606060606060606
:100290000B0B0B0B0B0B0B0B010210202008081093
:1002A00020401020408002010201080402010102E6
:1002B00004081020408080402010080402018004BF
:1002C000020180402010080402010804020101021A
:1002D0000408102040800102040810204080000023
:1002E0000A0B02090C0D0E080703040100000000B0
:1002F00000000000000000000000000000000000FE
:1003000000000000000000000000121110000000BA
:1003100000000000000000000000000000000000DD
:10032000000000007A1111241FBECFEFD1E2DEBF22
:10033000CDBF00E00CBF14E0A0E0B2E0ECEFFAE2C9
:1003400000E00BBF02C007900D92AA32B107D9F7A7
:1003500025E0AAE2B4E001C01D92A633B207E1F79E
:1003600011E0C3E9D1E000E006C021970109802F28
:10037000FE010E944913C239D10780E00807A9F79E
:100380000E94E7100C947C150C940000FC01918DE8
:10039000828D981761F0828DDF01A80FB11D5D96E7
:1003A0008C91928D9F5F9F73928F90E008958FEF55
:1003B0009FEF0895FC01918D828D981731F0828D09
:1003C000E80FF11D858D90E008958FEF9FEF089560
:1003D000FC01918D228D892F90E0805C9F4F821BC4
:1003E00091098F739927089583E594E00E94E801AD
:1003F00021E0892B09F420E0822F0895FC01848DEF
:10040000DF01A80FB11DA35ABF4F2C91848D90E03E
:1004100001968F739927848FA689B7892C93A08919
:10042000B1898C9180648C93938D848D981306C0D0
:100430000288F389E02D80818F7D80830895EF927B
:10044000FF920F931F93CF93DF93EC0181E0888F8E
:100450009B8D8C8D981305C0E889F989808185FD75
:1004600024C0F62E0B8D10E00F5F1F4F0F73112766
:10047000E02E8C8DE8120CC00FB607FCFACFE8898D
:10048000F989808185FFF5CFCE010E94FE01F1CF71
:100490008B8DFE01E80FF11DE35AFF4FF0820B8FA9
:1004A000EA89FB898081806207C0EE89FF896083C9
:1004B000E889F98980818064808381E090E0DF9120
:1004C000CF911F910F91FF90EF900895CF93DF93FD
:1004D000EC01888D8823C9F0EA89FB89808185FD3C
:1004E00005C0A889B9898C9186FD0FC00FB607FC9D
:1004F000F5CF808185FFF2CFA889B9898C9185FFDE
:10050000EDCFCE010E94FE01E7CFDF91CF9108959C
:1005100080E090E0892B21F00E94F401811125C038
:1005200080E090E0892B41F080E090E0892B21F081
:100530000E94000081111CC080E090E0892B41F0F6
:1005400080E090E0892B21F00E940000811113C00F
:1005500080E090E0892BA1F080E090E0892B81F091
:100560000E94000081110AC008950E940000D8CFA7
:100570000E940000E1CF0E940000EACF0C9400002E
:1005800008958F929F92AF92BF92CF92DF92EF9297
:10059000FF920F931F93CF93DF937C01EB016C01CC
:1005A00082E0C80ED11C4701E5E08E0E911C00E0F0
:1005B00010E0F60141916F0150E060E070E02AE048
:1005C000CE010E94C70F5C01E881F9810190F081A2
:1005D000E02D6EE2CE0119958A0D9B1D080F191FA3
:1005E000C814D90431F7F701458150E060E070E0AC
:1005F0002AE0CE010E94C70F800F911FDF91CF919B
:100600001F910F91FF90EF90DF90CF90BF90AF9030
:100610009F908F9008950E9467151F920F920FB6BA
:100620000F9211240BB60F922F933F934F935F932A
:100630006F937F938F939F93AF93BF93EF93FF93AA
:1006400083E594E00E94FE01FF91EF91BF91AF918D
:100650009F918F917F916F915F914F913F912F91DA
:100660000F900BBE0F900FBE0F901F9018951F920A
:100670000F920FB60F9211240BB60F922F938F93F8
:100680009F93EF93FF93E0916304F0916404808162
:10069000E0916904F0916A0482FD12C0908180911A
:1006A0006C048F5F8F7320916D04821751F0E0917D
:1006B0006C04F0E0ED5AFB4F958F80936C0401C001
:1006C0008081FF91EF919F918F912F910F900BBEA1
:1006D0000F900FBE0F901F9018952C9A08952C988C
:1006E00008951F93CF93DF93182F66E270E00E9466
:1006F0005009C82FD0E067E270E0812F0E945009B6
:10070000DC2FCC279E01282BC901DF91CF911F91AF
:1007100008951F93CF93DF93182F60E270E00E943B
:100720005009C82FD0E061E270E0812F0E9450098B
:10073000DC2FCC279E01282BC901DF91CF911F917F
:1007400008958EBD00000DB407FEFDCF8EB508954F
:10075000CF92DF92EF92FF920F931F93CF93DF938D
:10076000EC017A018B016C01C40ED51ECC15DD05A0
:10077000A9F00E946F038FE00E94A1038D2F0E94B9
:10078000A1038C2F0E94A103219680E00E94A10367
:10079000F80181938F010E946D03E8CFC701DF91BB
:1007A000CF911F910F91FF90EF90DF90CF90089520
:1007B000CF92DF92EF92FF920F931F93CF93DF932D
:1007C000EC017A018B016C01C40ED51ECC15DD0540
:1007D000A1F00E946F0380EF0E94A1038D2F0E9461
:1007E000A1038C2F0E94A1032196F80181918F0112
:1007F0000E94A1030E946D03E9CFC701DF91CF9151
:100800001F910F91FF90EF90DF90CF900895FF928E
:100810000F931F93CF93DF931F921F92CDB7DEB735
:10082000F82E8A012A8369830E943B0780E590E0C5
:100830000E9488092A816981462F422B60E070E07E
:100840008F2D0E9427090115110551F400912A04EA
:1008500010912B040F5F1F4F10932B0400932A0459
:10086000412F64E070E08F2D0E942709402F65E042
:1008700070E08F2D0E94270961E070E08F2D0E94AB
:1008800010100E94870981E00F900F90DF91CF91A7
:100890001F910F91FF900895EF92FF921F93CF93B6
:1008A000DF93182F7B0180E590E00E94880968E2C1
:1008B00070E0812F0E945009C82FD0E069E270E0FB
:1008C000812F0E945009DC2FCC27BE01682B21E02C
:1008D00030E0A701812F0E94A1100E94870981E0CA
:1008E00090E0DF91CF911F91FF90EF900895FF92DC
:1008F0000F931F93CF93DF93F82E80E590E00E9433
:100900008809C0E0D0E08F2D0E9471038C01892BF3
:1009100021F08F2D0E947103EC01C017D10799F7C8
:100920000E948709CE01DF91CF911F910F91FF9017
:1009300008950895CF93DF931F92CDB7DEB76983F3
:10094000DC01ED91FC910280F381E02D41E050E06B
:10095000BE016F5F7F4F19950F90DF91CF91089582
:10096000FF920F931F93CF93DF93FB01DC01579608
:100970001C921E9256975896FC908281811109C054
:100980008381811106C08481811103C08581882300
:10099000F9F041155105E1F08A01EF0180E590E0A1
:1009A0000E948809BE016E5F7F4F2F2D30E0922F8D
:1009B000882744E050E0845F9B4F0E94D803B80131
:1009C0008F2D0E9476090E94870981E090E002C085
:1009D00080E090E0DF91CF911F910F91FF900895FB
:1009E000BF92CF92DF92EF92FF920F931F93CF931C
:1009F000DF9300D000D0CDB7DEB7FC01208D2430CE
:100A000009F053C06A017B018C01B12C63E070E0F6
:100A10008B2D0E945009811103C0F801B08E06C0D1
:100A20008831D9F3B394F4E0BF12F0CFF801808D90
:100A30008430D9F196E0E0E2F2E0DE011196019017
:100A40000D929A95E1F7F70193819F779C839481AA
:100A50009D8395819E83B7016E5F7F4F90E0982FB5
:100A6000882744E050E0845F9B4F0E94D803B60182
:100A7000F801808D0E947609F801808D90E0982F12
:100A8000882746E050E0BE016F5F7F4F8A5F9B4F33
:100A90000E94D803F801128E118E20E8A60162E0B0
:100AA000808D0E94070481E001C080E026960FB689
:100AB000F894DEBF0FBECDBFDF91CF911F910F9194
:100AC000FF90EF90DF90CF90BF900895CF93DF938A
:100AD0001F92CDB7DEB7FC01218D328D232B49F05B
:100AE000BE016F5F7F4F808D0E944C04898190E032
:100AF00002C08FEF9FEF0F90DF91CF910895AF92DB
:100B0000BF92CF92DF92FF920F931F93CF93DF9309
:100B10008C015B01EA01FC01C688D788F08C80E576
:100B200090E00E9488098F2D0E9485108C179D07E8
:100B300020F48F2D0E948510EC019E01A501B601C5
:100B40008F2D0E9420100E948709F80186899789BD
:100B50008C0F9D1F978B868BCE01DF91CF911F91BC
:100B60000F91FF90DF90CF90BF90AF900895CF92FC
:100B7000DF92EF92FF920F931F93CF93DF93CDB746
:100B8000DEB7AF970FB6F894DEBF0FBECDBF7C01C6
:100B90006A0108ED12E01A8309831C861B8688EE21
:100BA00093E0A0E0B0E08D879E87AF87B88B8EE49E
:100BB00092E09A878987188F0F8B198E1A8E1B8E59
:100BC0001C8E84E089A31DA30CA31EA21FA218A63D
:100BD00019A68091F2049091F304A091F404B091CD
:100BE000F5048CA79DA7AEA7BFA78B839C83AD837D
:100BF000BE8318861F82AE014C5D5F4FCE01019609
:100C00000E94370D81309105B1F4D701ED91FC912F
:100C10000088F189E02D1BA70AA78EA19FA1A8A596
:100C2000B9A58CA79DA7AEA7BFA7A601BE01665D0B
:100C30007F4FC7011995AF960FB6F894DEBF0FBE70
:100C4000CDBFDF91CF911F910F91FF90EF90DF907B
:100C5000CF900895AF92BF92DF92EF92FF920F93E1
:100C60001F93CF93DF93D82E7B018A0180E590E01C
:100C70000E948809C0E0D0E08D2D0E9471035C01C4
:100C8000892B21F08D2D0E947103EC01CA15DB0523
:100C900099F7209799F463E070E08D2D0E94500938
:100CA0008431D9F18823C9F1C1E0D0E08C3111F44D
:100CB000C0E0D0E0D195C195D1092FC00C171D0718
:100CC0000CF4E8011C161D0644F568E270E08D2D59
:100CD0000E945009082F10E069E270E08D2D0E94FB
:100CE0005009102F0027082B9E01A701B8018D2D58
:100CF0000E94A1100C0F1D1F412F68E270E08D2D86
:100D00000E942709402F69E270E08D2D0E9427097B
:100D100060E470E08D2D0E9410100E948709CE01C2
:100D2000DF91CF911F910F91FF90EF90DF90BF90D7
:100D3000AF900895CF93DF93FC01218D328D211563
:100D4000310519F48FEF9FEF11C0EC0142175307E3
:100D500008F0A901888D0E942A061816190694F732
:100D6000298D3A8D281B390B3A8F298FDF91CF912E
:100D700008950F931F93CF93DF931F92CDB7DEB7E4
:100D8000FC01218D328D232B61F08C0141E050E07C
:100D9000BE016F5F7F4F808D0E942A0618161906CC
:100DA0001CF08FEF9FEF08C0F801818D928D0197A5
:100DB000928F818F898190E00F90DF91CF911F9169
:100DC0000F9108950F931F93CF93DF93CDB7DEB7A5
:100DD00028970FB6F894DEBF0FBECDBF8C01F80187
:100DE000818D928D892B49F0D801ED91FC9106807F
:100DF000F781E02DC8011995F2CF808D0E9477040C
:100E0000181619065CF548E050E0BE016F5F7F4F91
:100E1000D80158968C910E942A069C011816190632
:100E2000DCF489819A81AB81BC81F801808B918B44
:100E3000A28BB38B8D8190E0982F88272E81820F13
:100E4000911D958B848B2F8130E0322F222788854E
:100E5000280F311D328F218FC90102C080E090E040
:100E600028960FB6F894DEBF0FBECDBFDF91CF91AD
:100E70001F910F910895CF93C82F80E590E00E94B5
:100E8000880960E170E08C2F0E9410104FEF62E043
:100E900070E08C2F0E942709CF910C948709CF9383
:100EA000DF93EC01888D843061F00E943B07E88D70
:100EB000F0E0EE0FFF1FE45DFB4F1182108284E033
:100EC000888FDF91CF9108951F93CF93DF931F9267
:100ED000CDB7DEB7182F80E590E00E94880963E067
:100EE00070E0812F0E94500989830E9487098981BF
:100EF0000F90DF91CF911F910895CF93FC01C08D8A
:100F000080E590E00E94880960E270E08C2F0E94EA
:100F1000101062E070E08C2F0E94500984FD1BC00D
:100F200062E070E08C2F0E94500983FF0BC048E103
:100F300062E070E08C2F0E9427090E94870980E000
:100F400090E013C00E9487090E94FC0C80E590E0AD
:100F50000E948809DECF40E162E070E08C2F0E94A1
:100F600027090E94870981E090E0CF910895FC0154
:100F7000818D928D0895FC0184899589089528EDCD
:100F800032E0FC0131832083FB0140895189628971
:100F90007389FC0142835383648375830895DC0164
:100FA000ED91FC91008CF18DE02D1994FC0194855C
:100FB000FB018485981303C081E0943009F480E03C
:100FC000089521E0FC018485843009F420E0822F1B
:100FD00008950895CF93DF931F92CDB7DEB769834D
:100FE000DC01ED91FC910280F381E02D41E050E0C5
:100FF000BE016F5F7F4F19950F90DF91CF910895DC
:10100000DC01ED91FC91048CF58DE02D199591E0BA
:1010100089270895862F089581E0862708950895E9
:101020000895FC018485843011F00C94640780E0FD
:101030000895CF93DF93FC0124852430D1F0EC0197
:101040000E941108843181F0882371F0883161F0A9
:101050008C3161F4E881F9810480F581E02DCE01C5
:10106000199521E0892B19F420E001C021E0822F9D
:1010700001C080E0DF91CF910895EF92FF921F931E
:10108000CF93DF93FC01208D243011F080E01CC051
:101090007B01EC0110E0812F0E946407811102C0E6
:1010A000188F05C08831E1F31F5F1430A1F7888DD8
:1010B000843061F3FD86EC861A8E198E20E0A7013C
:1010C00062E00E94070481E0DF91CF911F91FF90C1
:1010D000EF9008950F931F93CF93DF931F92CDB797
:1010E000DEB78C01DC01ED91FC910480F581E02DEF
:1010F0001995892B51F0BE016F5F7F4FF8018485F0
:101100000E944C04898190E002C08FEF9FEF0F9006
:10111000DF91CF911F910F910895FC0184850C946C
:101120002A06CF93DF931F92CDB7DEB741E050E0A0
:10113000BE016F5F7F4FFC0184850E942A0618164E
:1011400019061CF4898190E002C08FEF9FEF0F9089
:10115000DF91CF910895FC018485843011F00C94C7
:10116000770480E090E00895CF92DF92EF92FF92B3
:101170000F931F93CF93DF93CDB7DEB7AF970FB623
:10118000F894DEBF0FBECDBF7C016A0108ED12E00E
:101190001A8309831C861B8688EE93E0A0E0B0E0EA
:1011A0008D879E87AF87B88B8EE492E09A87898778
:1011B000188F0F8B198E1A8E1B8E1C8E84E089A3BC
:1011C0001DA30CA31EA21FA218A619A68091F204AB
:1011D0009091F304A091F404B091F5048CA79DA71D
:1011E000AEA7BFA78B839C83AD83BE8318861F8267
:1011F000AE014C5D5F4FCE0101960E94370D8130EC
:101200009105B1F4D701ED91FC910484F585E02DB1
:101210001BA70AA78EA19FA1A8A5B9A58CA79DA7CA
:10122000AEA7BFA7A601BE01665D7F4FC701199596
:10123000AF960FB6F894DEBF0FBECDBFDF91CF9152
:101240001F910F91FF90EF90DF90CF9008950F9333
:101250001F93CF93DF931F92CDB7DEB7282F30E0D7
:101260002C5F3F4F322F22278901060F171F49831A
:101270000E946F0380EF0E94A103812F0E94A103AF
:10128000802F0E94A1034981842F0E94A1030E9404
:101290006D0381E00F90DF91CF911F910F91089521
:1012A0000F931F93CF93DF931F92CDB7DEB790E0DC
:1012B0000496982F88278C01060F171F0E946F0332
:1012C0008FE00E94A103812F0E94A103802F0E9422
:1012D000A10380E00E94A10389830E946D0389819C
:1012E0000F90DF91CF911F910F910895CF93DF93CE
:1012F000C82FD62F472F60E170E00E9427094D2F9D
:1013000061E170E08C2FDF91CF910C942709089553
:101310008CBD9DBD0895089520EC32E0FC01318321
:101320002083878190850C94E613CF93DF93EC01A3
:101330000E948C09CE01DF91CF910C94E613CF92DD
:10134000DF92EF92FF921F93CF93DF93FC011485FE
:10135000143099F1EC0180E590E00E94880968E082
:1013600070E0812F0E9410100E94950C6B017C018F
:10137000CE010E9411088823B1F061E070E080E0A6
:1013800090E00E94FD0C0E94950CDC01CB018C19B1
:101390009D09AE09BF09883E9340A105B10540F300
:1013A0008C850E943B07EC85F0E0EE0FFF1FE45DAB
:1013B000FB4F1182108284E08C87DF91CF911F91C7
:1013C000FF90EF90DF90CF900895CF92DF92FF9241
:1013D0000F931F93CF93DF93FC012485243009F0F2
:1013E00077C06A01EB018C01F12C8F2D0E946407FC
:1013F000811103C0F801F48607C08B7F8831D1F3D7
:10140000F394F4E0FF12F1CFF8018485843009F4FD
:101410005FC020910002309101022F5F3F4F11F415
:1014200020E030EC30930102209300024091000252
:101430005091010220E061E00E940704F801F48469
:101440008A818F3F51F48B818F3F91F48C818F3F44
:1014500079F48D818F3F61F438C0811109C08B818F
:10146000811106C08C81811103C08D81882369F1AF
:10147000C114D10451F180E590E00E948809BE01B9
:101480006E5F7F4F8F2D90E0982F882744E050E0CB
:10149000845F9B4F0E94D803B6018F2D0E9476096E
:1014A00064E070E08F2D0E941010C8010E941108A6
:1014B000873189F061E070E080E090E00E94FD0CEF
:1014C000C8010E9411088111F0CF84E0F8018487DF
:1014D00080E090E002C081E090E0DF91CF911F9129
:1014E0000F91FF90DF90CF9008958F929F92AF92CF
:1014F000BF92CF92DF92EF92FF920F931F93CF9301
:101500006C015B017A01FC01C485C43041F481E0C7
:1015100090E0F6019383828380E090E052C08A01DC
:101520004130584010F000E018E080E590E00E9463
:1015300088098C2F0E9485104C0163E070E08C2F8D
:101540000E945009873111F08C3131F40E94FC0C5B
:101550008016910650F302C000E010E080E590E0B4
:101560000E9488099801A50160E070E08C2F0E941C
:10157000201060E270E08C2F0E94101062E070E09A
:101580008C2F0E94500984FD12C063E070E08C2F04
:101590000E945009811104C08C2F0E943B07B7CFD5
:1015A0000E94FC0C80E590E00E948809E7CF40E1B2
:1015B00062E070E08C2F0E942709012B09F4A7CF6D
:1015C000C701CF911F910F91FF90EF90DF90CF90C7
:1015D000BF90AF909F908F900895CF92DF92EF923F
:1015E000FF920F931F93CF93DF936C017A018B01CE
:1015F000C0E0D0E0CE15DF0589F0D8016D918D01F6
:10160000D601ED91FC910190F081E02DC601199574
:10161000892B11F47E0102C02196ECCFC701DF9126
:10162000CF911F910F91FF90EF90DF90CF90089591
:1016300090E0FC013197E231F10508F04EC08827B7
:10164000EE58FF4F8F4F0C944913809180008F7795
:1016500003C0809180008F7D8093800008958091E9
:101660008000877FF9CF84B58F7702C084B58F7DE6
:1016700084BD08958091B0008F7703C08091B00041
:101680008F7D8093B0000895809190008F7707C080
:10169000809190008F7D03C080919000877F809320
:1016A000900008958091A0008F7707C08091A000DE
:1016B0008F7D03C08091A000877F8093A000089554
:1016C000809120018F7707C0809120018F7D03C01A
:1016D00080912001877F809320010895CF93DF932D
:1016E000282F30E0F901E252FD4F8491F901E856CC
:1016F000FD4FD491F901EE5AFD4FC491CC2391F0E6
:1017000081110E94180BEC2FF0E0EE0FFF1FE85C38
:10171000FD4FA591B491EC91ED2381E090E021F48F
:1017200080E002C080E090E0DF91CF9108951F93A8
:10173000CF93DF93282F30E0F901E252FD4F8491DF
:10174000F901E856FD4FD491F901EE5AFD4FC491CD
:10175000CC23C9F0162F81110E94180BEC2FF0E05A
:10176000EE0FFF1FE25EFD4FA591B4918FB7F89485
:10177000111105C09C91ED2FE095E92302C0EC9179
:10178000ED2BEC938FBFDF91CF911F910895CF93F5
:10179000DF9390E0FC01E856FD4F2491FC01EE5AE6
:1017A000FD4F8491882361F190E0880F991FFC011F
:1017B000EC5FFD4FC591D491FC01E25EFD4FA59118
:1017C000B491611109C09FB7F89488812095822354
:1017D0008883EC912E230BC0623061F49FB7F8949C
:1017E0003881822F809583238883EC912E2B2C9334
:1017F0009FBF06C08FB7F894E8812E2B28838FBF38
:10180000DF91CF910895789484B5826084BD84B5CA
:10181000816084BD85B5826085BD85B5816085BDEB
:10182000EEE6F0E0808181608083E1E8F0E0108204
:10183000808182608083808181608083E0E8F0E045
:10184000808181608083E1EBF0E08081846080832F
:10185000E0EBF0E0808181608083E1E9F0E080816D
:1018600082608083808181608083E0E9F0E0808114
:1018700081608083E1EAF0E0808182608083808102
:1018800081608083E0EAF0E0808181608083E1E232
:10189000F1E0808182608083808181608083E0E2EA
:1018A000F1E0808181608083EAE7F0E080818460FC
:1018B0008083808182608083808181608083808159
:1018C000806880831092C10008958230910538F0BD
:1018D000880F991F880F991F05970197F1F70895B1
:1018E0003FB7F8948091390490913A04A0913B0459
:1018F000B0913C0426B5A89B05C02F3F19F0019676
:10190000A11DB11D3FBFBA2FA92F982F8827820F85
:10191000911DA11DB11DBC01CD0142E0660F771FD5
:10192000881F991F4A95D1F708952FB7F8946091B1
:1019300035047091360480913704909138042FBF9C
:1019400008951F920F920FB60F9211240F931F93B9
:101950002F933F934F935F936F937F938F939F93B7
:10196000AF93BF9300913504109136042091370452
:101970003091380490913404B901A8014F5F5F4F52
:101980006F4F7F4F83E0890F8D3740F086E8890FD6
:10199000B901A8014E5F5F4F6F4F7F4F80933404B2
:1019A00040933504509336046093370470933804A1
:1019B0008091390490913A04A0913B04B0913C0489
:1019C0000196A11DB11D8093390490933A04A09310
:1019D0003B04B0933C04BF91AF919F918F917F9155
:1019E0006F915F914F913F912F911F910F910F90A8
:1019F0000FBE0F901F90189508958F929F92AF92EF
:101A0000BF92CF92DF92EF92FF926B017C010E9416
:101A1000700C4B015C01C114D104E104F104F1F03C
:101A20000E94700CDC01CB0188199909AA09BB0935
:101A3000883E9340A105B10570F321E0C21AD10898
:101A4000E108F10888EE880E83E0981EA11CB11C05
:101A5000C114D104E104F104F1F2E2CFFF90EF9060
:101A6000DF90CF90BF90AF909F908F9008952F926E
:101A70003F924F925F926F927F928F929F92AF921E
:101A8000BF92CF92DF92EF92FF920F931F93CF936B
:101A9000DF93CDB7DEB765970FB6F894DEBF0FBE04
:101AA000CDBF7C016B013A01FB0120E080E090E0BA
:101AB0006AE03191332309F140ED430F4A3080F45D
:101AC000689FA001699F500D1124CA01C097830F20
:101AD000911D37FD9A958F3F910559F350F313C02F
:101AE0003E3289F4233079F0D301A20FB11D129652
:101AF0008C932F5F80E090E0DCCF233021F4F30162
:101B0000858381E021C0F701428153816481758121
:101B100080914F0490915004A0915104B0915204CF
:101B2000481759076A077B0709F49EC10E94950C64
:101B30008701085F1F4F6F7077277C5FC8010E9485
:101B40003D08813019F080E090E0F3C188ED92E02B
:101B50009A838983F70182819381A481B5818B83E4
:101B60009C83AD83BE8345E350E0BE016F5F7F4F32
:101B7000C8010E94B004892B19F4C12CD12C6FC16B
:101B80000E94950CF701778366837627672776276F
:101B90007A83698342E050E0BE016F5F7F4FC801E6
:101BA0000E947F0581E090E09E878D8742E050E0B3
:101BB000BE01635F7F4FC8010E947F0580E091E016
:101BC0009E878D8742E050E0BE01635F7F4FC80172
:101BD0000E947F051E861D8642E050E0BE01635FC5
:101BE0007F4FC8010E947F0542E050E0BE01635F65
:101BF0007F4FC8010E947F0542E050E0BE01635F55
:101C00007F4FC8010E947F055601F501808188231E
:101C100011F1F6015F018191811115C045018C1808
:101C20009D081814190494F48F8641E050E0BE0119
:101C3000615F7F4FC8010E947F05A401B601C80102
:101C40000E947F0503C08E3229F7E8CF6501FFEFC0
:101C5000CF1ADF0ADACF1F8641E050E0BE01615F94
:101C60007F4FC8010E947F05C12CDD24D394DE86FE
:101C7000CD8642E050E0BE01635F7F4FC8010E9405
:101C80007F05DE86CD8642E050E0BE01635F7F4F78
:101C9000C8010E947F05C8010E947D07892B09F4B5
:101CA0006CCF63E0A62EB12CF2E06F0E711C0E9487
:101CB000950C1B012C01C8010E94E206181619069A
:101CC000A4F00E94950CDC01CB0182199309A409B0
:101CD000B50989389341A105B105D0F462E370E0FC
:101CE00080E090E00E94FD0CE6CFF7014281538135
:101CF00064817581808D918DA28DB38D48175907B0
:101D00006A077B0741F4848D958DC59721F406C041
:101D10002FEF3FEF9AC02EEF3FEF97C0F70181A161
:101D200092A10C970CF4A6C04CE050E0BE016F5F8E
:101D30007F4FC8010E949A068B8190E0982F8827D8
:101D40002C81822B9A8B898B298130E0322F22279C
:101D50004A81242BF701468157814217530709F026
:101D600086C097FF84C08F709270892B09F0DEC007
:101D7000CF80D12CDC2CCC248885C82AC114D10476
:101D800009F4D1C0812C912C8D8190E0982F882767
:101D90002E81822B8816990608F46FC0812C912C15
:101DA00041E050E0BE016D5E7F4FC8010E949A067F
:101DB0008B89982F907C09F093C0811186C08B8904
:101DC0008111EECF42E050E0BE01615F7F4FC8015C
:101DD0000E949A0642E050E0BE01635F7F4FC80157
:101DE0000E949A06C8010E94B906C8010E94B9065D
:101DF000C8010E94B906C8010E94B90642E050E03D
:101E0000BE016F5E7F4FC8010E949A068F85988938
:101E10008115914009F069C02D853E853227232721
:101E200032272130310509F060C089899A898115EE
:101E3000944009F075C044E050E0B301C8012C8B18
:101E40003D8B0E949A062C893D896901F1E0AF1A09
:101E5000B10829F02FEFC216D20609F428CFC80125
:101E60000E944F07C60165C08EEF9FEF62C02CEF46
:101E70003FEFEBCF2DEF3FEFE8CF41E050E0BE0169
:101E8000635F7F4FC8010E949A068D85811113C040
:101E90008D858111F2CFC8010E94B906C8010E9448
:101EA000B906C8010E94B906C8010E94B906FFEF31
:101EB0008F1A9F0A69CF8D859FEF980F9D87882382
:101EC00039F3C8010E94B906F6CF8B899FEF980FAE
:101ED0009B8B882309F473CFC8010E94B906F5CF04
:101EE000C8010E94B9061B8A6ACF412C512C8989EE
:101EF0009A899827892798274816590638F4C801DF
:101F00000E94B9068FEF481A580AF1CFEFEF8E1AE8
:101F10009E0A8C149D0409F043CF26EF3FEF95CF26
:101F200027EF3FEF92CF2AEF3FEF8FCF2BEF3FEF1F
:101F30008CCF65960FB6F894DEBF0FBECDBFDF9194
:101F4000CF911F910F91FF90EF90DF90CF90BF90B6
:101F5000AF909F908F907F906F905F904F903F9049
:101F60002F9008956115710579F0FB010190002013
:101F7000E9F73197AF01461B570BDC01ED91FC915E
:101F80000280F381E02D199480E090E008954F9253
:101F90005F926F927F92EF92FF920F931F93CF9376
:101FA000DF93CDB7DEB7A1970FB6F894DEBF0FBEB3
:101FB000CDBF7C01FA01CB0119A2223008F42AE03E
:101FC0008E010F5D1F4F422E512C612C712CBF01D1
:101FD000A30192010E942713F901CA0101501109BE
:101FE0006A3014F4605D01C0695CD8016C93232BE6
:101FF000242B252B61F7B801C7010E94B20FA196CF
:102000000FB6F894DEBF0FBECDBFDF91CF911F9109
:102010000F91FF90EF907F906F905F904F90089599
:10202000CF93C82F462F61E070E00E94270961E03E
:1020300070E08C2F0E9450098111F9CFCF91089543
:102040009F92AF92BF92CF92DF92EF92FF920F9347
:102050001F93CF93DF93982E8B015A01690164E29D
:1020600070E00E945009E82EF12C65E270E0892DA5
:102070000E945009FE2CEE24E82AE701C00FD11F70
:102080009E013770E92CF12CC701880F991FAC0114
:10209000435C5B4F7A01FA0180819181820F931F2B
:1020A000A9014C0D5D1D4130584090F000E018E052
:1020B000021B130BA801B5010E94D803A601401B07
:1020C000510BB501600F711FF7018081918102C032
:1020D000A601B5010E94D803CC0DDD1D4D2F64E291
:1020E00070E0892D0E9427094C2F65E270E0892D50
:1020F000DF91CF911F910F91FF90EF90DF90CF90E4
:10210000BF90AF909F900C942709FF920F931F935D
:10211000CF93DF93F82EC0E0D0E08F2D0E9489038B
:102120008C01892B21F08F2D0E948903EC01C017AF
:10213000D10799F7CE01DF91CF911F910F91FF90B9
:102140000895AF92BF92CF92DF92EF92FF920F93DA
:102150001F93CF93DF931F921F92CDB7DEB77A8381
:102160006983BA01A901E981FA81F770082F10E0AB
:10217000000F111F0B5B1B4FD8018D919C918E0F8F
:102180009F1F2E0F3F1F2130384098F07A015B01CE
:1021900020E038E06901CE1ADF0AA6010E94A803F8
:1021A000A7014C195D09B5016C0D7D1DF8018081F9
:1021B00091810F900F90DF91CF911F910F91FF9020
:1021C000EF90DF90CF90BF90AF900C94A803CF9387
:1021D000DF9300D000D0CDB7DEB70E94030CE091B2
:1021E0006304F091640482E08083E0915F04F091E5
:1021F00060041082E0916104F09162048FEC8083AE
:1022000010926B04E0916704F091680486E080838B
:10221000E0916504F0916604808180618083E091A3
:102220006504F0916604808188608083E091650494
:10223000F0916604808180688083E0916504F0916C
:10224000660480818F7D8083E090F804F090F9042B
:10225000F701808191818230910571F02CF4009713
:1022600071F0019761F013C08330910541F004973C
:1022700071F484E090E007C082E090E004C0F701D0
:102280001182108234C0F7019183808330C060EEE8
:1022900072E083E594E00E94B20FF701C080D18024
:1022A0000D2C000CEE08FF08F7FE14C0E09153045B
:1022B000F09154040190F081E02D6DE283E594E00B
:1022C000199544275527BA014C195D096E097F09F4
:1022D0002AE003C02AE0B701A60183E594E00E944A
:1022E000C70F6DE073E083E594E00E94B20F0E9497
:1022F0008802AACF8F929F92AF92BF92CF92DF9225
:10230000EF92FF920F931F93CF93DF9388ED92E0AC
:1023100090934E0480934D0410924F0410925004F9
:1023200010925104109252049093FB048093FA048B
:102330001092FC041092FD041092FE041092FF040F
:1023400090930105809300051092020510920305F9
:10235000109204051092050510925604109255042F
:1023600048EE53E060E070E0409357045093580407
:102370006093590470935A0424E732E03093540474
:102380002093530425EC30E03093600420935F04E5
:1023900024EC30E0309362042093610420EC30E0C0
:1023A000309364042093630421EC30E0309366049E
:1023B0002093650422EC30E0309368042093670496
:1023C00026EC30E030936A042093690410926C0488
:1023D00010926D0410926E0410926F049093070592
:1023E00080930605109208051092090510920A05BF
:1023F00010920B0590930D0580930C0510920E051D
:1024000010920F051092100510921105909313056C
:10241000809312051092140510921505109216055E
:10242000109217059093F1048093F0041092F20437
:102430001092F3041092F4041092F504909319058D
:102440008093180510921A0510921B0510921C0516
:1024500010921D0590931F0580931E051092200574
:1024600010922105109222051092230590932D05BC
:1024700080932C0510922E0510922F051092300596
:102480001092310581E090E00E945113EC0190938D
:102490002B0580932A058BE190E00E9451137C016B
:1024A000FC01108ED28FC18F02E012E06C0180EC33
:1024B000A82E82E0B82E88248A94982C89E090E097
:1024C0000E945113EC01F801819191918F01B98221
:1024D000A8829B838A831D821C821E8286E090E0F4
:1024E0000E945113FC019182808293828282158224
:1024F000148298878F83F601C193D1936F01F2E024
:102500000A311F07D9F6F0922905E09228058EE7D7
:1025100090E00E945113EC011B8A1A8A88EE93E026
:10252000A0E0B0E08C8B9D8BAE8BBF8B8CE992E0F2
:10253000998B888B84E08C8F8E0109581F4FF8018E
:1025400011821082138212821582148261E070E07F
:1025500080E090E00E947E14F801009761F0918382
:1025600080831382128224813581232B09F067C076
:10257000FC01108264C080819181009711F00E945B
:10258000E613F801118210821582148213821282DE
:1025900091E0988399839A839B839C839D83EE81AA
:1025A000FF8180E193E08083E885F98581E393E012
:1025B0008083EA85FB858AE094E08083EC85FD8555
:1025C0008BE194E08083EE85FF8587E294E0808351
:1025D000FE01EB58FF4F8FEF9FEF9183808338967A
:1025E0001082D0932705C093260582E090E00E94D8
:1025F00051138C01FC011182108290932505809368
:10260000240588E090E00E945113FC0111821082A1
:10261000F382E282D583C483178306839093F904FF
:102620008093F804DF91CF911F910F91FF90EF906D
:10263000DF90CF90BF90AF909F908F900895F8015A
:10264000158214826FE073E00E947515A1CFA1E29C
:102650001A2EAA1BBB1BFD010DC0AA1FBB1FEE1F1C
:10266000FF1FA217B307E407F50720F0A21BB30B67
:10267000E40BF50B661F771F881F991F1A9469F7E3
:1026800060957095809590959B01AC01BD01CF013F
:102690000895EE0FFF1F881F8BBF0790F691E02D66
:1026A0001994CF93DF938230910510F482E090E08B
:1026B000E0913405F091350520E030E0C0E0D0E055
:1026C000309711F14081518148175907C0F04817E0
:1026D000590761F482819381209719F09B838A8343
:1026E0002BC0909335058093340526C02115310504
:1026F00019F04217530718F49A01BE01DF01EF01E8
:102700000280F381E02DDCCF2115310509F1281B72
:10271000390B2430310590F412968D919C911397CA
:102720006115710521F0FB019383828304C09093AE
:10273000350580933405FD01329644C0FD01E20F5A
:10274000F31F81939193225031092D933C933AC00A
:102750002091320530913305232B41F420911C0246
:1027600030911D02309333052093320520911A02D7
:1027700030911B022115310541F42DB73EB7409130
:102780001E0250911F02241B350BE0913205F0917F
:102790003305E217F307A0F42E1B3F0B2817390768
:1027A00078F0AC014E5F5F4F2417350748F04E0FAD
:1027B0005F1F50933305409332058193919302C07C
:1027C000E0E0F0E0CF01DF91CF9108950F931F93E8
:1027D000CF93DF93009709F48CC0FC0132971382EA
:1027E000128200913405109135050115110581F40F
:1027F00020813181820F931F209132053091330562
:102800002817390779F5F0933305E093320571C045
:10281000D80140E050E0AE17BF0750F412962D915A
:102820003C911397AD012115310509F1D901F3CF81
:102830009D01DA013383228360817181860F971FA6
:102840008217930769F4EC0128813981260F371F1D
:102850002E5F3F4F318320838A819B8193838283C4
:10286000452B29F4F0933505E093340542C01396C7
:10287000FC93EE931297ED01499159919E01240F1B
:10288000351FE217F30771F480819181840F951F42
:10289000029611969C938E938281938113969C93BA
:1028A0008E931297E0E0F0E0D80112968D919C9102
:1028B0001397009719F0F8018C01F6CF8D919C9138
:1028C00098012E5F3F4F820F931F20913205309168
:1028D00033052817390769F4309729F41092350524
:1028E0001092340502C013821282109333050093B4
:1028F0003205DF91CF911F910F9108956F927F92D2
:102900008F929F92AF92BF92CF92DF92EF92FF92FF
:102910000F931F93CF93DF93EC01009789F4CB01C2
:10292000DF91CF911F910F91FF90EF90DF90CF90AB
:10293000BF90AF909F908F907F906F900C945113A9
:10294000FC01E60FF71F9C0122503109E217F30743
:1029500008F4ACC0D9010D911C9111970617170707
:10296000B0F00530110508F49FC0C8010497861720
:10297000970708F499C002501109061B170B019321
:1029800011936D937C93CF010E94E6138DC05B0180
:10299000A01AB10A4C01800E911EA0913405B0918D
:1029A000350540E050E0E12CF12C109709F44AC0C5
:1029B000A815B905D1F56D907C901197630182E05F
:1029C000C80ED11CCA14DB0480F1A3014A195B09AB
:1029D0006A0182E0C80ED11C1296BC901297139621
:1029E000AC91B5E0CB16D10440F0B282A383518301
:1029F0004083D9016D937C930AC00E5F1F4FC301C2
:102A0000800F911FF90191838083EB2DFA2FE11440
:102A1000F10431F0D7011396FC93EE93129744C062
:102A2000F0933505E09334053FC08D919C9111974B
:102A30004817590708F4AC017D0112960D90BC911E
:102A4000A02DB3CF8091320590913305881599055B
:102A5000E1F446175707C8F480911A0290911B02BF
:102A6000009741F48DB79EB740911E0250911F020E
:102A7000841B950BE817F907C8F4F0933305E0932E
:102A80003205F901718360830FC0CB010E9451139D
:102A90007C01009759F0A801BE010E946C15CE017F
:102AA0000E94E613C70104C0CE0102C080E090E09E
:102AB000DF91CF911F910F91FF90EF90DF90CF901A
:102AC000BF90AF909F908F907F906F90089581E01E
:102AD00090E0F8940C947C15FB01DC0102C001909D
:102AE0000D9241505040D8F70895FB01DC01019050
:0C2AF0000D920020E1F70895F894FFCF4C
:102AFC0000C00100020003000400050006000700EE
:102B0C00080009000A000B000C00000036058000CC
:102B1C0001005E000000000000000B030B030B0320
:102B2C000B030B030B030B030B030B030B030B0329
:102B3C000B030B030B030B030B03000000009A04A5
:102B4C007F05B707B906660599043D084F07B00421
:102B5C00B7057D07E2069A06CF07BF07BB07F0044F
:102B6C00000000001F02ED0AE801C601DA0166024E
:102B7C00000000000B03ED0A0B030B030B030B030C
:102B8C00000000000B03ED0A00000000EA07750AC4
:102B9C00AB0891086A08E907E509B4088D089F0994
:102BAC001908E1070C080A08D60700080000000005
:102BBC008C09950910080F080000000000000000A7
:102BCC000B030B0300000000C102000000000B030C
:102BDC004552524F523A20696C6C6567616C2F7587
:102BEC006E68616E646C65642073746174652077C3
:102BFC00697468206E756D6265723A20000D0A006A
:102C0C0076697274756564656C74612E6461746147
:102C1C00626173652E77696E646F77732E6E65745F
:102C2C0000536861726564416363657373536967CC
:102C3C006E61747572652073723D6874747073255F
:102C4C0033612532662532666576656E7468756209
:102C5C0074657374312D6E732E736572766963654A
:102C6C006275732E77696E646F77732E6E6574253B
:102C7C0032666576656E7468756274657374312539
:102C8C0032667075626C697368657273253266643E
:102C9C0065766963652532666D6573736167657307
:102CAC00267369673D2532666E65734D57417639DB
:102CBC00555346626A64544F657752364B38707A76
:102CCC00507232372532664C4753436A5A7A724BEC
:102CDC00714F65672533642673653D313431383760
:102CEC00363033363726736B6E3D53656E645265E2
:102CFC00636569766552756C65006576656E74689A
:102D0C00756274657374312D6E73006576656E74BF
:0A2D1C00687562746573743100007D
:00000001FF
