:100000000C94D5000C9406010C9406010C94060186
:100010000C9406010C9406010C9406010C94060144
:100020000C9406010C9406010C9406010C94060134
:100030000C9406010C9406010C9406010C94060124
:100040000C9406010C9406010C9406010C94060114
:100050000C9406010C9406010C9406010C944C07B8
:100060000C9406010C9400080C94D6070C9406011D
:100070000C9406010C9406010C9406010C940601E4
:100080000C9406010C9406010C9406010C940601D4
:100090000C9406010C9406010C9406010C940601C4
:1000A0000C9406010C9406010C9406010C940601B4
:1000B0000C9406010C9406010C9406010C940601A4
:1000C0000C9406010C9406010C9406010C94060194
:1000D0000C9406010C9406010C9406010C94060184
:1000E0000C9406010C94CF060C9468010C947605D0
:1000F0000C94E3020C943D010C9410010C94140A2E
:100100000C9425050C940C010C9434010C9463019F
:100110000C9467010C9416060C948F020C94DF0269
:100120000C948A050C9494040C9498050C942E0558
:100130000C94CF050C9419070C9466010C946A0377
:100140000C94FD020C94BD100C944E020C94EF0A1A
:100150000C9429010C9420040C94C4080C946201A2
:100160000C94F5090C9496080C945D010C943D0ACE
:100170000C946B020C9420010C945F010C945301BD
:100180000C944A090C949C030C943C050C94DA03DF
:100190000C94BC020C9408010C9467050C94DB01D0
:1001A0000C943C010C949508BD1011241FBECFEF98
:1001B000D1E2DEBFCDBF00E00CBF14E0A0E0B2E0B2
:1001C000E2E1F9E200E00BBF02C007900D92A2311C
:1001D000B107D9F725E0A2E1B4E001C01D92A93131
:1001E000B207E1F710E0C5EDD0E000E006C02197CE
:1001F0000109802FFE010E945412C43DD10780E006
:100200000807A9F70E940A0F0C9487140C940000A9
:10021000FC01818D928D0895FC0184899589089552
:1002200020EC32E0FC0131832083FB0140895189BD
:1002300062897389FC0142835383648375830895C3
:10024000DC01ED91FC91048CF58DE02D199480E09A
:100250000895FC019485FB018485981303C081E017
:10026000943009F480E0089521E0FC018485843015
:1002700009F420E0822F08950895CF93DF931F9211
:10028000CDB7DEB76983DC01ED91FC910280F3818B
:10029000E02D41E050E0BE016F5F7F4F19950F9058
:1002A000DF91CF910895DC01ED91FC91068CF78DE3
:1002B000E02D199591E089270895862F089581E012
:1002C00086270895089580E090E0089508950895A0
:1002D000CF92DF92EF92FF920F931F93CF93DF9312
:1002E000CDB7DEB7AF970FB6F894DEBF0FBECDBF68
:1002F0007C016A0100EC12E01A8309831C861B86CC
:1003000088EE93E0A0E0B0E08D879E87AF87B88B42
:1003100084E292E09A878987188F0F8B198E1A8E44
:100320001B8E1C8E84E089A31DA30CA31EA21FA2FA
:1003300018A619A68091D5049091D604A091D7044F
:10034000B091D8048CA79DA7AEA7BFA78B839C8331
:10035000AD83BE8318861F82AE014C5D5F4FCE0118
:1003600001960E948F0C81309105B1F4D701ED9177
:10037000FC910488F589E02D1BA70AA78EA19FA1F7
:10038000A8A5B9A58CA79DA7AEA7BFA7A601BE012A
:10039000665D7F4FC7011995AF960FB6F894DEBF23
:1003A0000FBECDBFDF91CF911F910F91FF90EF90C6
:1003B000DF90CF900895CF92DF92EF92FF920F934C
:1003C0001F93CF93DF93CDB7DEB7AF970FB6F894F7
:1003D000DEBF0FBECDBF7C016A0100EC12E01A83C4
:1003E00009831C861B8688EE93E0A0E0B0E08D8731
:1003F0009E87AF87B88B84E292E09A878987188FAF
:100400000F8B198E1A8E1B8E1C8E84E089A31DA360
:100410000CA31EA21FA218A619A68091D504909124
:10042000D604A091D704B091D8048CA79DA7AEA7FD
:10043000BFA78B839C83AD83BE8318861F82AE01CA
:100440004C5D5F4FCE0101960E948F0C813091056B
:10045000B1F4D701ED91FC910684F785E02D1BA73F
:100460000AA78EA19FA1A8A5B9A58CA79DA7AEA7F5
:10047000BFA7A601BE01665D7F4FC7011995AF9664
:100480000FB6F894DEBF0FBECDBFDF91CF911F91A5
:100490000F91FF90EF90DF90CF900895CF93DF936F
:1004A000EC01888D843061F00E94960AE88DF0E0BE
:1004B000EE0FFF1FEE5EFB4F1182108284E0888FEB
:1004C000DF91CF910895FC018485843011F00C9464
:1004D000650B80E00895CF93DF93FC0124852430E1
:1004E000D1F0EC010E946302843181F0882371F025
:1004F000883161F08C3161F4E881F9810084F18503
:10050000E02DCE01199521E0892B19F420E001C0DE
:1005100021E0822F01C080E0DF91CF910895EF921A
:10052000FF921F93CF93DF93FC01208D243011F0B5
:1005300080E01CC07B01EC0110E0812F0E94650B64
:10054000811102C0188F05C08831E1F31F5F14309C
:10055000A1F7888D843061F3FD86EC861A8E198EA2
:1005600020E0A70162E00E94AA0A81E0DF91CF911A
:100570001F91FF90EF9008950F931F93CF93DF93F8
:100580001F92CDB7DEB78C01DC01ED91FC910084A8
:10059000F185E02D1995892B51F0BE016F5F7F4FDA
:1005A000F80184850E941F09898190E002C08FEFC5
:1005B0009FEF0F90DF91CF911F910F910895FC0154
:1005C00084850C948509CF93DF931F92CDB7DEB756
:1005D00041E050E0BE016F5F7F4FFC0184850E94C7
:1005E0008509181619061CF4898190E002C08FEF66
:1005F0009FEF0F90DF91CF910895FC0184858430A7
:1006000011F00C94630980E090E008950F931F931C
:10061000CF93DF931F92CDB7DEB7282F30E02C5F4A
:100620003F4F322F22278901060F171F49830E944F
:10063000FE0880EF0E941809812F0E941809802F60
:100640000E9418094981842F0E9418090E94FC0801
:1006500081E00F90DF91CF911F910F9108950F933B
:100660001F93CF93DF931F92CDB7DEB790E0049630
:10067000982F88278C01060F171F0E94FE088FE015
:100680000E941809812F0E941809802F0E941809C2
:1006900080E00E94180989830E94FC0889810F90DC
:1006A000DF91CF911F910F910895CF93DF93C82FC2
:1006B000D62F472F60E170E00E9406034D2F61E1C5
:1006C00070E08C2FDF91CF910C94060308958CBDC0
:1006D0009DBD0895CF93FC01C08D80E590E00E9400
:1006E000670360E270E08C2F0E947E0B62E070E096
:1006F0008C2F0E942F0384FD15C062E070E08C2FC8
:100700000E942F0383FF09C048E162E070E08C2F54
:100710000E94060380E090E00DC080E590E00E941A
:100720006703E4CF40E162E070E08C2F0E94060393
:1007300081E090E0CF910895FF920F931F93CF93A4
:10074000DF93FB01DC0157961C921E925697589638
:10075000FC908281811109C08381811106C084814E
:10076000811103C085818823E9F041155105D1F03D
:100770008A01EF0180E590E00E946703BE016E5F91
:100780007F4F2F2D30E0922F882744E050E0845F88
:100790009B4F0E946608B8018F2D0E94550381E08F
:1007A00090E002C080E090E0DF91CF911F910F9127
:1007B000FF900895CF92DF92EF92FF921F93CF9315
:1007C000DF93FC011485143099F1EC0180E590E091
:1007D0000E94670368E070E0812F0E947E0B0E94F8
:1007E00040076B017C01CE010E9463028823B1F0B7
:1007F00061E070E080E090E00E94550C0E944007AC
:10080000DC01CB018C199D09AE09BF09883E9340DC
:10081000A105B10540F38C850E94960AEC85F0E0B5
:10082000EE0FFF1FEE5EFB4F1182108284E08C877B
:10083000DF91CF911F91FF90EF90DF90CF900895BF
:100840008F929F92AF92BF92CF92DF92EF92FF92E0
:100850000F931F93CF936C015B017A01FC01C48558
:10086000C43041F481E090E0F6019383828380E01C
:1008700090E04EC08A014130584010F000E018E08E
:1008800080E590E00E9467038C2F0E94F30B4C01DF
:1008900063E070E08C2F0E942F03873111F08C31C0
:1008A00021F48016910660F302C000E010E080E5BC
:1008B00090E00E9467039801A50160E070E08C2F32
:1008C0000E948E0B60E270E08C2F0E947E0B62E033
:1008D00070E08C2F0E942F0384FD10C063E070E055
:1008E0008C2F0E942F03811104C08C2F0E94960A26
:1008F000B9CF80E590E00E946703E9CF40E162E074
:1009000070E08C2F0E940603012B09F4ABCFC701C6
:10091000CF911F910F91FF90EF90DF90CF90BF90FC
:10092000AF909F908F900895CF92DF92FF920F9398
:100930001F93CF93DF93FC012485243009F077C007
:100940006A01EB018C01F12C8F2D0E94650B811146
:1009500003C0F801F48607C08B7F8831D1F3F3948C
:10096000F4E0FF12F1CFF8018485843009F45FC010
:1009700020910002309101022F5F3F4F11F420E0DF
:1009800030EC30930102209300024091000250911C
:10099000010220E061E00E94AA0AF801F4848A8141
:1009A0008F3F51F48B818F3F91F48C818F3F79F48D
:1009B0008D818F3F61F438C0811109C08B81811115
:1009C00006C08C81811103C08D81882369F1C11417
:1009D000D10451F180E590E00E946703BE016E5F93
:1009E0007F4F8F2D90E0982F882744E050E0845F60
:1009F0009B4F0E946608B6018F2D0E94550364E04C
:100A000070E08F2D0E947E0BC8010E946302873127
:100A100089F061E070E080E090E00E94550CC80130
:100A20000E9463028111F0CF84E0F801848780E0A6
:100A300090E002C081E090E0DF91CF911F910F9193
:100A4000FF90DF90CF900895089528EA32E0FC01EE
:100A500031832083878190850C94F112CF93DF93AB
:100A6000EC010E942505CE01DF91CF910C94F1128B
:100A70000895089508950895CF92DF92EF92FF921E
:100A80000F931F93CF93DF936C017A018B01C0E02A
:100A9000D0E0CE15DF0589F0D8016D918D01D6012A
:100AA000ED91FC910190F081E02DC6011995892B03
:100AB00011F47E0102C02196ECCFC701DF91CF91E6
:100AC0001F910F91FF90EF90DF90CF900895FC0160
:100AD000538D448D252F30E0842F90E0821B930BA3
:100AE000541710F0CF96089501970895FC01918D49
:100AF000828D981761F0828DDF01A80FB11D5D9680
:100B00008C91928D9F5F9F73928F90E008958FEFED
:100B10009FEF0895FC01918D828D981731F0828DA1
:100B2000E80FF11D858D90E008958FEF9FEF0895F8
:100B3000FC01918D228D892F90E0805C9F4F821B5C
:100B400091098F739927089586E394E00E94980590
:100B500021E0892B09F420E0822F0895FC01848D87
:100B6000DF01A80FB11DA35ABF4F2C91848D90E0D7
:100B700001968F739927848FA689B7892C93A089B2
:100B8000B1898C9180648C93938D848D981306C069
:100B90000288F389E02D80818F7D80830895EF9214
:100BA000FF920F931F93CF93DF93EC0181E0888F27
:100BB0009B8D8C8D981305C0E889F989808185FD0E
:100BC00024C0F62E0B8D10E00F5F1F4F0F731127FF
:100BD000E02E8C8DE8120CC00FB607FCFACFE88926
:100BE000F989808185FFF5CFCE010E94AE05F1CF56
:100BF0008B8DFE01E80FF11DE35AFF4FF0820B8F42
:100C0000EA89FB898081806207C0EE89FF89608361
:100C1000E889F98980818064808381E090E0DF91B8
:100C2000CF911F910F91FF90EF900895CF93DF9395
:100C3000EC01888D8823C9F0EA89FB89808185FDD4
:100C400005C0A889B9898C9186FD0FC00FB607FC35
:100C5000F5CF808185FFF2CFA889B9898C9185FF76
:100C6000EDCFCE010E94AE05E7CFDF91CF91089581
:100C700080E090E0892B21F00E94A405811125C01D
:100C800080E090E0892B41F080E090E0892B21F01A
:100C90000E94000081111CC080E090E0892B41F08F
:100CA00080E090E0892B21F00E940000811113C0A8
:100CB00080E090E0892BA1F080E090E0892B81F02A
:100CC0000E94000081110AC008950E940000D8CF40
:100CD0000E940000E1CF0E940000EACF0C940000C7
:100CE00008956115710579F0FB0101900020E9F785
:100CF0003197AF01461B570BDC01ED91FC9102804F
:100D0000F381E02D199480E090E008954F925F9276
:100D10006F927F92EF92FF920F931F93CF93DF9387
:100D2000CDB7DEB7A1970FB6F894DEBF0FBECDBF2B
:100D30007C01FA01CB0119A2223008F42AE08E01CD
:100D40000F5D1F4F422E512C612C712CBF01A3014E
:100D500092010E943212F901CA01015011096A3050
:100D600014F4605D01C0695CD8016C93232B242BC3
:100D7000252B61F7B801C7010E947106A1960FB635
:100D8000F894DEBF0FBECDBFDF91CF911F910F91C1
:100D9000FF90EF907F906F905F904F9008958F92AB
:100DA0009F92AF92BF92CF92DF92EF92FF920F93FA
:100DB0001F93CF93DF937C01EB016C0182E0C80E9F
:100DC000D11C4701E5E08E0E911C00E010E0F60119
:100DD00041916F0150E060E070E02AE0CE010E9496
:100DE00086065C01E881F9810190F081E02D6EE2D8
:100DF000CE0119958A0D9B1D080F191FC814D9041F
:100E000031F7F701458150E060E070E02AE0CE0163
:100E10000E948606800F911FDF91CF911F910F9145
:100E2000FF90EF90DF90CF90BF90AF909F908F900A
:100E300008950E9472143FB7F89480912004909115
:100E40002104A0912204B091230426B5A89B05C0DB
:100E50002F3F19F00196A11DB11D3FBFBA2FA92F39
:100E6000982F8827820F911DA11DB11DBC01CD01B6
:100E700042E0660F771F881F991F4A95D1F70895A2
:100E80002FB7F89460911C0470911D0480911E048A
:100E900090911F042FBF08951F920F920FB60F92CB
:100EA00011242F933F938F939F93AF93BF93809180
:100EB0001C0490911D04A0911E04B0911F04309158
:100EC0001B0423E0230F2D3720F40196A11DB11D33
:100ED00005C026E8230F0296A11DB11D20931B0417
:100EE00080931C0490931D04A0931E04B0931F04D0
:100EF0008091200490912104A0912204B0912304B8
:100F00000196A11DB11D8093200490932104A0930C
:100F10002204B0932304BF91AF919F918F913F9191
:100F20002F910F900FBE0F901F901895EF92FF9288
:100F30000F931F93CF93DF93EC017B018A0188818C
:100F40009981009729F02A813B8124173507F8F40D
:100F5000B8016F5F7F4F0E948913009759F0998302
:100F600088831B830A832C813D81232B81F4FC0120
:100F700010820DC088819981009711F00E94F112B2
:100F8000198218821D821C821B821A8207C01D834F
:100F90000C83B701888199810E948014CE01DF9172
:100FA000CF911F910F91FF90EF9008951F920F9294
:100FB0000FB60F9211240BB60F922F933F934F93BE
:100FC0005F936F937F938F939F93AF93BF93EF93B1
:100FD000FF9386E394E00E94AE05FF91EF91BF91ED
:100FE000AF919F918F917F916F915F914F913F91C1
:100FF0002F910F900BBE0F900FBE0F901F90189562
:101000001F920F920FB60F9211240BB60F922F93CF
:101010008F939F93EF93FF93E0914604F0914704E1
:101020008081E0914C04F0914D0482FD12C09081CA
:1010300080914F048F5F8F7320915004821751F07D
:10104000E0914F04F0E0EA5CFB4F958F80934F04F2
:1010500001C08081FF91EF919F918F912F910F900F
:101060000BBE0F900FBE0F901F901895CF92DF927E
:10107000EF92FF920F931F93CF93DF93EC017A01CE
:101080008B016C01C40ED51ECC15DD05A9F00E94A4
:10109000FE088FE00E9418098D2F0E9418098C2FDE
:1010A0000E941809219680E00E941809F801819396
:1010B0008F010E94FC08E8CFC701DF91CF911F91FB
:1010C0000F91FF90EF90DF90CF900895CF92DF9235
:1010D000EF92FF920F931F93CF93DF93EC017A016E
:1010E0008B016C01C40ED51ECC15DD05A1F00E944C
:1010F000FE0880EF0E9418098D2F0E9418098C2F7E
:101100000E9418092196F80181918F010E94180907
:101110000E94FC08E9CFC701DF91CF911F910F9189
:10112000FF90EF90DF90CF9008950895CF93DF93D5
:101130001F92CDB7DEB76983DC01ED91FC9102808F
:10114000F381E02D41E050E0BE016F5F7F4F1995C4
:101150000F90DF91CF9108951F93CF93DF93182FB6
:1011600066E270E00E942F03C82FD0E067E270E0D3
:10117000812F0E942F03DC2FCC279E01282BC90131
:10118000DF91CF911F910895AF92BF92CF92DF92DE
:10119000FF920F931F93CF93DF938C015B01EA01C2
:1011A000FC01C688D788F08C80E590E00E94670338
:1011B0008F2D0E94F30B8C179D0720F48F2D0E941A
:1011C000F30BEC019E01A501B6018F2D0E948E0B41
:1011D0000E946603F801868997898C0F9D1F978B63
:1011E000868BCE01DF91CF911F910F91FF90DF9001
:1011F000CF90BF90AF9008952C9A08952C980895A1
:101200001F93CF93DF93182F60E270E00E942F03AB
:10121000C82FD0E061E270E0812F0E942F03DC2F05
:10122000CC279E01282BC901DF91CF911F910895F2
:101230008EBD00000DB407FEFDCF8EB50895EF9270
:10124000FF921F93CF93DF93182F7B0180E590E0EF
:101250000E94670368E270E0812F0E942F03C82F6D
:10126000D0E069E270E0812F0E942F03DC2FCC27B1
:10127000BE01682B21E030E0A701812F0E940F0CF6
:101280000E94660381E090E0DF91CF911F91FF9073
:10129000EF900895CF93DF931F92CDB7DEB7FC0197
:1012A000218D328D232B49F0BE016F5F7F4F808DE2
:1012B0000E941F09898190E002C08FEF9FEF0F907D
:1012C000DF91CF910895FF920F931F93CF93DF93F8
:1012D000F82E80E590E00E946703C0E0D0E08F2DFB
:1012E0000E94AC088C01892B21F08F2D0E94AC0844
:1012F000EC01C017D10799F70E946603CE01DF9178
:10130000CF911F910F91FF900895AF92BF92DF92FE
:10131000EF92FF920F931F93CF93DF93D82E7B0111
:101320008A0180E590E00E946703C0E0D0E08D2D47
:101330000E94AC085C01892B21F08D2D0E94AC0825
:10134000EC01CA15DB0599F7209799F463E070E08A
:101350008D2D0E942F038431D9F18823C9F1C1E07A
:10136000D0E08C3111F4C0E0D0E0D195C195D10925
:101370002FC00C171D070CF4E8011C161D0644F5C0
:1013800068E270E08D2D0E942F03082F10E069E2C3
:1013900070E08D2D0E942F03102F0027082B9E0137
:1013A000A701B8018D2D0E940F0C0C0F1D1F412F9E
:1013B00068E270E08D2D0E940603402F69E270E024
:1013C0008D2D0E94060360E470E08D2D0E947E0B3F
:1013D0000E946603CE01DF91CF911F910F91FF9084
:1013E000EF90DF90BF90AF900895CF93DF93FC0113
:1013F000218D328D2115310519F48FEF9FEF11C02A
:10140000EC014217530708F0A901888D0E94850955
:101410001816190694F7298D3A8D281B390B3A8F27
:10142000298FDF91CF9108950F931F93CF93DF936F
:101430001F92CDB7DEB7FC01218D328D232B61F0D9
:101440008C0141E050E0BE016F5F7F4F808D0E94B4
:101450008509181619061CF08FEF9FEF08C0F801D8
:10146000818D928D0197928F818F898190E00F906D
:10147000DF91CF911F910F9108950F931F93CF93F9
:10148000DF93CDB7DEB728970FB6F894DEBF0FBE57
:10149000CDBF8C01F801818D928D892B49F0D80147
:1014A000ED91FC910284F385E02DC8011995F2CFEE
:1014B000808D0E946309181619065CF548E050E01B
:1014C000BE016F5F7F4FD80158968C910E948509AD
:1014D0009C0118161906DCF489819A81AB81BC81C4
:1014E000F801808B918BA28BB38B8D8190E0982F2C
:1014F00088272E81820F911D958B848B2F8130E060
:10150000322F22278885280F311D328F218FC90164
:1015100002C080E090E028960FB6F894DEBF0FBEC0
:10152000CDBFDF91CF911F910F910895CF93C82F19
:1015300080E590E00E94670360E170E08C2F0E94DC
:101540007E0B4FEF62E070E08C2F0E940603CF917C
:101550000C946603FF920F931F93CF93DF931F9218
:101560001F92CDB7DEB7F82E8A012A8369830E94C5
:10157000960A80E590E00E9467032A816981462FE0
:10158000422B60E070E08F2D0E94060301151105CB
:1015900051F400912404109125040F5F1F4F109304
:1015A000250400932404412F64E070E08F2D0E94F5
:1015B0000603402F65E070E08F2D0E94060361E076
:1015C00070E08F2D0E947E0B0E94660381E00F90D9
:1015D0000F90DF91CF911F910F91FF900895BF92CF
:1015E000CF92DF92EF92FF920F931F93CF93DF93EF
:1015F00000D000D0CDB7DEB7FC01208D243009F03B
:1016000053C06A017B018C01B12C63E070E08B2D2B
:101610000E942F03811103C0F801B08E06C08831EB
:10162000D9F3B394F4E0BF12F0CFF801808D843089
:10163000D9F196E0E8E4F2E0DE01119601900D9216
:101640009A95E1F7F70193819F779C8394819D831D
:1016500095819E83B7016E5F7F4F90E0982F88271A
:1016600044E050E0845F9B4F0E946608B601F80199
:10167000808D0E945503F801808D90E0982F882777
:1016800046E050E0BE016F5F7F4F8A5F9B4F0E9434
:101690006608F801128E118E20E8A60162E0808DA6
:1016A0000E94AA0A81E001C080E026960FB6F89455
:1016B000DEBF0FBECDBFDF91CF911F910F91FF9085
:1016C000EF90DF90CF90BF9008951F93CF93DF935B
:1016D0001F92CDB7DEB7182F80E590E00E94670318
:1016E00063E070E0812F0E942F0389830E946603CC
:1016F00089810F90DF91CF911F910895CF93C82FCB
:10170000462F61E070E00E94060361E070E08C2FDC
:101710000E942F038111F9CFCF9108959F92AF922C
:10172000BF92CF92DF92EF92FF920F931F93CF93CE
:10173000DF93982E8B015A01690164E270E00E94E8
:101740002F03E82EF12C65E270E0892D0E942F0313
:10175000FE2CEE24E82AE701C00FD11F9E0137704E
:10176000E92CF12CC701880F991FAC014A5D5B4F32
:101770007A01FA0180819181820F931FA9014C0D9A
:101780005D1D4130584090F000E018E0021B130B43
:10179000A801B5010E946608A601401B510BB501C6
:1017A000600F711FF7018081918102C0A601B50110
:1017B0000E946608CC0DDD1D4D2F64E270E0892D7E
:1017C0000E9406034C2F65E270E0892DDF91CF91D6
:1017D0001F910F91FF90EF90DF90CF90BF90AF904F
:1017E0009F900C940603FF920F931F93CF93DF9368
:1017F000F82EC0E0D0E08F2D0E9400098C01892BCB
:1018000021F08F2D0E940009EC01C017D10799F734
:10181000CE01DF91CF911F910F91FF900895AF926C
:10182000BF92CF92DF92EF92FF920F931F93CF93CD
:10183000DF931F921F92CDB7DEB77A836983BA0117
:10184000A901E981FA81F770082F10E0000F111F3C
:10185000025D1B4FD8018D919C918E0F9F1F2E0F03
:101860003F1F2130384098F07A015B0120E038E0DA
:101870006901CE1ADF0AA6010E943608A7014C1999
:101880005D09B5016C0D7D1DF801808191810F907E
:101890000F90DF91CF911F910F91FF90EF90DF900C
:1018A000CF90BF90AF900C9436088F929F92AF92DA
:1018B000BF92CF92DF92EF92FF926B017C010E9468
:1018C0001B074B015C01C114D104E104F104F1F0E8
:1018D0000E941B07DC01CB0188199909AA09BB09E1
:1018E000883E9340A105B10570F321E0C21AD108EA
:1018F000E108F10888EE880E83E0981EA11CB11C57
:10190000C114D104E104F10419F7DDCFFF90EF9089
:10191000DF90CF90BF90AF909F908F9008952F92BF
:101920003F924F925F926F927F928F929F92AF926F
:10193000BF92CF92DF92EF92FF920F931F93CF93BC
:10194000DF93CDB7DEB765970FB6F894DEBF0FBE55
:10195000CDBF7C016B013A01FB0120E080E090E00B
:101960006AE03191332309F140ED430F4A3080F4AE
:10197000689FA001699F500D1124CA01C097830F71
:10198000911D37FD9A958F3F910559F350F313C080
:101990003E3289F4233079F0D301A20FB11D1296A3
:1019A0008C932F5F80E090E0DCCF233021F4F301B3
:1019B000858381E021C0F701428153816481758173
:1019C0008091E5049091E604A091E704B091E804C9
:1019D000481759076A077B0709F49EC10E94400710
:1019E0008701085F1F4F6F7077277C5FC8010E94D7
:1019F0008F02813019F080E090E0F3C180EC92E03A
:101A00009A838983F70182819381A481B5818B8335
:101A10009C83AD83BE8345E350E0BE016F5F7F4F83
:101A2000C8010E949C03892B19F4C12CD12C6FC1D1
:101A30000E944007F701778366837627672776271A
:101A40007A83698342E050E0BE016F5F7F4FC80137
:101A50000E94C40881E090E09E878D8742E050E0BC
:101A6000BE01635F7F4FC8010E94C40880E091E01F
:101A70009E878D8742E050E0BE01635F7F4FC801C3
:101A80000E94C4081E861D8642E050E0BE01635FCE
:101A90007F4FC8010E94C40842E050E0BE01635F6E
:101AA0007F4FC8010E94C40842E050E0BE01635F5E
:101AB0007F4FC8010E94C4085601F5018081882328
:101AC00011F1F6015F018191811115C045018C185A
:101AD0009D081814190494F48F8641E050E0BE016B
:101AE000615F7F4FC8010E94C408A401B601C8010C
:101AF0000E94C40803C08E3229F7E8CF6501FFEFCA
:101B0000CF1ADF0ADACF1F8641E050E0BE01615FE5
:101B10007F4FC8010E94C408C12CDD24D394DE8607
:101B2000CD8642E050E0BE01635F7F4FC8010E9456
:101B3000C408DE86CD8642E050E0BE01635F7F4F81
:101B4000C8010E94C408C8010E946A03892B09F4D5
:101B50006CCF63E0A62EB12CF2E06F0E711C0E94D8
:101B600040071B012C01C8010E943D0A18161906E6
:101B7000A4F00E944007DC01CB0182199309A4095B
:101B8000B50989389341A105B105D0F462E370E04D
:101B900080E090E00E94550CE6CFF701428153812E
:101BA00064817581808D918DA28DB38D4817590701
:101BB0006A077B0741F4848D958DC59721F406C093
:101BC0002FEF3FEF9AC02EEF3FEF97C0F70181A1B3
:101BD00092A10C970CF4A6C04CE050E0BE016F5FE0
:101BE0007F4FC8010E94F5098B8190E0982F8827CC
:101BF0002C81822B9A8B898B298130E0322F2227EE
:101C00004A81242BF701468157814217530709F077
:101C100086C097FF84C08F709270892B09F0DEC058
:101C2000CF80D12CDC2CCC248885C82AC114D104C7
:101C300009F4D1C0812C912C8D8190E0982F8827B8
:101C40002E81822B8816990608F46FC0812C912C66
:101C500041E050E0BE016D5E7F4FC8010E94F50972
:101C60008B89982F907C09F093C0811186C08B8955
:101C70008111EECF42E050E0BE01615F7F4FC801AD
:101C80000E94F50942E050E0BE01635F7F4FC8014A
:101C90000E94F509C8010E94140AC8010E94140A92
:101CA000C8010E94140AC8010E94140A42E050E0D0
:101CB000BE016F5E7F4FC8010E94F5098F8598892C
:101CC0008115914009F069C02D853E853227232773
:101CD00032272130310509F060C089899A89811540
:101CE000944009F075C044E050E0B301C8012C8B6A
:101CF0003D8B0E94F5092C893D896901F1E0AF1AFD
:101D0000B10829F02FEFC216D20609F428CFC80176
:101D10000E944E02C60165C08EEF9FEF62C02CEF9D
:101D20003FEFEBCF2DEF3FEFE8CF41E050E0BE01BA
:101D3000635F7F4FC8010E94F5098D85811113C033
:101D40008D858111F2CFC8010E94140AC8010E943A
:101D5000140AC8010E94140AC8010E94140AFFEF65
:101D60008F1A9F0A69CF8D859FEF980F9D878823D3
:101D700039F3C8010E94140AF6CF8B899FEF980FA0
:101D80009B8B882309F473CFC8010E94140AF5CFF6
:101D9000C8010E94140A1B8A6ACF412C512C8989E0
:101DA0009A899827892798274816590638F4C80130
:101DB0000E94140A8FEF481A580AF1CFEFEF8E1ADB
:101DC0009E0A8C149D0409F043CF26EF3FEF95CF78
:101DD00027EF3FEF92CF2AEF3FEF8FCF2BEF3FEF71
:101DE0008CCF65960FB6F894DEBF0FBECDBFDF91E6
:101DF000CF911F910F91FF90EF90DF90CF90BF9008
:101E0000AF909F908F907F906F905F904F903F909A
:101E10002F900895CF93DF9300D000D0CDB7DEB7D9
:101E2000789484B5826084BD84B5816084BD85B5B5
:101E3000826085BD85B5816085BD80916E008160C1
:101E400080936E0010928100809181008260809367
:101E50008100809181008160809381008091800069
:101E60008160809380008091B10084608093B10094
:101E70008091B00081608093B00080919100826079
:101E80008093910080919100816080939100809176
:101E900090008160809390008091A1008260809387
:101EA000A1008091A10081608093A1008091A00099
:101EB00081608093A0008091210182608093210144
:101EC00080912101816080932101809120018160B6
:101ED0008093200180917A00846080937A008091C1
:101EE0007A00826080937A0080917A00816080938A
:101EF0007A0080917A00806880937A001092C10005
:101F0000E0914604F091470482E08083E09142042E
:101F1000F09143041082E0914404F09145048FEC69
:101F2000808310924E04E0914A04F0914B0486E0C5
:101F30008083E0914804F09149048081806180832E
:101F4000E0914804F0914904808188608083E091A9
:101F50004804F0914904808180688083E0914804BE
:101F6000F091490480818F7D808310921A04CE0104
:101F700001965C014091DD045091DE04DA01129675
:101F80008C911297882329F012961C9225E030E05C
:101F900047C0A091DF04B091E00411968C91119795
:101FA000882329F011961C9220E030E039C08C91F2
:101FB000882321F01C9221E030E032C08091E104BE
:101FC0009091E204FC01208D222321F0108E22E06A
:101FD00030E026C0FA012081318112161306DCF4AC
:101FE00020911A04222329F010921A0426E030E0EE
:101FF00017C0D496ED91FC91D597EE0FFF1FE80F17
:10200000F91F0190F081E02D8681882339F0168236
:1020100023E030E005C024E030E002C027E030E0FB
:102020000091DB041091DC04D8018D919C918230E9
:10203000910529F12CF4009751F0019769F06AC0DD
:102040008330910529F1049709F458C063C0223008
:10205000310509F04AC010C02115310509F43FC00F
:102060002130310549F4D8011496ED91FC91159772
:1020700016AA82E090E03EC081E090E03BC02330B1
:10208000310519F483E090E041C082E090E03EC069
:102090002115310521F12130310551F5D801149672
:1020A000ED91FC9115971A8219821C821B821E8267
:1020B0001D82CF01C796A816B90651F067A970AD69
:1020C0006115710529F043AD54ADC5010E94960715
:1020D00089819A810E94F11284E090E00BC0D801BE
:1020E0001496ED91FC91159716AA80E090E002C03D
:1020F00083E090E0F801918380833CC02430310577
:1021000019F481E090E002C084E090E0D8018D9362
:102110009C9330C068EC72E086E394E00E94710604
:10212000F801C080D1800D2C000CEE08FF08F7FEEE
:1021300014C0E0913604F09137040190F081E02D55
:102140006DE286E394E0199544275527BA014C19AE
:102150005D096E097F092AE003C02AE0B701A601E4
:1021600086E394E00E94860665EF72E086E394E0E1
:102170000E9471060E943806FDCE8F929F92AF9208
:10218000BF92CF92DF92EF92FF920F931F93CF9364
:10219000DF9380EC92E09093E4048093E304109248
:1021A000E5041092E6041092E7041092E80490937C
:1021B000EA048093E9041092EB041092EC0410926C
:1021C000ED041092EE049093F0048093EF041092CB
:1021D000F1041092F2041092F3041092F40410929D
:1021E00039041092380448EE53E060E070E0409308
:1021F0003A0450933B0460933C0470933D0422E501
:1022000032E0309337042093360425EC30E03093ED
:1022100043042093420424EC30E03093450420939F
:10222000440420EC30E0309347042093460421EC32
:1022300030E0309349042093480422EC30E030939E
:102240004B0420934A0426EC30E030934D04209355
:102250004C0410924F0410925004109251041092AA
:1022600052049093F6048093F5041092F7041092B0
:10227000F8041092F9041092FA049093FC048093ED
:10228000FB041092FD041092FE041092FF041092C1
:1022900000059093020580930105109203051092AA
:1022A000040510920505109206059093D4048093BE
:1022B000D3041092D5041092D6041092D704109231
:1022C000D804909308058093070510920905109291
:1022D0000A0510920B0510920C059093100580933F
:1022E0000F0510921105109212051092130510920D
:1022F000140581E090E00E945C12EC0190930E05C1
:1023000080930D058BE190E00E945C128C01FC0132
:10231000108ED28FC18F82E0E82E82E0F82E680105
:1023200098EAA92E92E0B92E88248A94982C89E004
:1023300090E00E945C12EC01F701819191917F0184
:10234000B982A8829B838A831D821C821E8286E0BA
:1023500090E00E945C12FC019182808293828282D2
:102360001582148298878F83F601C193D1936F01F0
:10237000FAE1EF16F2E0FF06D1F61093E2040093C3
:10238000E1048DE390E00E945C12EC011882198256
:102390001B821A8288EF92E08A8789E193E08B871B
:1023A00082EF93E08C8783E094E08D878FE094E068
:1023B0008E871A8A198A88EE93E0A0E0B0E08B8BB2
:1023C0009C8BAD8BBE8B82E892E0988B8F8784E0EC
:1023D0008B8F8FEF9FEF9DAB8CAB1EAA18AE1FAA01
:1023E0001AAE19AE1CAE1BAE40E050E067EF72E0D3
:1023F000CE01C7960E94960791E09C839D839E83A1
:102400009F8398879987D093E004C093DF0483E08B
:1024100090E00E945C127C01FC0111821082128209
:102420009093DE048093DD0488E090E00E945C12CB
:10243000FC011182108213830283D583C483F78247
:10244000E6829093DC048093DB04DF91CF911F91AF
:102450000F91FF90EF90DF90CF90BF90AF909F9043
:102460008F900895A1E21A2EAA1BBB1BFD010DC07F
:10247000AA1FBB1FEE1FFF1FA217B307E407F50734
:1024800020F0A21BB30BE40BF50B661F771F881F10
:10249000991F1A9469F760957095809590959B01A6
:1024A000AC01BD01CF010895EE0FFF1F881F8BBF48
:1024B0000790F691E02D1994CF93DF938230910528
:1024C00010F482E090E0E0911705F091180520E00B
:1024D00030E0C0E0D0E0309711F1408151814817E1
:1024E0005907C0F04817590761F4828193812097FA
:1024F00019F09B838A832BC090931805809317054E
:1025000026C02115310519F04217530718F49A0116
:10251000BE01DF01EF010280F381E02DDCCF211548
:10252000310509F1281B390B2430310590F412963E
:102530008D919C9113976115710521F0FB01938397
:10254000828304C09093180580931705FD0132968D
:1025500044C0FD01E20FF31F819391932250310992
:102560002D933C933AC02091150530911605232BED
:1025700041F420911C0230911D02309316052093E6
:10258000150520911A0230911B022115310541F4E5
:102590002DB73EB740911E0250911F02241B350BF0
:1025A000E0911505F0911605E217F307A0F42E1B34
:1025B0003F0B2817390778F0AC014E5F5F4F2417A7
:1025C000350748F04E0F5F1F5093160540931505D1
:1025D0008193919302C0E0E0F0E0CF01DF91CF91D1
:1025E00008950F931F93CF93DF93009709F48CC046
:1025F000FC01329713821282009117051091180581
:102600000115110581F420813181820F931F2091E2
:102610001505309116052817390779F5F093160539
:10262000E093150571C0D80140E050E0AE17BF0738
:1026300050F412962D913C911397AD01211531055F
:1026400009F1D901F3CF9D01DA013383228360813F
:102650007181860F971F8217930769F4EC01288117
:102660003981260F371F2E5F3F4F318320838A81A8
:102670009B8193838283452B29F4F0931805E09383
:10268000170542C01396FC93EE931297ED01499102
:1026900059919E01240F351FE217F30771F48081D1
:1026A0009181840F951F029611969C938E9382813F
:1026B000938113969C938E931297E0E0F0E0D801FB
:1026C00012968D919C911397009719F0F8018C0147
:1026D000F6CF8D919C9198012E5F3F4F820F931FF3
:1026E00020911505309116052817390769F43097A0
:1026F00029F4109218051092170502C01382128255
:102700001093160500931505DF91CF911F910F913E
:1027100008956F927F928F929F92AF92BF92CF92C5
:10272000DF92EF92FF920F931F93CF93DF93EC0111
:10273000009789F4CB01DF91CF911F910F91FF900A
:10274000EF90DF90CF90BF90AF909F908F907F9051
:102750006F900C945C12FC01E60FF71F9C01225055
:102760003109E217F30708F4ACC0D9010D911C91AF
:10277000119706171707B0F00530110508F49FC030
:10278000C80104978617970708F499C002501109E9
:10279000061B170B019311936D937C93CF010E943D
:1027A000F1128DC05B01A01AB10A4C01800E911E7E
:1027B000A0911705B091180540E050E0E12CF12CF4
:1027C000109709F44AC0A815B905D1F56D907C9011
:1027D0001197630182E0C80ED11CCA14DB0480F19A
:1027E000A3014A195B096A0182E0C80ED11C129646
:1027F000BC9012971396AC91B5E0CB16D10440F083
:10280000B282A38351834083D9016D937C930AC024
:102810000E5F1F4FC301800F911FF90191838083C9
:10282000EB2DFA2FE114F10431F0D7011396FC934C
:10283000EE93129744C0F0931805E09317053FC03C
:102840008D919C9111974817590708F4AC017D01AF
:1028500012960D90BC91A02DB3CF8091150590914B
:10286000160588159905E1F446175707C8F48091B5
:102870001A0290911B02009741F48DB79EB74091C8
:102880001E0250911F02841B950BE817F907C8F42C
:10289000F0931605E0931505F901718360830FC06D
:1028A000CB010E945C127C01009759F0A801BE0187
:1028B0000E947714CE010E94F112C70104C0CE011C
:1028C00002C080E090E0DF91CF911F910F91FF90C7
:1028D000EF90DF90CF90BF90AF909F908F907F90C0
:1028E0006F90089581E090E0F8940C948714FB01B8
:1028F000DC0102C001900D9241505040D8F708957C
:10290000FB01DC0101900D920020E1F70895F8949D
:02291000FFCFF7
:1029120000C00100020003000400050006000700D9
:10292200080009000A000B000C00000019058000D5
:10293200000000009608C408630195080801140A03
:102942004A098F02EF0A4E029C0368016A033D0A9C
:10295200F509200110010C0101005E0000000000D9
:102962000000CF053C0567051606980576058A0521
:102972000000000019073C056301620119071907ED
:1029820019070000000019073C05630162010000FD
:1029920000003D01200463013C01FD02E302BC0290
:1029A2009404DB01DF02DA036B0234015F015D0193
:1029B200290153010000000025052E05670166016B
:1029C20000000000000000001907190700000000C5
:1029D200CF060000000019074552524F523A2069B3
:1029E2006C6C6567616C2F756E68616E646C656492
:1029F2002073746174652077697468206E756D62E6
:102A020065723A20000D0A00766972747565646514
:102A12006C74612E64617461626173652E77696E94
:102A2200646F77732E6E65740053686172656441DA
:102A320063636573735369676E617475726520733E
:102A4200723D68747470732533612532662532666F
:102A52006576656E7468756274657374312D6E7314
:102A62002E736572766963656275732E77696E641B
:102A72006F77732E6E65742532666576656E74683F
:102A8200756274657374312532667075626C697330
:102A92006865727325326664657669636525326698
:102AA2006D65737361676573267369673D25326669
:102AB2006E65734D57417639555346626A64544F79
:102AC200657752364B38707A507232372532664CFF
:102AD2004753436A5A7A724B714F656725336426AE
:102AE20073653D3134313837363033363726736BC0
:102AF2006E3D53656E645265636569766552756CA9
:102B020065006576656E7468756274657374312DDF
:102B12006E73006576656E74687562746573743180
:022B22000000B1
:00000001FF
