:100000000C94C9010C94FA010C94FA010C94FA01B5
:100010000C94FA010C94FA010C94FA010C94FA0174
:100020000C94FA010C94FA010C94FA010C94FA0164
:100030000C940D120C94FA010C94FA010C94FA0130
:100040000C94FA010C94FA010C94FA010C94FA0144
:100050000C94FA010C94FA010C94FA010C94CD1A48
:100060000C94FA010C9473130C9449130C94FA0138
:100070000C94FA010C94FA010C94FA010C94FA0114
:100080000C94FA010C94FA010C94FA010C94FA0104
:100090000C94FA010C94FA010C94FA010C94FA01F4
:1000A0000C94FA010C94FA010C94FA010C94FA01E4
:1000B0000C94FA010C94FA010C94FA010C94FA01D4
:1000C0000C94FA010C94FA010C94FA010C94FA01C4
:1000D0000C94FA010C94FA010C94FA010C94FA01B4
:1000E0000C94FA01391A3C1A2B1A2F1A331A731A64
:1000F000401A441A4A1A4E1A521A581A5C1A601AAE
:10010000731A661A6A1A6E1A0C945A120C946E12AA
:100110000C944B120C94E9030C9453100C94E702CA
:100120000C9407020C94C3100C94661A0C942802C9
:100130000C94290F0C94E4160C9425020C94580F7F
:100140000C94B90F0C9475170C9483160C94520FE1
:100150000C947D110C94531C0C94960F0C947310FA
:100160000C947F080C946E1A0C94DE020C940B090C
:100170000C9432020C9417130C9474180C944A1AB1
:100180000C94320F0C94D6150C943C1A0C94391A1A
:100190000C9465160C949C160C94720F0C943D17DD
:1001A0000C940D020C94480F0C945C1A0C9493164A
:1001B0000C9428180C9435020C94BC020C941E0F5D
:1001C0000C940A020C94401A0C94D0120C94CC0299
:1001D0000C947B160C9428030C94D1180C94E00F0B
:1001E0000C94B3020C94A9130C94D70F0C949A1688
:1001F0000C942B1A0C941B020C946F1C0C94310F52
:100200000C947C020C945D020C94660F0C942302F7
:100210000C94C4080C947C120C945B0F0C94200278
:100220000C94441A0C94581A0C94BB160C94091193
:100230000C944E1A0C94BD0F0C94731A0C94570F17
:100240000C94521A0C9424020C946A1A0C943D18C3
:100250000C94B5170C94EF130C94601A0C942F1A8D
:100260000C9417020C94EE130C94331A0C947F1612
:100270000C940F020C94540F0C94FC010C94B102DA
:100280000C94630F0C94EF1400002200250028004A
:100290002B002E003100340002010000050108018E
:1002A0000B0100002100240027002A002D0030004F
:1002B000330001010000040107010A0105050505DD
:1002C000070508080808020202020A0A08080404CE
:1002D00004040101010101010101030303030303FC
:1002E0000303040707070C0C0C0C0C0C0C0C02028B
:1002F000020206060606060606060B0B0B0B0B0B88
:100300000B0B010210202008081020401020408014
:1003100002010201080402010102040810204080C9
:100320008040201008040201800402018040201057
:1003300008040201080402010102040810204080A0
:10034000010204081020408000000A0B02090C0D75
:100350000E08070304010000000000000000000078
:10036000000000000000000000000000000000008D
:10037000000000001211100000000000000000004A
:1003800000000000000000000000000000006F1CE2
:10039000531C11241FBECFEFD1E2DEBFCDBF00E062
:1003A0000CBF15E0A0E0B2E0E4EDFEE400E00BBF1E
:1003B00002C007900D92A43BB107D9F727E0A4EB48
:1003C000B5E001C01D92A433B207E1F711E0C8EC1B
:1003D000D1E000E006C021970109802FFE010E94B4
:1003E0002B22C73CD10780E00807A9F70E94F61C22
:1003F0000C9458270C940000FC0183A1811105C0C6
:100400008581823010F481E083A381E00895FC01AE
:1004100083810895FC01828108950B960895FC0163
:100420002481822F90E02C3008F00C970895FC0175
:10043000878190850895FC01648175818681089586
:10044000FC0163A3089508950895FC01628F089547
:100450006F5F7F4F660F771F860F971FFC018081AC
:1004600091810895FC01828D0895CF92DF92EF92E1
:10047000FF920F931F93CF93DF937C016A018B014F
:10048000C0E0D0E0CC15DD057CF4D8016D917D9104
:100490008D01D701ED91FC910084F185E02DAE0135
:1004A000C70119952196EECFDF91CF911F910F9142
:1004B000FF90EF90DF90CF900895EF92FF920F930F
:1004C0001F93CF93DF938C017B01C0E0D0E0CE156A
:1004D000DF055CF4D801ED91FC910480F581E02DFD
:1004E000BE01C80119952196F2CFDF91CF911F91DE
:1004F0000F91FF90EF900895AF92BF92CF92DF924D
:10050000EF92FF920F931F93CF93DF9361157105C5
:10051000E9F012161306D4F479016C01EB018A019B
:10052000A12CB12C69917991D601ED91FC910190AA
:10053000F081E02DC6011995F801819391938F0107
:10054000FFEFAF1ABF0AAE14BF0461F7DF91CF917E
:100550001F910F91FF90EF90DF90CF90BF90AF90E1
:100560000895CB010895C0960E94720F91E0811109
:1005700001C090E0892F0895CF93DF93EC0166E8E6
:1005800073E08BE296E00E943F1C81E090E09B8349
:100590008A83DF91CF910895CF93DF93EC0166E8D2
:1005A00073E08BE296E00E943F1C2A813B81215040
:1005B00031093B832A83DF91CF910895672B11F492
:1005C00060E001C061E0FC0184810C940A1ACF92C2
:1005D000DF92EF92FF920F931F93CF93DF93EC0183
:1005E0007B0160E088850E940A1A61E08A810E948E
:1005F0000A1A00E010E08FE0C82ED12C0E151F055E
:10060000A4F461E08E810E940A1AC6010197F1F7F5
:1006100060E08E810E940A1A61E070E080E090E064
:100620000E94871A0F5F1F4FE9CF60E08A810E9406
:100630000A1A61E088850E940A1AFB86EA86DF9121
:10064000CF911F910F91FF90EF90DF90CF90089581
:100650000C94CF224F925F927F928F929F92AF9293
:10066000BF92CF92DF92EF92FF920F931F93CF939F
:10067000DF9300D000D0CDB7DEB78C01CB018DB6B3
:100680009EB6690161E0C61AD108E0E0F0E060E0E2
:1006900070E0A5ECB9E05D01A21AB30AEA15FB050A
:1006A0000CF05EC0DC01AE0FBF1FDD963C91DA019D
:1006B000A60FB71F2C9132134DC06F5F7F4F6C1583
:1006C0007D0509F04BC09F012F5F3F4FB901412CC1
:1006D000512C643CA9E07A074CF57201EE0EFF1E26
:1006E000E80EF91ED701DE967C90D20111967D01AD
:1006F000BCE37B1217C0CDB6DEB6EDB7FEB7EE1980
:10070000FF090FB6F894FEBF0FBEEDBF6DB77EB701
:100710006F5F7F4F235C3F4F820F931FFB01460E9D
:10072000571E06C027016F5F7F4FD3CFB60116C09B
:10073000E415F50529F0DC012D91CD012193F8CFC9
:100740001082C8010E94671B0FB6F894DEBE0FBE70
:10075000CDBE23C0E61BF70B60E070E031969ECF64
:1007600067ED73E0CE0101960E94671B89819A8133
:10077000F801918380838B819C81938382838D8117
:100780009E81958384831A8219821C821B821E8219
:100790001D82CE0101960E94621BC8010FB6F8941B
:1007A0009EBE0FBE8DBE26960FB6F894DEBF0FBE5E
:1007B000CDBFDF91CF911F910F91FF90EF90DF9010
:1007C000CF90BF90AF909F908F907F905F904F9011
:1007D00008952F923F924F925F926F927F928F92E5
:1007E0009F92AF92BF92CF92DF92EF92FF920F93C0
:1007F0001F93CF93DF93CDB7DEB7A6970FB6F894CC
:10080000DEBF0FBECDBF7C012DB63EB63CA22BA2F3
:100810006C0124E2C20ED11C8091130681112AC002
:100820001092FB051092FA0588EE93E0A0E0B0E08C
:100830008093FC059093FD05A093FE05B093FF0502
:1008400082E693E09093F9058093F80588E892E0BA
:1008500090930706809306061092080610920906E8
:1008600010920A0610920B0684E08093100681E035
:100870008093130685EB95E09093CF068093CE0688
:100880006CE271E080E090E00E94871A1FB7F89454
:100890008091B405811124C0E1EFF2E08491E7E397
:1008A000F3E0249190E0880F991F8E559D4FFC0135
:1008B000A591B491EC91E22321F461E085E30E94DB
:1008C0000A1A85E30E9475098CB580618CBD8CB5D0
:1008D00080648CBD84E30E94750983E30E947509DE
:1008E0008091B4058F5F8093B4051FBF249A80E583
:1008F00090E00E94C01060E880E090E00E94AC149C
:1009000065E58BE190E00E94AC1465E58AE190E03A
:100910000E94AC140E94BF1080E090E490931C06EB
:1009200080931B0680E090E6909324068093230634
:1009300080E098E490931E0680931D0680E098E680
:10094000909326068093250680E090E590932006FC
:1009500080931F0680E090E79093280680932706F7
:1009600080E098E5909322068093210680E098E746
:1009700090932A068093290680E590E00E94C0109B
:1009800046E050E0B60189E090E00E947D1488E8DE
:1009900092E09A8389831B821C821D821E8244E01E
:1009A00050E0BE016D5F7F4F8FE090E00E947D14AC
:1009B0000E94BF100091CE061091CF06D8019296EA
:1009C0001D921D921D921C929597F80116A217A2D6
:1009D00010A611A69A961D921D921D921C929D978B
:1009E00080E69AEEA0E0B0E086AB97ABA0AFB1AFE7
:1009F00080EA9FE0A0E0B0E082AF93AFA4AFB5AFD4
:100A0000D801189686E0FD01282E11922A94E9F764
:100A10009801225F3F4F94E1F90111929A95E9F70D
:100A2000F60101900D928A95E1F74801F2E48F0EEC
:100A3000911CD4011C920E9469212FEC37E040E008
:100A400050E00E94C821DC01CB010196A11DB11D1F
:100A5000F80184839583A683B78380839183A283DF
:100A6000B3835801F3E4AF0EB11CC5010E942818EE
:100A700064E470E0C5010E943D18882309F412C3A4
:100A80000E94C11A2B013C01212C312CD12C42E0B7
:100A9000C42ED4018C91833009F405C1811121C089
:100AA000F80184819581A681B7810196A11DB11DB0
:100AB00084839583A683B7830E94C11A641975093C
:100AC0008609970928EE33E040E050E00E94FA21C1
:100AD000A90161E0C8010E94FC1881E0D4018C9357
:100AE000C4C0843001F5F80184819581A681B78165
:100AF0000196A11DB11D84839583A683B7830E94AF
:100B0000C11A641975098609970928EE33E040E097
:100B100050E00E94FA21A90163E0C8010E94FC187C
:100B2000D401CC92A2C0813061F5F80142AD53AD41
:100B300064AD75AD9E012F5F3F4FC8010E94580DF7
:100B4000D82EF2E08F1391C089819A81AB81BC814C
:100B5000F80184839583A683B7830E94C11A641920
:100B600075098609970928EE33E040E050E00E94BD
:100B7000FA21A90163E0C8010E94FC18D401DC92AB
:100B80007AC0823009F071C0F80142AD53AD64AD56
:100B900075AD9E012F5F3F4FC8010E94580DD82EA2
:100BA000F5E08F135CC0E3E0D401EC93F80182A17F
:100BB00093A1A4A1B5A1892B8A2B8B2B41F484E8A6
:100BC00093E0A0E0B0E082A393A3A4A3B5A3F801AF
:100BD00086A197A1A0A5B1A5892B8A2B8B2B61F4A7
:100BE00082A193A1A4A1B5A1B695A7959795879544
:100BF00086A397A3A0A7B1A7F80182A593A5A4A552
:100C0000B5A5892B8A2B8B2BA9F482A193A1A4A132
:100C1000B5A1AC01BD0123E0769567955795479541
:100C20002A95D1F7841B950BA60BB70B82A793A728
:100C3000A4A7B5A7F80186A197A1A0A5B1A586A7ED
:100C400097A7A0ABB1AB82A593A5A4A5B5A582AB90
:100C500093ABA4ABB5AB22242394312C0CC0F6E0AB
:100C60008F1303C0D4011C9206C0BFEFDB1203C078
:100C7000F4011082D12CF1E02F16310409F409CFD0
:100C80000E94C11ADC01CB0184199509A609B70994
:100C9000F80126A937A940AD51AD281739074A07F1
:100CA0005B0708F0F6CEC5010E942818F801848180
:100CB0009581A681B7810196A11DB11D848395837D
:100CC000A683B7830E94C11AF801FE9660837183E0
:100CD000828393832A94232809F0E4C180E590E07D
:100CE0000E94C0106091CE067091CF06625F7F4F68
:100CF000CE0101960E94391344E050E0BE016D5FC1
:100D00007F4F8FE090E00E947D146091CE0670913D
:100D1000CF066A5E7F4FCE0101960E94391344E0F0
:100D200050E0BE016D5F7F4F81E090E00E947D1436
:100D30006091CE067091CF066E5E7F4FCE01019618
:100D40000E94391344E050E0BE016D5F7F4F85E0A3
:100D500090E00E947D140E94BF106091CE067091B9
:100D6000CF06625E7F4FCE0101960E9439138B81C0
:100D70009C81AD81BE818093CA069093CB06A093DF
:100D8000CC06B093CD06D70118961C921E921797E9
:100D9000CDB6DEB69E960D911C919F97C801019627
:100DA000EDB7FEB7E81BF90B0FB6F894FEBF0FBE08
:100DB000EDBF2DB73EB72F5F3F4F5901892BA1F0F3
:100DC0002115310589F00115110519F4D9011C927D
:100DD0000BC0F70162A573A5A801C9010E94722486
:100DE000F501E00FF11F10828701005D1F4F40E504
:100DF00050E0B501C8010E94E00F0197B9F460E925
:100E000073E0C8010E943F1C6FE973E0C8010E94B3
:100E10003F1C63EC73E0C8010E943F1C65ED73E06A
:100E2000C8010E94E11B7724739401C0712C0FB696
:100E3000F894DEBE0FBECDBE772009F42EC168ED5A
:100E400073E08BE296E00E943F1C86E090E00E94F7
:100E50003A225C010E94C11AD50112966D937D93CE
:100E60008D939C931597812C912CD701ED91FC913A
:100E70000684F785E02DC70119958823D1F10E94DA
:100E8000C11AF50122813381448155811B012C0156
:100E9000221A330A440A550A80819181092E000CD6
:100EA000AA0BBB0B281639064A065B0638F4640108
:100EB0002DE3C20ED11CCE0CDF1C0AC00E94C11A49
:100EC000D50112966D937D938D939C93159711C0C8
:100ED000C8010E94D70F892B41F2C8010E94BD0FA3
:100EE000F60181936F01FFEF8F1A9F0AD6011C92C2
:100EF000EFCF86E1EDEFF3E0DE01119601900D9268
:100F00008A95E1F726E130E0AE014F5F5F4FB70110
:100F1000CE014D960E942A0389A19AA1892B09F43A
:100F200047C0ED8DFE8D8081882309F441C022E009
:100F300030E040E050E0BE01635E7F4FCE01479657
:100F40000E947C1BCE0147960E94171BF701648309
:100F5000CE0147960E94621B25E030E043E050E05E
:100F6000BE01635E7F4FCE0147960E947C1BCE017F
:100F700047960E94171BD70115966C93CE01479692
:100F80000E94621B28E030E046E050E0BE01635E54
:100F90007F4FCE0147960E947C1BCE0147960E9450
:100FA000171BF7016683CE0147960E94621B01C0A2
:100FB000712CCE014D960E94621B772009F46DC002
:100FC0005701FBE0AF0EB11C01E010E08DED882E63
:100FD00083E0982ECDB6DEB60A3011051CF027E16D
:100FE00030E002C026E130E02DB63EB6221A330AC8
:100FF0000FB6F8943EBE0FBE2DBE8DB79EB70196BC
:101000003C011F930F939F928F927F928F932DA3FA
:101010003EA30E9481242DA13EA1A301B701CE01D0
:1010200001960E942A030F900F900F900F900F903F
:101030000F908D819E81892B39F1E981FA81808120
:10104000882311F1CE0101960E94171BD5016D93E3
:101050007D935D01CE0101960E94621B0FB6F8944C
:10106000DEBE0FBECDBE0F5F1F4F0D30110509F064
:10107000B1CF64EF73E08BE296E00E943F1C81E009
:10108000D70112968C931BC0CE0101960E94621B61
:101090000FB6F894DEBE0FBECDBE81E0D701139629
:1010A0008C930DC0F7018781908501969087878387
:1010B0000A9729F481E0F7018383108617822BA019
:1010C0003CA00FB6F8943EBE0FBE2DBEA6960FB63E
:1010D000F894DEBF0FBECDBFDF91CF911F910F916E
:1010E000FF90EF90DF90CF90BF90AF909F908F9048
:1010F0007F906F905F904F903F902F900895EF9268
:10110000FF920F931F93CF93DF93EC018A01E88145
:10111000F9810190F081E02D19957C01000F111FDC
:10112000C00FD11F8A819B81DC01ED91FC9106806B
:10113000F781E02D60E070E019958A819B81DC01E8
:10114000ED91FC910480F581E02DB70119950A819C
:101150001B81F801C285D3856C2F868197810E94FF
:10116000BA21BE01660F672F661F770BD80116964E
:101170008D919C9117970196DF91CF911F910F91BF
:10118000FF90EF900C94BA21CF92DF92EF92FF92F2
:101190000F931F93CF93DF93EB01CC0FDD1FC80F8D
:1011A000D91F0A811B81D8011696CD90DC90179724
:1011B000C60101960E94B221B0E88B9F70011124F4
:1011C000C6010E94B221E82AF801F386E286019066
:1011D000F081E02D0680F781E02D61E070E0C8012C
:1011E00019958A819B81DC01ED91FC9111971A96EA
:1011F0006D917C911B970480F581E02D1995EA8112
:10120000FB811486DF91CF911F910F91FF90EF909A
:10121000DF90CF90089508950F931F93CF93DF939E
:10122000EC018B018CE392E0998388831A821B8204
:1012300018861F828FEF9FEF9A8789871BA2CE01A6
:101240008A961BA61AA61DA61CA61FA61EA6841754
:10125000950751F0FA01608171816115710521F0E6
:10126000448155810E94221B1BAA1AAA88EE93E092
:10127000A0E0B0E08CAB9DABAEABBFAB86E192E043
:1012800099AB88AB84E08CAFF80180818CA381811D
:101290008DA382818EA383818FA3848188A785817A
:1012A00089A71C821D821E82DF91CF911F910F9111
:1012B0000895009711F00E943F1C8DE00E9475096F
:1012C00061E08DE00E940A1A6AEF70E080E090E031
:1012D0000E94871A60E08DE00E940A1A6AEF70E0AF
:1012E00080E090E00E94871AEBCF90E0FC01EE5F77
:1012F000FC4F2491FC01E454FD4F8491882399F024
:1013000090E0880F991FFC01EE55FD4FA591B49117
:10131000FC01E857FD4F859194918FB7F894EC91BB
:10132000E22BEC938FBF08950F931F93CF93DF931E
:101330008C01C091D606D091D70684E090E00E943F
:101340003A22FC019093D7068093D606892B41F46C
:1013500063E174E08091D0069091D1060E94590912
:1013600013821282118300838091D4069091D50656
:10137000892B29F4F093D506E093D40602C0FB83B1
:10138000EA838091D2069091D30601969093D3067A
:101390008093D206DF91CF911F910F910895CF9343
:1013A000C82F462F61E070E00E946A1861E070E08B
:1013B0008C2F0E9488108111F9CFCF9108958F92C0
:1013C0009F92AF92BF92CF92DF92EF92FF920F93D4
:1013D0001F93CF93DF93B82E4B018A01A22E68E2B0
:1013E00070E00E948810C82FD0E069E270E08B2D79
:1013F0000E948810DC2FCC27C82B9E013770CB2C85
:10140000D12CC601880F991FAC014D5D594F6A015F
:10141000FA0180819181820F931FA801420F531F0F
:101420004130584098F060E078E07B01E21AF30A1E
:10143000A701B4010E944D14A8014E195F09B4011F
:101440006E0D7F1DF6018081918102C0A801B4015B
:101450000E944D14A1100EC0C00FD11F4D2F68E285
:1014600070E08B2D0E946A184C2F69E270E08B2D82
:101470000E946A18DF91CF911F910F91FF90EF901A
:10148000DF90CF90BF90AF909F908F9008959F92E4
:10149000AF92BF92CF92DF92EF92FF920F931F9382
:1014A000CF93DF93982E8B015A01690164E270E0BB
:1014B0000E948810E82EF12C65E270E0892D0E94D0
:1014C0008810FE2CEE24E82AE701C00FD11F9E01F0
:1014D0003770E92CF12CC701880F991FAC01455ECC
:1014E000594F7A01FA0180819181820F931FA901DE
:1014F0004C0D5D1D4130584090F000E018E0021B9B
:10150000130BA801B5010E947D14A601401B510BCD
:10151000B501600F711FF7018081918102C0A601A2
:10152000B5010E947D14CC0DDD1D4D2F64E270E0ED
:10153000892D0E946A184C2F65E270E0892DDF9199
:10154000CF911F910F91FF90EF90DF90CF90BF90C0
:10155000AF909F900C946A18FF920F931F93CF93B4
:10156000DF93F82EC0E0D0E08F2D0E942E148C0166
:10157000892B21F08F2D0E942E14EC01C017D1076A
:1015800099F7CE01DF91CF911F910F91FF900895B0
:101590002F923F924F925F926F927F928F929F9283
:1015A000AF92BF92CF92DF92EF92FF920F931F9371
:1015B000CF93DF93CDB7DEB765970FB6F894DEBF54
:1015C0000FBECDBF7C016B013A01FB0120E080E042
:1015D00090E06AE03191332309F140ED430F4A3046
:1015E00080F4689FA001699F500D1124CA01C09723
:1015F000830F911D37FD9A958F3F910559F350F355
:1016000013C03E3289F4233079F0D301A20FB11D0B
:1016100012968C932F5F80E090E0DCCF233021F492
:10162000F301858381E021C0F70142815381648108
:1016300075818091E6069091E706A091E806B09149
:10164000E906481759076A077B0709F49EC10E94FB
:10165000C11A8701085F1F4F6F7077277C5FC80131
:101660000E943D18813019F080E090E0F3C188E8D5
:1016700092E09A838983F70182819381A481B58165
:101680008B839C83AD83BE8345E350E0BE016F5FD7
:101690007F4FC8010E947517892B19F4C12CD12CDA
:1016A0006FC10E94C11AF701778366837627672787
:1016B00076277A83698342E050E0BE016F5F7F4FF7
:1016C000C8010E943D1781E090E09E878D8742E02F
:1016D00050E0BE01635F7F4FC8010E943D1780E06C
:1016E00091E09E878D8742E050E0BE01635F7F4FAF
:1016F000C8010E943D171E861D8642E050E0BE01D3
:10170000635F7F4FC8010E943D1742E050E0BE0179
:10171000635F7F4FC8010E943D1742E050E0BE0169
:10172000635F7F4FC8010E943D175601F50180811C
:10173000882311F1F6015F018191811115C04501E6
:101740008C189D081814190494F48F8641E050E019
:10175000BE01615F7F4FC8010E943D17A401B60121
:10176000C8010E943D1703C08E3229F7E8CF6501FA
:10177000FFEFCF1ADF0ADACF1F8641E050E0BE014B
:10178000615F7F4FC8010E943D17C12CDD24D394B7
:10179000DE86CD8642E050E0BE01635F7F4FC80128
:1017A0000E943D17DE86CD8642E050E0BE01635FB9
:1017B0007F4FC8010E943D17C8010E947418892BF1
:1017C00009F46CCF63E0A62EB12CF2E06F0E711C11
:1017D0000E94C11A1B012C01C8010E94E4161816B0
:1017E0001906A4F00E94C11ADC01CB0182199309E9
:1017F000A409B50989389341A105B105D0F462E384
:1018000070E080E090E00E94871AE6CFF701428105
:10181000538164817581808D918DA28DB38D481720
:1018200059076A077B0741F4848D958DC59721F48C
:1018300006C02FEF3FEF9AC02EEF3FEF97C0F701A2
:1018400081A192A10C970CF4A6C04CE050E0BE011F
:101850006F5F7F4FC8010E949C168B8190E0982F8C
:1018600088272C81822B9A8B898B298130E0322F1B
:1018700022274A81242BF7014681578142175307BB
:1018800009F086C097FF84C08F709270892B09F091
:10189000DEC0CF80D12CDC2CCC248885C82AC11492
:1018A000D10409F4D1C0812C912C8D8190E0982F26
:1018B00088272E81822B8816990608F46FC0812C08
:1018C000912C41E050E0BE016D5E7F4FC8010E9447
:1018D0009C168B89982F907C09F093C0811186C04B
:1018E0008B898111EECF42E050E0BE01615F7F4FF6
:1018F000C8010E949C1642E050E0BE01635F7F4F2A
:10190000C8010E949C16C8010E94BB16C8010E9413
:10191000BB16C8010E94BB16C8010E94BB1642E05C
:1019200050E0BE016F5E7F4FC8010E949C168F85FC
:1019300098898115914009F069C02D853E8532272F
:10194000232732272130310509F060C089899A891F
:101950008115944009F075C044E050E0B301C8011E
:101960002C8B3D8B0E949C162C893D896901F1E0EE
:10197000AF1AB10829F02FEFC216D20609F428CF0A
:10198000C8010E942818C60165C08EEF9FEF62C093
:101990002CEF3FEFEBCF2DEF3FEFE8CF41E050E0F2
:1019A000BE01635F7F4FC8010E949C168D85811127
:1019B00013C08D858111F2CFC8010E94BB16C801EA
:1019C0000E94BB16C8010E94BB16C8010E94BB162C
:1019D000FFEF8F1A9F0A69CF8D859FEF980F9D8724
:1019E000882339F3C8010E94BB16F6CF8B899FEF7D
:1019F000980F9B8B882309F473CFC8010E94BB16F4
:101A0000F5CFC8010E94BB161B8A6ACF412C512C0E
:101A100089899A899827892798274816590638F47A
:101A2000C8010E94BB168FEF481A580AF1CFEFEF9A
:101A30008E1A9E0A8C149D0409F043CF26EF3FEFC7
:101A400095CF27EF3FEF92CF2AEF3FEF8FCF2BEFCE
:101A50003FEF8CCF65960FB6F894DEBF0FBECDBFBB
:101A6000DF91CF911F910F91FF90EF90DF90CF907A
:101A7000BF90AF909F908F907F906F905F904F90AE
:101A80003F902F90089580E3FB0180833296842F4E
:101A900082958F7090E1899F401911244A3014F487
:101AA000405D01C0495C4293482F8111F0CF0895F9
:101AB0002F923F924F925F926F927F928F929F925E
:101AC000AF92BF92CF92DF92EF92FF920F931F934C
:101AD000CF93DF93CDB7DEB7E3970FB6F894DEBFB1
:101AE0000FBECDBF7C011A012B0139010E94C11A22
:101AF0004B015C0187010D5B1F4FC8010E94E4167A
:101B000018161906A4F00E94C11ADC01CB0188192D
:101B10009909AA09BB09281639064A065B06D8F0B6
:101B200062E370E080E090E00E94871AE6CF42E234
:101B300050E0BE016F5F7F4FC8010E949C168981F3
:101B4000823011F080E061C1F80184899589833485
:101B50009105C1F702C08FEF58C16D817E818F81E1
:101B600098850E9433224B015C01F30160837183ED
:101B70008283938346E050E0B701685F7F4FCE01D8
:101B80004D960E945524892BE9F6F70180819181B9
:101B9000A281B38188169906AA06BB0698F28481B1
:101BA0009581A681B78188159905AA05BB0550F2D4
:101BB00089899A89AB89BC8986879787A08BB18BE5
:101BC0008EECA82EB12CC8010E94BB16F1E0AF1A12
:101BD000B108C9F719A6670182E2C80ED11CF70146
:101BE000B696FBA7EAA7C7018A969DA78CA73C9744
:101BF0004F0189969FA78EA73897F9ABE8AB1701DD
:101C0000F6E12F0E311CC5979BAB8AABF801818D95
:101C1000928D181619060CF0F7C0C8010E94BB1669
:101C20008333910509F4CBC0FCF481309105C9F1EF
:101C30001CF4892B59F3DCC083309105D1F1069750
:101C400009F0D6C0C8010E94BB165C0144E050E018
:101C50006AA97BA9C8010E949C16412C512CBB2467
:101C6000F4E0AF1AB10840C08A33910509F47BC093
:101C70003CF48533910569F0C69709F440C0B8C0BB
:101C80008B33910509F485C08F3F910509F4BECFD0
:101C9000AFC0C8010E94BB16C8010E94BB1689A72D
:101CA000B5CFC8010E94BB1644E050E068A979A9ED
:101CB0003AC0C8010E94BB165C0144E050E0B1018B
:101CC000C8010E949C16412C512CBB2494E0A91AF7
:101CD000B1084A145B040CF099CFC8010E94BB16EE
:101CE000EFEF4E1A5E0AF5CF4A145B040CF08ECF6C
:101CF000C8010E94BB168FEF481A580AF5CFC801D9
:101D00000E94BB16B82EF701828D811110C0838D01
:101D100081110DC0848D81110AC0858D811107C08C
:101D200044E050E0B401C8010E949C166FCFEEA5BC
:101D3000FFA54080518062807380B401CE018396FC
:101D40000E9439138DA19EA1AFA1B8A58415950558
:101D5000A605B70529F3BB2009F458CFC8010E9496
:101D6000BB16BA94F8CFC8010E94BB1644E050E0FD
:101D70006AA57BA5C8010E949C16F70166A177A100
:101D800080A591A50E94332266A377A380A791A77F
:101D90003DCFC8010E94BB1644E050E06CA57DA574
:101DA000C8010E949C16F70162A573A584A595A59C
:101DB0000E94332262A773A784A795A727CFC801E3
:101DC0000E94BB1644E050E0B601C8010E949C1678
:101DD000F70162A173A184A195A10E94332262A39D
:101DE00073A384A395A366A777A780AB91AB0ECF0F
:101DF000C8010E94BB16B82EBB2009F407CFC8014A
:101E00000E94BB16BA94F8CF89A5E3960FB6F89452
:101E1000DEBF0FBECDBFDF91CF911F910F91FF901D
:101E2000EF90DF90CF90BF90AF909F908F907F907A
:101E30006F905F904F903F902F900895FC01948594
:101E4000FB018485981303C081E0943009F480E09D
:101E5000089521E0FC018485843009F420E0822F7C
:101E600008950895CF93DF931F92CDB7DEB76983AE
:101E7000DC01ED91FC910280F381E02D41E050E026
:101E8000BE016F5F7F4F19950F90DF91CF9108953D
:101E9000DC01ED91FC91068CF78DE02D199591E018
:101EA00089270895862F089581E08627089508954B
:101EB00080E090E0089583B7662311F0816001C04F
:101EC0008E7F83BF0895FC0184810895FC01828187
:101ED00093810895FC018485843011F00C944C1694
:101EE00080E00895CF93DF93FC0124852430D1F066
:101EF000EC010E946A0F843181F0882371F08831EF
:101F000061F08C3161F4E881F9810084F185E02D84
:101F1000CE01199521E0892B19F420E001C021E0C0
:101F2000822F01C080E0DF91CF9108950F931F931E
:101F3000CF93DF931F92CDB7DEB78C01DC01ED911B
:101F4000FC910084F185E02D1995892B51F0BE019B
:101F50006F5F7F4FF80184850E94CF14898190E0E4
:101F600002C08FEF9FEF0F90DF91CF911F910F91E4
:101F70000895FC0184850C942A15CF93DF931F925A
:101F8000CDB7DEB741E050E0BE016F5F7F4FFC018F
:101F900084850E942A15181619061CF4898190E080
:101FA00002C08FEF9FEF0F90DF91CF910895FC015A
:101FB0008485843011F00C94081580E090E0089539
:101FC000CF92DF92EF92FF920F931F93CF93DF9305
:101FD000CDB7DEB7AF970FB6F894DEBF0FBECDBF5B
:101FE0007C016A0108E812E01A8309831C861B86BB
:101FF00088EE93E0A0E0B0E08D879E87AF87B88B36
:1020000082E693E09A878987188F0F8B198E1A8E34
:102010001B8E1C8E84E089A31DA30CA31EA21FA2ED
:1020200018A619A68091CA069091CB06A091CC065D
:10203000B091CD068CA79DA7AEA7BFA78B839C832D
:10204000AD83BE8318861F82AE014C5D5F4FCE010B
:1020500001960E94C80A81309105B1F4D701ED9133
:10206000FC910684F785E02D1BA70AA78EA19FA1EE
:10207000A8A5B9A58CA79DA7AEA7BFA7A601BE011D
:10208000665D7F4FC7011995AF960FB6F894DEBF16
:102090000FBECDBFDF91CF911F910F91FF90EF90B9
:1020A000DF90CF9008950F931F93CF938C01C62F8D
:1020B00064E474E08BE296E00E94E11B4C2F50E058
:1020C00060E070E02AE08BE296E00E94F61B65ED8E
:1020D00073E08BE296E00E94E11BF801C483CF918C
:1020E0001F910F910895CF93DF93EC0160E574E0A9
:1020F0008BE296E00E943F1CE881F9810484F5851B
:10210000E02D61E0CE0119958895DF91CF9108957A
:102110000F931F93CF93DF931F92CDB7DEB790E05D
:102120000496982F88278C01060F171F0E942C14E5
:102130008FE00E944614812F0E944614802F0E9437
:10214000461480E00E94461489830E942A148981E3
:102150000F90DF91CF911F910F910895CF93DF934F
:10216000C82FD62F472F60E170E00E946A184D2FCC
:1021700061E170E08C2FDF91CF910C946A18089583
:102180008CBD9DBD0895CF92DF92EF92FF921F9379
:10219000CF93DF93FC011485143099F1EC0180E5B5
:1021A00090E00E94C01068E070E0812F0E94CF098B
:1021B0000E94C11A6B017C01CE010E946A0F882324
:1021C000B1F061E070E080E090E00E94871A0E9428
:1021D000C11ADC01CB018C199D09AE09BF09883EEB
:1021E0009340A105B10540F38C850E947D15EC85D7
:1021F000F0E0EE0FFF1FE15EF84F1182108284E0E5
:102200008C87DF91CF911F91FF90EF90DF90CF905F
:1022100008958F929F92AF92BF92CF92DF92EF92EA
:10222000FF920F931F93CF936C015B017A01FC0126
:10223000C485C43041F481E090E0F6019383828349
:1022400080E090E04EC08A014130584010F000E03C
:1022500018E080E590E00E94C0108C2F0E94AC0A2C
:102260004C0163E070E08C2F0E948810873111F0E0
:102270008C3121F48016910660F302C000E010E07A
:1022800080E590E00E94C0109801A50160E070E038
:102290008C2F0E94470A60E270E08C2F0E94CF09C9
:1022A00062E070E08C2F0E94881084FD10C063E013
:1022B00070E08C2F0E948810811104C08C2F0E9426
:1022C0007D15B9CF80E590E00E94C010E9CF40E1D4
:1022D00062E070E08C2F0E946A18012B09F4ABCFEA
:1022E000C701CF911F910F91FF90EF90DF90CF909A
:1022F000BF90AF909F908F900895CF92DF92FF9202
:102300000F931F93CF93DF93FC012485243009F0B2
:1023100077C06A01EB018C01F12C8F2D0E944C16C5
:10232000811103C0F801F48607C08B7F8831D1F397
:10233000F394F4E0FF12F1CFF8018485843009F4BE
:102340005FC020910002309101022F5F3F4F11F4D6
:1023500020E030EC30930102209300024091000213
:102360005091010220E061E00E949115F801F4848F
:102370008A818F3F51F48B818F3F91F48C818F3F05
:1023800079F48D818F3F61F438C0811109C08B8150
:10239000811106C08C81811103C08D81882369F170
:1023A000C114D10451F180E590E00E94C010BE013B
:1023B0006E5F7F4F8F2D90E0982F882744E050E08C
:1023C000845F9B4F0E947D14B6018F2D0E94AE103A
:1023D00064E070E08F2D0E94CF09C8010E946A0F4F
:1023E000873189F061E070E080E090E00E94871A18
:1023F000C8010E946A0F8111F0CF84E0F801848740
:1024000080E090E002C081E090E0DF91CF911F91E9
:102410000F91FF90DF90CF9008951F920F920FB60B
:102420000F9211240BB60F922F933F934F935F930C
:102430006F937F938F939F93AF93BF93EF93FF938C
:1024400080910E0790910F07DC01ED91FC910284C1
:10245000F385E02D61E0199580910E0790910F07AB
:10246000DC01ED91FC910484F585E02D60E0199587
:10247000FF91EF91BF91AF919F918F917F916F915C
:102480005F914F913F912F910F900BBE0F900FBE18
:102490000F901F901895FC01538D448D252F30E02F
:1024A000842F90E0821B930B541710F0CF96089561
:1024B00001970895FC01918D828D981761F0828DAE
:1024C000DF01A80FB11D5D968C91928D9F5F9F7368
:1024D000928F90E008958FEF9FEF0895FC01918D0A
:1024E000828D981731F0828DE80FF11D858D90E077
:1024F00008958FEF9FEF08958F929F92AF92BF92B2
:10250000CF92DF92EF92FF920F931F93CF93DF93BF
:102510007C01EB016C0182E0C80ED11C4701E5E0B3
:102520008E0E911C00E010E0F60141916F0150E029
:1025300060E070E02AE0CE010E94F61B5C01E881B9
:10254000F9810190F081E02D6EE2CE0119958A0D9E
:102550009B1D080F191FC814D90431F7F7014581D5
:1025600050E060E070E02AE0CE010E94F61B800F90
:10257000911FDF91CF911F910F91FF90EF90DF900E
:10258000CF90BF90AF909F908F9008958BE296E090
:102590000E94A91321E0892B09F420E0822F0895DD
:1025A000EF92FF920F931F93CF93DF93EC0181E0A3
:1025B000888F9B8D8C8D981305C0E889F98980815F
:1025C00085FD24C0F62E0B8D10E00F5F1F4F0F739B
:1025D0001127E02E8C8DE8120CC00FB607FCFACF45
:1025E000E889F989808185FFF5CFCE010E94091421
:1025F000F1CF8B8DFE01E80FF11DE35AFF4FF08202
:102600000B8FEA89FB898081806207C0EE89FF8990
:102610006083E889F98980818064808381E090E02B
:10262000DF91CF911F910F91FF90EF900895CF937D
:10263000DF93EC01888D8823C9F0EA89FB898081CA
:1026400085FD05C0A889B9898C9186FD0FC00FB69C
:1026500007FCF5CF808185FFF2CFA889B9898C91DD
:1026600085FFEDCFCE010E940914E7CFDF91CF9116
:10267000089528E832E0FC0131832083FB0140818A
:10268000518162817381FC0142835383648375832A
:1026900008951F920F920FB60F9211240BB60F924E
:1026A0002F933F934F935F936F937F938F939F935A
:1026B000AF93BF93EF93FF938BE296E00E940914D0
:1026C000FF91EF91BF91AF919F918F917F916F910A
:1026D0005F914F913F912F910F900BBE0F900FBEC6
:1026E0000F901F9018951F920F920FB60F92112402
:1026F0000BB60F922F938F939F93EF93FF93E091DD
:102700003B06F0913C068081E0914106F091420643
:1027100082FD12C09081809144068F5F8F7320915B
:102720004506821751F0E0914406F0E0E55DF94F6F
:10273000958F8093440601C08081FF91EF919F9116
:102740008F912F910F900BBE0F900FBE0F901F9087
:102750001895FC01918D228D892F90E0805C9F4F10
:10276000821B91098F739927089580E090E0892B4F
:1027700021F00E94C612811125C080E090E0892BD3
:1027800041F080E090E0892B21F00E94000081114F
:102790001CC080E090E0892B41F080E090E0892B24
:1027A00021F00E940000811113C080E090E0892B8D
:1027B000A1F080E090E0892B81F00E94000081115F
:1027C0000AC008950E940000D8CF0E940000E1CF07
:1027D0000E940000EACF0C940000089508950E9422
:1027E00050241F93CF93DF93182F66E270E00E946E
:1027F0008810C82FD0E067E270E0812F0E94881017
:10280000DC2FCC279E01282BC901DF91CF911F918E
:102810000895FC01848DDF01A80FB11DA35ABF4F9D
:102820002C91848D90E001968F739927848FA689CF
:10283000B7892C93A089B1898C9180648C93938DF6
:10284000848D981306C00288F389E02D80818F7DE6
:10285000808308952C9A08952C9808951F93CF9300
:10286000DF93182F60E270E00E948810C82FD0E03C
:1028700061E270E0812F0E948810DC2FCC279E013E
:10288000282BC901DF91CF911F9108958EBD0000C3
:102890000DB407FEFDCF8EB50895CF92DF92EF9273
:1028A000FF920F931F93CF93DF93EC017A018B017B
:1028B0006C01C40ED51ECC15DD05A9F00E942C14A8
:1028C0008FE00E9446148D2F0E9446148C2F0E9488
:1028D0004614219680E00E944614F80181938F01EE
:1028E0000E942A14E8CFC701DF91CF911F910F9169
:1028F000FF90EF90DF90CF900895CF92DF92EF920C
:10290000FF920F931F93CF93DF93EC017A018B011A
:102910006C01C40ED51ECC15DD05A1F00E942C144F
:1029200080EF0E9446148D2F0E9446148C2F0E9427
:1029300046142196F80181918F010E9446140E944D
:102940002A14E9CFC701DF91CF911F910F91FF901A
:10295000EF90DF90CF9008951F93CF93DF931F9256
:102960001F92CDB7DEB7182F6A8399830E942C146B
:1029700080EF0E9446149981892F0E944614812F6E
:102980000E9446146A81862F0E9446140E942A14CF
:1029900081E00F900F90DF91CF911F9108951F93C9
:1029A000CF93DF931F921F92CDB7DEB7182F80E52C
:1029B00090E069837A830E94C01021E041E050E0FA
:1029C00069817A81812F0E94DF090E94BF1081E016
:1029D00090E00F900F90DF91CF911F910895CF93CA
:1029E000DF931F92CDB7DEB7FC01218D328D232BF3
:1029F00049F0BE016F5F7F4F808D0E94CF148981A7
:102A000090E002C08FEF9FEF0F90DF91CF9108957C
:102A1000FF920F931F93CF93DF93F82E80E590E002
:102A20000E94C010C0E0D0E08F2D0E94F1138C01F5
:102A3000892B21F08F2D0E94F113EC01C017D107D3
:102A400099F70E94BF10CE01DF91CF911F910F9196
:102A5000FF900895AF92BF92CF92DF92EF92FF92D4
:102A60001F93CF93DF93182F5B017A0180E590E0ED
:102A70000E94C010C0E0D0E0812F0E94F1136C01D1
:102A8000892B21F0812F0E94F113EC01CC15DD057B
:102A900099F7209799F463E070E0812F0E948810E5
:102AA0008431F1F08823E1F0C1E0D0E08C3111F401
:102AB000C0E0D0E0D195C195D10912C0EC16FD0659
:102AC0000CF4E7011C161D065CF420E0AE01B50114
:102AD000812F0E94DF0960E470E0812F0E94CF09FE
:102AE0000E94BF10CE01DF91CF911F91FF90EF9018
:102AF000DF90CF90BF90AF900895CF93C82F80E51F
:102B000090E00E94C01060E170E08C2F0E94CF091D
:102B10004FEF62E070E08C2F0E946A18CF910C9406
:102B2000BF10FF920F931F93CF93DF931F921F92BB
:102B3000CDB7DEB7F82E8A012A8369830E947D15FE
:102B400080E590E00E94C0102A816981462F422BC7
:102B500060E070E08F2D0E946A180115110551F494
:102B600000911D0710911E070F5F1F4F10931E0746
:102B700000931D07412F64E070E08F2D0E946A18BA
:102B8000402F65E070E08F2D0E946A1861E070E0D0
:102B90008F2D0E94CF090E94BF1081E00F900F90EF
:102BA000DF91CF911F910F91FF900895BF92CF9227
:102BB000DF92EF92FF920F931F93CF93DF9300D09A
:102BC00000D0CDB7DEB7FC01208D243009F053C012
:102BD0006A017B018C01B12C63E070E08B2D0E94B7
:102BE0008810811103C0F801B08E06C08831D9F376
:102BF000B394F4E0BF12F0CFF801808D8430D9F1A6
:102C000096E0E0E3F3E0DE01119601900D929A95D3
:102C1000E1F7F70193819F779C8394819D83958150
:102C20009E83B7016E5F7F4F90E0982F882744E026
:102C300050E0845F9B4F0E947D14B601F801808DA7
:102C40000E94AE10F801808D90E0982F882746E012
:102C500050E0BE016F5F7F4F8A5F9B4F0E947D14E3
:102C6000F801128E118E20E8A60162E0808D0E948C
:102C7000911581E001C080E026960FB6F894DEBF82
:102C80000FBECDBFDF91CF911F910F91FF90EF90BD
:102C9000DF90CF90BF9008951F93CF93DF931F9243
:102CA000CDB7DEB7182F80E590E00E94C01063E03A
:102CB00070E0812F0E94881089830E94BF10898153
:102CC0000F90DF91CF911F910895CF93DF931F92C3
:102CD000CDB7DEB76983DC01ED91FC910280F38111
:102CE000E02D41E050E0BE016F5F7F4F19950F90DE
:102CF000DF91CF910895FC01818D928D0895FC01A3
:102D000084899589089528E832E0FC013183208385
:102D1000FB014089518962897389FC014283538395
:102D2000648375830895DC01ED91FC91048CF58D2D
:102D3000E02D199480E00895CF93DF93FC01218D5D
:102D4000328D2115310519F48FEF9FEF11C0EC0181
:102D50004217530708F0A901888D0E942A151816FA
:102D6000190694F7298D3A8D281B390B3A8F298F34
:102D7000DF91CF9108950F931F93CF93DF931F920D
:102D8000CDB7DEB7FC01218D328D232B61F08C0194
:102D900041E050E0BE016F5F7F4F808D0E942A1599
:102DA000181619061CF08FEF9FEF08C0F801818DEF
:102DB000928D0197928F818F898190E00F90DF91A2
:102DC000CF911F910F9108950F931F93CF93DF938E
:102DD000CDB7DEB728970FB6F894DEBF0FBECDBFD4
:102DE0008C01F801818D928D892B49F0D801ED91EC
:102DF000FC910284F385E02DC8011995F2CF808DF6
:102E00000E940815181619065CF548E050E0BE014E
:102E10006F5F7F4FD80158968C910E942A159C01B4
:102E200018161906DCF489819A81AB81BC81F801FE
:102E3000808B918BA28BB38B8D8190E0982F88270C
:102E40002E81820F911D958B848B2F8130E0322F44
:102E500022278885280F311D328F218FC90102C09A
:102E600080E090E028960FB6F894DEBF0FBECDBF8D
:102E7000DF91CF911F910F910895AF92BF92CF92A2
:102E8000DF92FF920F931F93CF93DF938C015B012F
:102E9000EA01FC01C688D788F08C80E590E00E94AA
:102EA000C0108F2D0E94AC0A8C179D0720F48F2D27
:102EB0000E94AC0AEC019E01A501B6018F2D0E9473
:102EC000470A0E94BF10F801868997898C0F9D1FC1
:102ED000978B868BCE01DF91CF911F910F91FF9041
:102EE000DF90CF90BF90AF900895FF920F931F9304
:102EF000CF93DF93FB01DC0157961C921E925697ED
:102F00005896FC908281811109C08381811106C08D
:102F10008481811103C085818823F9F04115510511
:102F2000E1F08A01EF0180E590E00E94C010BE014F
:102F30006E5F7F4F2F2D30E0922F882744E050E0C6
:102F4000845F9B4F0E947D14B8018F2D0E94AE10AC
:102F50000E94BF1081E090E002C080E090E0DF912D
:102F6000CF911F910F91FF900895CF92DF92EF9232
:102F7000FF920F931F93CF93DF93CDB7DEB7AF9739
:102F80000FB6F894DEBF0FBECDBF7C016A0108E822
:102F900012E01A8309831C861B8688EE93E0A0E06A
:102FA000B0E08D879E87AF87B88B82E693E09A87E3
:102FB0008987188F0F8B198E1A8E1B8E1C8E84E0BA
:102FC00089A31DA30CA31EA21FA218A619A6809157
:102FD000CA069091CB06A091CC06B091CD068CA7E5
:102FE0009DA7AEA7BFA78B839C83AD83BE831886A6
:102FF0001F82AE014C5D5F4FCE0101960E94C80A50
:1030000081309105B1F4D701ED91FC910488F589E7
:10301000E02D1BA70AA78EA19FA1A8A5B9A58CA7E3
:103020009DA7AEA7BFA7A601BE01665D7F4FC701E2
:103030001995AF960FB6F894DEBF0FBECDBFDF91E6
:10304000CF911F910F91FF90EF90DF90CF90089557
:10305000CF93DF93EC01888D843061F00E947D1561
:10306000E88DF0E0EE0FFF1FE15EF84F1182108255
:1030700084E0888FDF91CF910895EF92FF921F93A4
:10308000CF93DF93FC01208D243011F080E01CC031
:103090007B01EC0110E0812F0E944C16811102C0CF
:1030A000188F05C08831E1F31F5F1430A1F7888DB8
:1030B000843061F3FD86EC861A8E198E20E0A7011C
:1030C00062E00E94911581E0DF91CF911F91FF9006
:1030D000EF9008959B0190E00496982F8827642F25
:1030E000820F931F0C94AC14CF93FC01C08D80E52C
:1030F00090E00E94C01060E270E08C2F0E94CF0927
:1031000062E070E08C2F0E94881084FD19C062E09C
:1031100070E08C2F0E94881083FF0BC048E162E0B2
:1031200070E08C2F0E946A180E94BF1080E090E02F
:1031300011C00E94BF1080E590E00E94C010E0CF57
:1031400040E162E070E08C2F0E946A180E94BF107C
:1031500081E090E0CF9108953FB7F89480912C07DB
:1031600090912D07A0912E07B0912F0726B5A89B0F
:1031700005C02F3F19F00196A11DB11D3FBFBA2F09
:10318000A92F982F8827820F911DA11DB11DBC0169
:10319000CD0142E0660F771F881F991F4A95D1F72E
:1031A0000895CF92DF92EF92FF920F931F93CF93E8
:1031B000DF936C017A018B01C0E0D0E0CE15DF0512
:1031C00089F0D8016D918D01D601ED91FC910190AE
:1031D000F081E02DC6011995892B11F47E0102C002
:1031E0002196ECCFC701DF91CF911F910F91FF90F6
:1031F000EF90DF90CF9008957F928F929F92AF9241
:10320000BF92CF92DF92EF92FF920F931F93CF93D3
:10321000DF93CDB7DEB7A6970FB6F894DEBF0FBE2B
:10322000CDBF8C01762E942E852E20E2B22ECE01BB
:1032300001967C01FC012B2D11922A95E9F788E873
:1032400092E09AA389A38FEF8BA38CA38DA38EA367
:10325000680183E4C80ED11C43E450E0BE016F5DF9
:103260007F4FC6010E947517019609F4BFC081E027
:1032700089838A8386E0A82EAB821C82F801648150
:103280007581868197810E9433226D837E838F832F
:10329000988789869A8680E890E09C878B874CE1A6
:1032A00050E0B701C6010E943D17F7012B2D119286
:1032B0002A95E9F7480188E0880E911CF401D701AE
:1032C00001900D92AA94E1F740E150E0B701C601E8
:1032D0000E943D17F7011192BA94E9F796E0A92EE2
:1032E000B12C40E250E0B701C6010E943D17F1E069
:1032F000AF1AB108B1F783E6898392E89A8393E520
:103300009B838C8385E38D8381E08E837F829DE325
:10331000988797E099878A8786E0F401DE011B96FB
:1033200001900D928A95E1F78CE0898B8A8B6DEA8A
:1033300075E0CE0143960E946B24F8014385BE01DF
:10334000675E7F4FC8010E94430DF8014485BE01AE
:10335000655E7F4FC8010E94430DF8014585BE019F
:10336000635E7F4FC8010E94430D4EE150E0B701FC
:10337000C6010E943D17F3E07F121EC082E38983DD
:1033800084E08A83F80196859B8397859C83908946
:103390009D8391899E8396E39F838887828D898709
:1033A000838D8A87848D8B87858D8C874CE050E058
:1033B000B701C6010E943D1787E3898386E08A83AF
:1033C00091E09B8393E09C838D838FE08E838AE3DF
:1033D0008F838BE388878FEF898749E050E0B701BF
:1033E000C6010E943D17C6010E947418A6960FB62A
:1033F000F894DEBF0FBECDBFDF91CF911F910F912B
:10340000FF90EF90DF90CF90BF90AF909F908F9004
:103410007F900895362F90E0FC01E85BFC4F4491CB
:10342000FC01EE5FFC4F2491FC01E454FD4F9491AC
:10343000992309F46BC0442309F455C050E0FA0104
:103440003197E231F10508F04EC08827EE58FF4F62
:103450008F4F0C942B22809180008F7707C0809132
:1034600080008F7D03C080918000877F80938000E3
:103470003AC084B58F7702C084B58F7D84BD33C0D8
:103480008091B0008F7703C08091B0008F7D8093D2
:10349000B00029C0809190008F7707C08091900084
:1034A0008F7D03C080919000877F809390001BC028
:1034B0008091A0008F7707C08091A0008F7D03C00E
:1034C0008091A000877F8093A0000DC08091200193
:1034D0008F7707C0809120018F7D03C080912001EC
:1034E000877F80932001E92FF0E0EE0FFF1FE85760
:1034F000FD4FA591B4918FB7F894EC91311103C0B1
:1035000020952E2301C02E2B2C938FBF08958F92D0
:103510009F92AF92BF92CF92DF92EF92FF926B0198
:103520007C010E94AC184B015C01C114D104E10480
:10353000F104F1F00E94AC18DC01CB018819990963
:10354000AA09BB09883E9340A105B10570F321E0AB
:10355000C21AD108E108F10888EE880E83E0981EAF
:10356000A11CB11CC114D104E104F10419F7DDCF91
:10357000FF90EF90DF90CF90BF90AF909F908F9093
:1035800008952FB7F89460912807709129078091CA
:103590002A0790912B072FBF08951F920F920FB605
:1035A0000F9211242F933F938F939F93AF93BF93C9
:1035B0008091280790912907A0912A07B0912B07A5
:1035C0003091270723E0230F2D3720F40196A11D0A
:1035D000B11D05C026E8230F0296A11DB11D209341
:1035E00027078093280790932907A0932A07B09371
:1035F0002B0780912C0790912D07A0912E07B09159
:103600002F070196A11DB11D80932C0790932D07C4
:10361000A0932E07B0932F07BF91AF919F918F91E9
:103620003F912F910F900FBE0F901F901895FC01A6
:1036300080819181009711F00C94762160E070E018
:10364000CB010895EF92FF920F931F93CF93DF93D7
:10365000EC017B018A0188819981009729F02A81F8
:103660003B8124173507F8F4B8016F5F7F4F0E9444
:103670006723009759F0998388831B830A832C81E1
:103680003D81232B81F4FC0110820DC0888199813A
:10369000009711F00E94CF22198218821D821C828D
:1036A0001B821A8207C01D830C83B7018881998110
:1036B0000E946B24CE01DF91CF911F910F91FF905B
:1036C000EF900895FC01808191810C94CF22FC0140
:1036D0001182108213821282158214826115710583
:1036E00051F0FB0101900020E9F73197AF01461B33
:1036F000570B0C94221B0895BF92CF92DF92EF924A
:10370000FF920F931F93CF93DF937C016B01EA012C
:1037100089012417350720F48D2FE901042F182F74
:1037200067ED73E0C7010E94671BD60114968D9167
:103730009C911597C817D907C8F58017910708F409
:103740008C01D601ED91FC911197E00FF11FB08033
:1037500010824D915C91BA016C0F7D1F611571054E
:1037600061F0FB0101900020E9F73197AF01461BA2
:10377000570BC7010E94221B13C0F7018081918162
:10378000009711F00E94CF22D70111961C921E9231
:1037900015961C921E92149713961C921E921297C5
:1037A000D601ED91FC91E00FF11FB082C701DF91CE
:1037B000CF911F910F91FF90EF90DF90CF90BF902E
:1037C00008956115710579F0FB0101900020E9F77A
:1037D0003197AF01461B570BDC01ED91FC91028044
:1037E000F381E02D199480E090E008954F925F926C
:1037F0006F927F92EF92FF920F931F93CF93DF937D
:10380000CDB7DEB7A1970FB6F894DEBF0FBECDBF20
:103810007C01FA01CB0119A2223008F42AE08E01C2
:103820000F5D1F4F422E512C612C712CBF01A30143
:1038300092010E94FA21F901CA01015011096A306E
:1038400014F4605D01C0695CD8016C93232B242BB8
:10385000252B61F7B801C7010E94E11BA1960FB6A5
:10386000F894DEBF0FBECDBFDF91CF911F910F91B6
:10387000FF90EF907F906F905F904F9008950F931F
:103880001F93CF93DF93EC010E94E11B8C0165ED48
:1038900073E0CE010E94E11B800F911FDF91CF9159
:1038A0001F910F910895CF93DF93C091D406D091CB
:1038B000D506CD2B71F08091D4069091D506FC01F0
:1038C000C281D3810E94CF22D093D506C093D40663
:1038D000F0CF88ED96E0DF91CF910C94621BE4EE7F
:1038E000F6E088E892E0918380831282138214824A
:1038F0001582EAEEF6E091838083128213821482AD
:103900001582E0EFF6E091838083128213821482A5
:103910001582EBE2F6E01382128248EE53E060E09B
:1039200070E0448355836683778328E532E03183F2
:10393000208325EC30E03587248724EC30E037877E
:10394000268720EC30E0318B208B21EC30E0338B6C
:10395000228B22EC30E0358B248B26EC30E0378B49
:10396000268B118E128E138E148EE6EFF6E0918365
:1039700080831282138214821582ECEFF6E0918329
:1039800080831282138214821582E2E0F7E0918331
:1039900080831282138214821582E8ECF6E0918310
:1039A00080831282138214821582E8E0F7E091830B
:1039B00080831282138214821582EEEDF6E09183E9
:1039C0008083128213821482158265EA73E088ED87
:1039D00096E00E94671BE0EDF6E0138212821582EA
:1039E000148217821682118210820895CF93DF937A
:1039F000CDB7DEB7A9970FB6F894DEBF0FBECDBF27
:103A0000789484B5826084BD84B5816084BD85B5B9
:103A1000826085BD85B5816085BD80916E008160C5
:103A200080936E001092810080918100826080936B
:103A3000810080918100816080938100809180006D
:103A40008160809380008091B10084608093B10098
:103A50008091B00081608093B0008091910082607D
:103A6000809391008091910081608093910080917A
:103A700090008160809390008091A100826080938B
:103A8000A1008091A10081608093A1008091A0009D
:103A900081608093A0008091210182608093210148
:103AA00080912101816080932101809120018160BA
:103AB0008093200180917A00846080937A008091C5
:103AC0007A00826080937A0080917A00816080938E
:103AD0007A0080917A00806880937A001092C10009
:103AE000E0913B06F0913C0682E08083E09137064E
:103AF000F09138061082E0913906F0913A068FEC89
:103B0000808310924306E0913F06F091400686E0E4
:103B10008083E0913D06F0913E0680818061808344
:103B2000E0913D06F0913E06808188608083E091BF
:103B30003D06F0913E06808180688083E0913D06DD
:103B4000F0913E0680818F7D808370ED472E72E07C
:103B5000572ECE0101967C015E0199E1A90EB11CA0
:103B60003701DE2CCF2C28E01501E4E98E2EE2E0AF
:103B70009E2EF201DE019196822F01900D928A9580
:103B8000E1F78DE090E029A70E943A228C01FE0126
:103B9000B196D10129A5822F01900D928A95E1F766
:103BA000D8018D929D92F101822F01900D928A95FC
:103BB000E1F7D8011B961C921E921A971C961C9234
:103BC0001C9714968C9129A70E947509F80186818B
:103BD0000E947509D80118968C910E947509F80108
:103BE00082810E947509D3010D931D933D01B8E0B8
:103BF0004B0E511C29A56A147B0409F0BACF81E051
:103C000090E00E943A224C01909311078093100794
:103C10008DE190E00E943A228C018CEA92E0F8015A
:103C200091838083128E948E838E3296D7018D91EC
:103C30009D917D0181939193AA15BB05B9F782E30C
:103C40000E94750910931307009312071AA219A274
:103C50001CA21BA21EA21DA26091D8067091D906BB
:103C60006115710541F04091DC065091DD06CE01F1
:103C700081960E94221B81E09AE00E943A228C01E8
:103C8000AE014F5D5F4F62E072E00E940C0910933D
:103C9000150700931407CE0181960E94621B85E0F0
:103CA00090E00E943A228C0182EC92E0F80191832C
:103CB000808313821282148210930F0700930E07E1
:103CC000F89484B7877F84BF83B7846083BF88E11B
:103CD0008093600081E680936000789483B78E7F44
:103CE00083BF109317070093160786E090E00E94A9
:103CF0003A227C010E94C11AD70112966D937D93DE
:103D00008D939C931597F0921A07E092190788E01B
:103D100090E00E943A22FC0120911407309115078F
:103D200080911207909113071182108293838283EE
:103D30003583248317830683F0931C07E0931B07C6
:103D400010921807DC01ED91FC910680F781E02DBF
:103D50006CE070E01995FF24F394E091D406F091A3
:103D6000D506309709F0C0C067E574E08BE296E0B5
:103D70000E943F1C8091160790911707DC01ED917E
:103D8000FC910084F185E02D1995882391F18091B3
:103D9000160790911707DC01ED91FC910284F385E1
:103DA000E02D60E019958091160790911707DC01CE
:103DB000ED91FC910680F781E02D1995892B79F41E
:103DC0006AE574E08BE296E00E943F1C60E874E8CC
:103DD0008EE190E00E94871A83E090E008C06DE6D3
:103DE00074E08BE296E00E943F1C84E090E00E9429
:103DF00094098091140790911507DC01ED91FC91D5
:103E00000288F389E02D19958823B1F06BE774E0FF
:103E10008BE296E00E943F1C809114079091150759
:103E2000DC01ED91FC910280F381E02D60E01995B9
:103E300080E090E00E94940980911407909115070A
:103E4000DC01ED91FC910088F189E02D1995882322
:103E5000B1F06EE874E08BE296E00E943F1C809126
:103E6000140790911507DC01ED91FC910190F08110
:103E7000E02D60E0199581E090E00E949409809126
:103E8000120790911307DC01ED91FC910484F585F4
:103E9000E02D19958823B1F06EE974E08BE296E08D
:103EA0000E943F1C8091120790911307DC01ED9155
:103EB000FC910088F189E02D60E0199582E090E0A6
:103EC0000E94940980911807882309F48BC16BEA3A
:103ED00074E08BE296E00E943F1C1092180785E088
:103EE00090E00E9494097EC18081918100911B071E
:103EF00010911C07F801208131812130310509F42E
:103F000050C02230310509F415C1232B09F048C1F6
:103F100082309105B9F185309105B9F1019709F029
:103F20006DC0D8010280F381E02D0190F081E02D79
:103F3000A280B38014968D919C911597DC01ED9130
:103F4000FC910484F585E02D19952CE030E04D2D91
:103F50005C2DBC01F80182819381F5011995D8018E
:103F600012968D919C911397DC01ED91FC91028446
:103F7000F385E02D4CE050E06D2D7C2D199564E02B
:103F800075E038C060ED74E0F2C084819581DC0199
:103F9000ED91FC910688F789E02D199569EF74E0A1
:103FA00029C08130910569F18530910509F4A5C0DA
:103FB000892B09F0E6C06CE275E08BE296E00E9486
:103FC0003F1CF80184819581DC01ED91FC91048016
:103FD000F581E02D60E01995F80182819381DC0183
:103FE000ED91FC910680F781E02D6CE070E0199571
:103FF00061E475E08BE296E00E943F1C80E090E077
:10400000CCC064E075E08BE296E00E943F1CD801D2
:1040100014968D919C911597DC01ED91FC91048093
:10402000F581E02D60E01995F80184819581DC012E
:10403000ED91FC910284F385E02D19955C01F80166
:1040400082819381DC01ED91FC910480F581E02D6A
:10405000B5011995F80184819581DC01ED91FC9100
:104060000484F585E02D1995F801A281B3814D9165
:104070005C9111979501220F331F820F931FFC0152
:1040800060817181FA0120813181CD01F901199599
:10409000F801A281B381ED91FC9111970084F18523
:1040A000E02DAC01B501CD011995D8011696ED9121
:1040B000FC9117970190F081E02DA280B3801496B7
:1040C0008D919C911597DC01ED91FC910680F78113
:1040D000E02D1995AB01682FF80186819781F501D4
:1040E000199565E175E08BE296E00E943F1CD801CE
:1040F00016968D919C91179747C069EF74E08BE2FB
:1041000096E00E943F1CF80184819581DC01ED91CD
:10411000FC910488F589E02D1995882391F1F80127
:1041200084819581DC01ED91FC910688F789E02D71
:10413000199527C083309105C1F0049761F568E6B1
:1041400075E08BE296E00E943F1CD80116968D9197
:104150009C911797DC01ED91FC910190F081E02D8D
:104160001995F801868197810FC067E575E08BE2AC
:1041700096E00E943F1C65EE74E08BE296E00E94A0
:104180003F1C81E090E009C0DC01ED91FC910480CE
:10419000F581E02D199582E090E0F801918380830C
:1041A0008091D4069091D506009741F46BE775E0B5
:1041B0008091D0069091D1060E945909DC01129697
:1041C0000D911C9113970E94CF221093D506009356
:1041D000D4068091D2069091D30601979093D3068E
:1041E0008093D2060091190710911A070E94C11AF4
:1041F000F80182809380A480B580AB01BC0148198E
:1042000059096A097B0980819181092E000CAA0B4A
:10421000BB0B481759076A077B0758F00E94C11A61
:10422000D80112966D937D938D939C931597F09280
:1042300018070E94B51391CD8F929F92AF92BF92B3
:10424000CF92DF92EF92FF92CF93DF93EC016881E0
:1042500079818A819B81611571058105910521F420
:1042600064E279ED8BE597E02DE133EF41E050E03A
:104270000E94C82149015A019B01AC01A7EAB1E49F
:104280000E94E7216B017C01ACEEB4EFA501940123
:104290000E94F521DC01CB018C0D9D1DAE1DBF1DC3
:1042A000B7FF03C00197A109B04888839983AA8307
:1042B000BB83BC01CD019F77DF91CF91FF90EF9041
:1042C000DF90CF90BF90AF909F908F9008950C9407
:1042D0001C2188E092E00C941C21609308027093EA
:1042E000090280930A0290930B0208951F93FC0128
:1042F00099278827BC01E89411911032E9F319300D
:1043000010F01E30C8F31B3251F01D3249F468948E
:1043100006C00E949D21610F711D811D911D11918B
:1043200010531A30B0F33EF49095809570956195D6
:104330007F4F8F4F9F4F1F910895592F482F372F31
:10434000262F660F771F881F991F660F771F881FFC
:10435000991F620F731F841F951F660F771F881F99
:10436000991F0895F999FECF92BD81BDF89A9927BA
:1043700080B50895262FF999FECF1FBA92BD81BD51
:1043800020BD0FB6F894FA9AF99A0FBE01960895D7
:10439000052E97FB1EF400940E94DF2157FD07D0E5
:1043A0000E94FA2107FC03D04EF40C94DF215095B3
:1043B0004095309521953F4F4F4F5F4F0895909511
:1043C0008095709561957F4F8F4F9F4F08950E9404
:1043D0001C22A59F900DB49F900DA49F800D911D50
:1043E00011240895B7FF0C94E7210E94E721821B56
:1043F000930B0895A1E21A2EAA1BBB1BFD010DC051
:10440000AA1FBB1FEE1FFF1FA217B307E407F50784
:1044100020F0A21BB30BE40BF50B661F771F881F60
:10442000991F1A9469F760957095809590959B01F6
:10443000AC01BD01CF010895A29FB001B39FC0019F
:10444000A39F700D811D1124911DB29F700D811DC0
:104450001124911D0895EE0FFF1F881F8BBF079039
:10446000F691E02D199469279627692778278727E1
:1044700078270895CF93DF938230910510F482E07E
:1044800090E0E0913207F091330720E030E0C0E0A7
:10449000D0E0309711F14081518148175907C0F0A1
:1044A0004817590761F482819381209719F09B8303
:1044B0008A832BC0909333078093320726C021153F
:1044C000310519F04217530718F49A01BE01DF01B4
:1044D000EF010280F381E02DDCCF2115310509F1D8
:1044E000281B390B2430310590F412968D919C9144
:1044F00013976115710521F0FB019383828304C03A
:104500009093330780933207FD01329644C0FD013A
:10451000E20FF31F81939193225031092D933C9325
:104520003AC02091300730913107232B41F420917C
:104530000E0230910F023093310720933007209103
:104540000C0230910D022115310541F42DB73EB713
:104550004091100250911102241B350BE09130075D
:10456000F0913107E217F307A0F42E1B3F0B281739
:10457000390778F0AC014E5F5F4F2417350748F0DC
:104580004E0F5F1F509331074093300781939193F3
:1045900002C0E0E0F0E0CF01DF91CF9108950F93EA
:1045A0001F93CF93DF93009709F48CC0FC013297DF
:1045B0001382128200913207109133070115110501
:1045C00081F420813181820F931F20913007309137
:1045D00031072817390779F5F0933107E093300751
:1045E00071C0D80140E050E0AE17BF0750F41296FA
:1045F0002D913C911397AD012115310509F1D90198
:10460000F3CF9D01DA013383228360817181860FAC
:10461000971F8217930769F4EC0128813981260FCF
:10462000371F2E5F3F4F318320838A819B81938385
:104630008283452B29F4F0933307E093320742C07D
:104640001396FC93EE931297ED01499159919E01B7
:10465000240F351FE217F30771F480819181840FD5
:10466000951F029611969C938E9382819381139647
:104670009C938E931297E0E0F0E0D80112968D9112
:104680009C911397009719F0F8018C01F6CF8D914A
:104690009C9198012E5F3F4F820F931F209130070E
:1046A000309131072817390769F4309729F41092AF
:1046B00033071092320702C013821282109331071F
:1046C00000933007DF91CF911F910F9108956F9262
:1046D0007F928F929F92AF92BF92CF92DF92EF9292
:1046E000FF920F931F93CF93DF93EC01009789F410
:1046F000CB01DF91CF911F910F91FF90EF90DF9051
:10470000CF90BF90AF909F908F907F906F900C94C0
:104710003A22FC01E60FF71F9C0122503109E217F3
:10472000F30708F4ACC0D9010D911C91119706173D
:104730001707B0F00530110508F49FC0C8010497B1
:104740008617970708F499C002501109061B170B2A
:10475000019311936D937C93CF010E94CF228DC062
:104760005B01A01AB10A4C01800E911EA091320784
:10477000B091330740E050E0E12CF12C109709F4A0
:104780004AC0A815B905D1F56D907C9011976301C9
:1047900082E0C80ED11CCA14DB0480F1A3014A19BF
:1047A0005B096A0182E0C80ED11C1296BC90129778
:1047B0001396AC91B5E0CB16D10440F0B282A3833E
:1047C00051834083D9016D937C930AC00E5F1F4FC4
:1047D000C301800F911FF90191838083EB2DFA2F84
:1047E000E114F10431F0D7011396FC93EE93129784
:1047F00044C0F0933307E09332073FC08D919C9102
:1048000011974817590708F4AC017D0112960D90D5
:10481000BC91A02DB3CF80913007909131078815BE
:104820009905E1F446175707C8F480910C0290915E
:104830000D02009741F48DB79EB740911002509140
:104840001102841B950BE817F907C8F4F0933107A0
:10485000E0933007F901718360830FC0CB010E94A0
:104860003A227C01009759F0A801BE010E946224FF
:10487000CE010E94CF22C70104C0CE0102C080E059
:1048800090E0DF91CF911F910F91FF90EF90DF901B
:10489000CF90BF90AF909F908F907F906F90089532
:1048A00081E090E0F8940C945827FB01DC0104C0EF
:1048B0008D910190801921F441505040C8F7881B18
:1048C000990B0895FB01DC0102C001900D9241504B
:1048D0005040D8F70895FB01DC0101900D920020B3
:1048E000E1F70895FB01DC014150504048F0019090
:1048F0000D920020C9F701C01D9241505040E0F7D1
:1049000008950F931F93CF93DF93CDB7DEB72E9704
:104910000FB6F894DEBF0FBECDBF0E891F8986E0AB
:104920008C831A8309838FEF9FE79E838D83AE016B
:10493000465E5F4F688D798DCE0101960E94B1244D
:104940002F813885F801E20FF31F10822E960FB6E3
:10495000F894DEBF0FBECDBFDF91CF911F910F91B5
:1049600008952F923F924F925F926F927F928F9213
:104970009F92AF92BF92CF92DF92EF92FF920F93EE
:104980001F93CF93DF93CDB7DEB72C970FB6F89474
:10499000DEBF0FBECDBF7C016B018A01FC01178217
:1049A0001682838181FFBDC1CE0101964C01F701C2
:1049B0009381F60193FD859193FF81916F01882387
:1049C00009F4ABC1853239F493FD859193FF819150
:1049D0006F01853229F4B70190E00E94C226E7CF2B
:1049E000512C312C20E02032A0F48B3269F030F4CD
:1049F000803259F0833269F420612CC08D3239F055
:104A0000803339F4216026C02260246023C02860EE
:104A100021C027FD27C030ED380F3A3078F426FF4B
:104A200006C0FAE05F9E300D1124532E13C08AE0B9
:104A3000389E300D1124332E20620CC08E3221F4AA
:104A400026FD6BC1206406C08C3611F4206802C0BC
:104A5000883641F4F60193FD859193FF81916F01B2
:104A60008111C1CF982F9F7D9554933028F40C5F0E
:104A70001F4FFFE3F9830DC0833631F0833771F0A8
:104A8000833509F05BC022C0F801808189830E5F05
:104A90001F4F44244394512C540115C03801F2E0B7
:104AA0006F0E711CF801A080B18026FF03C0652D38
:104AB00070E002C06FEF7FEFC5012C870E94B72620
:104AC0002C0183012C852F77222E17C03801F2E0AC
:104AD0006F0E711CF801A080B18026FF03C0652D08
:104AE00070E002C06FEF7FEFC5012C870E94AC26FB
:104AF0002C012C852068222E830123FC1BC0832DD2
:104B000090E048165906B0F4B70180E290E00E94A8
:104B1000C2263A94F4CFF50127FC859127FE8191B6
:104B20005F01B70190E00E94C22631103A94F1E093
:104B30004F1A51084114510471F7E5C0843611F041
:104B4000893639F5F80127FF07C0608171818281BC
:104B500093810C5F1F4F08C060817181072E000C8C
:104B6000880B990B0E5F1F4F2F76722E97FF09C08F
:104B700090958095709561957F4F8F4F9F4F2068DE
:104B8000722E2AE030E0A4010E94FA26A82EA8186E
:104B900044C0853729F42F7EB22E2AE030E025C0AC
:104BA000F22FF97FBF2E8F36C1F018F4883579F0D7
:104BB000B4C0803719F0883721F0AFC02F2F2061A3
:104BC000B22EB4FE0DC08B2D8460B82E09C024FF18
:104BD0000AC09F2F9660B92E06C028E030E005C0BD
:104BE00020E130E002C020E132E0F801B7FE07C06A
:104BF00060817181828193810C5F1F4F06C060814B
:104C0000718180E090E00E5F1F4FA4010E94FA26A0
:104C1000A82EA818FB2DFF777F2E76FE0BC0372D10
:104C20003E7FA51450F474FE0AC072FC08C0372DF4
:104C30003E7E05C0BA2C372D03C0BA2C01C0B52C5E
:104C400034FF0DC0FE01EA0DF11D8081803311F4A7
:104C5000397E09C032FF06C0B394B39404C0832FD9
:104C6000867809F0B39433FD13C030FF06C05A2C88
:104C7000B31418F4530C5B18B32CB31468F4B701D5
:104C800080E290E03C870E94C226B3943C85F5CF39
:104C9000B31410F43B1801C0312C34FF12C0B7011B
:104CA00080E390E03C870E94C2263C8532FF17C01B
:104CB00031FD03C088E790E002C088E590E0B701CD
:104CC0000CC0832F867859F031FF02C08BE201C0FF
:104CD00080E237FD8DE2B70190E00E94C226A51464
:104CE00038F4B70180E390E00E94C2265A94F7CFCF
:104CF000AA94F401EA0DF11D8081B70190E00E94B1
:104D0000C226A110F5CF332009F451CEB70180E2BD
:104D100090E00E94C2263A94F6CFF70186819781EF
:104D200002C08FEF9FEF2C960FB6F894DEBF0FBE38
:104D3000CDBFDF91CF911F910F91FF90EF90DF904A
:104D4000CF90BF90AF909F908F907F906F905F902B
:104D50004F903F902F900895FC0105906150704056
:104D60000110D8F7809590958E0F9F1F0895FC0134
:104D70006150704001900110D8F7809590958E0F8A
:104D80009F1F08950F931F93CF93DF93FB01238100
:104D900021FD03C08FEF9FEF28C022FF16C0468180
:104DA0005781248135814217530744F4A081B18192
:104DB0009D012F5F3F4F318320838C932681378164
:104DC0002F5F3F4F3783268310C0EB01092F182F29
:104DD0000084F185E02D1995892BE1F68E819F8164
:104DE00001969F838E83812F902FDF91CF911F910A
:104DF0000F910895FA01AA27283051F1203181F14D
:104E0000E8946F936E7F6E5F7F4F8F4F9F4FAF4FD2
:104E1000B1E03ED0B4E03CD0670F781F891F9A1FE5
:104E2000A11D680F791F8A1F911DA11D6A0F711D99
:104E3000811D911DA11D20D009F468943F912AE0A5
:104E4000269F11243019305D3193DEF6CF0108958D
:104E5000462F4770405D4193B3E00FD0C9F7F6CFBE
:104E6000462F4F70405D4A3318F0495D31FD405286
:104E7000419302D0A9F7EACFB4E0A695979587951C
:104E800077956795BA95C9F70097610571050895FB
:104E90009B01AC010A2E06945795479537952795A7
:104EA000BA95C9F7620F731F841F951FA01D08953F
:104EB00011E0C8ECD1E000E006C0802FFE010E94A6
:104EC0002B222196011DC93CD10780E00807A9F7D4
:044ED000F894FFCF84
:104ED40000C090A2DA0D1A6A010000000000340735
:104EE400800000000000320F0911580F310FD70F56
:104EF400BD0F960F7D11E00FB90FC310720F290F6C
:104F0400540F520F1E0F480F00000000240223020A
:104F140020021B0217020F020D02B3020A0207024B
:104F2400FC01E90300000000D012D1184B12171342
:104F3400A9135A126E1200000000EF13D118580F73
:104F4400570FEF13EF13EF1300000000EF13D11806
:104F5400580F570F000000007C1200000000EF13F0
:104F6400000000000B092803E702DE020000000035
:104F740000000000EF13EF1300000000B1027C02F8
:104F8400C4085D027F0835023202280225020000AF
:104F94000000CC02BC027310660F630F53105B0F4A
:104FA4001F001E001D001C00190018001700160029
:104FB40001000200030004000100020003000400D9
:104FC40001000200030004000100020003000400C9
:104FD40001000200030004000100020003000400B9
:104FE40001000200030004000100020003000400A9
:104FF4000100020003000400010002000300040099
:1050040001005E00000000000000EF13EF13580FD2
:10501400EF13EF13EF13EF13EF139A16EF13EF13CE
:10502400EF13EF13EF13EF13EF13EF13EF1300006E
:10503400000065163D17580FEE137B16BB16EF14D0
:105044003D18D61528187517B5177418E4169C164C
:10505400931683167F1663616C63756C61746500C7
:10506400474554202F20485454502F312E310048A6
:105074006F73743A207669727475657573616765C8
:105084002E617A75726577656273697465732E6EC5
:10509400657400436F6E6E656374696F6E3A206366
:1050A4006C6F7365000D0A0073656E64003C737069
:1050B400616E2069643D2263746C30315F4C5F25FE
:1050C40064223E007265636569766564003C7370B2
:1050D400616E2069643D2263746C30315F4C5F30D3
:1050E400223E0051554555453A20696E73756666F2
:1050F400696369656E74206D656D6F727920746F74
:10510400206372656174652061206E6577206E6F1F
:1051140064652E00736574207469636B6564200094
:10512400656E61626C65002E2E004765745761746C
:105134006368446F67436F756E746572007761745A
:105144006368446F6754696D6572004765744461B0
:1051540074614E6F74526563656976656400476572
:10516400744461746152656365697665640047657A
:105174007442617273526573657400212121212187
:10518400212121212121212121212121212121210B
:10519400212121212121212121212121212121001C
:1051A40045565F434C4F434B5F494E495449414C2C
:1051B400495A45440053746174655F52657175655D
:1051C4007374456E657267790045565F54494D4561
:1051D4005F55500045565F444154415F5245434535
:1051E400495645440053746174655F57617463683C
:1051F400446F6748616E646C696E670045565F442E
:105204004154415F4E4F545F5245434549564544CE
:105214000053746174655F496E697469616C697A7D
:1052240065436C6F636B0045565F57415443484474
:105234004F475F444F4E450045565F5741544348DE
:10524400444F475F5449434B4544005155455545E8
:105254003A2063616E277420706F70206974656DE5
:105264002066726F6D2071756575653A207175657C
:10527400756520697320656D7074792E0057495ADD
:045284006E657400DF
:00000001FF
