:100000000C9495010C94C6010C94C6010C94C60185
:100010000C94C6010C94C6010C94C6010C94C60144
:100020000C94C6010C94C6010C94C6010C94C60134
:100030000C94C6010C94C6010C94C6010C94C60124
:100040000C94C6010C94C6010C94C6010C94C60114
:100050000C94C6010C94C6010C94C6010C94A90D15
:100060000C94C6010C94600B0C94360B0C94C601D6
:100070000C94C6010C94C6010C94C6010C94C601E4
:100080000C94C6010C94C6010C94C6010C94C601D4
:100090000C94C6010C94C6010C94C6010C94C601C4
:1000A0000C94C6010C94C6010C94C6010C94C601B4
:1000B0000C94C6010C94C6010C94C6010C94C601A4
:1000C0000C94C6010C94C6010C94C6010C94C60194
:1000D0000C94C6010C94C6010C94C6010C94C60184
:1000E0000C94C6013B0C3E0C2D0C310C370C750CDE
:1000F000420C460C4C0C500C540C5A0C5E0C620C0E
:10010000750C680C6C0C700C0C9485080C94220413
:100110000C941D020C94FB050C9411020C94310CF0
:100120000C94030A0C9493060C946C0C0C946009C8
:100130000C9493020C9406070C94B5030C948B0654
:100140000C9435070C943E0C0C94FA010C94740337
:100150000C94460C0C9406030C94620C0C94C8018D
:100160000C94110A0C942D0C0C94B5050C94F50B01
:100170000C9466080C9497050C94370C0C943B0C6B
:100180000C945A0C0C94480A0C948F0A0C94E604B4
:100190000C9423030C94680C0C945E0C0C944C0C83
:1001A0000C94D0010C94EF090C94E7010C94AE0868
:1001B0000C94BB070C94EA0A0C941B020C94750C6B
:1001C0000C94500C0C9420020C94E0010C94FB0154
:1001D0000C94DC130C94540C0C94F2010C94470313
:1001E0000C9407070C949B030C94420C0C94700C19
:1001F0000C946A040C9497030C94CC010C94B204F4
:100200000C94340B0C94610400002100240027009E
:100210002A002D0030003300010100000401070115
:100220000A0100002200250028002B002E003100CA
:10023000340002010000050108010B01000020004C
:100240002300260029002C002F00320000010000AE
:100250000301060109010505050507050808080849
:10026000020202020A0A080804040404010101014E
:100270000101010103030303030303030407070749
:100280000C0C0C0C0C0C0C0C0202020206060606EE
:10029000060606060B0B0B0B0B0B0B0B01021020BB
:1002A00020080810204010204080020102010804AC
:1002B0000201010204081020408080402010080440
:1002C0000201800402018040201008040201080499
:1002D00002010102040810204080010204081020DD
:1002E000408000000A0B02090C0D0E0807030401F0
:1002F00000000000000000000000000000000000FE
:1003000000000000000000000000000000001211CA
:1003100010000000000000000000000000000000CD
:100320000000000000000000DC1311241FBECFEF0E
:10033000D1E2DEBFCDBF00E00CBF13E0A0E0B2E031
:10034000E2E9FFE200E00BBF02C007900D92A63386
:10035000B107D9F724E0A6E3B3E001C01D92A534AC
:10036000B207E1F711E0C5E9D1E000E006C021974E
:100370000109802FFE010E949415C439D10780E045
:100380000807A9F70E942F120C94C7170C940000BD
:10039000FC01818D928D0895FC01848995890895D1
:1003A00020EE32E0FC0131832083FB01408951893A
:1003B00062897389FC014283538364837583089542
:1003C000DC01ED91FC91008CF18DE02D1994FC0184
:1003D0009485FB018485981303C081E0943009F46F
:1003E00080E0089521E0FC018485843009F420E058
:1003F000822F08950895CF93DF931F92CDB7DEB774
:100400006983DC01ED91FC910280F381E02D41E0F4
:1004100050E0BE016F5F7F4F19950F90DF91CF9134
:100420000895DC01ED91FC91048CF58DE02D19957A
:1004300091E089270895862F089581E08627089501
:10044000CF92DF92EF92FF920F931F93CF93DF93A0
:10045000CDB7DEB7AF970FB6F894DEBF0FBECDBFF6
:100460007C016A0100EE12E01A8309831C861B8658
:1004700088EE93E0A0E0B0E08D879E87AF87B88BD1
:1004800080E592E09A878987188F0F8B198E1A8ED4
:100490001B8E1C8E84E089A31DA30CA31EA21FA289
:1004A00018A619A68091FF0390910004A091010461
:1004B000B09102048CA79DA7AEA7BFA78B839C8396
:1004C000AD83BE8318861F82AE014C5D5F4FCE01A7
:1004D00001960E943F0E81309105B1F4D701ED9154
:1004E000FC910088F189E02D1BA70AA78EA19FA18E
:1004F000A8A5B9A58CA79DA7AEA7BFA7A601BE01B9
:10050000665D7F4FC7011995AF960FB6F894DEBFB1
:100510000FBECDBFDF91CF911F910F91FF90EF9054
:10052000DF90CF900895CF92DF92EF92FF920F93DA
:100530001F93CF93DF93CDB7DEB7AF970FB6F89485
:10054000DEBF0FBECDBF7C016A0100EE12E01A8350
:1005500009831C861B8688EE93E0A0E0B0E08D87BF
:100560009E87AF87B88B80E592E09A878987188F3E
:100570000F8B198E1A8E1B8E1C8E84E089A31DA3EF
:100580000CA31EA21FA218A619A68091FF0390918A
:100590000004A0910104B09102048CA79DA7AEA70E
:1005A000BFA78B839C83AD83BE8318861F82AE0159
:1005B0004C5D5F4FCE0101960E943F0E8130910548
:1005C000B1F4D701ED91FC910484F585E02D1BA7D2
:1005D0000AA78EA19FA1A8A5B9A58CA79DA7AEA784
:1005E000BFA7A601BE01665D7F4FC7011995AF96F3
:1005F0000FB6F894DEBF0FBECDBFDF91CF911F9134
:100600000F91FF90EF90DF90CF900895CF93DF93FD
:10061000EC01888D843061F00E940709E88DF0E0DC
:10062000EE0FFF1FEA5CFC4F1182108284E0888F7E
:10063000DF91CF910895FC018485843011F00C94F2
:10064000D60980E00895CF93DF93FC012485243000
:10065000D1F0EC010E941B03843181F0882371F0FA
:10066000883161F08C3161F4E881F9810480F58191
:10067000E02DCE01199521E0892B19F420E001C06D
:1006800021E0822F01C080E0DF91CF910895EF92A9
:10069000FF921F93CF93DF93FC01208D243011F044
:1006A00080E01CC07B01EC0110E0812F0E94D60984
:1006B000811102C0188F05C08831E1F31F5F14302B
:1006C000A1F7888D843061F3FD86EC861A8E198E31
:1006D00020E0A70162E00E941B0981E0DF91CF9139
:1006E0001F91FF90EF9008950F931F93CF93DF9387
:1006F0001F92CDB7DEB78C01DC01ED91FC91048037
:10070000F581E02D1995892B51F0BE016F5F7F4F68
:10071000F80184850E949007898190E002C08FEFE4
:100720009FEF0F90DF91CF911F910F910895FC01E2
:1007300084850C94F607CF93DF931F92CDB7DEB775
:1007400041E050E0BE016F5F7F4FFC0184850E9455
:10075000F607181619061CF4898190E002C08FEF85
:100760009FEF0F90DF91CF910895FC018485843035
:1007700011F00C94D40780E090E008950F931F933C
:10078000CF93DF931F92CDB7DEB7282F30E02C5FD9
:100790003F4F322F22278901060F171F49830E94DE
:1007A0006F0780EF0E948907812F0E948907802FA1
:1007B0000E9489074981842F0E9489070E946D0742
:1007C00081E00F90DF91CF911F910F9108950F93CA
:1007D0001F93CF93DF931F92CDB7DEB790E00496BF
:1007E000982F88278C01060F171F0E946F078FE034
:1007F0000E948907812F0E948907802F0E94890704
:1008000080E00E94890789830E946D0789810F908B
:10081000DF91CF911F910F910895CF93DF93C82F50
:10082000D62F472F60E170E00E94BE034D2F61E19B
:1008300070E08C2FDF91CF910C94BE0308958CBD96
:100840009DBD0895FF920F931F93CF93DF93FB01FC
:10085000DC0157961C921E9256975896FC90828106
:10086000811109C08381811106C08481811103C077
:1008700085818823E9F041155105D1F08A01EF0106
:1008800080E590E00E941F04BE016E5F7F4F2F2D18
:1008900030E0922F882744E050E0845F9B4F0E9415
:1008A000C60BB8018F2D0E940D0481E090E002C0BC
:1008B00080E090E0DF91CF911F910F91FF9008951C
:1008C000089528EC32E0FC013183208387819085F4
:1008D0000C943116CF93DF93EC010E946104CE019A
:1008E000DF91CF910C9431168F929F92AF92BF926D
:1008F000CF92DF92EF92FF920F931F93CF93DF93EC
:100900004A01EB01E12CF12CE814F904D4F4A9908C
:10091000B990F50102811381000F111FC8010E94D7
:100920006A15F0E88F9F60011124C80101960E94AA
:100930006A15C82AF501D582C482FFEFEF1AFF0AB3
:10094000E3CFDF91CF911F910F91FF90EF90DF9058
:10095000CF90BF90AF909F908F9008950895089585
:1009600008950895CF93FC01C08D80E590E00E942A
:100970001F0460E270E08C2F0E94581162E070E06A
:100980008C2F0E94E70384FD17C062E070E08C2F7B
:100990000E94E70383FF09C048E162E070E08C2F0A
:1009A0000E94BE0380E090E00FC00E94040E80E52C
:1009B00090E00E941F04E2CF40E162E070E08C2FE3
:1009C0000E94BE0381E090E0CF9108958F929F92A4
:1009D000AF92BF92CF92DF92EF92FF920F931F934D
:1009E000CF936C015B017A01FC01C485C43041F4F2
:1009F00081E090E0F6019383828380E090E052C032
:100A00008A014130584010F000E018E080E590E0A5
:100A10000E941F048C2F0E94CD114C0163E070E0F6
:100A20008C2F0E94E703873111F08C3131F40E9442
:100A3000040E8016910650F302C000E010E080E53D
:100A400090E00E941F049801A50160E070E08C2FE7
:100A50000E94681160E270E08C2F0E94581162E0E1
:100A600070E08C2F0E94E70384FD12C063E070E009
:100A70008C2F0E94E703811104C08C2F0E9407096C
:100A8000B7CF0E94040E80E590E00E941F04E7CFDC
:100A900040E162E070E08C2F0E94BE03012B09F45C
:100AA000A7CFC701CF911F910F91FF90EF90DF90DB
:100AB000CF90BF90AF909F908F900895CF92DF928C
:100AC000EF92FF92CF93DF93EC01C880D9802A8107
:100AD0003B818FEFC816D80651F42F3F8FEF3807B0
:100AE00031F48C819D81892B11F480E019C0C20EF4
:100AF000D31E0D2C000CEE08FF080E949D0D6C15F6
:100B00007D058E059F0588F3EC81FD8119958FEF9A
:100B10009FEF998388839B838A831D821C8281E057
:100B2000DF91CF91FF90EF90DF90CF9008950F93DA
:100B30001F93CF93DF93EC018B01E881F98104804F
:100B4000F581E02D19950F80D885C02D0E949D0D4F
:100B5000798368831B830A838BE896E09D838C836B
:100B6000DF91CF911F910F910895CF92DF92EF9275
:100B7000FF921F93CF93DF93FC011485143099F1FA
:100B8000EC0180E590E00E941F0468E070E0812F96
:100B90000E9458110E949D0D6B017C01CE010E94A4
:100BA0001B038823B1F061E070E080E090E00E94D8
:100BB000050E0E949D0DDC01CB018C199D09AE092B
:100BC000BF09883E9340A105B10540F38C850E9482
:100BD0000709EC85F0E0EE0FFF1FEA5CFC4F118285
:100BE000108284E08C87DF91CF911F91FF90EF906E
:100BF000DF90CF900895CF92DF92FF920F931F93D3
:100C0000CF93DF93FC012485243009F077C06A017B
:100C1000EB018C01F12C8F2D0E94D609811103C0AC
:100C2000F801F48607C08B7F8831D1F3F394F4E0A8
:100C3000FF12F1CFF8018485843009F45FC0209160
:100C40000002309101022F5F3F4F11F420E030ECA1
:100C50003093010220930002409100025091010262
:100C600020E061E00E941B09F801F4848A818F3F33
:100C700051F48B818F3F91F48C818F3F79F48D817A
:100C80008F3F61F438C0811109C08B81811106C08A
:100C90008C81811103C08D81882369F1C114D10435
:100CA00051F180E590E00E941F04BE016E5F7F4F0E
:100CB0008F2D90E0982F882744E050E0845F9B4F71
:100CC0000E94C60BB6018F2D0E940D0464E070E0F7
:100CD0008F2D0E945811C8010E941B03873189F093
:100CE00061E070E080E090E00E94050EC8010E9483
:100CF0001B038111F0CF84E0F801848780E090E04D
:100D000002C081E090E0DF91CF911F910F91FF90A1
:100D1000DF90CF900895E0910504F091060461E022
:100D200082810C949F0C60E0FC0182810C949F0CEA
:100D300061E086E00E949F0C61E082E00E949F0CCF
:100D400061E083E00E949F0C61E084E00C949F0CC2
:100D5000BF92CF92DF92EF92FF920F931F93CF93A8
:100D6000DF937C014CE050E0BC01DC0159968D9191
:100D70009C915A970E947404C7010E94980690E0C3
:100D800080E06701B8E1CB0ED11CBB24B39487018E
:100D9000C92FD82FF801A081B18116968C91169792
:100DA00081110EC017968D919C911897FC0120819E
:100DB00031812F3F3F4FB9F00E945E05811120C065
:100DC0000E5F1F4F0C151D0529F79C2F8D2F2C979B
:100DD000F4F2DF91CF911F910F91FF90EF90DF9090
:100DE000CF90BF900895ED91FC91119714966D915D
:100DF0007C9115970680F781E02DCD011995E0CF04
:100E0000D801ED91FC91B6822196DACF0895CF9367
:100E1000DF931F92CDB7DEB76983DC01ED91FC91C2
:100E20000280F381E02D41E050E0BE016F5F7F4F13
:100E300019950F90DF91CF9108951F93CF93DF9372
:100E4000182F66E270E00E94E703C82FD0E067E247
:100E500070E0812F0E94E703DC2FCC279E01282B16
:100E6000C901DF91CF911F910895AF92BF92CF92A8
:100E7000DF92FF920F931F93CF93DF938C015B015F
:100E8000EA01FC01C688D788F08C80E590E00E94DA
:100E90001F048F2D0E94CD118C179D0720F48F2DDC
:100EA0000E94CD11EC019E01A501B6018F2D0E947B
:100EB00068110E941E04F801868997898C0F9D1F76
:100EC000978B868BCE01DF91CF911F910F91FF9071
:100ED000DF90CF90BF90AF9008952C9A08952C98F2
:100EE00008951F93CF93DF93182F60E270E00E9464
:100EF000E703C82FD0E061E270E0812F0E94E70392
:100F0000DC2FCC279E01282BC901DF91CF911F91A7
:100F100008958EBD00000DB407FEFDCF8EB5089577
:100F2000EF92FF921F93CF93DF93182F7B0180E501
:100F300090E00E941F0468E270E0812F0E94E703A6
:100F4000C82FD0E069E270E0812F0E94E703DC2F18
:100F5000CC27BE01682B21E030E0A701812F0E9441
:100F6000E9110E941E0481E090E0DF91CF911F9172
:100F7000FF90EF900895CF93DF931F92CDB7DEB728
:100F8000FC01218D328D232B49F0BE016F5F7F4F15
:100F9000808D0E949007898190E002C08FEF9FEFC3
:100FA0000F90DF91CF910895FF920F931F93CF93EE
:100FB000DF93F82E80E590E00E941F04C0E0D0E0AF
:100FC0008F2D0E941D078C01892B21F08F2D0E94EF
:100FD0001D07EC01C017D10799F70E941E04CE012E
:100FE000DF91CF911F910F91FF900895AF92BF9223
:100FF000DF92EF92FF920F931F93CF93DF93D82E40
:101000007B018A0180E590E00E941F04C0E0D0E0EF
:101010008D2D0E941D075C01892B21F08D2D0E94D2
:101020001D07EC01CA15DB0599F7209799F463E0D9
:1010300070E08D2D0E94E7038431D9F18823C9F136
:10104000C1E0D0E08C3111F4C0E0D0E0D195C19581
:10105000D1092FC00C171D070CF4E8011C161D0642
:1010600044F568E270E08D2D0E94E703082F10E040
:1010700069E270E08D2D0E94E703102F0027082BF6
:101080009E01A701B8018D2D0E94E9110C0F1D1FB3
:10109000412F68E270E08D2D0E94BE03402F69E26F
:1010A00070E08D2D0E94BE0360E470E08D2D0E94E3
:1010B00058110E941E04CE01DF91CF911F910F9114
:1010C000FF90EF90DF90BF90AF900895CF93DF93A4
:1010D000FC01218D328D2115310519F48FEF9FEF21
:1010E00011C0EC014217530708F0A901888D0E9436
:1010F000F6071816190694F7298D3A8D281B390B17
:101100003A8F298FDF91CF9108950F931F93CF933B
:10111000DF931F92CDB7DEB7FC01218D328D232BDB
:1011200061F08C0141E050E0BE016F5F7F4F808D28
:101130000E94F607181619061CF08FEF9FEF08C0E3
:10114000F801818D928D0197928F818F898190E036
:101150000F90DF91CF911F910F9108950F931F93DF
:10116000CF93DF93CDB7DEB728970FB6F894DEBFE5
:101170000FBECDBF8C01F801818D928D892B49F076
:10118000D801ED91FC910680F781E02DC8011995F9
:10119000F2CF808D0E94D407181619065CF548E03E
:1011A00050E0BE016F5F7F4FD80158968C910E942E
:1011B000F6079C0118161906DCF489819A81AB8127
:1011C000BC81F801808B918BA28BB38B8D8190E0D9
:1011D000982F88272E81820F911D958B848B2F81CC
:1011E00030E0322F22278885280F311D328F218F42
:1011F000C90102C080E090E028960FB6F894DEBFE7
:101200000FBECDBFDF91CF911F910F910895CF9366
:10121000C82F80E590E00E941F0460E170E08C2FF1
:101220000E9458114FEF62E070E08C2F0E94BE03C5
:10123000CF910C941E04FF920F931F93CF93DF93D3
:101240001F921F92CDB7DEB7F82E8A012A836983D9
:101250000E94070980E590E00E941F042A816981AD
:10126000462F422B60E070E08F2D0E94BE030115D7
:10127000110551F400913E0310913F030F5F1F4F82
:1012800010933F0300933E03412F64E070E08F2DE5
:101290000E94BE03402F65E070E08F2D0E94BE03C8
:1012A00061E070E08F2D0E9458110E941E0481E0C1
:1012B0000F900F90DF91CF911F910F91FF900895A4
:1012C000BF92CF92DF92EF92FF920F931F93CF9333
:1012D000DF9300D000D0CDB7DEB7FC01208D2430E5
:1012E00009F053C06A017B018C01B12C63E070E00E
:1012F0008B2D0E94E703811103C0F801B08E06C058
:101300008831D9F3B394F4E0BF12F0CFF801808DA7
:101310008430D9F196E0E2E7F2E0DE011196019027
:101320000D929A95E1F7F70193819F779C839481C1
:101330009D8395819E83B7016E5F7F4F90E0982FCC
:10134000882744E050E0845F9B4F0E94C60BB601A3
:10135000F801808D0E940D04F801808D90E0982F97
:10136000882746E050E0BE016F5F7F4F8A5F9B4F4A
:101370000E94C60BF801128E118E20E8A60162E0D1
:10138000808D0E941B0981E001C080E026960FB687
:10139000F894DEBF0FBECDBFDF91CF911F910F91AB
:1013A000FF90EF90DF90CF90BF9008951F93CF9361
:1013B000DF931F92CDB7DEB7182F80E590E00E9433
:1013C0001F0463E070E0812F0E94E70389830E947D
:1013D0001E0489810F90DF91CF911F910895FC0128
:1013E000918D828D981761F0828DDF01A80FB11D5C
:1013F0005D968C91928D9F5F9F73928F90E0089580
:101400008FEF9FEF0895FC01918D828D981731F039
:10141000828DE80FF11D858D90E008958FEF9FEF8D
:101420000895FC01918D228D892F90E0805C9F4F63
:10143000821B91098F739927089580E693E00E949B
:10144000110A21E0892B09F420E0822F0895FC0184
:10145000848DDF01A80FB11DA35ABF4F2C91848D3D
:1014600090E001968F739927848FA689B7892C9372
:10147000A089B1898C9180648C93938D848D98130D
:1014800006C00288F389E02D80818F7D80830895D6
:10149000EF92FF920F931F93CF93DF93EC0181E0C4
:1014A000888F9B8D8C8D981305C0E889F989808180
:1014B00085FD24C0F62E0B8D10E00F5F1F4F0F73BC
:1014C0001127E02E8C8DE8120CC00FB607FCFACF66
:1014D000E889F989808185FFF5CFCE010E94270A2E
:1014E000F1CF8B8DFE01E80FF11DE35AFF4FF08223
:1014F0000B8FEA89FB898081806207C0EE89FF89B2
:101500006083E889F98980818064808381E090E04C
:10151000DF91CF911F910F91FF90EF900895CF939E
:10152000DF93EC01888D8823C9F0EA89FB898081EB
:1015300085FD05C0A889B9898C9186FD0FC00FB6BD
:1015400007FCF5CF808185FFF2CFA889B9898C91FE
:1015500085FFEDCFCE010E94270AE7CFDF91CF9123
:10156000089580E090E0892B21F00E941D0A8111EE
:1015700025C080E090E0892B41F080E090E0892B4D
:1015800021F00E94000081111CC080E090E0892BB6
:1015900041F080E090E0892B21F00E940000811151
:1015A00013C080E090E0892BA1F080E090E0892BCF
:1015B00081F00E94000081110AC008950E9400007D
:1015C000D8CF0E940000E1CF0E940000EACF0C9427
:1015D000000008958F929F92AF92BF92CF92DF92B8
:1015E000EF92FF920F931F93CF93DF937C01EB0158
:1015F0006C0182E0C80ED11C4701E5E08E0E911C03
:1016000000E010E0F60141916F0150E060E070E011
:101610002AE0CE010E940F115C01E881F98101905E
:10162000F081E02D6EE2CE0119958A0D9B1D080F09
:10163000191FC814D90431F7F701458150E060E063
:1016400070E02AE0CE010E940F11800F911FDF9100
:10165000CF911F910F91FF90EF90DF90CF90BF90AF
:10166000AF909F908F9008950E94B2171F920F9293
:101670000FB60F9211240BB60F922F933F934F93F7
:101680005F936F937F938F939F93AF93BF93EF93EA
:10169000FF9380E693E00E94270AFF91EF91BF91AC
:1016A000AF919F918F917F916F915F914F913F91FA
:1016B0002F910F900BBE0F900FBE0F901F9018959B
:1016C0001F920F920FB60F9211240BB60F922F9309
:1016D0008F939F93EF93FF93E0917003F0917103C9
:1016E0008081E0917603F091770382FD12C09081B2
:1016F000809179038F5F8F7320917A03821751F065
:10170000E0917903F0E0E05AFC4F958F80937903E4
:1017100001C08081FF91EF919F918F912F910F9048
:101720000BBE0F900FBE0F901F901895CF92DF92B7
:10173000EF92FF920F931F93CF93DF93EC017A0107
:101740008B016C01C40ED51ECC15DD05A9F00E94DD
:101750006F078FE00E9489078D2F0E9489078C2FC9
:101760000E948907219680E00E948907F8018193F1
:101770008F010E946D07E8CFC701DF91CF911F91C4
:101780000F91FF90EF90DF90CF900895CF92DF926E
:10179000EF92FF920F931F93CF93DF93EC017A01A7
:1017A0008B016C01C40ED51ECC15DD05A1F00E9485
:1017B0006F0780EF0E9489078D2F0E9489078C2F69
:1017C0000E9489072196F80181918F010E94890763
:1017D0000E946D07E9CFC701DF91CF911F910F9153
:1017E000FF90EF90DF90CF900895CF92DF92EF922D
:1017F000FF920F931F93CF93DF936C017A018B01BC
:10180000C0E0D0E0CE15DF0589F0D8016D918D01E3
:10181000D601ED91FC910190F081E02DC601199562
:10182000892B11F47E0102C02196ECCFC701DF9114
:10183000CF911F910F91FF90EF90DF90CF9008957F
:1018400090E0FC013197E231F10508F04EC08827A5
:10185000EE58FF4F8F4F0C949415809180008F7736
:1018600003C0809180008F7D8093800008958091D7
:101870008000877FF9CF84B58F7702C084B58F7DD4
:1018800084BD08958091B0008F7703C08091B0002F
:101890008F7D8093B0000895809190008F7707C06E
:1018A000809190008F7D03C080919000877F80930E
:1018B000900008958091A0008F7707C08091A000CC
:1018C0008F7D03C08091A000877F8093A000089542
:1018D000809120018F7707C0809120018F7D03C008
:1018E00080912001877F809320010895CF93DF931B
:1018F000282F30E0F901EE51FD4F8491F901E456B3
:10190000FD4FD491F901EA5AFD4FC491CC2391F0D7
:1019100081110E94200CEC2FF0E0EE0FFF1FE45C21
:10192000FD4FA591B491EC91ED2381E090E021F47D
:1019300080E002C080E090E0DF91CF9108951F9396
:10194000CF93DF93282F30E0F901EE51FD4F8491C2
:10195000F901E456FD4FD491F901EA5AFD4FC491C3
:10196000CC23C9F0162F81110E94200CEC2FF0E03F
:10197000EE0FFF1FEE5DFD4FA591B4918FB7F89468
:10198000111105C09C91ED2FE095E92302C0EC9167
:10199000ED2BEC938FBFDF91CF911F910895CF93E3
:1019A000DF9390E0FC01E456FD4F2491FC01EA5ADC
:1019B000FD4F8491882361F190E0880F991FFC010D
:1019C000E85FFD4FC591D491FC01EE5DFD4FA591FF
:1019D000B491611109C09FB7F89488812095822342
:1019E0008883EC912E230BC0623061F49FB7F8948A
:1019F0003881822F809583238883EC912E2B2C9322
:101A00009FBF06C08FB7F894E8812E2B28838FBF25
:101A1000DF91CF910895789484B5826084BD84B5B8
:101A2000816084BD85B5826085BD85B5816085BDD9
:101A3000EEE6F0E0808181608083E1E8F0E01082F2
:101A4000808182608083808181608083E0E8F0E033
:101A5000808181608083E1EBF0E08081846080831D
:101A6000E0EBF0E0808181608083E1E9F0E080815B
:101A700082608083808181608083E0E9F0E0808102
:101A800081608083E1EAF0E08081826080838081F0
:101A900081608083E0EAF0E0808181608083E1E220
:101AA000F1E0808182608083808181608083E0E2D8
:101AB000F1E0808181608083EAE7F0E080818460EA
:101AC0008083808182608083808181608083808147
:101AD000806880831092C10008958230910538F0AB
:101AE000880F991F880F991F05970197F1F708959F
:101AF0003FB7F8948091460390914703A091480323
:101B0000B091490326B5A89B05C02F3F19F0019657
:101B1000A11DB11D3FBFBA2FA92F982F8827820F73
:101B2000911DA11DB11DBC01CD0142E0660F771FC3
:101B3000881F991F4A95D1F708952FB7F89460919F
:101B400042037091430380914403909145032FBF5A
:101B500008951F920F920FB60F9211240F931F93A7
:101B60002F933F934F935F936F937F938F939F93A5
:101B7000AF93BF930091420310914303209144031C
:101B80003091450390914103B901A8014F5F5F4F28
:101B90006F4F7F4F83E0890F8D3740F086E8890FC4
:101BA000B901A8014E5F5F4F6F4F7F4F8093410394
:101BB000409342035093430360934403709345035F
:101BC0008091460390914703A0914803B091490347
:101BD0000196A11DB11D8093460390934703A093E6
:101BE0004803B0934903BF91AF919F918F917F912B
:101BF0006F915F914F913F912F911F910F910F9096
:101C00000FBE0F901F90189508958F929F92AF92DC
:101C1000BF92CF92DF92EF92FF926B017C010E9404
:101C2000780D4B015C01C114D104E104F104F1F021
:101C30000E94780DDC01CB0188199909AA09BB091A
:101C4000883E9340A105B10570F321E0C21AD10886
:101C5000E108F10888EE880E83E0981EA11CB11CF3
:101C6000C114D104E104F104F1F2E2CFFF90EF904E
:101C7000DF90CF90BF90AF909F908F9008952F925C
:101C80003F924F925F926F927F928F929F92AF920C
:101C9000BF92CF92DF92EF92FF920F931F93CF9359
:101CA000DF93CDB7DEB765970FB6F894DEBF0FBEF2
:101CB000CDBF7C016B013A01FB0120E080E090E0A8
:101CC0006AE03191332309F140ED430F4A3080F44B
:101CD000689FA001699F500D1124CA01C097830F0E
:101CE000911D37FD9A958F3F910559F350F313C01D
:101CF0003E3289F4233079F0D301A20FB11D129640
:101D00008C932F5F80E090E0DCCF233021F4F3014F
:101D1000858381E021C0F70142815381648175810F
:101D200080915C0390915D03A0915E03B0915F038D
:101D3000481759076A077B0709F49EC10E949D0D49
:101D40008701085F1F4F6F7077277C5FC8010E9473
:101D50004703813019F080E090E0F3C180EE92E01B
:101D60009A838983F70182819381A481B5818B83D2
:101D70009C83AD83BE8345E350E0BE016F5F7F4F20
:101D8000C8010E942204892B19F4C12CD12C6FC1E7
:101D90000E949D0DF7017783668376276727762754
:101DA0007A83698342E050E0BE016F5F7F4FC801D4
:101DB0000E94350781E090E09E878D8742E050E0E9
:101DC000BE01635F7F4FC8010E94350780E091E04C
:101DD0009E878D8742E050E0BE01635F7F4FC80160
:101DE0000E9435071E861D8642E050E0BE01635FFB
:101DF0007F4FC8010E94350742E050E0BE01635F9B
:101E00007F4FC8010E94350742E050E0BE01635F8A
:101E10007F4FC8010E9435075601F5018081882354
:101E200011F1F6015F018191811115C045018C18F6
:101E30009D081814190494F48F8641E050E0BE0107
:101E4000615F7F4FC8010E943507A401B601C80138
:101E50000E94350703C08E3229F7E8CF6501FFEFF6
:101E6000CF1ADF0ADACF1F8641E050E0BE01615F82
:101E70007F4FC8010E943507C12CDD24D394DE8634
:101E8000CD8642E050E0BE01635F7F4FC8010E94F3
:101E90003507DE86CD8642E050E0BE01635F7F4FAE
:101EA000C8010E943507C8010E94B204892B09F4B9
:101EB0006CCF63E0A62EB12CF2E06F0E711C0E9475
:101EC0009D0D1B012C01C8010E94AE0818161906B1
:101ED000A4F00E949D0DDC01CB0182199309A40995
:101EE000B50989389341A105B105D0F462E370E0EA
:101EF00080E090E00E94050EE6CFF7014281538119
:101F000064817581808D918DA28DB38D481759079D
:101F10006A077B0741F4848D958DC59721F406C02F
:101F20002FEF3FEF9AC02EEF3FEF97C0F70181A14F
:101F300092A10C970CF4A6C04CE050E0BE016F5F7C
:101F40007F4FC8010E9466088B8190E0982F8827F8
:101F50002C81822B9A8B898B298130E0322F22278A
:101F60004A81242BF701468157814217530709F014
:101F700086C097FF84C08F709270892B09F0DEC0F5
:101F8000CF80D12CDC2CCC248885C82AC114D10464
:101F900009F4D1C0812C912C8D8190E0982F882755
:101FA0002E81822B8816990608F46FC0812C912C03
:101FB00041E050E0BE016D5E7F4FC8010E9466089F
:101FC0008B89982F907C09F093C0811186C08B89F2
:101FD0008111EECF42E050E0BE01615F7F4FC8014A
:101FE0000E94660842E050E0BE01635F7F4FC80177
:101FF0000E946608C8010E948508C8010E948508E1
:10200000C8010E948508C8010E94850842E050E08E
:10201000BE016F5E7F4FC8010E9466088F85988958
:102020008115914009F069C02D853E85322723270F
:1020300032272130310509F060C089899A898115DC
:10204000944009F075C044E050E0B301C8012C8B06
:102050003D8B0E9466082C893D896901F1E0AF1A29
:10206000B10829F02FEFC216D20609F428CFC80113
:102070000E940603C60165C08EEF9FEF62C02CEF81
:102080003FEFEBCF2DEF3FEFE8CF41E050E0BE0157
:10209000635F7F4FC8010E9466088D85811113C060
:1020A0008D858111F2CFC8010E948508C8010E9468
:1020B0008508C8010E948508C8010E948508FFEFB5
:1020C0008F1A9F0A69CF8D859FEF980F9D87882370
:1020D00039F3C8010E948508F6CF8B899FEF980FCE
:1020E0009B8B882309F473CFC8010E948508F5CF24
:1020F000C8010E9485081B8A6ACF412C512C89890E
:102100009A899827892798274816590638F4C801CC
:102110000E9485088FEF481A580AF1CFEFEF8E1A08
:102120009E0A8C149D0409F043CF26EF3FEF95CF14
:1021300027EF3FEF92CF2AEF3FEF8FCF2BEF3FEF0D
:102140008CCF65960FB6F894DEBF0FBECDBFDF9182
:10215000CF911F910F91FF90EF90DF90CF90BF90A4
:10216000AF909F908F907F906F905F904F903F9037
:102170002F900895EF92FF920F931F93CF93DF93C9
:10218000EC017B018A0188819981009729F02A81DD
:102190003B8124173507F8F4B8016F5F7F4F0E9429
:1021A000C916009759F0998388831B830A832C8171
:1021B0003D81232B81F4FC0110820DC0888199811F
:1021C000009711F00E943116198218821D821C821C
:1021D0001B821A8207C01D830C83B70188819981F5
:1021E0000E94C017CE01DF91CF911F910F91FF90F8
:1021F000EF9008956115710579F0FB0101900020C1
:10220000E9F73197AF01461B570BDC01ED91FC91CB
:102210000280F381E02D199480E090E008954F92C0
:102220005F926F927F92EF92FF920F931F93CF93E3
:10223000DF93CDB7DEB7A1970FB6F894DEBF0FBE20
:10224000CDBF7C01FA01CB0119A2223008F42AE0AB
:102250008E010F5D1F4F422E512C612C712CBF013E
:10226000A30192010E947215F901CA0101501109DE
:102270006A3014F4605D01C0695CD8016C93232B53
:10228000242B252B61F7B801C7010E94FA10A196F3
:102290000FB6F894DEBF0FBECDBFDF91CF911F9177
:1022A0000F91FF90EF907F906F905F904F90089507
:1022B000CF93C82F462F61E070E00E94BE0361E01B
:1022C00070E08C2F0E94E7038111F9CFCF91089520
:1022D0009F92AF92BF92CF92DF92EF92FF920F93B5
:1022E0001F93CF93DF93982E8B015A01690164E20B
:1022F00070E00E94E703E82EF12C65E270E0892D82
:102300000E94E703FE2CEE24E82AE701C00FD11F4C
:102310009E013770E92CF12CC701880F991FAC0181
:10232000465B5C4F7A01FA0180819181820F931F95
:10233000A9014C0D5D1D4130584090F000E018E0BF
:10234000021B130BA801B5010E94C60BA601401B7E
:10235000510BB501600F711FF7018081918102C09F
:10236000A601B5010E94C60BCC0DDD1D4D2F64E208
:1023700070E0892D0E94BE034C2F65E270E0892D2C
:10238000DF91CF911F910F91FF90EF90DF90CF9051
:10239000BF90AF909F900C94BE03FF920F931F933A
:1023A000CF93DF93F82EC0E0D0E08F2D0E9471070D
:1023B0008C01892B21F08F2D0E947107EC01C01731
:1023C000D10799F7CE01DF91CF911F910F91FF9027
:1023D0000895AF92BF92CF92DF92EF92FF920F9348
:1023E0001F93CF93DF931F921F92CDB7DEB77A83EF
:1023F0006983BA01A901E981FA81F770082F10E019
:10240000000F111F0E5A1C4FD8018D919C918E0FF9
:102410009F1F2E0F3F1F2130384098F07A015B013B
:1024200020E038E06901CE1ADF0AA6010E94960B6F
:10243000A7014C195D09B5016C0D7D1DF801808166
:1024400091810F900F90DF91CF911F910F91FF908D
:10245000EF90DF90CF90BF90AF900C94960BCF93FE
:10246000DF9300D000D0CDB7DEB70E940B0DE09116
:102470007003F091710382E08083E0916C03F0912E
:102480006D031082E0916E03F0916F038FEC8083F7
:1024900010927803E0917403F091750386E08083D5
:1024A000E0917203F0917303808180618083E091F9
:1024B0007203F0917303808188608083E0917203DE
:1024C000F0917303808180688083E0917203F091C2
:1024D000730380818F7D808310924003CE0101962B
:1024E0006C01A12CB12C8091090490910A04DC01AB
:1024F00012962C911297222329F012961C9225E015
:1025000030E048C0E0910B04F0910C0421812223BB
:1025100021F0118220E030E03DC02081222321F013
:10252000108221E030E036C040910D0450910E043D
:10253000DA0158962C915897222329F058961C922C
:1025400022E030E027C0DC018D919C91181619061D
:10255000E4F480914003882329F01092400326E0A0
:1025600030E018C0E851F84F0190F081E02DEE0FF7
:10257000FF1FE40FF51F0190F081E02D8681882375
:1025800039F0168223E030E005C024E030E002C0DC
:1025900027E030E00091070410910804F8018081E1
:1025A00091818230910509F48DC02CF4009759F087
:1025B000019791F0CEC08330910509F46CC0049767
:1025C00009F4AFC0C6C02130310509F475C022300E
:1025D000310509F071C0B4C02115310509F45EC0A0
:1025E0002130310509F0ACC0D80184819581FC010E
:1025F000EE5FF74F10827A97E080F18012966D902F
:102600007C901397EE0CFF1CE60CF71C41E050E0A9
:10261000B701F301818D928D0E947404C3010E9461
:102620009806D7018D919C91DC01ED91FC91119759
:1026300014966D917C9115970680F781E02D199580
:10264000D701ED91FC911682D701ED91FC91878124
:1026500090850E945E058823B9F3F801E280F3803B
:10266000C7010E949806EA0CFB1CD7018D919C9132
:10267000DC01ED91FC910680F781E02D60E070E0D7
:102680001995D701ED91FC91878190850E945E0597
:102690008823B9F314C02115310501F5D80114962A
:1026A000ED91FC911597EE5FF74F108212968D9188
:1026B0009C9113970E94A80680E090E046C082E0BB
:1026C00090E043C02330310519F483E090E002C06C
:1026D00082E090E0D8018D939C936BC0213031054E
:1026E000E9F40480F581E02D1A8219821C821B8294
:1026F0001E821D82ED5FF74FCE16DF0651F060811E
:1027000071816115710529F044815581C6010E94CE
:10271000BA1089819A810E94311615C083E090E039
:1027200014C02430310561F02530310561F4068094
:10273000F781E02D8081918101979183808303C08F
:1027400081E090E002C084E090E0F8019183808312
:1027500030C068EE72E080E693E00E94FA10D80183
:102760004D905C90052C000C6608770877FE14C02D
:10277000E0916003F09161030190F081E02D6DE242
:1027800080E693E0199544275527BA014419550965
:10279000660977092AE003C02AE0B301A20180E6B6
:1027A00093E00E940F1165E173E080E693E00E94E0
:1027B000FA100E94B10A97CE8F929F92AF92BF9269
:1027C000CF92DF92EF92FF920F931F93CF93DF93FD
:1027D00080EE92E090935B0380935A0310925C0327
:1027E00010925D0310925E0310925F0390931004A9
:1027F00080930F041092110410921204109213048B
:1028000010921404909316048093150410921704E8
:10281000109218041092190410921A041092630373
:102820001092620348EE53E060E070E0409364036E
:102830005093650360936603709367032CE732E05F
:10284000309361032093600325EC30E030936D03F7
:1028500020936C0324EC30E030936F0320936E03DD
:1028600020EC30E0309371032093700321EC30E0D2
:10287000309373032093720322EC30E0309375039E
:102880002093740326EC30E0309377032093760393
:102890001092790310927A0310927B0310927C03BA
:1028A00090931C0480931B0410921D0410921E042C
:1028B00010921F041092200490932204809321040C
:1028C00010922304109224041092250410922604DE
:1028D00090932804809327041092290410922A04CC
:1028E00010922B0410922C049093FE038093FD030E
:1028F0001092FF031092000410920104109202043F
:1029000090932E0480932D0410922F041092300483
:102910001092310410923204909334048093330463
:102920001092350410923604109237041092380435
:1029300090933C0480933B0410923D0410923E041B
:1029400010923F041092400481E090E00E949C1598
:10295000EC0190933A04809339048BE190E00E945B
:102960009C158C01FC01108ED28FC18F61E086E036
:102970000E94CF0C61E082E00E94CF0C61E083E016
:102980000E94CF0C61E084E00E94CF0C82E0E82E30
:1029900082E0F82E680198ECA92E92E0B92E8824E6
:1029A0008A94982C89E090E00E949C15EC01F70134
:1029B000819191917F01B982A8829B838A831D8234
:1029C0001C821E8286E090E00E949C15FC01918290
:1029D0008082938282821582148298878F83D0931B
:1029E0000604C0930504F601C193D1936F01FAE187
:1029F000EF16F2E0FF06B1F610930E0400930D04FB
:102A000089E098E00E949C15EC01188219821D82D1
:102A10001C8288EE93E0A0E0B0E08E839F83A887BD
:102A2000B98784EA92E09B838A8384E08E8788E179
:102A300093E08D8BFE01EA51F84F1182108232969D
:102A40008FEF9FEF918380837A9610823196118267
:102A50001082138212821582148240E050E067E1F6
:102A600073E0CF010E94BA1091E09F87988B998BF9
:102A70009A8B9B8B9C8BD0930C04C0930B0483E0AC
:102A800090E00E949C157C01FC0111821082128250
:102A900090930A048093090488E090E00E949C15BA
:102AA000FC011182108213830283D583C483F782D1
:102AB000E6829093080480930704DF91CF911F91E1
:102AC0000F91FF90EF90DF90CF90BF90AF909F90CD
:102AD0008F900895F999FECF92BD81BDF89A9927FC
:102AE00080B50895A1E21A2EAA1BBB1BFD010DC0E3
:102AF000AA1FBB1FEE1FFF1FA217B307E407F507AE
:102B000020F0A21BB30BE40BF50B661F771F881F89
:102B1000991F1A9469F760957095809590959B011F
:102B2000AC01BD01CF010895EE0FFF1F881F8BBFC1
:102B30000790F691E02D1994CF93DF9382309105A1
:102B400010F482E090E0E0914304F091440420E02E
:102B500030E0C0E0D0E0309711F14081518148175A
:102B60005907C0F04817590761F482819381209773
:102B700019F09B838A832BC0909344048093430471
:102B800026C02115310519F04217530718F49A0190
:102B9000BE01DF01EF010280F381E02DDCCF2115C2
:102BA000310509F1281B390B2430310590F41296B8
:102BB0008D919C9113976115710521F0FB01938311
:102BC000828304C09093440480934304FD013296B1
:102BD00044C0FD01E20FF31F81939193225031090C
:102BE0002D933C933AC02091410430914204232B11
:102BF00041F420911C0230911D0230934204209335
:102C0000410420911A0230911B022115310541F433
:102C10002DB73EB740911E0250911F02241B350B69
:102C2000E0914104F0914204E217F307A0F42E1B57
:102C30003F0B2817390778F0AC014E5F5F4F241720
:102C4000350748F04E0F5F1F5093420440934104F4
:102C50008193919302C0E0E0F0E0CF01DF91CF914A
:102C600008950F931F93CF93DF93009709F48CC0BF
:102C7000FC013297138212820091430410914404A4
:102C80000115110581F420813181820F931F20915C
:102C90004104309142042817390779F5F093420432
:102CA000E093410471C0D80140E050E0AE17BF0787
:102CB00050F412962D913C911397AD0121153105D9
:102CC00009F1D901F3CF9D01DA01338322836081B9
:102CD0007181860F971F8217930769F4EC01288191
:102CE0003981260F371F2E5F3F4F318320838A8122
:102CF0009B8193838283452B29F4F0934404E093D2
:102D0000430442C01396FC93EE931297ED01499150
:102D100059919E01240F351FE217F30771F480814A
:102D20009181840F951F029611969C938E938281B8
:102D3000938113969C938E931297E0E0F0E0D80174
:102D400012968D919C911397009719F0F8018C01C0
:102D5000F6CF8D919C9198012E5F3F4F820F931F6C
:102D600020914104309142042817390769F43097C3
:102D700029F4109244041092430402C01382128278
:102D80001093420400934104DF91CF911F910F9162
:102D900008956F927F928F929F92AF92BF92CF923F
:102DA000DF92EF92FF920F931F93CF93DF93EC018B
:102DB000009789F4CB01DF91CF911F910F91FF9084
:102DC000EF90DF90CF90BF90AF909F908F907F90CB
:102DD0006F900C949C15FC01E60FF71F9C0122508C
:102DE0003109E217F30708F4ACC0D9010D911C9129
:102DF000119706171707B0F00530110508F49FC0AA
:102E0000C80104978617970708F499C00250110962
:102E1000061B170B019311936D937C93CF010E94B6
:102E200031168DC05B01A01AB10A4C01800E911EB3
:102E3000A0914304B091440440E050E0E12CF12C17
:102E4000109709F44AC0A815B905D1F56D907C908A
:102E50001197630182E0C80ED11CCA14DB0480F113
:102E6000A3014A195B096A0182E0C80ED11C1296BF
:102E7000BC9012971396AC91B5E0CB16D10440F0FC
:102E8000B282A38351834083D9016D937C930AC09E
:102E90000E5F1F4FC301800F911FF9019183808343
:102EA000EB2DFA2FE114F10431F0D7011396FC93C6
:102EB000EE93129744C0F0934404E09343043FC060
:102EC0008D919C9111974817590708F4AC017D0129
:102ED00012960D90BC91A02DB3CF8091410490919A
:102EE000420488159905E1F446175707C8F4809104
:102EF0001A0290911B02009741F48DB79EB7409142
:102F00001E0250911F02841B950BE817F907C8F4A5
:102F1000F0934204E0934104F901718360830FC090
:102F2000CB010E949C157C01009759F0A801BE01BD
:102F30000E94B717CE010E943116C70104C0CE010E
:102F400002C080E090E0DF91CF911F910F91FF9040
:102F5000EF90DF90CF90BF90AF909F908F907F9039
:102F60006F90089581E090E0F8940C94C717FB01EE
:102F7000DC0102C001900D9241505040D8F70895F5
:102F8000FB01DC0101900D920020E1F70895F89417
:022F9000FFCF71
:102F920000C0010002000300040005000600070053
:102FA200080009000A000B000C0000004504800024
:102FB2004544434241403F3E3D3C3B3A3938373637
:102FC2001514343233354544434241403F3E3D3C83
:102FD2003B3A3938373615143432333500000000A5
:102FE20007073507C8018508BB070607470306031D
:102FF20022042002B204AE086608E001D001CC012E
:10300200600901005E00000000000000480AF50BA4
:10301200110AEF09030A8F0A00000000340BF50BB6
:10302200340B340B340B340B00000000340BF50B63
:1030320000000000FB01E604B5039B037403FA01E0
:10304200FB0593029703B5052303F2011D021B0240
:10305200E70111020000000061046A04930697056B
:103062000000000000000000340B340B00000000E0
:10307200EA0A00000000340B4552524F523A2069CE
:103082006C6C6567616C2F756E68616E646C6564EB
:103092002073746174652077697468206E756D623F
:1030A20065723A20000D0A0076697274756575734F
:1030B2006167652E617A7572657765627369746599
:0630C200732E6E65740020
:00000001FF
