:100000000C94C9010C94FA010C94FA010C94FA01B5
:100010000C94FA010C94FA010C94FA010C94FA0174
:100020000C94FA010C94FA010C94FA010C94FA0164
:100030000C945E110C94FA010C94FA010C94FA01E0
:100040000C94FA010C94FA010C94FA010C94FA0144
:100050000C94FA010C94FA010C94FA010C94461ACF
:100060000C94FA010C94ED140C94C3140C94FA0142
:100070000C94FA010C94FA010C94FA010C94FA0114
:100080000C94FA010C94FA010C94FA010C94FA0104
:100090000C94FA010C94FA010C94FA010C94FA01F4
:1000A0000C94FA010C94FA010C94FA010C94FA01E4
:1000B0000C94FA010C94FA010C94FA010C94FA01D4
:1000C0000C94FA010C94FA010C94FA010C94FA01C4
:1000D0000C94FA010C94FA010C94FA010C94FA01B4
:1000E0000C94FA01B219B519A419A819AC19EC1994
:1000F000B919BD19C319C719CB19D119D519D919EE
:10010000EC19DF19E319E7190C94AC190C940C14D1
:100110000C9459130C94B9190C94D00E0C94EB1B3D
:100120000C940E160C9437160C94FF010C94E719DE
:100130000C94D9150C9414100C941A030C94EF150C
:100140000C94CE0E0C9432040C94D9020C946C13C3
:100150000C94A8190C942D020C94F60F0C94AD0E6F
:100160000C94E20E0C9480130C94B2190C94E60ECD
:100170000C9408170C94EC190C945A130C949017C7
:100180000C94A2020C947A0F0C9467140C94CB1963
:100190000C944A180C949A0E0C94600F0C945D13F6
:1001A0000C94B1140C949C110C941C020C9413022A
:1001B0000C9420020C94F00E0C94E3190C94DB0EBA
:1001C0000C94A50E0C94C3190C94D1190C948302B1
:1001D0000C94ED170C94DE0E0C94DF190C940F02A6
:1001E0000C948E130C942A020C94C7190C940702D9
:1001F0000C94050F0C9405020C941D020C94150F21
:100200000C94C4110C94FC010C94CE100C94C816E0
:100210000C94BD190C945C0F0C94DB030C941B0222
:100220000C94EF1B0C94B5190C945A100C941802F2
:100230000C9490160C94C40E0C94D5190C94970839
:100240000C94F7150C94CA120C9407160C94AE0E6D
:100250000C94F3150C94830F0C94A4190C94550270
:100260000C947B170C94D9190C94390F0C94DE085C
:100270000C94D7020C94C5130C9452120C94E20205
:100280000C9402020C94D30E0000220025002800DA
:100290002B002E003100340002010000050108018E
:1002A0000B0100002100240027002A002D0030004F
:1002B000330001010000040107010A0105050505DD
:1002C000070508080808020202020A0A08080404CE
:1002D00004040101010101010101030303030303FC
:1002E0000303040707070C0C0C0C0C0C0C0C02028B
:1002F000020206060606060606060B0B0B0B0B0B88
:100300000B0B010210202008081020401020408014
:1003100002010201080402010102040810204080C9
:100320008040201008040201800402018040201057
:1003300008040201080402010102040810204080A0
:10034000010204081020408000000A0B02090C0D75
:100350000E08070304010000000000000000000078
:10036000000000000000000000000000000000008D
:10037000000000001211100000000000000000004A
:100380000000000000000000000000000000EF1B63
:10039000EB1B11241FBECFEFD1E2DEBFCDBF00E0CB
:1003A0000CBF14E0A0E0B2E0E6E8F9E400E00BBF27
:1003B00002C007900D92A631B107D9F725E0A6E15A
:1003C000B4E001C01D92A039B207E1F711E0C8EC1A
:1003D000D1E000E006C021970109802FFE010E94B4
:1003E0007B1FC73CD10780E00807A9F70E94B81C13
:1003F0000C94B1240C940000FC0183A10895FC012D
:1004000083810895FC01828108950B960895FC0173
:100410002481822F90E02C3008F00C970895FC0185
:10042000878190850895FC01648175818681089596
:10043000FC0163A3089508950895FC01628F089557
:100440006F5F7F4F660F771F860F971FFC018081BC
:1004500091810895FC01828D0895CF92DF92EF92F1
:10046000FF920F931F93CF93DF937C016A018B015F
:10047000C0E0D0E0CC15DD057CF4D8016D917D9114
:100480008D01D701ED91FC910084F185E02DAE0145
:10049000C70119952196EECFDF91CF911F910F9152
:1004A000FF90EF90DF90CF900895EF92FF920F931F
:1004B0001F93CF93DF93EC018A01E881F9810190CA
:1004C000F081E02D19957C01000F111FC00FD11F85
:1004D0008A819B81DC01ED91FC910680F781E02D02
:1004E00060E070E019958A819B81DC01ED91FC91BF
:1004F0000480F581E02DB701DF91CF911F910F911D
:10050000FF90EF901994EF92FF920F931F93CF9368
:10051000DF938C017B01C0E0D0E0CE15DF055CF4F9
:10052000D801ED91FC910480F581E02DBE01C80158
:1005300019952196F2CFDF91CF911F910F91FF90E6
:10054000EF900895AF92BF92CF92DF92EF92FF9219
:100550000F931F93CF93DF9361157105E9F0121686
:100560001306D4F479016C01EB018A01A12CB12CA2
:1005700069917991D601ED91FC910190F081E02D86
:10058000C6011995F801819391938F01FFEFAF1A7E
:10059000BF0AAE14BF0461F7DF91CF911F910F9195
:1005A000FF90EF90DF90CF90BF90AF900895CB0178
:1005B0000895C0960E94150F91E0811101C090E04E
:1005C000892F0895CF92DF92EF92FF920F931F939E
:1005D000CF93DF93EC017B0160E08E810E94831951
:1005E00000E010E08FE0C82ED12C61E00E151F0551
:1005F0009CF48C810E948319C6010197F1F760E099
:100600008C810E94831961E070E080E090E00E949C
:10061000001A0F5F1F4FE9CF8E810E948319F98660
:10062000E886DF91CF911F910F91FF90EF90DF90BF
:10063000CF9008950C941F204F925F927F928F92DB
:100640009F92AF92BF92CF92DF92EF92FF920F9361
:100650001F93CF93DF9300D000D0CDB7DEB78C01CE
:10066000CB018DB69EB6690161E0C61AD108E0E003
:10067000F0E060E070E0A1EDB7E05D01A21AB30A1E
:10068000EA15FB050CF05EC0DC01AE0FBF1FDD9666
:100690003C91DA01A60FB71F2C9132134DC06F5F4A
:1006A0007F4F6C157D0509F04BC09F012F5F3F4FB9
:1006B000B901412C512C603DA7E07A074CF572013D
:1006C000EE0EFF1EE80EF91ED701DE967C90D201D9
:1006D00011967D01BCE37B1217C0CDB6DEB6EDB737
:1006E000FEB7EE19FF090FB6F894FEBF0FBEEDBFBF
:1006F0006DB77EB76F5F7F4F235C3F4F820F931FB5
:10070000FB01460E571E06C027016F5F7F4FD3CFF8
:10071000B60116C0E415F50529F0DC012D91CD01D7
:100720002193F8CF1082C8010E94FF1A0FB6F894E7
:10073000DEBE0FBECDBE23C0E61BF70B60E070E04F
:1007400031969ECF6FEA73E0CE0101960E94FF1AA8
:1007500089819A81F801918380838B819C81938325
:1007600082838D819E81958384831A8219821C8263
:100770001B821E821D82CE0101960E94FA1AC801B8
:100780000FB6F8949EBE0FBE8DBE26960FB6F89497
:10079000DEBF0FBECDBFDF91CF911F910F91FF90B4
:1007A000EF90DF90CF90BF90AF909F908F907F9011
:1007B0005F904F9008950F931F93CF93DF93CDB722
:1007C000DEB7AB970FB6F894DEBF0FBECDBF8C017E
:1007D00085E2E8E6F3E0DE01119601900D928A953C
:1007E000E1F725E230E0AE014F5F5F4FB801CE0187
:1007F00086960E941C036FEA73E0CE0186960E94E3
:100800009B1A81111BC064EA73E0CE0186960E9498
:100810009B1A882321F081E0F80183A30AC066E6D1
:1008200073E0CE0186960E949B1A882311F0F8018E
:1008300013A281E0F801828311E004C081E0F80195
:10084000838310E0CE0186960E94FA1A812FAB9620
:100850000FB6F894DEBF0FBECDBFDF91CF911F91D1
:100860000F9108952F923F924F925F926F927F92D5
:100870008F929F92AF92BF92CF92DF92EF92FF92B0
:100880000F931F93CF93DF93CDB7DEB7A6970FB625
:10089000F894DEBF0FBECDBF7C012DB73EB73CA3A1
:1008A0002BA36C0134E2C30ED11C8091750481111D
:1008B0002AC010925D0410925C0488EE93E0A0E0E0
:1008C000B0E080935E0490935F04A0936004B093C3
:1008D000610484E493E090935B0480935A048EE96E
:1008E00092E0909369048093680410926A041092D5
:1008F0006B0410926C0410926D0484E08093720477
:1009000081E08093750487E194E0909331058093B2
:1009100030056CE271E080E090E00E94001A1FB7A1
:10092000F89480911604811124C0E1EFF2E08491E3
:10093000E7E3F3E0249190E0880F991F8E559D4FD7
:10094000FC01A591B491EC91E22321F461E085E3EF
:100950000E94831985E30E942C098CB580618CBDAF
:100960008CB580648CBD84E30E942C0983E30E94D3
:100970002C09809116048F5F809316041FBF249A60
:1009800080E590E00E94111060E880E090E00E9415
:10099000861565E58BE190E00E94861565E58AE1A4
:1009A00090E00E9486150E94101080E090E49093E1
:1009B0007E0480937D0480E090E69093860480938B
:1009C000850480E098E49093800480937F0480E025
:1009D00098E6909388048093870480E090E5909354
:1009E00082048093810480E090E790938A0480934E
:1009F000890480E098E5909384048093830480E0E8
:100A000098E790938C0480938B0480E590E00E949B
:100A1000111046E050E0B60189E090E00E945715C1
:100A20008EE992E09A8389831B821C821D821E823A
:100A300044E050E0BE016D5F7F4F8FE090E00E9488
:100A400057150E9410100091300510913105D80102
:100A500092961D921D921D921C929597F80116A2D6
:100A600017A210A611A69A961D921D921D921C9275
:100A70009D9780E69AEEA0E0B0E086AB97ABA0AF82
:100A8000B1AF80EA9FE0A0E0B0E082AF93AFA4AF47
:100A9000B5AFD801189686E0FD01282F11922A954E
:100AA000E9F79801225F3F4F94E1F90111929A957D
:100AB000E9F7F60101900D928A95E1F74801F2E419
:100AC0008F0E911CD4011C920E94C71E2FEC37E0A0
:100AD00040E050E00E94181FDC01CB010196A11DEF
:100AE000B11DF80184839583A683B78380839183A6
:100AF000A283B3835801F3E4AF0EB11CC5010E9479
:100B00007B1764E470E0C5010E949017882309F404
:100B1000DDC20E943A1A2B013C01212C312CD12C30
:100B200042E0C42ED4018C91833009F405C18111B7
:100B300021C0F80184819581A681B7810196A11D0C
:100B4000B11D84839583A683B7830E943A1A6419E2
:100B500075098609970928EE33E040E050E00E94CD
:100B60004A1FA90161E0C8010E94751881E0D40103
:100B70008C93C4C0843001F5F80184819581A681ED
:100B8000B7810196A11DB11D84839583A683B78388
:100B90000E943A1A641975098609970928EE33E00C
:100BA00040E050E00E944A1FA90163E0C8010E9492
:100BB0007518D401CC92A2C0813061F5F80142AD24
:100BC00053AD64AD75AD9E012F5F3F4FC8010E94CC
:100BD000D40CD82EF2E08F1391C089819A81AB8119
:100BE000BC81F80184839583A683B7830E943A1A57
:100BF000641975098609970928EE33E040E050E052
:100C00000E944A1FA90163E0C8010E947518D4011F
:100C1000DC927AC0823009F071C0F80142AD53AD68
:100C200064AD75AD9E012F5F3F4FC8010E94D40C8B
:100C3000D82EF5E08F135CC0E3E0D401EC93F8010B
:100C400082A193A1A4A1B5A1892B8A2B8B2B41F45E
:100C500084E893E0A0E0B0E082A393A3A4A3B5A3AB
:100C6000F80186A197A1A0A5B1A5892B8A2B8B2B72
:100C700061F482A193A1A4A1B5A1B695A79597957A
:100C8000879586A397A3A0A7B1A7F80182A593A5EE
:100C9000A4A5B5A5892B8A2B8B2BA9F482A193A19E
:100CA000A4A1B5A1AC01BD0123E076956795579548
:100CB00047952A95D1F7841B950BA60BB70B82A7F6
:100CC00093A7A4A7B5A7F80186A197A1A0A5B1A550
:100CD00086A797A7A0ABB1AB82A593A5A4A5B5A500
:100CE00082AB93ABA4ABB5AB22242394312C0CC0C4
:100CF000F6E08F1303C0D4011C9206C0BFEFDB12D5
:100D000003C0F4011082D12CF1E02F16310409F454
:100D100009CF0E943A1ADC01CB0184199509A60972
:100D2000B709F80126A937A940AD51AD28173907F1
:100D30004A075B0708F0F6CEC5010E947B17F80151
:100D400084819581A681B7810196A11DB11D8483FF
:100D50009583A683B7830E943A1AF801FE966083B2
:100D60007183828393832A94232809F0AFC180E59D
:100D700090E00E9411106091300570913105625F22
:100D80007F4FCE0101960E94B31444E050E0BE01B3
:100D90006D5F7F4F8FE090E00E94571560913005A6
:100DA000709131056A5E7F4FCE0101960E94B314A7
:100DB00044E050E0BE016D5F7F4F81E090E00E9413
:100DC000571560913005709131056E5E7F4FCE01F1
:100DD00001960E94B31444E050E0BE016D5F7F4F66
:100DE00085E090E00E9457150E9410106091300538
:100DF00070913105625E7F4FCE0101960E94B3145F
:100E00008B819C81AD81BE8180932C0590932D05B3
:100E1000A0932E05B0932F05D70118961C921E9211
:100E20001797CDB6DEB69E960D911C919F97C8017F
:100E30000196EDB7FEB7E81BF90B0FB6F894FEBFAD
:100E40000FBEEDBF2DB73EB72F5F3F4F5901892B26
:100E5000A1F02115310589F00115110519F4D90109
:100E60001C920BC0F70162A573A5A801C9010E94DD
:100E7000CB21F501E00FF11F10828701005D1F4FAC
:100E800040E550E0B501C8010E94830F019769F564
:100E90006DE873E08DE894E00E94D71B67E973E08A
:100EA000C8010E94D71B66EA73E0C8010E94791B43
:100EB000D7019E964D915C919F979A966D917C91EA
:100EC0009B97C8010E945A106DEA73E0C8010E9406
:100ED000791B60EB73E0C8010E94D71B6DEA73E0D9
:100EE000C8010E94791B81E001C080E00FB6F89430
:100EF000DEBE0FBECDBE882309F4E4C06701BDE3AA
:100F0000CB0ED11CC8010E947A0F892B41F0C80179
:100F10000E94600FF60181936F011082F3CFD70119
:100F2000ED91FC91008CF18DE02DC701199588237E
:100F300009F4C8C0F70183A1882309F4C3C057018D
:100F4000FBE0AF0EB11C01E010E082EC882E83E0E4
:100F5000982ECDB6DEB60A3011051CF027E130E040
:100F600002C026E130E08DB79EB7821B930B0FB60F
:100F7000F8949EBF0FBE8DBFADB7BEB711963D01B1
:100F80001F930F939F928F927F92AF932DA33EA3B7
:100F90000E94DA212DA13EA1A301B701CE01019645
:100FA0000E941C036FEA73E0CE0101960E949B1A17
:100FB0000F900F900F900F900F900F90811118C00D
:100FC000CE0101960E94901AF501619371935F0121
:100FD000CE0101960E94FA1A0FB6F894DEBE0FBE3B
:100FE000CDBE0F5F1F4F0D30110509F0B2CF0AC003
:100FF000CE0101960E94FA1A0FB6F894DEBE0FBE1B
:10100000CDBE60C086E1E9EDF3E0DE01119601900E
:101010000D928A95E1F726E130E0AE014F5F5F4F18
:10102000B701CE014D960E941C036FEA73E0CE011A
:101030004D960E949B1A811141C022E030E040E0B1
:1010400050E0BE01635E7F4FCE0147960E94141BA5
:10105000CE0147960E94901AD70114966C93CE0148
:1010600047960E94FA1A25E030E043E050E0BE01C6
:10107000635E7F4FCE0147960E94141BCE014796B8
:101080000E94901AF7016583CE0147960E94FA1AD2
:1010900028E030E046E050E0BE01635E7F4FCE01C5
:1010A00047960E94141BCE0147960E94901AD701C2
:1010B00016966C93CE0147960E94FA1ACE014D9671
:1010C0000E94FA1A81E0F701838311C0F70187813A
:1010D00090850196908787830A9749F481E0D7012C
:1010E00013968C93139718961C921E9217972BA108
:1010F0003CA10FB6F8943EBF0FBE2DBFA6960FB60B
:10110000F894DEBF0FBECDBFDF91CF911F910F913D
:10111000FF90EF90DF90CF90BF90AF909F908F9017
:101120007F906F905F904F903F902F900895CF9257
:10113000DF92EF92FF920F931F93CF93DF93EB0118
:10114000CC0FDD1FC80FD91F0A811B81D80114964F
:10115000CD90DC901597C6010E94101FB0E88B9FC0
:1011600070011124C60101960E94101FE82AF8019F
:10117000F186E0860190F081E02D0680F781E02D78
:1011800061E070E0C80119958A819B81DC01ED91D5
:10119000FC91119718966D917C9119970480F581B7
:1011A000E02D1995EA81FB811286DF91CF911F9185
:1011B0000F91FF90EF90DF90CF90089508950F93D7
:1011C0001F93CF93DF93EC018B018AE392E0998325
:1011D00088831A821B8218861F828FEF9FEF9A875F
:1011E00089871BA2CE018A961BA61AA61DA61CA63D
:1011F0001FA61EA68417950751F0FA016081718120
:101200006115710521F0448155810E94BA1A1BAA0B
:101210001AAA88EE93E0A0E0B0E08CAB9DABAEAB39
:10122000BFAB86E192E099AB88AB84E08CAFF8016C
:1012300080818CA381818DA382818EA383818FA3E2
:10124000848188A7858189A71C821D821E82DF91E7
:10125000CF911F910F91089590E0FC01EE5FFC4F3C
:101260002491FC01E454FD4F8491882399F090E08F
:10127000880F991FFC01EE55FD4FA591B491FC011B
:10128000E857FD4F859194918FB7F894EC91E22B3C
:10129000EC938FBF0895CF93C82F462F61E070E085
:1012A0000E94BD1761E070E08C2F0E94C71781116A
:1012B000F9CFCF9108959F92AF92BF92CF92DF92D4
:1012C000EF92FF920F931F93CF93DF93982E8B0192
:1012D0005A01690164E270E00E94C717E82EF12C00
:1012E00065E270E0892D0E94C717FE2CEE24E82AE3
:1012F000E701C00FD11F9E013770E92CF12CC70107
:10130000880F991FAC0143585B4F7A01FA01808125
:101310009181820F931FA9014C0D5D1D41305840F2
:1013200090F000E018E0021B130BA801B5010E9429
:101330005715A601401B510BB501600F711FF70136
:101340008081918102C0A601B5010E945715CC0D84
:10135000DD1D4D2F64E270E0892D0E94BD174C2FDA
:1013600065E270E0892DDF91CF911F910F91FF9081
:10137000EF90DF90CF90BF90AF909F900C94BD17EF
:10138000FF920F931F93CF93DF93F82EC0E0D0E02E
:101390008F2D0E94C1158C01892B21F08F2D0E9469
:1013A000C115EC01C017D10799F7CE01DF91CF919C
:1013B0001F910F91FF9008958F929F92AF92BF92CD
:1013C000CF92DF92EF92FF920F931F93CF93DF9311
:1013D000B82E4B018A01A22E68E270E00E94C71766
:1013E000C82FD0E069E270E08B2D0E94C717DC2F78
:1013F000CC27C82B9E013770CB2CD12CC601880F6F
:10140000991FAC014B575B4F6A01FA0180819181B2
:10141000820F931FA801420F531F4130584098F08C
:1014200060E078E07B01E21AF30AA701B4010E94B0
:101430002715A8014E195F09B4016E0D7F1DF60135
:101440008081918102C0A801B4010E942715A110DA
:101450000EC0C00FD11F4D2F68E270E08B2D0E948F
:10146000BD174C2F69E270E08B2D0E94BD17DF91F4
:10147000CF911F910F91FF90EF90DF90CF90BF9091
:10148000AF909F908F9008952F923F924F925F92CE
:101490006F927F928F929F92AF92BF92CF92DF9284
:1014A000EF92FF920F931F93CF93DF93CDB7DEB7E9
:1014B00065970FB6F894DEBF0FBECDBF7C016B0100
:1014C0003A01FB0120E080E090E06AE031913323B3
:1014D00009F140ED430F4A3080F4689FA001699FF5
:1014E000500D1124CA01C097830F911D37FD9A95A5
:1014F0008F3F910559F350F313C03E3289F42330E6
:1015000079F0D301A20FB11D12968C932F5F80E06A
:1015100090E0DCCF233021F4F301858381E021C00A
:10152000F7014281538164817581809142059091D8
:101530004305A0914405B0914505481759076A072E
:101540007B0709F49EC10E943A1A8701085F1F4F6A
:101550006F7077277C5FC8010E949017813019F067
:1015600080E090E0F3C18EE992E09A838983F701ED
:1015700082819381A481B5818B839C83AD83BE835B
:1015800045E350E0BE016F5F7F4FC8010E94C8165F
:10159000892B19F4C12CD12C6FC10E943A1AF70182
:1015A000778366837627672776277A83698342E085
:1015B00050E0BE016F5F7F4FC8010E94901681E02E
:1015C00090E09E878D8742E050E0BE01635F7F4FD1
:1015D000C8010E94901680E091E09E878D8742E0CE
:1015E00050E0BE01635F7F4FC8010E9490161E86C7
:1015F0001D8642E050E0BE01635F7F4FC8010E943C
:10160000901642E050E0BE01635F7F4FC8010E9428
:10161000901642E050E0BE01635F7F4FC8010E9418
:1016200090165601F5018081882311F1F6015F01C2
:101630008191811115C045018C189D081814190459
:1016400094F48F8641E050E0BE01615F7F4FC80196
:101650000E949016A401B601C8010E94901603C012
:101660008E3229F7E8CF6501FFEFCF1ADF0ADACF14
:101670001F8641E050E0BE01615F7F4FC8010E94BC
:101680009016C12CDD24D394DE86CD8642E050E056
:10169000BE01635F7F4FC8010E949016DE86CD8633
:1016A00042E050E0BE01635F7F4FC8010E94901688
:1016B000C8010E94ED17892B09F46CCF63E0A62EB8
:1016C000B12CF2E06F0E711C0E943A1A1B012C0122
:1016D000C8010E94371618161906A4F00E943A1A7B
:1016E000DC01CB0182199309A409B509893893411A
:1016F000A105B105D0F462E370E080E090E00E94C3
:10170000001AE6CFF7014281538164817581808D93
:10171000918DA28DB38D481759076A077B0741F455
:10172000848D958DC59721F406C02FEF3FEF9AC0A9
:101730002EEF3FEF97C0F70181A192A10C970CF417
:10174000A6C04CE050E0BE016F5F7F4FC8010E9411
:1017500052128B8190E0982F88272C81822B9A8BB4
:10176000898B298130E0322F22274A81242BF701EF
:10177000468157814217530709F086C097FF84C0FE
:101780008F709270892B09F0DEC0CF80D12CDC2CB9
:10179000CC248885C82AC114D10409F4D1C0812C75
:1017A000912C8D8190E0982F88272E81822B88168E
:1017B000990608F46FC0812C912C41E050E0BE01E5
:1017C0006D5E7F4FC8010E9452128B89982F907CCA
:1017D00009F093C0811186C08B898111EECF42E060
:1017E00050E0BE01615F7F4FC8010E94521242E08B
:1017F00050E0BE01635F7F4FC8010E945212C801D2
:101800000E940E16C8010E940E16C8010E940E16F4
:10181000C8010E940E1642E050E0BE016F5E7F4F8D
:10182000C8010E9452128F8598898115914009F054
:1018300069C02D853E853227232732272130310587
:1018400009F060C089899A898115944009F075C0B2
:1018500044E050E0B301C8012C8B3D8B0E94521232
:101860002C893D896901F1E0AF1AB10829F02FEF09
:10187000C216D20609F428CFC8010E947B17C60100
:1018800065C08EEF9FEF62C02CEF3FEFEBCF2DEFE7
:101890003FEFE8CF41E050E0BE01635F7F4FC801FA
:1018A0000E9452128D85811113C08D858111F2CF56
:1018B000C8010E940E16C8010E940E16C8010E949F
:1018C0000E16C8010E940E16FFEF8F1A9F0A69CFED
:1018D0008D859FEF980F9D87882339F3C8010E945B
:1018E0000E16F6CF8B899FEF980F9B8B882309F4F8
:1018F00073CFC8010E940E16F5CFC8010E940E16C4
:101900001B8A6ACF412C512C89899A89982789276B
:1019100098274816590638F4C8010E940E168FEF12
:10192000481A580AF1CFEFEF8E1A9E0A8C149D04C4
:1019300009F043CF26EF3FEF95CF27EF3FEF92CF50
:101940002AEF3FEF8FCF2BEF3FEF8CCF65960FB68F
:10195000F894DEBF0FBECDBFDF91CF911F910F91E5
:10196000FF90EF90DF90CF90BF90AF909F908F90BF
:101970007F906F905F904F903F902F90089580E3FD
:10198000FB0180833296842F82958F7090E1899F2E
:10199000401911244A3014F4405D01C0495C42935F
:1019A000482F8111F0CF08952F923F924F925F926E
:1019B0006F927F928F929F92AF92BF92CF92DF925F
:1019C000EF92FF920F931F93CF93DF93CDB7DEB7C4
:1019D000E3970FB6F894DEBF0FBECDBF7C011A01AE
:1019E0002B0139010E943A1A4B015C0187010D5B02
:1019F0001F4FC8010E94371618161906A4F00E943E
:101A00003A1ADC01CB0188199909AA09BB092816E1
:101A100039064A065B06D8F062E370E080E090E0A9
:101A20000E94001AE6CF42E250E0BE016F5F7F4F96
:101A3000C8010E9452128981823011F080E061C198
:101A4000F8018489958983349105C1F702C08FEF2D
:101A500058C16D817E818F8198850E94831F4B01C3
:101A60005C01F301608371838283938346E050E0DD
:101A7000B701685F7F4FCE014D960E94A521892B4B
:101A8000E9F6F70180819181A281B38188169906D8
:101A9000AA06BB0698F284819581A681B781881534
:101AA0009905AA05BB0550F289899A89AB89BC8939
:101AB00086879787A08BB18B8EECA82EB12CC8019E
:101AC0000E940E16F1E0AF1AB108C9F719A6670116
:101AD00082E2C80ED11CF701B696FBA7EAA7C701A0
:101AE0008A969DA78CA73C974F0189969FA78EA7A2
:101AF0003897F9ABE8AB1701F6E12F0E311CC5970B
:101B00009BAB8AABF801818D928D181619060CF0EB
:101B1000F7C0C8010E940E168333910509F4CBC0AB
:101B2000FCF481309105C9F11CF4892B59F3DCC018
:101B300083309105D1F1069709F0D6C0C8010E9403
:101B40000E165C0144E050E06AA97BA9C8010E941E
:101B50005212412C512CBB24F4E0AF1AB10840C002
:101B60008A33910509F47BC03CF48533910569F013
:101B7000C69709F440C0B8C08B33910509F485C0FD
:101B80008F3F910509F4BECFAFC0C8010E940E1669
:101B9000C8010E940E1689A7B5CFC8010E940E1673
:101BA00044E050E068A979A93AC0C8010E940E1625
:101BB0005C0144E050E0B101C8010E945212412C86
:101BC000512CBB2494E0A91AB1084A145B040CF010
:101BD00099CFC8010E940E16EFEF4E1A5E0AF5CF9C
:101BE0004A145B040CF08ECFC8010E940E168FEFD2
:101BF000481A580AF5CFC8010E940E16B82EF701F0
:101C0000828D811110C0838D81110DC0848D811151
:101C10000AC0858D811107C044E050E0B401C801BD
:101C20000E9452126FCFEEA5FFA5408051806280C6
:101C30007380B401CE0183960E94B3148DA19EA13E
:101C4000AFA1B8A584159505A605B70529F3BB2056
:101C500009F458CFC8010E940E16BA94F8CFC801F3
:101C60000E940E1644E050E06AA57BA5C8010E94C0
:101C70005212F70166A177A180A591A50E94831F4A
:101C800066A377A380A791A73DCFC8010E940E1637
:101C900044E050E06CA57DA5C8010E945212F701F6
:101CA00062A573A584A595A50E94831F62A773A74B
:101CB00084A795A727CFC8010E940E1644E050E0E4
:101CC000B601C8010E945212F70162A173A184A15A
:101CD00095A10E94831F62A373A384A395A366A703
:101CE00077A780AB91AB0ECFC8010E940E16B82E1D
:101CF000BB2009F407CFC8010E940E16BA94F8CF92
:101D000089A5E3960FB6F894DEBF0FBECDBFDF9175
:101D1000CF911F910F91FF90EF90DF90CF90BF90E8
:101D2000AF909F908F907F906F905F904F903F907B
:101D30002F900895FC019485FB018485981303C0BE
:101D400081E0943009F480E0089521E0FC0184856D
:101D5000843009F420E0822F08950895CF93DF9313
:101D60001F92CDB7DEB76983DC01ED91FC91028053
:101D7000F381E02D41E050E0BE016F5F7F4F199588
:101D80000F90DF91CF910895DC01ED91FC91048CCF
:101D9000F58DE02D199591E089270895862F0895F6
:101DA00081E08627089583B7662311F0816001C022
:101DB0008E7F83BF0895FC0164830895FC018481B4
:101DC00090E00895FC01828193810895DC01ED91FA
:101DD000FC910484F585E02D61E0199588950895BE
:101DE00044EC450390011124261B3109205F314F3B
:101DF00037FF02C0295F3F4F43E0359527954A954D
:101E0000E1F7FC01338322830895FC0122813381B1
:101E100021503109338322830895FC018485843065
:101E200011F00C94401380E00895CF93DF93FC01F0
:101E300024852430D1F0EC010E940D0F843181F013
:101E4000882371F0883161F08C3161F4E881F98187
:101E50000480F581E02DCE01199521E0892B19F43C
:101E600020E001C021E0822F01C080E0DF91CF910E
:101E700008950F931F93CF93DF931F92CDB7DEB7D3
:101E80008C01DC01ED91FC910480F581E02D199528
:101E9000892B51F0BE016F5F7F4FF80184850E944E
:101EA000A411898190E002C08FEF9FEF0F90DF9126
:101EB000CF911F910F910895FC0184850C94FF111F
:101EC000CF93DF931F92CDB7DEB741E050E0BE0164
:101ED0006F5F7F4FFC0184850E94FF111816190661
:101EE0001CF4898190E002C08FEF9FEF0F90DF918B
:101EF000CF910895FC018485843011F00C94DD119C
:101F000080E090E00895CF92DF92EF92FF920F93DE
:101F10001F93CF93DF93CDB7DEB7AF970FB6F8948B
:101F2000DEBF0FBECDBF7C016A010EE912E01A834D
:101F300009831C861B8688EE93E0A0E0B0E08D87C5
:101F40009E87AF87B88B84E493E09A878987188F40
:101F50000F8B198E1A8E1B8E1C8E84E089A31DA3F5
:101F60000CA31EA21FA218A619A680912C05909161
:101F70002D05A0912E05B0912F058CA79DA7AEA78A
:101F8000BFA78B839C83AD83BE8318861F82AE015F
:101F90004C5D5F4FCE0101960E94440A813091054D
:101FA000B1F4D701ED91FC910484F585E02D1BA7D8
:101FB0000AA78EA19FA1A8A5B9A58CA79DA7AEA78A
:101FC000BFA7A601BE01665D7F4FC7011995AF96F9
:101FD0000FB6F894DEBF0FBECDBFDF91CF911F913A
:101FE0000F91FF90EF90DF90CF900895672B11F441
:101FF00060E001C061E0FC0182810C948319CF9301
:10200000DF93C82FD62F472F60E170E00E94BD17E5
:102010004D2F61E170E08C2FDF91CF910C94BD17B3
:1020200008958CBD9DBD0895CF92DF92EF92FF92EF
:102030001F93CF93DF93FC011485143099F1EC01C9
:1020400080E590E00E94111068E070E0812F0E940E
:102050004B090E943A1A6B017C01CE010E940D0FC0
:102060008823B1F061E070E080E090E00E94001A07
:102070000E943A1ADC01CB018C199D09AE09BF09F7
:10208000883E9340A105B10540F38C850E947112F2
:10209000EC85F0E0EE0FFF1FE558FA4F1182108239
:1020A00084E08C87DF91CF911F91FF90EF90DF90BC
:1020B000CF9008958F929F92AF92BF92CF92DF926E
:1020C000EF92FF920F931F93CF936C015B017A0104
:1020D000FC01C485C43041F481E090E0F6019383B3
:1020E000828380E090E04EC08A014130584010F079
:1020F00000E018E080E590E00E9411108C2F0E9413
:10210000C0094C0163E070E08C2F0E94C717873133
:1021100011F08C3121F48016910660F302C000E0CA
:1021200010E080E590E00E9411109801A50160E0A8
:1021300070E08C2F0E945B0960E270E08C2F0E949F
:102140004B0962E070E08C2F0E94C71784FD10C01D
:1021500063E070E08C2F0E94C717811104C08C2FA0
:102160000E947112B9CF80E590E00E941110E9CF72
:1021700040E162E070E08C2F0E94BD17012B09F452
:10218000ABCFC701CF911F910F91FF90EF90DF90E0
:10219000CF90BF90AF909F908F900895CF92DF9295
:1021A000FF920F931F93CF93DF93FC01248524307C
:1021B00009F077C06A01EB018C01F12C8F2D0E9490
:1021C0004013811103C0F801F48607C08B7F88316A
:1021D000D1F3F394F4E0FF12F1CFF8018485843059
:1021E00009F45FC020910002309101022F5F3F4F40
:1021F00011F420E030EC3093010220930002409172
:1022000000025091010220E061E00E948512F80175
:10221000F4848A818F3F51F48B818F3F91F48C81BC
:102220008F3F79F48D818F3F61F438C0811109C0EF
:102230008B81811106C08C81811103C08D8188231F
:1022400069F1C114D10451F180E590E00E941110B0
:10225000BE016E5F7F4F8F2D90E0982F882744E05E
:1022600050E0845F9B4F0E945715B6018F2D0E944E
:10227000FF0F64E070E08F2D0E944B09C8010E949F
:102280000D0F873189F061E070E080E090E00E94FE
:10229000001AC8010E940D0F8111F0CF84E0F801EF
:1022A000848780E090E002C081E090E0DF91CF91F0
:1022B0001F910F91FF90DF90CF9008951F920F9282
:1022C0000FB60F9211240BB60F922F933F934F939B
:1022D0005F936F937F938F939F93AF93BF93EF938E
:1022E000FF9380916C0590916D05DC01ED91FC915F
:1022F0000284F385E02D61E0199580916C05909141
:102300006D05DC01ED91FC910484F585E02D60E024
:102310001995FF91EF91BF91AF919F918F917F910F
:102320006F915F914F913F912F910F900BBE0F9046
:102330000FBE0F901F90189508958EBD00000DB42C
:1023400007FEFDCF8EB508951F93CF93DF931F92A5
:102350001F92CDB7DEB7182F80E590E069837A83AE
:102360000E94111021E041E050E069817A81812FC3
:102370000E94DC090E94101081E090E00F900F9005
:10238000DF91CF911F910895CF93DF931F92CDB727
:10239000DEB7FC01218D328D232B49F0BE016F5F2A
:1023A0007F4F808D0E94A411898190E002C08FEF41
:1023B0009FEF0F90DF91CF910895FF920F931F939E
:1023C000CF93DF93F82E80E590E00E941110C0E0DB
:1023D000D0E08F2D0E94A9158C01892B21F08F2D23
:1023E0000E94A915EC01C017D10799F70E9410109F
:1023F000CE01DF91CF911F910F91FF900895AF9281
:10240000BF92CF92DF92EF92FF921F93CF93DF9311
:10241000182F5B017A0180E590E00E941110C0E066
:10242000D0E0812F0E94A9156C01892B21F0812F0A
:102430000E94A915EC01CC15DD0599F7209799F4B8
:1024400063E070E0812F0E94C7178431F1F0882388
:10245000E1F0C1E0D0E08C3111F4C0E0D0E0D195E2
:10246000C195D10912C0EC16FD060CF4E7011C164B
:102470001D065CF420E0AE01B501812F0E94DC094D
:1024800060E470E0812F0E944B090E941010CE0181
:10249000DF91CF911F91FF90EF90DF90CF90BF9091
:1024A000AF900895CF93DF93FC01218D328D2115DC
:1024B000310519F48FEF9FEF11C0EC01421753075C
:1024C00008F0A901888D0E94FF111816190694F7CB
:1024D000298D3A8D281B390B3A8F298FDF91CF91A7
:1024E0000895CF93C82F80E590E00E94111060E11D
:1024F00070E08C2F0E944B094FEF62E070E08C2F50
:102500000E94BD17CF910C941010FF920F931F9350
:10251000CF93DF931F921F92CDB7DEB7F82E8A01BB
:102520002A8369830E94711280E590E00E94111055
:102530002A816981462F422B60E070E08F2D0E9436
:10254000BD170115110551F400916A0510916B0535
:102550000F5F1F4F10936B0500936A05412F64E0D6
:1025600070E08F2D0E94BD17402F65E070E08F2D29
:102570000E94BD1761E070E08F2D0E944B090E9400
:10258000101081E00F900F90DF91CF911F910F916C
:10259000FF900895BF92CF92DF92EF92FF920F9338
:1025A0001F93CF93DF9300D000D0CDB7DEB7FC01EF
:1025B000208D243009F053C06A017B018C01B12CBD
:1025C00063E070E08B2D0E94C717811103C0F801F2
:1025D000B08E06C08831D9F3B394F4E0BF12F0CFC7
:1025E000F801808D8430D9F196E0EEEEF2E0DE0164
:1025F000119601900D929A95E1F7F70193819F77DB
:102600009C8394819D8395819E83B7016E5F7F4FEC
:1026100090E0982F882744E050E0845F9B4F0E9411
:102620005715B601F801808D0E94FF0FF801808DCB
:1026300090E0982F882746E050E0BE016F5F7F4F03
:102640008A5F9B4F0E945715F801128E118E20E869
:10265000A60162E0808D0E94851281E001C080E0C9
:1026600026960FB6F894DEBF0FBECDBFDF91CF9197
:102670001F910F91FF90EF90DF90CF90BF90089542
:102680001F93CF93DF931F92CDB7DEB7182F80E54E
:1026900090E00E94111063E070E0812F0E94C71744
:1026A00089830E94101089810F90DF91CF911F9133
:1026B0000895089580E090E00895FC01538D448DC5
:1026C000252F30E0842F90E0821B930B541710F0DD
:1026D000CF96089501970895FC01918D828D9817EA
:1026E00061F0828DDF01A80FB11D5D968C91928DF6
:1026F0009F5F9F73928F90E008958FEF9FEF0895F3
:10270000FC01918D828D981731F0828DE80FF11DBB
:10271000858D90E008958FEF9FEF0895FC01918DD6
:10272000228D892F90E0805C9F4F821B91098F73CF
:10273000992708958DE894E00E948E1321E0892B5B
:1027400009F420E0822F0895FC01848DDF01A80F99
:10275000B11DA35ABF4F2C91848D90E001968F73C9
:102760009927848FA689B7892C93A089B1898C91E8
:1027700080648C93938D848D981306C00288F389AE
:10278000E02D80818F7D80830895EF92FF920F93DB
:102790001F93CF93DF93EC0181E0888F9B8D8C8D0D
:1027A000981305C0E889F989808185FD24C0F62E3B
:1027B0000B8D10E00F5F1F4F0F731127E02E8C8DD4
:1027C000E8120CC00FB607FCFACFE889F9898081BE
:1027D00085FFF5CFCE010E94A413F1CF8B8DFE01B2
:1027E000E80FF11DE35AFF4FF0820B8FEA89FB8956
:1027F0008081806207C0EE89FF896083E889F9895A
:1028000080818064808381E090E0DF91CF911F918F
:102810000F91FF90EF900895CF93DF93EC01888D97
:102820008823C9F0EA89FB89808185FD05C0A889D4
:10283000B9898C9186FD0FC00FB607FCF5CF80815A
:1028400085FFF2CFA889B9898C9185FFEDCFCE01A4
:102850000E94A413E7CFDF91CF91089580E090E02C
:10286000892B21F00E949A13811125C080E090E00D
:10287000892B41F080E090E0892B21F00E9400003C
:1028800081111CC080E090E0892B41F080E090E055
:10289000892B21F00E940000811113C080E090E09C
:1028A000892BA1F080E090E0892B81F00E9400004C
:1028B00081110AC008950E940000D8CF0E94000034
:1028C000E1CF0E940000EACF0C94000008958F929F
:1028D0009F92AF92BF92CF92DF92EF92FF920F93AF
:1028E0001F93CF93DF937C01EB016C0182E0C80E54
:1028F000D11C4701E5E08E0E911C00E010E0F601CE
:1029000041916F0150E060E070E02AE0CE010E944A
:102910008E1B5C01E881F9810190F081E02D6EE26F
:10292000CE0119958A0D9B1D080F191FC814D904D3
:1029300031F7F701458150E060E070E02AE0CE0118
:102940000E948E1B800F911FDF91CF911F910F91DD
:10295000FF90EF90DF90CF90BF90AF909F908F90BF
:1029600008950E94A0212EE932E0FC0131832083EA
:10297000FB014081518162817381FC014283538359
:102980006483758308951F920F920FB60F921124DE
:102990000BB60F922F933F934F935F936F937F9359
:1029A0008F939F93AF93BF93EF93FF938DE894E042
:1029B0000E94A413FF91EF91BF91AF919F918F91CE
:1029C0007F916F915F914F913F912F910F900BBE2F
:1029D0000F900FBE0F901F9018951F920F920FB679
:1029E0000F9211240BB60F922F938F939F93EF9317
:1029F000FF93E0919D04F0919E048081E091A304F7
:102A0000F091A40482FD12C090818091A6048F5F92
:102A10008F732091A704821751F0E091A604F0E093
:102A2000E357FB4F958F8093A60401C08081FF91EF
:102A3000EF919F918F912F910F900BBE0F900FBE32
:102A40000F901F9018952C9A08952C980895CF9266
:102A5000DF92EF92FF920F931F93CF93DF93EC01DE
:102A60007A018B016C01C40ED51ECC15DD05A9F0D1
:102A70000E9425158FE00E949D118D2F0E949D11AF
:102A80008C2F0E949D11219680E00E949D11F801DB
:102A900081938F010E942315E8CFC701DF91CF9169
:102AA0001F910F91FF90EF90DF90CF900895CF92FC
:102AB000DF92EF92FF920F931F93CF93DF93EC017E
:102AC0007A018B016C01C40ED51ECC15DD05A1F079
:102AD0000E94251580EF0E949D118D2F0E949D114F
:102AE0008C2F0E949D112196F80181918F010E94E7
:102AF0009D110E942315E9CFC701DF91CF911F914E
:102B00000F91FF90EF90DF90CF9008951F93CF9398
:102B1000DF931F921F92CDB7DEB7182F6A83998378
:102B20000E94251580EF0E949D119981892F0E9496
:102B30009D11812F0E949D116A81862F0E949D11F7
:102B40000E94231581E00F900F90DF91CF911F918C
:102B500008951F93CF93DF93182F66E270E00E94D1
:102B6000C717C82FD0E067E270E0812F0E94C71717
:102B7000DC2FCC279E01282BC901DF91CF911F911B
:102B800008951F93CF93DF93182F60E270E00E94A7
:102B9000C717C82FD0E061E270E0812F0E94C717ED
:102BA000DC2FCC279E01282BC901DF91CF911F91EB
:102BB0000895CF93DF931F92CDB7DEB76983DC0111
:102BC000ED91FC910280F381E02D41E050E0BE01E7
:102BD0006F5F7F4F19950F90DF91CF910895FC01A2
:102BE000818D928D0895FC018489958908952EE93F
:102BF00032E0FC0131832083FB01408951896289E5
:102C00007389FC0142835383648375830895DC01D7
:102C1000ED91FC91008CF18DE02D19940F931F9391
:102C2000CF93DF931F92CDB7DEB7FC01218D328D9C
:102C3000232B61F08C0141E050E0BE016F5F7F4FBC
:102C4000808D0E94FF11181619061CF08FEF9FEF60
:102C500008C0F801818D928D0197928F818F8981B3
:102C600090E00F90DF91CF911F910F9108950F93F6
:102C70001F93CF93DF93CDB7DEB728970FB6F894A5
:102C8000DEBF0FBECDBF8C01F801818D928D892BE7
:102C900049F0D801ED91FC910680F781E02DC80143
:102CA0001995F2CF808D0E94DD11181619065CF57A
:102CB00048E050E0BE016F5F7F4FD80158968C917D
:102CC0000E94FF119C0118161906DCF489819A8173
:102CD000AB81BC81F801808B918BA28BB38B8D81F2
:102CE00090E0982F88272E81820F911D958B848BE1
:102CF0002F8130E0322F22278885280F311D328F17
:102D0000218FC90102C080E090E028960FB6F894A8
:102D1000DEBF0FBECDBFDF91CF911F910F91089500
:102D2000AF92BF92CF92DF92FF920F931F93CF93F8
:102D3000DF938C015B01EA01FC01C688D788F08C27
:102D400080E590E00E9411108F2D0E94C0098C1721
:102D50009D0720F48F2D0E94C009EC019E01A50162
:102D6000B6018F2D0E945B090E941010F801868920
:102D700097898C0F9D1F978B868BCE01DF91CF910A
:102D80001F910F91FF90DF90CF90BF90AF9008956B
:102D9000FF920F931F93CF93DF93FB01DC015796B4
:102DA0001C921E9256975896FC908281811109C000
:102DB0008381811106C08481811103C085818823AC
:102DC000F9F041155105E1F08A01EF0180E590E04D
:102DD0000E941110BE016E5F7F4F2F2D30E0922FA9
:102DE000882744E050E0845F9B4F0E945715B8014C
:102DF0008F2D0E94FF0F0E94101081E090E002C012
:102E000080E090E0DF91CF911F910F91FF900895A6
:102E1000CF92DF92EF92FF920F931F93CF93DF93A6
:102E2000CDB7DEB7AF970FB6F894DEBF0FBECDBFFC
:102E30007C016A010EE912E01A8309831C861B8655
:102E400088EE93E0A0E0B0E08D879E87AF87B88BD7
:102E500084E493E09A878987188F0F8B198E1A8ED6
:102E60001B8E1C8E84E089A31DA30CA31EA21FA28F
:102E700018A619A680912C0590912D05A0912E05DC
:102E8000B0912F058CA79DA7AEA7BFA78B839C836E
:102E9000AD83BE8318861F82AE014C5D5F4FCE01AD
:102EA00001960E94440A81309105B1F4D701ED9159
:102EB000FC910088F189E02D1BA70AA78EA19FA194
:102EC000A8A5B9A58CA79DA7AEA7BFA7A601BE01BF
:102ED000665D7F4FC7011995AF960FB6F894DEBFB8
:102EE0000FBECDBFDF91CF911F910F91FF90EF905B
:102EF000DF90CF900895CF93DF93EC01888D8430DD
:102F000061F00E947112E88DF0E0EE0FFF1FE558AE
:102F1000FA4F1182108284E0888FDF91CF9108955B
:102F2000EF92FF921F93CF93DF93FC01208D24300B
:102F300011F080E01CC07B01EC0110E0812F0E94A9
:102F40004013811102C0188F05C08831E1F31F5F63
:102F50001430A1F7888D843061F3FD86EC861A8EDB
:102F6000198E20E0A70162E00E94851281E0DF91C6
:102F7000CF911F91FF90EF9008959B0190E00496F0
:102F8000982F8827642F820F931F0C9486150F9318
:102F90001F93CF93DF931F92CDB7DEB790E00496D7
:102FA000982F88278C01060F171F0E9425158FE088
:102FB0000E949D11812F0E949D11802F0E949D11C2
:102FC00080E00E949D1189830E94231589810F90C2
:102FD000DF91CF911F910F910895CF93FC01C08D88
:102FE00080E590E00E94111060E270E08C2F0E945A
:102FF0004B0962E070E08C2F0E94C71784FD19C056
:1030000062E070E08C2F0E94C71783FF0BC048E17D
:1030100062E070E08C2F0E94BD170E94101080E0CB
:1030200090E011C00E94101080E590E00E94111005
:10303000E0CF40E162E070E08C2F0E94BD170E945B
:10304000101081E090E0CF9108953FB7F8948091FF
:10305000880590918905A0918A05B0918B0526B5C8
:10306000A89B05C02F3F19F00196A11DB11D3FBFC0
:10307000BA2FA92F982F8827820F911DA11DB11D4E
:10308000BC01CD0142E0660F771F881F991F4A954A
:10309000D1F70895CF92DF92EF92FF920F931F9393
:1030A000CF93DF936C017A018B01C0E0D0E0CE15A5
:1030B000DF0589F0D8016D918D01D601ED91FC916C
:1030C0000190F081E02DC6011995892B11F47E0144
:1030D00002C02196ECCFC701DF91CF911F910F91D4
:1030E000FF90EF90DF90CF9008957F928F929F9204
:1030F000AF92BF92CF92DF92EF92FF920F931F9306
:10310000CF93DF93CDB7DEB7A6970FB6F894DEBFA7
:103110000FBECDBF8C01762E942E852E20E2B22ECE
:10312000CE0101967C01FC012B2D11922A95E9F725
:103130008EE992E09AA389A38FEF8BA38CA38DA332
:103140008EA3680183E4C80ED11C43E450E0BE01A5
:103150006F5D7F4FC6010E94C816019609F4BFC07B
:1031600081E089838A8386E0A82EAB821C82F801E5
:1031700064817581868197810E94831F6D837E8320
:103180008F83988789869A8680E890E09C878B87D2
:103190004CE150E0B701C6010E949016F7012B2DBB
:1031A00011922A95E9F7480188E0880E911CF401F4
:1031B000D70101900D92AA94E1F740E150E0B701E8
:1031C000C6010E949016F7011192BA94E9F796E0B1
:1031D000A92EB12C40E250E0B701C6010E94901622
:1031E000F1E0AF1AB108B1F783E6898392E89A83D8
:1031F00093E59B838C8385E38D8381E08E837F823F
:103200009DE3988797E099878A8786E0F401DE013D
:103210001B9601900D928A95E1F78CE0898B8A8B41
:103220006EE074E0CE0143960E94C421F80143850C
:10323000BE01675E7F4FC8010E94BF0CF801448544
:10324000BE01655E7F4FC8010E94BF0CF801458535
:10325000BE01635E7F4FC8010E94BF0C4EE150E08B
:10326000B701C6010E949016F3E07F121EC082E3F0
:10327000898384E08A83F80196859B8397859C8364
:1032800090899D8391899E8396E39F838887828D11
:103290008987838D8A87848D8B87858D8C874CE089
:1032A00050E0B701C6010E94901687E3898386E04B
:1032B0008A8391E09B8393E09C838D838FE08E8350
:1032C0008AE38F838BE388878FEF898749E050E01B
:1032D000B701C6010E949016C6010E94ED17A6967E
:1032E0000FB6F894DEBF0FBECDBFDF91CF911F9117
:1032F0000F91FF90EF90DF90CF90BF90AF909F9095
:103300008F907F900895362F90E0FC01E85BFC4F92
:103310004491FC01EE5FFC4F2491FC01E454FD4F0D
:103320009491992309F46BC0442309F455C050E0EB
:10333000FA013197E231F10508F04EC08827EE58C6
:10334000FF4F8F4F0C947B1F809180008F7707C0B9
:10335000809180008F7D03C080918000877F809363
:1033600080003AC084B58F7702C084B58F7D84BD5C
:1033700033C08091B0008F7703C08091B0008F7D03
:103380008093B00029C0809190008F7707C0809112
:1033900090008F7D03C080919000877F8093900084
:1033A0001BC08091A0008F7707C08091A0008F7D07
:1033B00003C08091A000877F8093A0000DC0809102
:1033C00020018F7707C0809120018F7D03C08091FD
:1033D0002001877F80932001E92FF0E0EE0FFF1F8F
:1033E000E857FD4FA591B4918FB7F894EC91311146
:1033F00003C020952E2301C02E2B2C938FBF089540
:103400008F929F92AF92BF92CF92DF92EF92FF92F4
:103410006B017C010E9425184B015C01C114D10491
:10342000E104F104F1F00E942518DC01CB018819B8
:103430009909AA09BB09883E9340A105B10570F31B
:1034400021E0C21AD108E108F10888EE880E83E075
:10345000981EA11CB11CC114D104E104F10419F798
:10346000DDCFFF90EF90DF90CF90BF90AF909F9017
:103470008F9008952FB7F894609184057091850519
:1034800080918605909187052FBF08951F920F9216
:103490000FB60F9211242F933F938F939F93AF9367
:1034A000BF938091840590918505A0918605B09188
:1034B00087053091830523E0230F2D3720F40196F3
:1034C000A11DB11D05C026E8230F0296A11DB11D47
:1034D000209383058093840590938505A0938605AA
:1034E000B09387058091880590918905A0918A0500
:1034F000B0918B050196A11DB11D80938805909315
:103500008905A0938A05B0938B05BF91AF919F91D8
:103510008F913F912F910F900FBE0F901F90189594
:10352000FC0180819181009711F00C94D41E60E021
:1035300070E0CB010895FC0124813581232B31F407
:1035400021E061157105A1F0FB0108C0FC0180813B
:1035500091816115710531F421E0FC01808188239E
:1035600039F005C00E94BB2121E0892B09F020E041
:10357000822F0895EF92FF920F931F93CF93DF93C3
:10358000EC017B018A0188819981009729F02A81C9
:103590003B8124173507F8F4B8016F5F7F4F0E9415
:1035A000B720009759F0998388831B830A832C8165
:1035B0003D81232B81F4FC0110820DC0888199810B
:1035C000009711F00E941F20198218821D821C8210
:1035D0001B821A8207C01D830C83B70188819981E1
:1035E0000E94C421CE01DF91CF911F910F91FF90D6
:1035F000EF900895FC01808191810C941F20FC01C3
:103600001182108213821282158214826115710553
:1036100051F0FB0101900020E9F73197AF01461B03
:10362000570B0C94BA1A0895BF92CF92DF92EF9283
:10363000FF920F931F93CF93DF937C016B01EA01FD
:1036400089012417350720F48D2FE901042F182F45
:103650006FEA73E0C7010E94FF1AD60114968D919C
:103660009C911597C817D907C8F58017910708F4DA
:103670008C01D601ED91FC911197E00FF11FB08004
:1036800010824D915C91BA016C0F7D1F611571051F
:1036900061F0FB0101900020E9F73197AF01461B73
:1036A000570BC7010E94BA1A13C0F701808191819C
:1036B000009711F00E941F20D70111961C921E92B4
:1036C00015961C921E92149713961C921E92129796
:1036D000D601ED91FC91E00FF11FB082C701DF919F
:1036E000CF911F910F91FF90EF90DF90CF90BF90FF
:1036F00008956115710579F0FB0101900020E9F74B
:103700003197AF01461B570BDC01ED91FC91028014
:10371000F381E02D199480E090E008954F925F923C
:103720006F927F92EF92FF920F931F93CF93DF934D
:10373000CDB7DEB7A1970FB6F894DEBF0FBECDBFF1
:103740007C01FA01CB0119A2223008F42AE08E0193
:103750000F5D1F4F422E512C612C712CBF01A30114
:1037600092010E944A1FF901CA01015011096A30F1
:1037700014F4605D01C0695CD8016C93232B242B89
:10378000252B61F7B801C7010E94791BA1960FB6DE
:10379000F894DEBF0FBECDBFDF91CF911F910F9187
:1037A000FF90EF907F906F905F904F9008950F93F0
:1037B0001F93CF93DF93EC010E94791B8C016DEA7C
:1037C00073E0CE010E94791B800F911FDF91CF9192
:1037D0001F910F91089584E395E00C94FA1A0F93CA
:1037E0001F93CF93DF93CDB7DEB72C970FB6F89426
:1037F000DEBF0FBECDBFE0E4F5E08EE992E091833D
:1038000080831282138214821582E6E4F5E09183AC
:1038100080831282138214821582ECE4F5E0918396
:1038200080831282138214821582EDE8F4E0138201
:10383000128248EE53E060E070E044835583668373
:10384000778328E532E03183208325EC30E035872B
:10385000248724EC30E03787268720EC30E0318B5A
:10386000208B21EC30E0338B228B22EC30E0358B47
:10387000248B26EC30E0378B268B118E128E138E24
:10388000148EE2E5F5E09183808312821382148224
:103890001582E8E5F5E09183808312821382148219
:1038A0001582EEE5F5E09183808312821382148203
:1038B0001582EAE2F5E091838083128213821482FA
:1038C0001582E4E6F5E091838083128213821482EC
:1038D0001582EAE3F5E091838083128213821482D9
:1038E00015826FEE73E084E395E00E94FF1A86E094
:1038F000E6EAF2E0DE01179601900D928A95E1F773
:103900008BE090E00E948A1F8C0186E0FE013796D2
:10391000DE01119601900D928A95E1F7D80186E8B3
:1039200092E08D939D9386E0FE01319601900D9279
:103930008A95E1F7F80111861086128682810E942D
:103940002C09F80184810E942C09F80186810E94CB
:103950002C0910933305009332052C960FB6F8947A
:10396000DEBF0FBECDBFDF91CF911F910F910895A4
:10397000CF93DF93CDB7DEB7A4970FB6F894DEBF31
:103980000FBECDBF789484B5826084BD84B581605C
:1039900084BD85B5826085BD85B5816085BD80911A
:1039A0006E00816080936E00109281008091810092
:1039B000826080938100809181008160809381008A
:1039C000809180008160809380008091B10084604C
:1039D0008093B1008091B00081608093B0008091AD
:1039E000910082608093910080919100816080932A
:1039F0009100809190008160809390008091A1005F
:103A000082608093A1008091A10081608093A100D9
:103A10008091A00081608093A0008091210182604C
:103A20008093210180912101816080932101809107
:103A3000200181608093200180917A0084608093CE
:103A40007A0080917A00826080937A0080917A0077
:103A5000816080937A0080917A00806880937A00F8
:103A60001092C100E0919D04F0919E0482E0808359
:103A7000E0919904F0919A041082E0919B04F091F6
:103A80009C048FEC80831092A504E091A104F09136
:103A9000A20486E08083E0919F04F091A0048081DD
:103AA00080618083E0919F04F091A0048081886010
:103AB0008083E0919F04F091A004808180688083DE
:103AC000E0919F04F091A00480818F7D808386EA3D
:103AD000682E82E0782ECE0101966C017E0199E17C
:103AE000E90EF11C560196E0592E3E2C4F2C26E88B
:103AF000822E22E0922EF301DE015F96852D019049
:103B00000D928A95E1F78BE090E00E948A1F8C016C
:103B1000FE017F96A32DB42D852D01900D928A95DF
:103B2000E1F7D8018D929D92E32DF42D852D019022
:103B30000D928A95E1F7D80119961C921E9218975A
:103B40001A961C921A9712968C910E942C09F801D1
:103B500084810E942C09D80116968C910E942C0910
:103B6000F501019311935F01F6E06F0E711CAE1425
:103B7000BF0409F681E090E00E948A1F8C019093B7
:103B80007A05809379058DE190E00E948A1FFC01FF
:103B900088EF92E091838083128E148F038F9F01B0
:103BA0002E5F3F4FD6018D919D916D01D9018D936F
:103BB0009D939D01CE14DF04A9F7F0937805E0935F
:103BC000770518A21F8E1AA219A21CA21BA260912F
:103BD0003405709135056115710541F04091380546
:103BE00050913905CE014F960E94BA1A8DE098E0A7
:103BF0000E948A1F8C01AE01415E5F4F62E072E05D
:103C00000E94DF081093760500937505CE014F964C
:103C10000E94FA1A85E090E00E948A1F8C018EE0D3
:103C200093E0F801918380831382128214821093AF
:103C30006D0500936C05F89484B7877F84BF83B7C4
:103C4000846083BF88E18093600081E68093600098
:103C50007894109374050093730586E090E00E94B9
:103C60008A1FDC0112961D921D921D921C921597BF
:103C7000909372058093710588E090E00E948A1FFE
:103C8000FC01809175059091760520917705309122
:103C9000780511821082338322839583848317836E
:103CA0000683F0937005E0936F0510926E05809186
:103CB000320590913305DC01ED91FC910680F7818E
:103CC000E02D60E070E01995809132059091330508
:103CD000DC01ED91FC910480F581E02D62E370E060
:103CE000199568EE73E080E090E00E94001A0E944F
:103CF0002E14DDCF8F929F92AF92BF92CF92DF9220
:103D0000EF92FF92CF93DF93EC01688179818A81F2
:103D10009B81611571058105910521F464E279EDBE
:103D20008BE597E02DE133EF41E050E00E94181F52
:103D300049015A019B01AC01A7EAB1E40E94371F77
:103D40006B017C01ACEEB4EFA50194010E94451F0C
:103D5000DC01CB018C0D9D1DAE1DBF1DB7FF03C047
:103D60000197A109B04888839983AA83BB83BC01CA
:103D7000CD019F77DF91CF91FF90EF90DF90CF90B3
:103D8000BF90AF909F908F9008950C947A1E88E01A
:103D900092E00C947A1E609308027093090280935B
:103DA0000A0290930B0208951F93FC01992788271C
:103DB000BC01E89411911032E9F3193010F01E3073
:103DC000C8F31B3251F01D3249F4689406C00E94BA
:103DD000FB1E610F711D811D911D119110531A3031
:103DE000B0F33EF490958095709561957F4F8F4F1D
:103DF0009F4F1F910895592F482F372F262F660F59
:103E0000771F881F991F660F771F881F991F620FE2
:103E1000731F841F951F660F771F881F991F0895B2
:103E2000F999FECF92BD81BDF89A992780B5089582
:103E3000052E97FB1EF400940E942F1F57FD07D0FC
:103E40000E944A1F07FC03D04EF40C942F1F50957C
:103E50004095309521953F4F4F4F5F4F0895909576
:103E60008095709561957F4F8F4F9F4F08950E9469
:103E70006C1FA59F900DB49F900DA49F800D911D68
:103E800011240895B7FF0C94371F0E94371F821B1F
:103E9000930B0895A1E21A2EAA1BBB1BFD010DC0B6
:103EA000AA1FBB1FEE1FFF1FA217B307E407F507EA
:103EB00020F0A21BB30BE40BF50B661F771F881FC6
:103EC000991F1A9469F760957095809590959B015C
:103ED000AC01BD01CF010895A29FB001B39FC00105
:103EE000A39F700D811D1124911DB29F700D811D26
:103EF0001124911D0895EE0FFF1F881F8BBF07909F
:103F0000F691E02D19946927962769277827872746
:103F100078270895CF93DF938230910510F482E0E3
:103F200090E0E0918E05F0918F0520E030E0C0E058
:103F3000D0E0309711F14081518148175907C0F006
:103F40004817590761F482819381209719F09B8368
:103F50008A832BC090938F0580938E0526C02115F0
:103F6000310519F04217530718F49A01BE01DF0119
:103F7000EF010280F381E02DDCCF2115310509F13D
:103F8000281B390B2430310590F412968D919C91A9
:103F900013976115710521F0FB019383828304C09F
:103FA00090938F0580938E05FD01329644C0FD01EC
:103FB000E20FF31F81939193225031092D933C938B
:103FC0003AC020918C0530918D05232B41F420912E
:103FD0000E0230910F0230938D0520938C052091B5
:103FE0000C0230910D022115310541F42DB73EB779
:103FF0004091100250911102241B350BE0918C0569
:10400000F0918D05E217F307A0F42E1B3F0B281744
:10401000390778F0AC014E5F5F4F2417350748F041
:104020004E0F5F1F50938D0540938C0581939193A4
:1040300002C0E0E0F0E0CF01DF91CF9108950F934F
:104040001F93CF93DF93009709F48CC0FC01329744
:104050001382128200918E0510918F0501151105B2
:1040600081F420813181820F931F20918C05309142
:104070008D052817390779F5F0938D05E0938C05A8
:1040800071C0D80140E050E0AE17BF0750F412965F
:104090002D913C911397AD012115310509F1D901FD
:1040A000F3CF9D01DA013383228360817181860F12
:1040B000971F8217930769F4EC0128813981260F35
:1040C000371F2E5F3F4F318320838A819B819383EB
:1040D0008283452B29F4F0938F05E0938E0542C02F
:1040E0001396FC93EE931297ED01499159919E011D
:1040F000240F351FE217F30771F480819181840F3B
:10410000951F029611969C938E93828193811396AC
:104110009C938E931297E0E0F0E0D80112968D9177
:104120009C911397009719F0F8018C01F6CF8D91AF
:104130009C9198012E5F3F4F820F931F20918C0519
:1041400030918D052817390769F4309729F41092BA
:104150008F0510928E0502C01382128210938D0576
:1041600000938C05DF91CF911F910F9108956F926D
:104170007F928F929F92AF92BF92CF92DF92EF92F7
:10418000FF920F931F93CF93DF93EC01009789F475
:10419000CB01DF91CF911F910F91FF90EF90DF90B6
:1041A000CF90BF90AF909F908F907F906F900C9426
:1041B0008A1FFC01E60FF71F9C0122503109E2170C
:1041C000F30708F4ACC0D9010D911C9111970617A3
:1041D0001707B0F00530110508F49FC0C801049717
:1041E0008617970708F499C002501109061B170B90
:1041F000019311936D937C93CF010E941F208DC07A
:104200005B01A01AB10A4C01800E911EA0918E058F
:10421000B0918F0540E050E0E12CF12C109709F4AB
:104220004AC0A815B905D1F56D907C90119763012E
:1042300082E0C80ED11CCA14DB0480F1A3014A1924
:104240005B096A0182E0C80ED11C1296BC901297DD
:104250001396AC91B5E0CB16D10440F0B282A383A3
:1042600051834083D9016D937C930AC00E5F1F4F29
:10427000C301800F911FF90191838083EB2DFA2FE9
:10428000E114F10431F0D7011396FC93EE931297E9
:1042900044C0F0938F05E0938E053FC08D919C91B3
:1042A00011974817590708F4AC017D0112960D903B
:1042B000BC91A02DB3CF80918C0590918D05881570
:1042C0009905E1F446175707C8F480910C029091C4
:1042D0000D02009741F48DB79EB7409110025091A6
:1042E0001102841B950BE817F907C8F4F0938D05AC
:1042F000E0938C05F901718360830FC0CB010E94AC
:104300008A1F7C01009759F0A801BE010E94B221CA
:10431000CE010E941F20C70104C0CE0102C080E070
:1043200090E0DF91CF911F910F91FF90EF90DF9080
:10433000CF90BF90AF909F908F907F906F90089597
:1043400081E090E0F8940C94B124FB01DC0104C0FE
:104350008D910190801921F441505040C8F7881B7D
:10436000990B0895FB01DC0102C001900D924150B0
:104370005040D8F70895FB01DC018D910190801920
:104380000110D9F3990B0895FB01DC0101900D9206
:104390000020E1F70895FB01DC014150504048F056
:1043A00001900D920020C9F701C01D92415050406C
:1043B000E0F708950F931F93CF93DF93CDB7DEB748
:1043C0002E970FB6F894DEBF0FBECDBF0E891F89A2
:1043D00086E08C831A8309838FEF9FE79E838D830A
:1043E000AE01465E5F4F688D798DCE0101960E94C9
:1043F0000A222F813885F801E20FF31F10822E96D2
:104400000FB6F894DEBF0FBECDBFDF91CF911F91E5
:104410000F9108952F923F924F925F926F927F92E9
:104420008F929F92AF92BF92CF92DF92EF92FF92C4
:104430000F931F93CF93DF93CDB7DEB72C970FB6B3
:10444000F894DEBF0FBECDBF7C016B018A01FC0179
:1044500017821682838181FFBDC1CE0101964C0176
:10446000F7019381F60193FD859193FF81916F018F
:10447000882309F4ABC1853239F493FD859193FF0C
:1044800081916F01853229F4B70190E00E941B24CD
:10449000E7CF512C312C20E02032A0F48B3269F090
:1044A00030F4803259F0833269F420612CC08D32AF
:1044B00039F0803339F4216026C02260246023C0A3
:1044C000286021C027FD27C030ED380F3A3078F43E
:1044D00026FF06C0FAE05F9E300D1124532E13C054
:1044E0008AE0389E300D1124332E20620CC08E32AB
:1044F00021F426FD6BC1206406C08C3611F42068BF
:1045000002C0883641F4F60193FD859193FF8191B5
:104510006F018111C1CF982F9F7D9554933028F45E
:104520000C5F1F4FFFE3F9830DC0833631F08337F3
:1045300071F0833509F05BC022C0F8018081898366
:104540000E5F1F4F44244394512C540115C0380171
:10455000F2E06F0E711CF801A080B18026FF03C04D
:10456000652D70E002C06FEF7FEFC5012C870E94C0
:1045700010242C0183012C852F77222E17C038019F
:10458000F2E06F0E711CF801A080B18026FF03C01D
:10459000652D70E002C06FEF7FEFC5012C870E9490
:1045A00005242C012C852068222E830123FC1BC0AE
:1045B000832D90E048165906B0F4B70180E290E0F0
:1045C0000E941B243A94F4CFF50127FC859127FE25
:1045D00081915F01B70190E00E941B2431103A9451
:1045E000F1E04F1A51084114510471F7E5C08436C7
:1045F00011F0893639F5F80127FF07C06081718114
:10460000828193810C5F1F4F08C060817181072EEA
:10461000000C880B990B0E5F1F4F2F76722E97FFA1
:1046200009C090958095709561957F4F8F4F9F4FF2
:104630002068722E2AE030E0A4010E945324A82EA4
:10464000A81844C0853729F42F7EB22E2AE030E026
:1046500025C0F22FF97FBF2E8F36C1F018F48835B0
:1046600079F0B4C0803719F0883721F0AFC02F2F10
:104670002061B22EB4FE0DC08B2D8460B82E09C00F
:1046800024FF0AC09F2F9660B92E06C028E030E0B4
:1046900005C020E130E002C020E132E0F801B7FEC1
:1046A00007C060817181828193810C5F1F4F06C0BA
:1046B0006081718180E090E00E5F1F4FA4010E9435
:1046C0005324A82EA818FB2DFF777F2E76FE0BC053
:1046D000372D3E7FA51450F474FE0AC072FC08C04A
:1046E000372D3E7E05C0BA2C372D03C0BA2C01C031
:1046F000B52C34FF0DC0FE01EA0DF11D8081803321
:1047000011F4397E09C032FF06C0B394B39404C0DB
:10471000832F867809F0B39433FD13C030FF06C0B1
:104720005A2CB31418F4530C5B18B32CB31468F45C
:10473000B70180E290E03C870E941B24B3943C8543
:10474000F5CFB31410F43B1801C0312C34FF12C064
:10475000B70180E390E03C870E941B243C8532FF38
:1047600017C031FD03C088E790E002C088E590E003
:10477000B7010CC0832F867859F031FF02C08BE25D
:1047800001C080E237FD8DE2B70190E00E941B245A
:10479000A51438F4B70180E390E00E941B245A94DA
:1047A000F7CFAA94F401EA0DF11D8081B70190E0E2
:1047B0000E941B24A110F5CF332009F451CEB7017C
:1047C00080E290E00E941B243A94F6CFF7018681A4
:1047D000978102C08FEF9FEF2C960FB6F894DEBF43
:1047E0000FBECDBFDF91CF911F910F91FF90EF9042
:1047F000DF90CF90BF90AF909F908F907F906F9001
:104800005F904F903F902F900895FC01059061506C
:1048100070400110D8F7809590958E0F9F1F0895D6
:10482000FC016150704001900110D8F7809590957F
:104830008E0F9F1F08950F931F93CF93DF93FB015C
:10484000238121FD03C08FEF9FEF28C022FF16C0F8
:1048500046815781248135814217530744F4A08152
:10486000B1819D012F5F3F4F318320838C9326813F
:1048700037812F5F3F4F3783268310C0EB01092F0D
:10488000182F0084F185E02D1995892BE1F68E8192
:104890009F8101969F838E83812F902FDF91CF91EF
:1048A0001F910F910895FA01AA27283051F1203164
:1048B00081F1E8946F936E7F6E5F7F4F8F4F9F4FB4
:1048C000AF4FB1E03ED0B4E03CD0670F781F891FF6
:1048D0009A1FA11D680F791F8A1F911DA11D6A0FC4
:1048E000711D811D911DA11D20D009F468943F9177
:1048F0002AE0269F11243019305D3193DEF6CF0176
:104900000895462F4770405D4193B3E00FD0C9F73B
:10491000F6CF462F4F70405D4A3318F0495D31FDA8
:104920004052419302D0A9F7EACFB4E0A6959795FB
:10493000879577956795BA95C9F7009761057105D1
:1049400008959B01AC010A2E06945795479537951B
:104950002795BA95C9F7620F731F841F951FA01D75
:10496000089511E0C8ECD1E000E006C0802FFE0100
:104970000E947B1F2196011DC93CD10780E00807DA
:06498000A9F7F894FFCF37
:1049860000C090A2DA0E831C010000000000900512
:10499600800000000000AE0E5A107A0F600F390F2B
:1049A600AD0ECE10830F5C0F1410150FA50ED00E92
:1049B600CE0E9A0EC40E000000001C021B02180246
:1049C60013020F0207020502D9020202FF01FC01CF
:1049D6003204DB0300000000C5134A185D130C14F3
:1049E6008E136C13801300000000B1144A18B11422
:1049F600B114B114B11400000000B1144A185A13CE
:104A0600591300000000DE081A03E202F60F000048
:104A1600000000000000B114B1140000000067148B
:104A260000000000B1141E001D001C00020003005F
:104A36000400020003000400020003000400020058
:104A46000300040002000300040002000300040047
:104A56000200030004000200030004000200030039
:104A66000400020003000400020003000400010029
:104A76005E00000000000000D702A2029708830231
:104A860055022D022A0220021D0200000000050F19
:104A9600F00EE60EE20EDE0EDB0ED30E0000000078
:104AA600B114B114B114B114B114B114B114B114D8
:104AB600B114B114B114B114B114B114B114B114C8
:104AC60000000000D9159016EF150E16C4119C11A2
:104AD60090177B17C8160817ED17371652120716C8
:104AE600F715F315CA1230003C7370616E206964C5
:104AF6003D22446174614C697374315F616C6C6F03
:104B06007765644C6162656C5F30223E00436F6E70
:104B16006E656374656400474554202F20485454DD
:104B2600502F312E3100486F73743A20000D0A0061
:104B3600436F6E6E656374696F6E3A20636C6F7354
:104B460065003C7370616E2069643D2263746C304D
:104B5600315F4C5F2564223E003C7370616E2069B4
:104B6600643D2263746C30315F4C5F30223E0076C8
:104B7600697274756575736167652E617A7572659C
:104B860077656273697465732E6E65742F00574975
:064B96005A6E6574000078
:00000001FF
