:100000000C94C9010C94FA010C94FA010C94FA01B5
:100010000C94FA010C94FA010C94FA010C94FA0174
:100020000C94FA010C94FA010C94FA010C94FA0164
:100030000C94B90E0C94FA010C94FA010C94FA0188
:100040000C94FA010C94FA010C94FA010C94FA0144
:100050000C94FA010C94FA010C94FA010C945613C6
:100060000C94FA010C945A090C9430090C94FA017E
:100070000C94FA010C94FA010C94FA010C94FA0114
:100080000C94FA010C94FA010C94FA010C94FA0104
:100090000C94FA010C94FA010C94FA010C94FA01F4
:1000A0000C94FA010C94FA010C94FA010C94FA01E4
:1000B0000C94FA010C94FA010C94FA010C94FA01D4
:1000C0000C94FA010C94FA010C94FA010C94FA01C4
:1000D0000C94FA010C94FA010C94FA010C94FA01B4
:1000E0000C94FA01C212C512B412B812BC12FC125E
:1000F000C912CD12D312D712DB12E112E512E912A6
:10010000FC12EF12F312F7120C94A80C0C94EF12DD
:100110000C94DD0B0C94550A0C9463080C94B812E3
:100120000C9428020C94D50F0C94B20C0C94A00CD7
:100130000C94B3020C9401100C94E5120C9460071B
:100140000C9412110C941B020C94E90C0C942302D5
:100150000C94B4120C94CD120C9407020C945D0212
:100160000C949D0C0C940A020C94CD0F0C94F70E79
:100170000C94F20C0C9435020C94290E0C941B0771
:100180000C948E0C0C94020B0C94BC120C943A1030
:100190000C94FC010C94F90F0C9468120C94B102AD
:1001A0000C94D7120C94C8140C940F020C94D31214
:1001B0000C9424020C94E30A0C94910C0C942C08DB
:1001C0000C9432020C94D10F0C94DB120C94FB11A2
:1001D0000C9417020C9405090C946C0C0C941E08DA
:1001E0000C94B70F0C948C0C0C94E50F0C940D022E
:1001F0000C94C2120C946E0D0C940A080C94C2104C
:100200000C9402100C94C5120C94B21D0C94E11BBA
:100210000C94A40C0C94AD100C94E9120C948F1156
:100220000C94820C0C94D7110C94AF0D0C94AA086A
:100230000C9425020C94920C0C94EC0F0C94CF0CA3
:100240000C94EE0F0C94F7120C94BC020C947C02EC
:100250000C94C70C0C94F3120C94650D0C94950C33
:100260000C94FC120C9406090C9420020C94E112DC
:100270000C94B50D0C9446110C94FB070C942B0BAD
:100280000C94C9120C94EF1000000A0B02090C0D1B
:100290000E08070304010000000000000000000039
:1002A000000000000000000000000000000000004E
:1002B000000000001211100000000000000000000B
:1002C000000000000000000000000000000000002E
:1002D0002200250028002B002E00310034000201EE
:1002E0000000050108010B01000021002400270087
:1002F0002A002D0030003300010100000401070135
:100300000A0105050505070508080808020202029A
:100310000A0A0808040404040101010101010101A1
:100320000303030303030303040707070C0C0C0C6C
:100330000C0C0C0C02020202060606060606060655
:100340000B0B0B0B0B0B0B0B0102102020080810E2
:100350002040102040800201020108040201010235
:10036000040810204080804020100804020180040E
:100370000201804020100804020108040201010269
:100380000408102040800102040810204080B21DA3
:10039000E11B11241FBECFEFD1E2DEBFCDBF00E0D5
:1003A0000CBF13E0A0E0B2E0E8EFF8E400E00BBF20
:1003B00002C007900D92A63FB107D9F725E0A6EF3E
:1003C000B3E001C01D92AE36B207E1F711E0C8EC10
:1003D000D1E000E006C021970109802FFE010E94B4
:1003E0003D1FC73CD10780E00807A9F70E94E51B25
:1003F0000C946A240C940000FC0183A1811105C0B7
:100400008581823010F481E083A383A10895FC01EB
:1004100083810895FC01828108950B960895FC0163
:100420002481822F90E02C3008F00C970895FC0175
:10043000878190850895FC01648175818681089586
:10044000FC0163A3089508950895FC01628F089547
:100450006F5F7F4F660F771F860F971FFC018081AC
:1004600091810895FC01828D0895CF92DF92EF92E1
:10047000FF920F931F93CF93DF937C016A018B014F
:10048000C0E0D0E0CC15DD057CF4D8016D917D9104
:100490008D01D701ED91FC910084F185E02DAE0135
:1004A000C70119952196EECFDF91CF911F910F9142
:1004B000FF90EF90DF90CF900895EF92FF920F930F
:1004C0001F93CF93DF938C017B01C0E0D0E0CE156A
:1004D000DF055CF4D801ED91FC910480F581E02DFD
:1004E000BE01C80119952196F2CFDF91CF911F91DE
:1004F0000F91FF90EF900895AF92BF92CF92DF924D
:10050000EF92FF920F931F93CF93DF9361157105C5
:10051000E9F012161306D4F479016C01EB018A019B
:10052000A12CB12C69917991D601ED91FC910190AA
:10053000F081E02DC6011995F801819391938F0107
:10054000FFEFAF1ABF0AAE14BF0461F7DF91CF917E
:100550001F910F91FF90EF90DF90CF90BF90AF90E1
:100560000895CB010895C0960E94D71191E08111A2
:1005700001C090E0892F08952F923F924F925F9291
:100580006F927F928F929F92AF92BF92CF92DF92A3
:10059000EF92FF920F931F93CF93DF93CDB7DEB708
:1005A000A6970FB6F894DEBF0FBECDBF7C012DB766
:1005B0003EB73CA32BA36C0134E2C30ED11C809147
:1005C000550481112AC010923D0410923C0488EE1B
:1005D00093E0A0E0B0E080933E0490933F04A093AA
:1005E0004004B093410486E892E090933B048093EA
:1005F0003A0486E693E0909349048093480410926D
:100600004A0410924B0410924C0410924D0484E062
:100610008093520481E08093550487EF93E0909398
:100620003905809338056CE271E080E090E00E942B
:1006300010131FB7F8948091F603811124C0E7E3EB
:10064000F3E08491EDE7F3E0249190E0880F991FA7
:1006500088519D4FFC01A591B491EC91E22321F4C6
:1006600061E085E30E94931285E30E948A1A8CB5AB
:1006700080618CBD8CB580648CBD84E30E948A1A35
:1006800083E30E948A1A8091F6038F5F8093F603BA
:100690001FBF249A80E590E00E94B20D60E880E0E0
:1006A00090E00E94120A65E58BE190E00E94120A38
:1006B00065E58AE190E00E94120A0E94B10D80E097
:1006C00090E49093800480937F0480E090E6909380
:1006D00088048093870480E098E490938204809358
:1006E000810480E098E690938A048093890480E0F6
:1006F00090E5909384048093830480E090E7909346
:100700008C0480938B0480E098E59093860480931A
:10071000850480E098E790938E0480938D0480E5B3
:1007200090E00E94B20D46E050E0B60189E090E012
:100730000E94E30986E693E09A8389831B821C82E8
:100740001D821E8244E050E0BE016D5F7F4F8FE04E
:1007500090E00E94E3090E94B10D009138051091CC
:100760003905D80192961D921D921D921C92959763
:10077000F80116A217A210A611A69A961D921D9214
:100780001D921C929D9780E69AEEA0E0B0E086ABA9
:1007900097ABA0AFB1AF80EA9FE0A0E0B0E082AF3E
:1007A00093AFA4AFB5AFD801189686E0FD01282F0E
:1007B00011922A95E9F79801225F3F4F94E1F901E0
:1007C00011929A95E9F7F60101900D928A95E1F759
:1007D0004801F2E48F0E911CD4011C920E947B1EF2
:1007E0002FEC37E040E050E00E94DA1EDC01CB0144
:1007F0000196A11DB11DF80184839583A683B7835B
:1008000080839183A283B3835801F3E4AF0EB11CBC
:10081000C5010E94AD1064E470E0C5010E94C210E1
:10082000882309F4D7C20E944A132B013C01212CD2
:10083000312CD12C42E0C42ED4018C91833009F4A8
:1008400005C1811121C0F80184819581A681B781FC
:100850000196A11DB11D84839583A683B7830E9451
:100860004A13641975098609970928EE33E040E0B8
:1008700050E00E940C1FA90161E0C8010E947C1990
:1008800081E0D4018C93C4C0843001F5F8018481E7
:100890009581A681B7810196A11DB11D84839583A1
:1008A000A683B7830E944A136419750986099709BC
:1008B00028EE33E040E050E00E940C1FA90163E005
:1008C000C8010E947C19D401CC92A2C0813061F58C
:1008D000F80142AD53AD64AD75AD9E012F5F3F4F42
:1008E000C8010E94B617D82EF2E08F1391C08981FB
:1008F0009A81AB81BC81F80184839583A683B783F9
:100900000E944A13641975098609970928EE33E095
:1009100040E050E00E940C1FA90163E0C8010E9462
:100920007C19D401DC927AC0823009F071C0F801E0
:1009300042AD53AD64AD75AD9E012F5F3F4FC80111
:100940000E94B617D82EF5E08F135CC0E3E0D40107
:10095000EC93F80182A193A1A4A1B5A1892B8A2BC4
:100960008B2B41F484E893E0A0E0B0E082A393A352
:10097000A4A3B5A3F80186A197A1A0A5B1A5892B31
:100980008A2B8B2B61F482A193A1A4A1B5A1B6956A
:10099000A7959795879586A397A3A0A7B1A7F801D8
:1009A00082A593A5A4A5B5A5892B8A2B8B2BA9F489
:1009B00082A193A1A4A1B5A1AC01BD0123E07695CC
:1009C0006795579547952A95D1F7841B950BA60BEC
:1009D000B70B82A793A7A4A7B5A7F80186A197A1F3
:1009E000A0A5B1A586A797A7A0ABB1AB82A593A5FB
:1009F000A4A5B5A582AB93ABA4ABB5AB222423943D
:100A0000312C0CC0F6E08F1303C0D4011C9206C039
:100A1000BFEFDB1203C0F4011082D12CF1E02F16DE
:100A2000310409F409CF0E944A13DC01CB01841977
:100A30009509A609B709F80126A937A940AD51AD16
:100A4000281739074A075B0708F0F6CEC5010E9450
:100A5000AD10F80184819581A681B7810196A11D11
:100A6000B11D84839583A683B7830E944A13F8013E
:100A7000FE9660837183828393832A94232809F0EE
:100A8000A9C180E590E00E94B20D60913805709197
:100A90003905625F7F4FCE0101960E94200944E034
:100AA00050E0BE016D5F7F4F8FE090E00E94E30950
:100AB00060913805709139056A5E7F4FCE010196CD
:100AC0000E94200944E050E0BE016D5F7F4F81E04D
:100AD00090E00E94E30960913805709139056E5EDF
:100AE0007F4FCE0101960E94200944E050E0BE01F4
:100AF0006D5F7F4F85E090E00E94E3090E94B10D99
:100B00006091380570913905625E7F4FCE01019684
:100B10000E9420098B819C81AD81BE818093340528
:100B200090933505A0933605B0933705D7011896F5
:100B30001C921E921797CDB6DEB69E960D911C9113
:100B40009F97C8010196EDB7FEB7E81BF90B0FB6EA
:100B5000F894FEBF0FBEEDBF2DB73EB72F5F3F4FDE
:100B60005901892BA1F02115310589F001151105D5
:100B700019F4D9011C920BC0F70162A573A5A80155
:100B8000C9010E948421F501E00FF11F1082870145
:100B9000005D1F4F40E550E0B501C8010E94F20C16
:100BA000019769F56EE673E085E994E00E941215FD
:100BB00068E773E0C8010E94121567E873E0C80196
:100BC0000E946A14D7019E964D915C919F979A96C8
:100BD0006D917C919B97C8010E94B50D6EE873E002
:100BE000C8010E946A1461E973E0C8010E941215ED
:100BF0006EE873E0C8010E946A1481E001C080E0E1
:100C00000FB6F894DEBE0FBECDBE882309F4DDC05A
:100C10006701BDE3CB0ED11CC8010E94E90C892BF2
:100C200041F0C8010E94CF0CF60181936F01108240
:100C3000F3CFD70193968C91882309F4C6C057014E
:100C4000BBE0AB0EB11C01E010E083EA882E83E02C
:100C5000982ECDB6DEB60A3011051CF027E130E043
:100C600002C026E130E0EDB7FEB7E21BF30B0FB692
:100C7000F894FEBF0FBEEDBF8DB79EB701963C0145
:100C80001F930F939F928F927F928F932DA33EA3DA
:100C90000E9493212DA13EA1A301B701CE0101968F
:100CA0000E94F80E0F900F900F900F900F900F90E2
:100CB0008D819E81892BE9F0E981FA8180818823E9
:100CC000C1F0CE0101960E94A013D5016D937D93D2
:100CD0005D01CE0101960E94EB130FB6F894DEBEC3
:100CE0000FBECDBE0F5F1F4F0D30110509F0B1CF04
:100CF0000AC0CE0101960E94EB130FB6F894DEBE37
:100D00000FBECDBE62C086E1EAEBF3E0DE011196D4
:100D100001900D928A95E1F726E130E0AE014F5F38
:100D20005F4FB701CE014D960E94F80E89A19AA19E
:100D3000892B09F446C0ED8DFE8D8081882309F44E
:100D400040C022E030E040E050E0BE01635E7F4FF3
:100D5000CE0147960E940514CE0147960E94A0132B
:100D6000F7016483CE0147960E94EB1325E030E043
:100D700043E050E0BE01635E7F4FCE0147960E9484
:100D80000514CE0147960E94A013D70115966C93C7
:100D9000CE0147960E94EB1328E030E046E050E099
:100DA000BE01635E7F4FCE0147960E940514CE01BF
:100DB00047960E94A013F7016683CE0147960E94D2
:100DC000EB13CE014D960E94EB1381E0D7011396F1
:100DD0008C9311C0D70117968D919C91189701960D
:100DE00018969C938E9317970A9729F481E0F70140
:100DF000838310861782EBA1FCA10FB6F894FEBF87
:100E00000FBEEDBFA6960FB6F894DEBF0FBECDBFE6
:100E1000DF91CF911F910F91FF90EF90DF90CF90D6
:100E2000BF90AF909F908F907F906F905F904F900A
:100E30003F902F900895EF92FF920F931F93CF93BF
:100E4000DF93EC018A01E881F9810190F081E02DC6
:100E500019957C01000F111FC00FD11F8A819B8142
:100E6000DC01ED91FC910680F781E02D60E070E0FF
:100E700019958A819B81DC01ED91FC910480F581BB
:100E8000E02DB70119950A811B81F801C085D18534
:100E90006C2F848195810E94CC1EBE01660F672F46
:100EA000661F770BD80114968D919C91159701962A
:100EB000DF91CF911F910F91FF90EF900C94CC1E7A
:100EC000CF92DF92EF92FF920F931F93CF93DF9316
:100ED000EB01CC0FDD1FC80FD91FEA80FB80D701C3
:100EE0001496CD90DC901597C60101960E94C41E01
:100EF000B0E88B9F80011124C6010E94C41EF80136
:100F0000E82BCF01D70119969C938E9318970E94D6
:100F1000A91A8A819B81DC01ED91FC910680F78101
:100F2000E02D61E070E019958A819B81DC01ED91F3
:100F3000FC91119718966D917C9119970480F58119
:100F4000E02D1995EA81FB811286DF91CF911F91E7
:100F50000F91FF90EF90DF90CF9008950F931F9324
:100F6000CF93DF93EC018B018CE392E0998388832C
:100F70001A821B8218861F828FEF9FEF9A878987BC
:100F80001BA2CE018A961BA61AA61DA61CA61FA6EA
:100F90001EA68417950751F0FA01608171816115D1
:100FA000710521F0448155810E94AB131BAA1AAA36
:100FB00088EE93E0A0E0B0E08CAB9DABAEABBFABF6
:100FC00086E192E099AB88AB84E08CAFF801808138
:100FD0008CA381818DA382818EA383818FA3848141
:100FE00088A7858189A71C821D821E82DF91CF91EF
:100FF0001F910F910895FC01538D448D252F30E0F2
:10100000842F90E0821B930B541710F0CF96089515
:1010100001970895FC01918D828D981761F0828D62
:10102000DF01A80FB11D5D968C91928D9F5F9F731C
:10103000928F90E008958FEF9FEF0895FC01918DBE
:10104000828D981731F0828DE80FF11D858D90E02B
:1010500008958FEF9FEF0895FC01918D228D892FC8
:1010600090E0805C9F4F821B91098F7399270895B0
:1010700085E994E00E942C0821E0892B09F420E006
:10108000822F0895FC01848DDF01A80FB11DA35AA2
:10109000BF4F2C91848D90E001968F739927848F98
:1010A000A689B7892C93A089B1898C9180648C938F
:1010B000938D848D981306C00288F389E02D80817A
:1010C0008F7D80830895EF92FF920F931F93CF93AC
:1010D000DF93EC0181E0888F9B8D8C8D981305C088
:1010E000E889F989808185FD24C0F62E0B8D10E0FA
:1010F0000F5F1F4F0F731127E02E8C8DE8120CC06D
:101100000FB607FCFACFE889F989808185FFF5CF12
:10111000CE010E944208F1CF8B8DFE01E80FF11D38
:10112000E35AFF4FF0820B8FEA89FB89808180624E
:1011300007C0EE89FF896083E889F989808180642E
:10114000808381E090E0DF91CF911F910F91FF901C
:10115000EF900895CF93DF93EC01888D8823C9F039
:10116000EA89FB89808185FD05C0A889B9898C91B0
:1011700086FD0FC00FB607FCF5CF808185FFF2CF4B
:10118000A889B9898C9185FFEDCFCE010E944208D4
:10119000E7CFDF91CF91089580E090E0892B21F097
:1011A0000E943808811125C080E090E0892B41F031
:1011B00080E090E0892B21F00E94000081111CC08A
:1011C00080E090E0892B41F080E090E0892B21F0D5
:1011D0000E940000811113C080E090E0892BA1F0F3
:1011E00080E090E0892B81F00E94000081110AC00C
:1011F00008950E940000D8CF0E940000E1CF0E9415
:101200000000EACF0C940000089508950E94622126
:101210001F93CF93DF93182F66E270E00E94201196
:10122000C82FD0E067E270E0812F0E942011DC2FF0
:10123000CC279E01282BC901DF91CF911F910895E2
:1012400026E633E0FC0131832083FB01408151819C
:1012500062817381FC0142835383648375830895A3
:101260001F920F920FB60F9211240BB60F922F936D
:101270003F934F935F936F937F938F939F93AF931E
:10128000BF93EF93FF9385E994E00E944208FF919A
:10129000EF91BF91AF919F918F917F916F915F91EE
:1012A0004F913F912F910F900BBE0F900FBE0F905B
:1012B0001F9018951F920F920FB60F9211240BB624
:1012C0000F922F938F939F93EF93FF93E091A50439
:1012D000F091A6048081E091AB04F091AC0482FD12
:1012E00012C090818091AE048F5F8F732091AF0404
:1012F000821751F0E091AE04F0E0EB56FB4F958F72
:101300008093AE0401C08081FF91EF919F918F91F6
:101310002F910F900BBE0F900FBE0F901F9018953E
:101320002C9A08952C9808951F93CF93DF93182F2C
:1013300060E270E00E942011C82FD0E061E270E00E
:10134000812F0E942011DC2FCC279E01282BC90160
:10135000DF91CF911F9108958EBD00000DB407FE5F
:10136000FDCF8EB50895CF92DF92EF92FF920F934B
:101370001F93CF93DF93EC017A018B016C01C40EB4
:10138000D51ECC15DD05A9F00E9492098FE00E94C0
:10139000AC098D2F0E94AC098C2F0E94AC092196BC
:1013A00080E00E94AC09F80181938F010E949009AE
:1013B000E8CFC701DF91CF911F910F91FF90EF9080
:1013C000DF90CF900895CF92DF92EF92FF920F932C
:1013D0001F93CF93DF93EC017A018B016C01C40E54
:1013E000D51ECC15DD05A1F00E94920980EF0E9468
:1013F000AC098D2F0E94AC098C2F0E94AC0921965C
:10140000F80181918F010E94AC090E949009E9CFF7
:10141000C701DF91CF911F910F91FF90EF90DF9067
:10142000CF9008951F93CF93DF931F921F92CDB754
:10143000DEB7182F6A8399830E94920980EF0E9479
:10144000AC099981892F0E94AC09812F0E94AC09B7
:101450006A81862F0E94AC090E94900981E00F905A
:101460000F90DF91CF911F9108951F93CF93DF933A
:101470001F921F92CDB7DEB7182F80E590E06983E9
:101480007A830E94B20D21E041E050E069817A81C7
:10149000812F0E94791B0E94B10D81E090E00F9096
:1014A0000F90DF91CF911F910895CF93DF931F92FB
:1014B000CDB7DEB7FC01218D328D232B49F0BE0163
:1014C0006F5F7F4F808D0E94350A898190E002C056
:1014D0008FEF9FEF0F90DF91CF910895FF920F93C1
:1014E0001F93CF93DF93F82E80E590E00E94B20D1A
:1014F000C0E0D0E08F2D0E9408098C01892B21F0DB
:101500008F2D0E940809EC01C017D10799F70E949E
:10151000B10DCE01DF91CF911F910F91FF900895F2
:10152000AF92BF92CF92DF92EF92FF921F93CF9331
:10153000DF93182F5B017A0180E590E00E94B20DE5
:10154000C0E0D0E0812F0E9408096C01892B21F0B6
:10155000812F0E940809EC01CC15DD0599F7209731
:1015600099F463E070E0812F0E9420118431F1F042
:101570008823E1F0C1E0D0E08C3111F4C0E0D0E08C
:10158000D195C195D10912C0EC16FD060CF4E70106
:101590001C161D065CF420E0AE01B501812F0E94EF
:1015A000791B60E470E0812F0E94E81A0E94B10D5F
:1015B000CE01DF91CF911F91FF90EF90DF90CF9000
:1015C000BF90AF900895CF93DF93FC01218D328DB2
:1015D0002115310519F48FEF9FEF11C0EC0142176F
:1015E000530708F0A901888D0E94900A1816190661
:1015F00094F7298D3A8D281B390B3A8F298FDF916B
:10160000CF9108950F931F93CF93DF931F92CDB780
:10161000DEB7FC01218D328D232B61F08C0141E07E
:1016200050E0BE016F5F7F4F808D0E94900A1816B8
:1016300019061CF08FEF9FEF08C0F801818D928D85
:101640000197928F818F898190E00F90DF91CF91E8
:101650001F910F9108950F931F93CF93DF93CDB7F1
:10166000DEB728970FB6F894DEBF0FBECDBF8C0152
:10167000F801818D928D892B49F0D801ED91FC9173
:101680000284F385E02DC8011995F2CF808D0E9468
:101690006E0A181619065CF548E050E0BE016F5F4F
:1016A0007F4FD80158968C910E94900A9C01181681
:1016B0001906DCF489819A81AB81BC81F801808BA9
:1016C000918BA28BB38B8D8190E0982F88272E81F0
:1016D000820F911D958B848B2F8130E0322F222732
:1016E0008885280F311D328F218FC90102C080E00B
:1016F00090E028960FB6F894DEBF0FBECDBFDF9105
:10170000CF911F910F910895CF93C82F80E590E05E
:101710000E94B20D60E170E08C2F0E94E81A4FEF3A
:1017200062E070E08C2F0E941611CF910C94B10DE5
:10173000FF920F931F93CF93DF931F921F92CDB70A
:10174000DEB7F82E8A012A8369830E94840B80E524
:1017500090E00E94B20D2A816981462F422B60E001
:1017600070E08F2D0E9416110115110551F40091A2
:101770005D0410915E040F5F1F4F10935E04009391
:101780005D04412F64E070E08F2D0E941611402F00
:1017900065E070E08F2D0E94161161E070E08F2DE2
:1017A0000E94E81A0E94B10D81E00F900F90DF9126
:1017B000CF911F910F91FF900895BF92CF92DF922A
:1017C000EF92FF920F931F93CF93DF9300D000D03F
:1017D000CDB7DEB7FC01208D243009F053C06A017B
:1017E0007B018C01B12C63E070E08B2D0E942011F5
:1017F000811103C0F801B08E06C08831D9F3B394CB
:10180000F4E0BF12F0CFF801808D8430D9F196E07A
:10181000E4E5F2E0DE01119601900D929A95E1F770
:10182000F70193819F779C8394819D8395819E830B
:10183000B7016E5F7F4F90E0982F882744E050E01B
:10184000845F9B4F0E94E309B601F801808D0E94DE
:101850007E11F801808D90E0982F882746E050E0B7
:10186000BE016F5F7F4F8A5F9B4F0E94E309F801C3
:10187000128E118E20E8A60162E0808D0E94980BE6
:1018800081E001C080E026960FB6F894DEBF0FBE5F
:10189000CDBFDF91CF911F910F91FF90EF90DF901F
:1018A000CF90BF9008951F93CF93DF931F92CDB732
:1018B000DEB7182F80E590E00E94B20D63E070E083
:1018C000812F0E94201189830E94B10D89810F9080
:1018D000DF91CF911F910895CF93DF931F92CDB7E2
:1018E000DEB76983DC01ED91FC910280F381E02D8C
:1018F00041E050E0BE016F5F7F4F19950F90DF917F
:10190000CF910895DC01ED91FC91068CF78DE02DCF
:10191000199591E089270895862F089581E08627FB
:101920000895089580E090E0089583B7662311F04C
:10193000816001C08E7F83BF0895FC016483089598
:10194000FC01848190E00895FC01828193810895D7
:10195000DC01ED91FC910484F585E02D61E01995A1
:101960008895089544EC450390011124261B310904
:10197000205F314F37FF02C0295F3F4F43E035956D
:1019800027954A95E1F7FC01338322830895FC01F2
:101990002281338121503109338322830895CF93EB
:1019A000DF931F92CDB7DEB741E050E0BE016F5F1D
:1019B0007F4FFC0184850E94900A181619061CF4BA
:1019C000898190E002C08FEF9FEF0F90DF91CF9160
:1019D0000895FC018485843011F00C946E0A80E037
:1019E00090E00895CF92DF92EF92FF920F931F93B2
:1019F000CF93DF93CDB7DEB7AF970FB6F894DEBFC6
:101A00000FBECDBF7C016A0106E613E01A8309838D
:101A10001C861B8688EE93E0A0E0B0E08D879E8751
:101A2000AF87B88B86E892E09A878987188F0F8BEB
:101A3000198E1A8E1B8E1C8E84E089A31DA30CA305
:101A40001EA21FA218A619A68091340590913505F3
:101A5000A0913605B09137058CA79DA7AEA7BFA76B
:101A60008B839C83AD83BE8318861F82AE014C5D41
:101A70005F4FCE0101960E943B1581309105B1F474
:101A8000D701ED91FC910684F785E02D1BA70AA7ED
:101A90008EA19FA1A8A5B9A58CA79DA7AEA7BFA7FA
:101AA000A601BE01665D7F4FC7011995AF960FB6BF
:101AB000F894DEBF0FBECDBFDF91CF911F910F9184
:101AC000FF90EF90DF90CF900895672B11F460E0C6
:101AD00001C061E0FC0182810C949312CF92DF92ED
:101AE000EF92FF920F931F93CF93DF93EC017B0153
:101AF00060E08E810E94931261E082E30E94931263
:101B000000E010E08FE0C82ED12C0E151F05A4F4C4
:101B100061E08C810E949312C6010197F1F760E0A9
:101B20008C810E94931261E070E080E090E00E945E
:101B300010130F5F1F4FE9CF60E082E30E94931202
:101B400061E08E810E949312F986E886DF91CF9141
:101B50001F910F91FF90EF90DF90CF9008950C941C
:101B6000E11F08958CBD9DBD08958F929F92AF9205
:101B7000BF92CF92DF92EF92FF920F931F93CF937A
:101B80006C015B017A01FC01C485C43041F481E041
:101B900090E0F6019383828380E090E04EC08A015A
:101BA0004130584010F000E018E080E590E00E94DD
:101BB000B20D8C2F0E945D1B4C0163E070E08C2FF6
:101BC0000E942011873111F08C3121F4801691068A
:101BD00060F302C000E010E080E590E00E94B20DEA
:101BE0009801A50160E070E08C2F0E94F81A60E275
:101BF00070E08C2F0E94E81A62E070E08C2F0E9447
:101C0000201184FD10C063E070E08C2F0E94201131
:101C1000811104C08C2F0E94840BB9CF80E590E025
:101C20000E94B20DE9CF40E162E070E08C2F0E948B
:101C30001611012B09F4ABCFC701CF911F910F9162
:101C4000FF90EF90DF90CF90BF90AF909F908F90DC
:101C50000895CF92DF92FF920F931F93CF93DF935C
:101C6000FC012485243009F077C06A01EB018C0166
:101C7000F12C8F2D0E94530C811103C0F801F486C2
:101C800007C08B7F8831D1F3F394F4E0FF12F1CFDA
:101C9000F8018485843009F45FC0209100023091FE
:101CA00001022F5F3F4F11F420E030EC309301022E
:101CB00020930002409100025091010220E061E077
:101CC0000E94980BF801F4848A818F3F51F48B8134
:101CD0008F3F91F48C818F3F79F48D818F3F61F438
:101CE00038C0811109C08B81811106C08C8181119E
:101CF00003C08D81882369F1C114D10451F180E5BD
:101D000090E00E94B20DBE016E5F7F4F8F2D90E07C
:101D1000982F882744E050E0845F9B4F0E94E3099E
:101D2000B6018F2D0E947E1164E070E08F2D0E941D
:101D3000E81AC8010E94CF11873189F061E070E094
:101D400080E090E00E941013C8010E94CF11811121
:101D5000F0CF84E0F801848780E090E002C081E069
:101D600090E0DF91CF911F910F91FF90DF90CF9086
:101D700008951F920F920FB60F9211240BB60F9277
:101D80002F933F934F935F936F937F938F939F9383
:101D9000AF93BF93EF93FF93809167049091680492
:101DA000DC01ED91FC910284F385E02D61E0199551
:101DB0008091670490916804DC01ED91FC910484AA
:101DC000F585E02D60E01995FF91EF91BF91AF91FE
:101DD0009F918F917F916F915F914F913F912F9143
:101DE0000F900BBE0F900FBE0F901F901895089587
:101DF0004F925F927F928F929F92AF92BF92CF92BB
:101E0000DF92EF92FF920F931F93CF93DF9300D057
:101E100000D0CDB7DEB78C01CB018DB69EB669017F
:101E200061E0C61AD108E0E0F0E060E070E0A1ED0A
:101E3000B7E05D01A21AB30AEA15FB050CF05EC01B
:101E4000DC01AE0FBF1FDD963C91DA01A60FB71F74
:101E50002C9132134DC06F5F7F4F6C157D0509F0DB
:101E60004BC09F012F5F3F4FB901412C512C603D6A
:101E7000A7E07A074CF57201EE0EFF1EE80EF91E80
:101E8000D701DE967C90D20111967D01BCE37B12D6
:101E900017C0CDB6DEB6EDB7FEB7EE19FF090FB627
:101EA000F894FEBF0FBEEDBF6DB77EB76F5F7F4F7B
:101EB000235C3F4F820F931FFB01460E571E06C047
:101EC00027016F5F7F4FD3CFB60116C0E415F5052C
:101ED00029F0DC012D91CD012193F8CF1082C801AA
:101EE0000E94F0130FB6F894DEBE0FBECDBE23C025
:101EF000E61BF70B60E070E031969ECF60E973E07F
:101F0000CE0101960E94F01389819A81F801918394
:101F100080838B819C81938382838D819E81958335
:101F200084831A8219821C821B821E821D82CE012A
:101F300001960E94EB13C8010FB6F8949EBE0FBE27
:101F40008DBE26960FB6F894DEBF0FBECDBFDF91D3
:101F5000CF911F910F91FF90EF90DF90CF90BF90A6
:101F6000AF909F908F907F905F904F900895CF9308
:101F7000DF931F92CDB7DEB76983DC01ED91FC9151
:101F80000280F381E02D41E050E0BE016F5F7F4FA2
:101F900019950F90DF91CF910895FC01818D928D5D
:101FA0000895FC0184899589089526E633E0FC01B3
:101FB00031832083FB014089518962897389FC0147
:101FC00042835383648375830895DC01ED91FC9112
:101FD000048CF58DE02D199480E00895FC01948522
:101FE000FB018485981303C081E0943009F480E0FC
:101FF000089521E0FC018485843009F420E0822FDB
:1020000008950895AF92BF92CF92DF92FF920F93FF
:102010001F93CF93DF938C015B01EA01FC01C6881B
:10202000D788F08C80E590E00E94B20D8F2D0E9441
:102030005D1B8C179D0720F48F2D0E945D1BEC010A
:102040009E01A501B6018F2D0E94F81A0E94B10DC4
:10205000F801868997898C0F9D1F978B868BCE01FF
:10206000DF91CF911F910F91FF90DF90CF90BF90A4
:10207000AF900895CF92DF92EF92FF920F931F934C
:10208000CF93DF93CDB7DEB7AF970FB6F894DEBF2F
:102090000FBECDBF7C016A0106E613E01A830983F7
:1020A0001C861B8688EE93E0A0E0B0E08D879E87BB
:1020B000AF87B88B86E892E09A878987188F0F8B55
:1020C000198E1A8E1B8E1C8E84E089A31DA30CA36F
:1020D0001EA21FA218A619A680913405909135055D
:1020E000A0913605B09137058CA79DA7AEA7BFA7D5
:1020F0008B839C83AD83BE8318861F82AE014C5DAB
:102100005F4FCE0101960E943B1581309105B1F4DD
:10211000D701ED91FC910488F589E02D1BA70AA752
:102120008EA19FA1A8A5B9A58CA79DA7AEA7BFA763
:10213000A601BE01665D7F4FC7011995AF960FB628
:10214000F894DEBF0FBECDBFDF91CF911F910F91ED
:10215000FF90EF90DF90CF900895CF93DF93EC0145
:10216000888D843061F00E94840BE88DF0E0EE0FE2
:10217000FF1FE15AFB4F1182108284E0888FDF91AC
:10218000CF910895EF92FF921F93CF93DF93FC01BD
:10219000208D243011F080E01CC07B01EC0110E0A8
:1021A000812F0E94530C811102C0188F05C0883105
:1021B000E1F31F5F1430A1F7888D843061F3FD8651
:1021C000EC861A8E198E20E0A70162E00E94980B1F
:1021D00081E0DF91CF911F91FF90EF9008950F93D1
:1021E0001F93CF93DF931F92CDB7DEB78C01DC0135
:1021F000ED91FC910084F185E02D1995892B51F02A
:10220000BE016F5F7F4FF80184850E94350A898186
:1022100090E002C08FEF9FEF0F90DF91CF911F9161
:102220000F910895FC0184850C94900A9B0190E025
:102230000496982F8827642F820F931F0C94120AFC
:102240000F931F93CF93DF931F92CDB7DEB790E02C
:102250000496982F88278C01060F171F0E94920959
:102260008FE00E94AC09812F0E94AC09802F0E9450
:10227000AC0980E00E94AC0989830E9490098981A1
:102280000F90DF91CF911F910F910895CF93FC0193
:10229000C08D80E590E00E94B20D60E270E08C2F6E
:1022A0000E94E81A62E070E08C2F0E94201184FDE9
:1022B00019C062E070E08C2F0E94201183FF0BC0D8
:1022C00048E162E070E08C2F0E9416110E94B10D6F
:1022D00080E090E011C00E94B10D80E590E00E9486
:1022E000B20DE0CF40E162E070E08C2F0E94161149
:1022F0000E94B10D81E090E0CF910895CF93DF93DC
:10230000C82FD62F472F60E170E00E9416114D2F85
:1023100061E170E08C2FDF91CF910C941611FF9248
:102320000F931F93CF93DF93FB01DC0157961C9211
:102330001E9256975896FC908281811109C0838124
:10234000811106C08481811103C085818823F9F041
:1023500041155105E1F08A01EF0180E590E00E940E
:10236000B20DBE016E5F7F4F2F2D30E0922F882778
:1023700044E050E0845F9B4F0E94E309B8018F2D39
:102380000E947E110E94B10D81E090E002C080E0C9
:1023900090E0DF91CF911F910F91FF900895FC0184
:1023A0008485843011F00C94530C80E00895CF9311
:1023B000DF93FC0124852430D1F0EC010E94CF1181
:1023C000843181F0882371F0883161F08C3161F4BF
:1023D000E881F9810084F185E02DCE01199521E095
:1023E000892B19F420E001C021E0822F01C080E098
:1023F000DF91CF910895CF92DF92EF92FF921F93DA
:10240000CF93DF93FC0114851430A9F1EC0180E532
:1024100090E00E94B20D68E070E0812F0E94E81AFF
:102420000E94B10D0E944A136B017C01CE010E94F3
:10243000CF118823B1F061E070E080E090E00E946D
:1024400010130E944A13DC01CB018C199D09AE09BF
:10245000BF09883E9340A105B10540F38C850E94D9
:10246000840BEC85F0E0EE0FFF1FE15AFB4F118269
:10247000108284E08C87DF91CF911F91FF90EF90C5
:10248000DF90CF9008953FB7F89480917B049091AE
:102490007C04A0917D04B0917E0426B5A89B05C064
:1024A0002F3F19F00196A11DB11D3FBFBA2FA92FD3
:1024B000982F8827820F911DA11DB11DBC01CD0150
:1024C00042E0660F771F881F991F4A95D1F708953C
:1024D000CF92DF92EF92FF920F931F93CF93DF93F0
:1024E0006C017A018B01C0E0D0E0CE15DF0589F0E8
:1024F000D8016D918D01D601ED91FC910190F08193
:10250000E02DC6011995892B11F47E0102C0219698
:10251000ECCFC701DF91CF911F910F91FF90EF900A
:10252000DF90CF900895362F90E0FC01E857FD4FE3
:102530004491FC01E85BFC4F2491FC01EE5FFC4FF1
:102540009491992309F46BC0442309F455C050E0D9
:10255000FA013197E231F10508F04EC08827EE58B4
:10256000FF4F8F4F0C943D1F809180008F7707C0E5
:10257000809180008F7D03C080918000877F809351
:1025800080003AC084B58F7702C084B58F7D84BD4A
:1025900033C08091B0008F7703C08091B0008F7DF1
:1025A0008093B00029C0809190008F7707C0809100
:1025B00090008F7D03C080919000877F8093900072
:1025C0001BC08091A0008F7707C08091A0008F7DF5
:1025D00003C08091A000877F8093A0000DC08091F0
:1025E00020018F7707C0809120018F7D03C08091EB
:1025F0002001877F80932001E92FF0E0EE0FFF1F7D
:10260000E253FD4FA591B4918FB7F894EC9131113D
:1026100003C020952E2301C02E2B2C938FBF08952D
:102620008F929F92AF92BF92CF92DF92EF92FF92E2
:102630006B017C010E9443124B015C01C114D10467
:10264000E104F104F1F00E944312DC01CB0188198E
:102650009909AA09BB09883E9340A105B10570F309
:1026600021E0C21AD108E108F10888EE880E83E063
:10267000981EA11CB11CC114D104E104F10419F786
:10268000DDCFFF90EF90DF90CF90BF90AF909F9005
:102690008F9008952FB7F894609177047091780423
:1026A0008091790490917A042FBF08951F920F9220
:1026B0000FB60F9211242F933F938F939F93AF9355
:1026C000BF938091770490917804A0917904B091A0
:1026D0007A043091760423E0230F2D3720F40196FD
:1026E000A11DB11D05C026E8230F0296A11DB11D35
:1026F000209376048093770490937804A0937904D0
:10270000B0937A0480917B0490917C04A0917D0425
:10271000B0917E040196A11DB11D80937B0490931E
:102720007C04A0937D04B0937E04BF91AF919F91F0
:102730008F913F912F910F900FBE0F901F90189582
:10274000FC0180819181009711F00C94881E60E05B
:1027500070E0CB010895EF92FF920F931F93CF93F8
:10276000DF93EC017B018A0188819981009729F030
:102770002A813B8124173507F8F4B8016F5F7F4F3A
:102780000E947920009759F0998388831B830A83DC
:102790002C813D81232B81F4FC0110820DC08881A6
:1027A0009981009711F00E94E11F198218821D8201
:1027B0001C821B821A8207C01D830C83B70188818B
:1027C00099810E947D21CE01DF91CF911F910F91C0
:1027D000FF90EF900895FC01808191810C94E11F9E
:1027E000FC011182108213821282158214826115FB
:1027F000710551F0FB0101900020E9F73197AF011D
:10280000461B570B0C94AB130895BF92CF92DF92E7
:10281000EF92FF920F931F93CF93DF937C016B0195
:10282000EA0189012417350720F48D2FE901042FCF
:10283000182F60E973E0C7010E94F013D6011496C7
:102840008D919C911597C817D907C8F580179107E6
:1028500008F48C01D601ED91FC911197E00FF11F66
:10286000B08010824D915C91BA016C0F7D1F611593
:10287000710561F0FB0101900020E9F73197AF018C
:10288000461B570BC7010E94AB1313C0F701808191
:102890009181009711F00E94E11FD70111961C92BF
:1028A0001E9215961C921E92149713961C921E92BD
:1028B0001297D601ED91FC91E00FF11FB082C70194
:1028C000DF91CF911F910F91FF90EF90DF90CF900C
:1028D000BF9008956115710579F0FB01019000200A
:1028E000E9F73197AF01461B570BDC01ED91FC91E5
:1028F0000280F381E02D199480E090E008954F92DA
:102900005F926F927F92EF92FF920F931F93CF93FC
:10291000DF93CDB7DEB7A1970FB6F894DEBF0FBE39
:10292000CDBF7C01FA01CB0119A2223008F42AE0C4
:102930008E010F5D1F4F422E512C612C712CBF0157
:10294000A30192010E940C1FF901CA010150110953
:102950006A3014F4605D01C0695CD8016C93232B6C
:10296000242B252B61F7B801C7010E946A14A19698
:102970000FB6F894DEBF0FBECDBFDF91CF911F9190
:102980000F91FF90EF907F906F905F904F90089520
:102990008F929F92AF92BF92CF92DF92EF92FF926F
:1029A0000F931F93CF93DF937C01EB016C0182E0C7
:1029B000C80ED11C4701E5E08E0E911C00E010E02E
:1029C000F60141916F0150E060E070E02AE0CE0135
:1029D0000E947F145C01E881F9810190F081E02D73
:1029E0006EE2CE0119958A0D9B1D080F191FC814A0
:1029F000D90431F7F701458150E060E070E02AE04A
:102A0000CE010E947F14800F911FDF91CF911F9103
:102A10000F91FF90EF90DF90CF90BF90AF909F907D
:102A20008F9008950F931F93CF93DF93EC010E9433
:102A30006A148C016EE873E0CE010E946A14800F64
:102A4000911FDF91CF911F910F91089580E3FB01BA
:102A500080833296842F82958F7090E1899F4019F0
:102A600011244A3014F4405D01C0495C4293482F60
:102A70008111F0CF08952F923F924F925F926F9203
:102A80007F928F929F92AF92BF92CF92DF92EF92FE
:102A9000FF920F931F93CF93DF93CDB7DEB7659768
:102AA0000FB6F894DEBF0FBECDBF7C016B013A01BB
:102AB000FB0120E080E090E06AE03191332309F1EE
:102AC00040ED430F4A3080F4689FA001699F500D8C
:102AD0001124CA01C097830F911D37FD9A958F3F2E
:102AE000910559F350F313C03E3289F4233079F045
:102AF000D301A20FB11D12968C932F5F80E090E05E
:102B0000DCCF233021F4F301858381E021C0F7017C
:102B100042815381648175818091910490919204E6
:102B2000A0919304B0919404481759076A077B0752
:102B300009F49EC10E944A138701085F1F4F6F70FE
:102B400077277C5FC8010E94C210813019F080E0B5
:102B500090E0F3C186E693E09A838983F70182814E
:102B60009381A481B5818B839C83AD83BE8345E330
:102B700050E0BE016F5F7F4FC8010E948F11892B0B
:102B800019F4C12CD12C6FC10E944A13F70177832D
:102B900066837627672776277A83698342E050E049
:102BA000BE016F5F7F4FC8010E94021081E090E07C
:102BB0009E878D8742E050E0BE01635F7F4FC80172
:102BC0000E94021080E091E09E878D8742E050E0F5
:102BD000BE01635F7F4FC8010E9402101E861D86E2
:102BE00042E050E0BE01635F7F4FC8010E940210C7
:102BF00042E050E0BE01635F7F4FC8010E940210B7
:102C000042E050E0BE01635F7F4FC8010E940210A6
:102C10005601F5018081882311F1F6015F01819150
:102C2000811115C045018C189D081814190494F4DD
:102C30008F8641E050E0BE01615F7F4FC8010E9476
:102C40000210A401B601C8010E94021003C08E3216
:102C500029F7E8CF6501FFEFCF1ADF0ADACF1F8629
:102C600041E050E0BE01615F7F4FC8010E94021049
:102C7000C12CDD24D394DE86CD8642E050E0BE0137
:102C8000635F7F4FC8010E940210DE86CD8642E05E
:102C900050E0BE01635F7F4FC8010E940210C8016F
:102CA0000E944611892B09F46CCF63E0A62EB12C4B
:102CB000F2E06F0E711C0E944A131B012C01C80127
:102CC0000E942B0B18161906A4F00E944A13DC016F
:102CD000CB0182199309A409B50989389341A1054B
:102CE000B105D0F462E370E080E090E00E94101340
:102CF000E6CFF7014281538164817581808D918D8A
:102D0000A28DB38D481759076A077B0741F4848D5C
:102D1000958DC59721F406C02FEF3FEF9AC02EEF97
:102D20003FEF97C0F70181A192A10C970CF4A6C0C8
:102D30004CE050E0BE016F5F7F4FC8010E94E30A84
:102D40008B8190E0982F88272C81822B9A8B898BFE
:102D5000298130E0322F22274A81242BF701468136
:102D600057814217530709F086C097FF84C08F70C0
:102D70009270892B09F0DEC0CF80D12CDC2CCC24C2
:102D80008885C82AC114D10409F4D1C0812C912CA2
:102D90008D8190E0982F88272E81822B88169906A6
:102DA00008F46FC0812C912C41E050E0BE016D5EB3
:102DB0007F4FC8010E94E30A8B89982F907C09F00D
:102DC00093C0811186C08B898111EECF42E050E023
:102DD000BE01615F7F4FC8010E94E30A42E050E0FC
:102DE000BE01635F7F4FC8010E94E30AC8010E94D1
:102DF000020BC8010E94020BC8010E94020BC8010D
:102E00000E94020B42E050E0BE016F5E7F4FC8019E
:102E10000E94E30A8F8598898115914009F069C065
:102E20002D853E853227232732272130310509F0B1
:102E300060C089899A898115944009F075C044E081
:102E400050E0B301C8012C8B3D8B0E94E30A2C8912
:102E50003D896901F1E0AF1AB10829F02FEFC216E0
:102E6000D20609F428CFC8010E94AD10C60165C082
:102E70008EEF9FEF62C02CEF3FEFEBCF2DEF3FEFD8
:102E8000E8CF41E050E0BE01635F7F4FC8010E9480
:102E9000E30A8D85811113C08D858111F2CFC801A0
:102EA0000E94020BC8010E94020BC8010E94020B83
:102EB000C8010E94020BFFEF8F1A9F0A69CF8D8510
:102EC0009FEF980F9D87882339F3C8010E94020B5A
:102ED000F6CF8B899FEF980F9B8B882309F473CFD4
:102EE000C8010E94020BF5CFC8010E94020B1B8A89
:102EF0006ACF412C512C89899A899827892798274C
:102F00004816590638F4C8010E94020B8FEF481A80
:102F1000580AF1CFEFEF8E1A9E0A8C149D0409F027
:102F200043CF26EF3FEF95CF27EF3FEF92CF2AEF2A
:102F30003FEF8FCF2BEF3FEF8CCF65960FB6F89416
:102F4000DEBF0FBECDBFDF91CF911F910F91FF90DC
:102F5000EF90DF90CF90BF90AF909F908F907F9039
:102F60006F905F904F903F902F9008952F923F92D7
:102F70004F925F926F927F928F929F92AF92BF9289
:102F8000CF92DF92EF92FF920F931F93CF93DF9335
:102F9000CDB7DEB7E3970FB6F894DEBF0FBECDBF57
:102FA0007C011A012B0139010E944A134B015C017B
:102FB00087010D5B1F4FC8010E942B0B18161906C5
:102FC000A4F00E944A13DC01CB0188199909AA09CF
:102FD000BB09281639064A065B06D8F062E370E0A2
:102FE00080E090E00E941013E6CF42E250E0BE0184
:102FF0006F5F7F4FC8010E94E30A8981823011F020
:1030000080E061C1F8018489958983349105C1F715
:1030100002C08FEF58C16D817E818F8198850E949B
:10302000451F4B015C01F3016083718382839383AD
:1030300046E050E0B701685F7F4FCE014D960E9499
:103040006721892BE9F6F70180819181A281B38103
:1030500088169906AA06BB0698F284819581A681F6
:10306000B78188159905AA05BB0550F289899A8907
:10307000AB89BC8986879787A08BB18B8EECA82EF5
:10308000B12CC8010E94020BF1E0AF1AB108C9F7D8
:1030900019A6670182E2C80ED11CF701B696FBA7FC
:1030A000EAA7C7018A969DA78CA73C974F018996EE
:1030B0009FA78EA73897F9ABE8AB1701F6E12F0E63
:1030C000311CC5979BAB8AABF801818D928D181688
:1030D00019060CF0F7C0C8010E94020B833391055A
:1030E00009F4CBC0FCF481309105C9F11CF4892BA3
:1030F00059F3DCC083309105D1F1069709F0D6C0B1
:10310000C8010E94020B5C0144E050E06AA97BA95F
:10311000C8010E94E30A412C512CBB24F4E0AF1AF1
:10312000B10840C08A33910509F47BC03CF4853373
:10313000910569F0C69709F440C0B8C08B3391057A
:1031400009F485C08F3F910509F4BECFAFC0C80117
:103150000E94020BC8010E94020B89A7B5CFC801CB
:103160000E94020B44E050E068A979A93AC0C80166
:103170000E94020B5C0144E050E0B101C8010E94D2
:10318000E30A412C512CBB2494E0A91AB1084A143B
:103190005B040CF099CFC8010E94020BEFEF4E1AAE
:1031A0005E0AF5CF4A145B040CF08ECFC8010E9472
:1031B000020B8FEF481A580AF5CFC8010E94020B84
:1031C000B82EF701828D811110C0838D81110DC041
:1031D000848D81110AC0858D811107C044E050E0C3
:1031E000B401C8010E94E30A6FCFEEA5FFA540809D
:1031F000518062807380B401CE0183960E942009C1
:103200008DA19EA1AFA1B8A584159505A605B7050A
:1032100029F3BB2009F458CFC8010E94020BBA94CD
:10322000F8CFC8010E94020B44E050E06AA57BA5DC
:10323000C8010E94E30AF70166A177A180A591A5C4
:103240000E94451F66A377A380A791A73DCFC80121
:103250000E94020B44E050E06CA57DA5C8010E94CD
:10326000E30AF70162A573A584A595A50E94451FF1
:1032700062A773A784A795A727CFC8010E94020B56
:1032800044E050E0B601C8010E94E30AF70162A1E0
:1032900073A184A195A10E94451F62A373A384A377
:1032A00095A366A777A780AB91AB0ECFC8010E940C
:1032B000020BB82EBB2009F407CFC8010E94020BF5
:1032C000BA94F8CF89A5E3960FB6F894DEBF0FBE87
:1032D000CDBFDF91CF911F910F91FF90EF90DF90C5
:1032E000CF90BF90AF909F908F907F906F905F90A6
:1032F0004F903F902F9008957F928F929F92AF9220
:10330000BF92CF92DF92EF92FF920F931F93CF93D2
:10331000DF93CDB7DEB7A6970FB6F894DEBF0FBE2A
:10332000CDBF8C01762E942E852E20E2B22ECE01BA
:1033300001967C01FC012B2D11922A95E9F786E676
:1033400093E09AA389A38FEF8BA38CA38DA38EA365
:10335000680183E4C80ED11C43E450E0BE016F5DF8
:103360007F4FC6010E948F11019609F4BFC081E012
:1033700089838A8386E0A82EAB821C82F80164814F
:103380007581868197810E94451F6D837E838F831F
:10339000988789869A8680E890E09C878B874CE1A5
:1033A00050E0B701C6010E940210F7012B2D1192C7
:1033B0002A95E9F7480188E0880E911CF401D701AD
:1033C00001900D92AA94E1F740E150E0B701C601E7
:1033D0000E940210F7011192BA94E9F796E0A92E23
:1033E000B12C40E250E0B701C6010E940210F1E0AA
:1033F000AF1AB108B1F783E6898392E89A8393E51F
:103400009B838C8385E38D8381E08E837F829DE324
:10341000988797E099878A8786E0F401DE011B96FA
:1034200001900D928A95E1F78CE0898B8A8B60ED93
:1034300073E0CE0143960E947D21F8014385BE01D1
:10344000675E7F4FC8010E942615F8014485BE01C2
:10345000655E7F4FC8010E942615F8014585BE01B3
:10346000635E7F4FC8010E9426154EE150E0B70110
:10347000C6010E940210F3E07F121EC082E389831E
:1034800084E08A83F80196859B8397859C83908945
:103490009D8391899E8396E39F838887828D898708
:1034A000838D8A87848D8B87858D8C874CE050E057
:1034B000B701C6010E94021087E3898386E08A83F0
:1034C00091E09B8393E09C838D838FE08E838AE3DE
:1034D0008F838BE388878FEF898749E050E0B701BE
:1034E000C6010E940210C6010E944611A6960FB6A0
:1034F000F894DEBF0FBECDBFDF91CF911F910F912A
:10350000FF90EF90DF90CF90BF90AF909F908F9003
:103510007F90089590E0FC01E85BFC4F2491FC0152
:10352000EE5FFC4F8491882399F090E0880F991FFB
:10353000FC01E851FD4FA591B491FC01E253FD4F10
:10354000859194918FB7F894EC91E22BEC938FBF17
:103550000895CF92DF92EF92FF92CF93DF936C01A9
:10356000990FEE08FF08F7FE1CC0E0919504F0915A
:1035700096040190F081E02D6DE285E994E01995C3
:10358000EC0144275527BA014C195D096E097F09E2
:103590002AE085E994E00E947F147C01EC0EFD1E78
:1035A00008C02AE0B701A60185E994E00E947F14D3
:1035B0007C016EE873E085E994E00E946A148E0D48
:1035C0009F1DDF91CF91FF90EF90DF90CF900895F6
:1035D000CF93C82F462F61E070E00E94161161E082
:1035E00070E08C2F0E9420118111F9CFCF910895A6
:1035F0009F92AF92BF92CF92DF92EF92FF920F9382
:103600001F93CF93DF93982E8B015A01690164E2D7
:1036100070E00E942011E82EF12C65E270E0892D07
:103620000E942011FE2CEE24E82AE701C00FD11FD2
:103630009E013770E92CF12CC701880F991FAC014E
:1036400041585B4F7A01FA0180819181820F931F6B
:10365000A9014C0D5D1D4130584090F000E018E08C
:10366000021B130BA801B5010E94E309A601401B30
:10367000510BB501600F711FF7018081918102C06C
:10368000A601B5010E94E309CC0DDD1D4D2F64E2BA
:1036900070E0892D0E9416114C2F65E270E0892D93
:1036A000DF91CF911F910F91FF90EF90DF90CF901E
:1036B000BF90AF909F900C941611FF920F931F93A1
:1036C000CF93DF93F82EC0E0D0E08F2D0E949409B5
:1036D0008C01892B21F08F2D0E949409EC01C017D9
:1036E000D10799F7CE01DF91CF911F910F91FF90F4
:1036F00008958F929F92AF92BF92CF92DF92EF92F6
:10370000FF920F931F93CF93DF93B82E4B018A0143
:10371000A22E68E270E00E942011C82FD0E069E27A
:1037200070E08B2D0E942011DC2FCC27C82B9E012E
:103730003770CB2CD12CC601880F991FAC0149578B
:103740005B4F6A01FA0180819181820F931FA8016A
:10375000420F531F4130584098F060E078E07B0101
:10376000E21AF30AA701B4010E94B309A8014E1995
:103770005F09B4016E0D7F1DF6018081918102C049
:10378000A801B4010E94B309A1100EC0C00FD11F3F
:103790004D2F68E270E08B2D0E9416114C2F69E2CC
:1037A00070E08B2D0E941611DF91CF911F910F9128
:1037B000FF90EF90DF90CF90BF90AF909F908F9051
:1037C00008958AE395E00C94EB13CF93DF93CDB784
:1037D000DEB7A4970FB6F894DEBF0FBECDBF7894C6
:1037E00084B5826084BD84B5816084BD85B5826006
:1037F00085BD85B5816085BD80916E0081608093B7
:103800006E0010928100809181008260809381001F
:10381000809181008160809381008091800081602F
:10382000809380008091B10084608093B10080918A
:10383000B00081608093B00080919100826080939D
:10384000910080919100816080939100809190001F
:103850008160809390008091A10082608093A1009C
:103860008091A10081608093A1008091A00081607F
:103870008093A0008091210182608093210180913A
:1038800021018160809321018091200181608093DA
:10389000200180917A00846080937A0080917A0080
:1038A000826080937A0080917A00816080937A00B0
:1038B00080917A00806880937A001092C100E09134
:1038C000A504F091A60482E08083E091A104F09128
:1038D000A2041082E091A304F091A4048FEC8083F1
:1038E0001092AD04E091A904F091AA0486E08083CF
:1038F000E091A704F091A804808180618083E09129
:10390000A704F091A804808188608083E091A704D7
:10391000F091A804808180688083E091A704F091F1
:10392000A80480818F7D80838AEE682E82E0782EC5
:10393000CE0101966C017E0199E1E90EF11C560160
:1039400096E0592E3E2C4F2C2EEA822E22E0922E0B
:10395000F301DE015F96852D01900D928A95E1F7C6
:103960008BE090E00E944C1F8C01FE017F96A32DFE
:10397000B42D852D01900D928A95E1F7D8018D9295
:103980009D92E32DF42D852D01900D928A95E1F7FE
:10399000D80119961C921E9218971A961C921A9783
:1039A00012968C910E948A1AF80184810E948A1AC8
:1039B000D80116968C910E948A1A82E30E948A1A74
:1039C000F501019311935F01F6E06F0E711CAE14C7
:1039D000BF0409F0BDCF81E090E00E944C1F5C0164
:1039E00090937304809372048DE190E00E944C1FC9
:1039F0008C0186EC92E0D80111969C938E935A9696
:103A00001C925A975C96BC92AE925B97F8013296E4
:103A1000D6018D919D916D0181939193AE15BF0556
:103A2000B9F782E30E948A1A10937104009370041C
:103A300018A21F8E1AA219A21CA21BA260913A05FD
:103A400070913B056115710541F040913E05509123
:103A50003F05CE014F960E94AB138DE098E00E9487
:103A60004C1F8C01AE01415E5F4F62E072E00E942C
:103A7000AE0710936F0400936E04CE014F960E9420
:103A8000EB1385E090E00E944C1F8C018CED92E0DE
:103A9000F801918380831382128214821093680448
:103AA00000936704F89484B7877F84BF83B78460EA
:103AB00083BF88E18093600081E680936000789402
:103AC000109375040093740486E090E00E944C1FEC
:103AD000DC0112961D921D921D921C9215979093D7
:103AE0006D0480936C0488E090E00E944C1FFC0100
:103AF00080916E0490916F04209170043091710454
:103B000011821082338322839583848317830683F3
:103B1000F0936B04E0936A0410926904809174043A
:103B200090917504DC01ED91FC910280F381E02D10
:103B300043E05AE36FE21995809174049091750403
:103B4000DC01ED91FC910680F781E02D19950E9432
:103B5000A91A60E072EC8BEE9BE00E9410130E94A9
:103B6000CC08DCCFEFE8F4E086E693E09183808335
:103B70001282138214821582E6E4F5E09183808339
:103B80001282138214821582ECE4F5E09183808323
:103B90001282138214821582E5E9F4E01382128204
:103BA00048EE53E060E070E044835583668377839A
:103BB00026E333E03183208325EC30E0358724870A
:103BC00024EC30E03787268720EC30E0318B208BE7
:103BD00021EC30E0338B228B22EC30E0358B248BD0
:103BE00026EC30E0378B268B118E128E138E148EBE
:103BF000E2E5F5E0918380831282138214821582BC
:103C0000E8E5F5E0918380831282138214821582A5
:103C1000EEE5F5E09183808312821382148215828F
:103C2000E2E3F5E09183808312821382148215828D
:103C3000E4E6F5E091838083128213821482158278
:103C4000E0E4F5E09183808312821382148215826E
:103C500067ED73E08AE395E00C94F0138F929F92E6
:103C6000AF92BF92CF92DF92EF92FF92CF93DF930A
:103C7000EC01688179818A819B81611571058105DB
:103C8000910521F464E279ED8BE597E02DE133EFC6
:103C900041E050E00E94DA1E49015A019B01AC014B
:103CA000A7EAB1E40E94F91E6B017C01ACEEB4EF0F
:103CB000A50194010E94071FDC01CB018C0D9D1D05
:103CC000AE1DBF1DB7FF03C00197A109B04888838F
:103CD0009983AA83BB83BC01CD019F77DF91CF91EC
:103CE000FF90EF90DF90CF90BF90AF909F908F901C
:103CF00008950C942E1E88E092E00C942E1E609382
:103D000008027093090280930A0290930B020895AF
:103D10001F93FC0199278827BC01E8941191103268
:103D2000E9F3193010F01E30C8F31B3251F01D3288
:103D300049F4689406C00E94AF1E610F711D811D79
:103D4000911D119110531A30B0F33EF49095809567
:103D5000709561957F4F8F4F9F4F1F910895592FF9
:103D6000482F372F262F660F771F881F991F660F42
:103D7000771F881F991F620F731F841F951F660F7F
:103D8000771F881F991F0895F999FECF92BD81BDB5
:103D9000F89A992780B50895262FF999FECF1FBA72
:103DA00092BD81BD20BD0FB6F894FA9AF99A0FBE64
:103DB00001960895052E97FB1EF400940E94F11EB3
:103DC00057FD07D00E940C1F07FC03D04EF40C9443
:103DD000F11E50954095309521953F4F4F4F5F4FC5
:103DE000089590958095709561957F4F8F4F9F4F67
:103DF00008950E942E1FA59F900DB49F900DA49F23
:103E0000800D911D11240895B7FF0C94F91E0E9496
:103E1000F91E821B930B0895A1E21A2EAA1BBB1B4D
:103E2000FD010DC0AA1FBB1FEE1FFF1FA217B30786
:103E3000E407F50720F0A21BB30BE40BF50B661F9C
:103E4000771F881F991F1A9469F760957095809560
:103E500090959B01AC01BD01CF010895A29FB001D7
:103E6000B39FC001A39F700D811D1124911DB29FAE
:103E7000700D811D1124911D0895EE0FFF1F881FE5
:103E80008BBF0790F691E02D199469279627692733
:103E90007827872778270895CF93DF93823091057D
:103EA00010F482E090E0E0916C05F0916D0520E067
:103EB00030E0C0E0D0E0309711F1408151814817E7
:103EC0005907C0F04817590761F482819381209700
:103ED00019F09B838A832BC090936D0580936C05AA
:103EE00026C02115310519F04217530718F49A011D
:103EF000BE01DF01EF010280F381E02DDCCF21154F
:103F0000310509F1281B390B2430310590F4129644
:103F10008D919C9113976115710521F0FB0193839D
:103F2000828304C090936D0580936C05FD013296E9
:103F300044C0FD01E20FF31F819391932250310998
:103F40002D933C933AC020916A0530916B05232B49
:103F500041F420910E0230910F0230936B052093B3
:103F60006A0520910C0230910D022115310541F4B2
:103F70002DB73EB74091100250911102241B350B12
:103F8000E0916A05F0916B05E217F307A0F42E1B90
:103F90003F0B2817390778F0AC014E5F5F4F2417AD
:103FA000350748F04E0F5F1F50936B0540936A052D
:103FB0008193919302C0E0E0F0E0CF01DF91CF91D7
:103FC00008950F931F93CF93DF93009709F48CC04C
:103FD000FC0132971382128200916C0510916D05DD
:103FE0000115110581F420813181820F931F2091E9
:103FF0006A0530916B052817390779F5F0936B0541
:10400000E0936A0571C0D80140E050E0AE17BF07E9
:1040100050F412962D913C911397AD012115310565
:1040200009F1D901F3CF9D01DA0133832283608145
:104030007181860F971F8217930769F4EC0128811D
:104040003981260F371F2E5F3F4F318320838A81AE
:104050009B8193838283452B29F4F0936D05E09334
:104060006C0542C01396FC93EE931297ED014991B3
:1040700059919E01240F351FE217F30771F48081D7
:104080009181840F951F029611969C938E93828145
:10409000938113969C938E931297E0E0F0E0D80101
:1040A00012968D919C911397009719F0F8018C014D
:1040B000F6CF8D919C9198012E5F3F4F820F931FF9
:1040C00020916A0530916B052817390769F43097FC
:1040D00029F410926D0510926C0502C013821282B1
:1040E00010936B0500936A05DF91CF911F910F919B
:1040F00008956F927F928F929F92AF92BF92CF92CC
:10410000DF92EF92FF920F931F93CF93DF93EC0117
:10411000009789F4CB01DF91CF911F910F91FF9010
:10412000EF90DF90CF90BF90AF909F908F907F9057
:104130006F900C944C1FFC01E60FF71F9C0122505E
:104140003109E217F30708F4ACC0D9010D911C91B5
:10415000119706171707B0F00530110508F49FC036
:10416000C80104978617970708F499C002501109EF
:10417000061B170B019311936D937C93CF010E9443
:10418000E11F8DC05B01A01AB10A4C01800E911E87
:10419000A0916C05B0916D0540E050E0E12CF12C50
:1041A000109709F44AC0A815B905D1F56D907C9017
:1041B0001197630182E0C80ED11CCA14DB0480F1A0
:1041C000A3014A195B096A0182E0C80ED11C12964C
:1041D000BC9012971396AC91B5E0CB16D10440F089
:1041E000B282A38351834083D9016D937C930AC02B
:1041F0000E5F1F4FC301800F911FF90191838083D0
:10420000EB2DFA2FE114F10431F0D7011396FC9352
:10421000EE93129744C0F0936D05E0936C053FC098
:104220008D919C9111974817590708F4AC017D01B5
:1042300012960D90BC91A02DB3CF80916A059091FC
:104240006B0588159905E1F446175707C8F4809166
:104250000C0290910D02009741F48DB79EB74091EA
:10426000100250911102841B950BE817F907C8F44E
:10427000F0936B05E0936A05F901718360830FC0C9
:10428000CB010E944C1F7C01009759F0A801BE0190
:104290000E947421CE010E94E11FC70104C0CE011B
:1042A00002C080E090E0DF91CF911F910F91FF90CD
:1042B000EF90DF90CF90BF90AF909F908F907F90C6
:1042C0006F90089581E090E0F8940C946A24FB01CB
:1042D000DC0104C08D910190801921F441505040BF
:1042E000C8F7881B990B0895FB01DC0102C00190FF
:1042F0000D9241505040D8F70895FB01DC01019028
:104300000D920020E1F70895FB01DC01415050407F
:1043100048F001900D920020C9F701C01D92415054
:104320005040E0F708950F931F93CF93DF93CDB7DD
:10433000DEB72E970FB6F894DEBF0FBECDBF0E8945
:104340001F8986E08C831A8309838FEF9FE79E8302
:104350008D83AE01465E5F4F688D798DCE010196EB
:104360000E94C3212F813885F801E20FF31F1082CC
:104370002E960FB6F894DEBF0FBECDBFDF91CF9162
:104380001F910F9108952F923F924F925F926F92DB
:104390007F928F929F92AF92BF92CF92DF92EF92D5
:1043A000FF920F931F93CF93DF93CDB7DEB72C9778
:1043B0000FB6F894DEBF0FBECDBF7C016B018A0142
:1043C000FC0117821682838181FFBDC1CE01019657
:1043D0004C01F7019381F60193FD859193FF819143
:1043E0006F01882309F4ABC1853239F493FD8591BF
:1043F00093FF81916F01853229F4B70190E00E940B
:10440000D423E7CF512C312C20E02032A0F48B3282
:1044100069F030F4803259F0833269F420612CC0A5
:104420008D3239F0803339F4216026C02260246057
:1044300023C0286021C027FD27C030ED380F3A3057
:1044400078F426FF06C0FAE05F9E300D1124532E4B
:1044500013C08AE0389E300D1124332E20620CC028
:104460008E3221F426FD6BC1206406C08C3611F417
:10447000206802C0883641F4F60193FD859193FFD0
:1044800081916F018111C1CF982F9F7D95549330F9
:1044900028F40C5F1F4FFFE3F9830DC0833631F022
:1044A000833771F0833509F05BC022C0F801808149
:1044B00089830E5F1F4F44244394512C540115C02F
:1044C0003801F2E06F0E711CF801A080B18026FF68
:1044D00003C0652D70E002C06FEF7FEFC5012C8730
:1044E0000E94C9232C0183012C852F77222E17C00F
:1044F0003801F2E06F0E711CF801A080B18026FF38
:1045000003C0652D70E002C06FEF7FEFC5012C87FF
:104510000E94BE232C012C852068222E830123FCBF
:104520001BC0832D90E048165906B0F4B70180E215
:1045300090E00E94D4233A94F4CFF50127FC8591B2
:1045400027FE81915F01B70190E00E94D4233110D2
:104550003A94F1E04F1A51084114510471F7E5C043
:10456000843611F0893639F5F80127FF07C06081DC
:104570007181828193810C5F1F4F08C060817181BE
:10458000072E000C880B990B0E5F1F4F2F76722E93
:1045900097FF09C090958095709561957F4F8F4FDB
:1045A0009F4F2068722E2AE030E0A4010E940C2464
:1045B000A82EA81844C0853729F42F7EB22E2AE0F1
:1045C00030E025C0F22FF97FBF2E8F36C1F018F4EE
:1045D000883579F0B4C0803719F0883721F0AFC042
:1045E0002F2F2061B22EB4FE0DC08B2D8460B82E0B
:1045F00009C024FF0AC09F2F9660B92E06C028E08C
:1046000030E005C020E130E002C020E132E0F801F6
:10461000B7FE07C060817181828193810C5F1F4F5B
:1046200006C06081718180E090E00E5F1F4FA401A1
:104630000E940C24A82EA818FB2DFF777F2E76FE53
:104640000BC0372D3E7FA51450F474FE0AC072FCD7
:1046500008C0372D3E7E05C0BA2C372D03C0BA2CBA
:1046600001C0B52C34FF0DC0FE01EA0DF11D8081A3
:10467000803311F4397E09C032FF06C0B394B3947D
:1046800004C0832F867809F0B39433FD13C030FF44
:1046900006C05A2CB31418F4530C5B18B32CB31483
:1046A00068F4B70180E290E03C870E94D423B39481
:1046B0003C85F5CFB31410F43B1801C0312C34FF06
:1046C00012C0B70180E390E03C870E94D4233C8570
:1046D00032FF17C031FD03C088E790E002C088E5D3
:1046E00090E0B7010CC0832F867859F031FF02C0EB
:1046F0008BE201C080E237FD8DE2B70190E00E94BD
:10470000D423A51438F4B70180E390E00E94D423A9
:104710005A94F7CFAA94F401EA0DF11D8081B701F4
:1047200090E00E94D423A110F5CF332009F451CE9C
:10473000B70180E290E00E94D4233A94F6CFF701CB
:104740008681978102C08FEF9FEF2C960FB6F89469
:10475000DEBF0FBECDBFDF91CF911F910F91FF90B4
:10476000EF90DF90CF90BF90AF909F908F907F9011
:104770006F905F904F903F902F900895FC010590AF
:10478000615070400110D8F7809590958E0F9F1F53
:104790000895FC016150704001900110D8F7809598
:1047A00090958E0F9F1F08950F931F93CF93DF93C4
:1047B000FB01238121FD03C08FEF9FEF28C022FF63
:1047C00016C046815781248135814217530744F42E
:1047D000A081B1819D012F5F3F4F318320838C9356
:1047E000268137812F5F3F4F3783268310C0EB012F
:1047F000092F182F0084F185E02D1995892BE1F6FA
:104800008E819F8101969F838E83812F902FDF91D0
:10481000CF911F910F910895FA01AA27283051F1E5
:10482000203181F1E8946F936E7F6E5F7F4F8F4FE1
:104830009F4FAF4FB1E03ED0B4E03CD0670F781F40
:10484000891F9A1FA11D680F791F8A1F911DA11D25
:104850006A0F711D811D911DA11D20D009F468945E
:104860003F912AE0269F11243019305D3193DEF606
:10487000CF010895462F4770405D4193B3E00FD0BC
:10488000C9F7F6CF462F4F70405D4A3318F0495DA7
:1048900031FD4052419302D0A9F7EACFB4E0A6958A
:1048A0009795879577956795BA95C9F700976105AC
:1048B000710508959B01AC010A2E06945795479502
:1048C00037952795BA95C9F7620F731F841F951FF7
:1048D000A01D089511E0C8ECD1E000E006C0802FD3
:1048E000FE010E943D1F2196011DC93CD10780E0B9
:0848F0000807A9F7F894FFCFB7
:1048F80000C090A2DA0E831C0100000000006E05C3
:104908008000000000006C0CB50D920C0110E90C41
:10491800CF0CEF10290EF20C1211FB11D711F90F61
:104928008E0C8C0CEE0F820C000000002402230277
:1049380020021B0217020F020D02B3020A0207022D
:10494800FC01BC0201005E00000000000000060936
:104958000609920C06090609060906090609EC0F5C
:1049680006090609060906090609060906090609C7
:10497800060900000000B70F0210920C0509CD0FC0
:10498800020B550AC210DD0BAD108F113A104611FB
:104998002B0BE30AE50FD50FD10F00000000F70E2F
:1049A800AF0D6E0D650D0000000000000000060947
:1049B800060900000000B1027C0260075D021B07C7
:1049C800350232022802250200000000C70CB20C92
:1049D800A80CA40CA00C9D0C950C1E001D001C001E
:1049E800180017001600020003000400020003006C
:1049F8000400020003000400020003000400020097
:104A08000300040002000300040002000300040085
:104A18000200030004000200030004000200030077
:104A280004000000000063086812FB07AA082C08AD
:104A38000A081E080000000006096812920C910C72
:104A48000609060906090000000006096812920C0A
:104A5800910C00000000C814000000000609436F14
:104A68006E6E656374656400474554202F20485472
:104A780054502F312E3100486F73743A20000D0ABC
:104A880000436F6E6E656374696F6E3A20636C6F76
:104A98007365003C7370616E2069643D2263746CB9
:104AA80030315F4C5F2564223E003C7370616E209C
:104AB80069643D2263746C30315F4C5F30223E0084
:104AC80057495A6E657400766972747565757361B5
:104AD80067652E617A757265776562736974657347
:064AE8002E6E65742F0024
:00000001FF
