:100000000C945E000C9486000C9486000C94860080
:100010000C9486000C9486000C9482150C94860037
:100020000C9486000C9486000C9486000C94860038
:100030000C9486000C9486000C9486000C94860028
:100040000C9457080C9486000C94720B0C944C0B77
:100050000C9486000C9486000C9486000C94860008
:100060000C9486000C948600000000080002010039
:100070000003040700000000000000000000000072
:10008000250028002B0000000000240027002A0083
:10009000040404040404040402020202020203032E
:1000A0000303030301020408102040800102040836
:1000B0001020010204081020601D051A11241FBE23
:1000C000CFEFD8E0DEBFCDBF13E0A0E0B1E0E4E0C9
:1000D000F8E402C005900D92A032B107D9F724E0F0
:1000E000A0E2B3E001C01D92A839B207E1F710E029
:1000F000CDE5D0E004C02197FE010E941D1FCC3544
:10010000D107C9F70E94091A0C94F5230C9400003A
:10011000FC0183A10895FC0183810895FC01828183
:1001200008950B960895FC012481822F90E02C30D5
:1001300008F00C970895FC01878190850895FC01D3
:100140006481758186810895FC0163A308950895F3
:100150000895FC01628F08956F5F7F4F660F771FD0
:10016000860F971FFC01808191810895FC01828D8B
:100170000895CF92DF92EF92FF920F931F93CF9348
:10018000DF937C016A018B01C0E0D0E0CC15DD0576
:100190007CF4D8016D917D918D01D701ED91FC9199
:1001A0000084F185E02DAE01C70109952196EECFBF
:1001B000DF91CF911F910F91FF90EF90DF90CF9043
:1001C0000895EF92FF920F931F93CF93DF93EC016B
:1001D0008A01E881F9810190F081E02D09957C0187
:1001E000000F111FC00FD11F8A819B81DC01ED918F
:1001F000FC910680F781E02D60E070E009958A812E
:100200009B81DC01ED91FC910480F581E02DB7012B
:10021000DF91CF911F910F91FF90EF900994EF9292
:10022000FF920F931F93CF93DF938C017B01C0E06C
:10023000D0E0CE15DF055CF4D801ED91FC9104808F
:10024000F581E02DBE01C80109952196F2CFDF911D
:10025000CF911F910F91FF90EF900895AF92BF92B1
:10026000CF92DF92EF92FF920F931F93CF93DF9382
:1002700061157105E9F012161306D4F479016C01C9
:10028000EB018A01A12CB12C69917991D601ED91F4
:10029000FC910190F081E02DC6010995F801819350
:1002A00091938F01FFEFAF1ABF0AAE14BF0461F73D
:1002B000DF91CF911F910F91FF90EF90DF90CF9042
:1002C000BF90AF900895CB010895C0960E949919F0
:1002D00091E0811101C090E0892F08952F923F9203
:1002E0004F925F926F927F928F929F92AF92BF9246
:1002F000CF92DF92EF92FF920F931F93CF93DF93F2
:10030000CDB7DEB7A6970FB6F894DEBF0FBECDBF50
:100310007C012DB73EB73CA32BA36C0134E2C30E86
:10032000D11C80917F0381112AC010926703109223
:10033000660388EE93E0A0E0B0E0809368039093BA
:100340006903A0936A03B0936B038CE492E09093EB
:1003500065038093640388E192E090937303809334
:100360007203109274031092750310927603109228
:10037000770384E080937C0381E080937F0381E2B4
:1003800093E090935504809354046CE271E080E014
:1003900090E00E9411081FB7F8948091200381110A
:1003A00024C0EAE9F0E08491EEEAF0E0249190E0E4
:1003B000880F991F8A579F4FFC01A591B491EC912A
:1003C000E22321F461E08AE00E94C5078AE00E94EE
:1003D000FC0D8CB580618CBD8CB580648CBD8DE0CE
:1003E0000E94FC0D8BE00E94FC0D809120038F5F2A
:1003F000809320031FBF229A80E590E00E947B1427
:1004000060E880E090E00E94260C65E58BE190E0DA
:100410000E94260C65E58AE190E00E94260C0E946D
:100420007A1480E090E49093A2038093A10380E08B
:1004300090E69093AA038093A90380E098E49093B8
:10044000A4038093A30380E098E69093AC03809389
:10045000AB0380E090E59093A6038093A50380E032
:1004600090E79093AE038093AD0380E098E590937E
:10047000A8038093A70380E098E79093B00380934C
:10048000AF0380E590E00E947B1446E050E0B601A7
:1004900089E090E00E94F70B88E192E09A838983DB
:1004A0001B821C821D821E8244E050E0BE016D5FF3
:1004B0007F4F8FE090E00E94F70B0E947A1400912A
:1004C000540410915504D80192961D921D921D92CC
:1004D0001C929597F80116A217A210A611A69A963B
:1004E0001D921D921D921C929D9780E69AEEA0E0AF
:1004F000B0E086AB97ABA0AFB1AF80EA9FE0A0E0E1
:10050000B0E082AF93AFA4AFB5AFD801189686E044
:10051000FD01282F11922A95E9F79801225F3F4F9C
:1005200094E1F90111929A95E9F7F60101900D9283
:100530008A95E1F74801F2E48F0E911CD4011C92D8
:100540000E942A1E2FEC37E040E050E00E947C1E03
:10055000DC01CB010196A11DB11DF80184839583B7
:10056000A683B78380839183A283B3835801F3E486
:10057000AF0EB11CC5010E94731864E470E0C501A0
:100580000E948818882309F4DDC20E944B082B01C1
:100590003C01212C312CD12C42E0C42ED4018C9171
:1005A000833009F405C1811121C0F801848195814E
:1005B000A681B7810196A11DB11D84839583A68371
:1005C000B7830E944B08641975098609970928EEBC
:1005D00033E040E050E00E94E51EA90161E0C8015F
:1005E0000E94B70681E0D4018C93C4C0843001F529
:1005F000F80184819581A681B7810196A11DB11D65
:1006000084839583A683B7830E944B086419750978
:100610008609970928EE33E040E050E00E94E51E8D
:10062000A90163E0C8010E94B706D401CC92A2C020
:10063000813061F5F80142AD53AD64AD75AD9E01F9
:100640002F5F3F4FC8010E94A411D82EF2E08F13F4
:1006500091C089819A81AB81BC81F80184839583A3
:10066000A683B7830E944B08641975098609970908
:1006700028EE33E040E050E00E94E51EA90163E06F
:10068000C8010E94B706D401DC927AC0823009F01A
:1006900071C0F80142AD53AD64AD75AD9E012F5FE1
:1006A0003F4FC8010E94A411D82EF5E08F135CC003
:1006B000E3E0D401EC93F80182A193A1A4A1B5A138
:1006C000892B8A2B8B2B41F484E893E0A0E0B0E0E7
:1006D00082A393A3A4A3B5A3F80186A197A1A0A583
:1006E000B1A5892B8A2B8B2B61F482A193A1A4A1A4
:1006F000B5A1B695A7959795879586A397A3A0A72B
:10070000B1A7F80182A593A5A4A5B5A5892B8A2B2D
:100710008B2BA9F482A193A1A4A1B5A1AC01BD0129
:1007200023E076956795579547952A95D1F7841BD1
:10073000950BA60BB70B82A793A7A4A7B5A7F801A3
:1007400086A197A1A0A5B1A586A797A7A0ABB1AB9D
:1007500082A593A5A4A5B5A582AB93ABA4ABB5AB7D
:1007600022242394312C0CC0F6E08F1303C0D40153
:100770001C9206C0BFEFDB1203C0F4011082D12C23
:10078000F1E02F16310409F409CF0E944B08DC0177
:10079000CB0184199509A609B709F80126A937A93B
:1007A00040AD51AD281739074A075B0708F0F6CE70
:1007B000C5010E947318F80184819581A681B781D3
:1007C0000196A11DB11D84839583A683B7830E94E2
:1007D0004B08F801FE9660837183828393832A9489
:1007E000232809F0AFC180E590E00E947B1460915E
:1007F000540470915504625F7F4FCE0101960E94B0
:100800003C0B44E050E0BE016D5F7F4F8FE090E015
:100810000E94F70B60915404709155046A5E7F4FFB
:10082000CE0101960E943C0B44E050E0BE016D5F9A
:100830007F4F81E090E00E94F70B6091540470912B
:1008400055046E5E7F4FCE0101960E943C0B44E042
:1008500050E0BE016D5F7F4F85E090E00E94F70B96
:100860000E947A146091540470915504625E7F4F27
:10087000CE0101960E943C0B8B819C81AD81BE8193
:100880008093500490935104A0935204B093530466
:10089000D70118961C921E921797CDB6DEB69E967B
:1008A0000D911C919F97C8010196EDB7FEB7E81B0B
:1008B000F90B0FB6F894FEBF0FBEEDBF2DB73EB7D4
:1008C0002F5F3F4F5901892BA1F02115310589F088
:1008D0000115110519F4D9011C920BC0F70162A58D
:1008E00073A5A801C9010E944521F501E00FF11F80
:1008F00010828701005D1F4F40E550E0B501C8013F
:100900000E94CD13019769F560E772E081EB93E0F7
:100910000E94E8096AE772E0C8010E94E80969E8F4
:1009200072E0C8010E948A09D7019E964D915C91A0
:100930009F979A966D917C919B97C8010E947E1417
:1009400060E972E0C8010E948A0963E972E0C801A7
:100950000E94E80960E972E0C8010E948A0981E00A
:1009600001C080E00FB6F894DEBE0FBECDBE882376
:1009700009F4E4C06701BDE3CB0ED11CC8010E949D
:100980006617892B41F0C8010E944C17F60181932C
:100990006F011082F3CFD701ED91FC91008CF18DA6
:1009A000E02DC7010995882309F4C8C0F70183A188
:1009B000882309F4C3C05701FBE0AF0EB11C01E06E
:1009C00010E085EA882E82E0982ECDB6DEB60A3099
:1009D00011051CF027E130E002C026E130E08DB7C0
:1009E0009EB7821B930B0FB6F8949EBF0FBE8DBFB0
:1009F000ADB7BEB711963D011F930F939F928F9293
:100A00007F92AF932DA33EA30E9454212DA13EA11E
:100A1000A301B701CE0101960E94BD1562E972E003
:100A2000CE0101960E94AC080F900F900F900F908E
:100A30000F900F90811118C0CE0101960E94A1085D
:100A4000F501619371935F01CE0101960E940B093C
:100A50000FB6F894DEBE0FBECDBE0F5F1F4F0D3038
:100A6000110509F0B2CF0AC0CE0101960E940B0910
:100A70000FB6F894DEBE0FBECDBE60C086E1ECEBD3
:100A8000F2E0DE01119601900D928A95E1F726E1E0
:100A900030E0AE014F5F5F4FB701CE014D960E942F
:100AA000BD1562E972E0CE014D960E94AC0881113D
:100AB00041C022E030E040E050E0BE01635E7F4F85
:100AC000CE0147960E942509CE0147960E94A108B3
:100AD000D70114966C93CE0147960E940B0925E02E
:100AE00030E043E050E0BE01635E7F4FCE014796A9
:100AF0000E942509CE0147960E94A108F70165834F
:100B0000CE0147960E940B0928E030E046E050E015
:100B1000BE01635E7F4FCE0147960E942509CE013C
:100B200047960E94A108D70116966C93CE0147966E
:100B30000E940B09CE014D960E940B0981E0F7013E
:100B4000838311C0F7018781908501969087878301
:100B50000A9749F481E0D70113968C93139718965E
:100B60001C921E9217972BA13CA10FB6F8943EBF82
:100B70000FBE2DBFA6960FB6F894DEBF0FBECDBF39
:100B8000DF91CF911F910F91FF90EF90DF90CF9069
:100B9000BF90AF909F908F907F906F905F904F909D
:100BA0003F902F900895CF92DF92EF92FF920F9394
:100BB0001F93CF93DF93EB01CC0FDD1FC80FD91F1D
:100BC0000A811B81D8011496CD90DC901597C6013F
:100BD0000E94741EB0E88B9F70011124C60101961B
:100BE0000E94741EE82AF801F186E0860190F081E7
:100BF000E02D0680F781E02D61E070E0C8010995E5
:100C00008A819B81DC01ED91FC91119718966D9181
:100C10007C9119970480F581E02D0995EA81FB818B
:100C20001286DF91CF911F910F91FF90EF90DF908F
:100C3000CF9008950F931F93CF93DF93EC018B0117
:100C40008CE391E0998388831A821B8218861F8225
:100C50008FEF9FEF9A8789871BA2CE018A961BA6EA
:100C60001AA61DA61CA61FA61EA68417950751F03E
:100C7000FA01608171816115710521F0448155810E
:100C80000E94CB081BAA1AAA88EE93E0A0E0B0E06D
:100C90008CAB9DABAEABBFAB86E191E099AB88ABC3
:100CA00084E08CAFF80180818CA381818DA3828147
:100CB0008EA383818FA3848188A7858189A71C82C5
:100CC0001D821E82DF91CF911F910F9108953FB732
:100CD000F89480919B0390919C03A0919D03B09107
:100CE0009E0326B5A89B05C02F3F19F00196A11DB4
:100CF000B11D3FBFBA2FA92F982F8827820F911DB2
:100D0000A11DB11DBC01CD0142E0660F771F881FF8
:100D1000991F4A95D1F70895CF92DF92EF92FF92F3
:100D20000F931F93CF93DF936C017A018B01C0E087
:100D3000D0E0CE15DF0589F0D8016D918D01D60187
:100D4000ED91FC910190F081E02DC6010995892B70
:100D500011F47E0102C02196ECCFC701DF91CF9143
:100D60001F910F91FF90EF90DF90CF9008957F92A9
:100D70008F929F92AF92BF92CF92DF92EF92FF92AB
:100D80000F931F93CF93DF93CDB7DEB7A6970FB620
:100D9000F894DEBF0FBECDBF8C01762E942E852E2B
:100DA00020E2B22ECE0101967C01FC012B2D119286
:100DB0002A95E9F788E192E09AA389A38FEF8BA3A4
:100DC0008CA38DA38EA3680183E4C80ED11C43E4D9
:100DD00050E0BE016F5D7F4FC6010E945119019620
:100DE00009F4BFC081E089838A8386E0A82EAB82A4
:100DF0001C82F80164817581868197810E94161F8B
:100E00006D837E838F83988789869A8680E890E0B9
:100E10009C878B874CE150E0B701C6010E94C81740
:100E2000F7012B2D11922A95E9F7480188E0880EE9
:100E3000911CF401D70101900D92AA94E1F740E1D1
:100E400050E0B701C6010E94C817F7011192BA9489
:100E5000E9F796E0A92EB12C40E250E0B701C601B7
:100E60000E94C817F1E0AF1AB108B1F783E6898391
:100E700092E89A8393E59B838C8385E38D8381E05D
:100E80008E837F829DE3988797E099878A8786E0A3
:100E9000F401DE011B9601900D928A95E1F78CE03A
:100EA000898B8A8B62ED72E0CE0143960E943E21CF
:100EB000F8014385BE01675E7F4FC8010E948F1114
:100EC000F8014485BE01655E7F4FC8010E948F1105
:100ED000F8014585BE01635E7F4FC8010E948F11F6
:100EE0004EE150E0B701C6010E94C817F3E07F123F
:100EF0001EC082E3898384E08A83F80196859B8300
:100F000097859C8390899D8391899E8396E39F8397
:100F10008887828D8987838D8A87848D8B87858D4D
:100F20008C874CE050E0B701C6010E94C81787E3E8
:100F3000898386E08A8391E09B8393E09C838D8301
:100F40008FE08E838AE38F838BE388878FEF898797
:100F500049E050E0B701C6010E94C817C6010E94CF
:100F60000819A6960FB6F894DEBF0FBECDBFDF916D
:100F7000CF911F910F91FF90EF90DF90CF90BF9096
:100F8000AF909F908F907F90089590E0FC01E8597A
:100F9000FF4F3491FC01EC55FF4F2491FC01E057C9
:100FA000FF4FE491EE2309F43BC0332339F1333092
:100FB00091F038F43130A9F0323001F584B58F7DED
:100FC00012C0373091F03830A1F03430B9F480914C
:100FD00080008F7D03C0809180008F778093800098
:100FE0000DC084B58F7784BD09C08091B0008F7724
:100FF00003C08091B0008F7D8093B000F0E0EE0FD1
:10100000FF1FE458FF4FA591B4918FB7F894EC916E
:10101000611103C020952E2301C02E2B2C938FBF6E
:1010200008958F929F92AF92BF92CF92DF92EF92EC
:10103000FF926B017C010E9467064B015C01C114A9
:10104000D104E104F104F1F00E946706DC01CB0158
:1010500088199909AA09BB09883E9340A105B105E1
:1010600070F321E0C21AD108E108F10888EE880E79
:1010700083E0981EA11CB11CC114D104E104F10449
:1010800019F7DDCFFF90EF90DF90CF90BF90AF903A
:101090009F908F9008952FB7F89460919703709167
:1010A00098038091990390919A032FBF08951F92FE
:1010B0000F920FB60F9211242F933F938F939F930C
:1010C000AF93BF938091970390919803A091990358
:1010D000B0919A033091960323E0230F2D3720F42B
:1010E0000196A11DB11D05C026E8230F0296A11D82
:1010F000B11D209396038093970390939803A09338
:101100009903B0939A0380919B0390919C03A091C3
:101110009D03B0919E030196A11DB11D80939B0379
:1011200090939C03A0939D03B0939E03BF91AF91B6
:101130009F918F913F912F910F900FBE0F901F9015
:101140001895FC0180819181009711F00C94381E54
:1011500060E070E0CB010895FC0124813581232BF0
:1011600031F421E061157105A1F0FB0108C0FC011B
:10117000808191816115710531F421E0FC0180814C
:10118000882339F005C00E94352121E0892B09F020
:1011900020E0822F0895EF92FF920F931F93CF9339
:1011A000DF93EC017B018A0188819981009729F006
:1011B0002A813B8124173507F8F4B8016F5F7F4F10
:1011C0000E945020009759F0998388831B830A83DB
:1011D0002C813D81232B81F4FC0110820DC088817C
:1011E0009981009711F00E94B81F198218821D8200
:1011F0001C821B821A8207C01D830C83B701888161
:1012000099810E943E21CE01DF91CF911F910F91D4
:10121000FF90EF900895FC01808191810C94B81F9C
:10122000FC011182108213821282158214826115D0
:10123000710551F0FB0101900020E9F73197AF01F2
:10124000461B570B0C94CB080895BF92CF92DF92A8
:10125000EF92FF920F931F93CF93DF937C016B016B
:10126000EA0189012417350720F48D2FE901042FA5
:10127000182F62E972E0C7010E941009D601149686
:101280008D919C911597C817D907C8F580179107BC
:1012900008F48C01D601ED91FC911197E00FF11F3C
:1012A000B08010824D915C91BA016C0F7D1F611569
:1012B000710561F0FB0101900020E9F73197AF0162
:1012C000461B570BC7010E94CB0813C0F701808152
:1012D0009181009711F00E94B81FD70111961C92BE
:1012E0001E9215961C921E92149713961C921E9293
:1012F0001297D601ED91FC91E00FF11FB082C7016A
:10130000DF91CF911F910F91FF90EF90DF90CF90E1
:10131000BF9008956115710579F0FB0101900020DF
:10132000E9F73197AF01461B570BDC01ED91FC91BA
:101330000280F381E02D099480E090E008954F92BF
:101340005F926F927F92EF92FF920F931F93CF93D2
:10135000DF93CDB7DEB7A1970FB6F894DEBF0FBE0F
:10136000CDBF7C01FA01CB0119A2223008F42AE09A
:101370008E010F5D1F4F422E512C612C712CBF012D
:10138000A30192010E94E51EF901CA010150110951
:101390006A3014F4605D01C0695CD8016C93232B42
:1013A000242B252B61F7B801C7010E948A09A19659
:1013B0000FB6F894DEBF0FBECDBFDF91CF911F9166
:1013C0000F91FF90EF907F906F905F904F900895F6
:1013D0000F931F93CF93DF93EC010E948A098C0136
:1013E00060E972E0CE010E948A09800F911FDF91AF
:1013F000CF911F910F910895FC01538D448D252F9E
:1014000030E0842F90E0821B930B541710F0CF969E
:10141000089501970895FC01918D828D981761F0D0
:10142000828DDF01A80FB11D5D968C91928D9F5F1B
:101430009F73928F90E008958FEF9FEF0895FC01C6
:10144000918D828D981731F0828DE80FF11D858D79
:1014500090E008958FEF9FEF0895FC01918D228D0C
:10146000892F90E0805C9F4F821B91098F73992791
:10147000089581EB93E00E942D0A21E0892B09F465
:1014800020E0822F0895FC01848DDF01A80FB11D9B
:10149000A35ABF4F2C91848D90E001968F739927AA
:1014A000848FA689B7892C93A089B1898C91806497
:1014B0008C93938D848D981306C00288F389E02D58
:1014C00080818F7D80830895EF92FF920F931F9309
:1014D000CF93DF93EC0181E0888F9B8D8C8D9813E7
:1014E00005C0E889F989808185FD24C0F62E0B8D21
:1014F00010E00F5F1F4F0F731127E02E8C8DE81245
:101500000CC00FB607FCFACFE889F989808185FF06
:10151000F5CFCE010E94430AF1CF8B8DFE01E80F7B
:10152000F11DE35AFF4FF0820B8FEA89FB8980811E
:10153000806207C0EE89FF896083E889F98980812C
:101540008064808381E090E0DF91CF911F910F91C3
:10155000FF90EF900895CF93DF93EC01888D88235F
:10156000C9F0EA89FB89808185FD05C0A889B98910
:101570008C9186FD0FC00FB607FCF5CF808185FFEB
:10158000F2CFA889B9898C9185FFEDCFCE010E9459
:10159000430AE7CFDF91CF91089580E090E0892B57
:1015A00029F00E94390A81110C94000008950895D1
:1015B0008F929F92AF92BF92CF92DF92EF92FF9263
:1015C0000F931F93CF93DF937C01EB016C0182E0BB
:1015D000C80ED11C4701E5E08E0E911C00E010E022
:1015E000F60141916F0150E060E070E02AE0CE0129
:1015F0000E949F095C01E881F9810190F081E02D52
:101600006EE2CE0109958A0D9B1D080F191FC814A3
:10161000D90431F7F701458150E060E070E02AE03D
:10162000CE010E949F09800F911FDF91CF911F91E2
:101630000F91FF90EF90DF90CF90BF90AF909F9071
:101640008F9008950E941A211F93CF93DF93182F34
:1016500066E270E00E94E218C82FD0E067E270E016
:10166000812F0E94E218DC2FCC279E01282BC90174
:10167000DF91CF911F91089528E132E0FC01318381
:101680002083FB014081518162817381FC0142838F
:1016900053836483758308951F920F920FB60F9240
:1016A00011242F933F934F935F936F937F938F9367
:1016B0009F93AF93BF93EF93FF9381EB93E00E94CF
:1016C000430AFF91EF91BF91AF919F918F917F91CD
:1016D0006F915F914F913F912F910F900FBE0F909F
:1016E0001F9018951F920F920FB60F9211242F93EF
:1016F0008F939F93EF93FF93E091C103F091C20307
:101700008081E091C703F091C80382FD12C09081EF
:101710008091CA038F5F8F732091CB03821751F0A2
:10172000E091CA03F0E0EF54FC4F958F8093CA0319
:1017300001C08081FF91EF919F918F912F910F9028
:101740000FBE0F901F9018952A9A08952A98089511
:101750001F93CF93DF93182F60E270E00E94E2188E
:10176000C82FD0E061E270E0812F0E94E218DC2FE8
:10177000CC279E01282BC901DF91CF911F9108959D
:101780008EBD00000DB407FEFDCF8EB50895CF923B
:10179000DF92EF92FF920F931F93CF93DF93EC01B1
:1017A0007A018B016C01C40ED51ECC15DD05A9F0A4
:1017B0000E94A60B8FE00E94C00B8D2F0E94C00BD1
:1017C0008C2F0E94C00B219680E00E94C00BF80174
:1017D00081938F010E94A40BE8CFC701DF91CF91C5
:1017E0001F910F91FF90EF90DF90CF900895CF92CF
:1017F000DF92EF92FF920F931F93CF93DF93EC0151
:101800007A018B016C01C40ED51ECC15DD05A1F04B
:101810000E94A60B80EF0E94C00B8D2F0E94C00B70
:101820008C2F0E94C00B2196F80181918F010E949C
:10183000C00B0E94A40BE9CFC701DF91CF911F918C
:101840000F91FF90EF90DF90CF9008951F93CF936B
:10185000DF9300D0CDB7DEB7182F6A8399830E943B
:10186000A60B80EF0E94C00B9981892F0E94C00BAC
:10187000812F0E94C00B6A81862F0E94C00B0E949C
:10188000A40B81E00F900F90DF91CF911F910895ED
:101890001F93CF93DF9300D0CDB7DEB7182F80E52D
:1018A00090E069837A830E947B1421E041E050E05C
:1018B00069817A81812F0E94AC0E0E947A1481E0A6
:1018C00090E00F900F90DF91CF911F910895CF93EB
:1018D000DF931F92CDB7DEB7FC01218D328D232B14
:1018E00049F0BE016F5F7F4F808D0E94480C898157
:1018F00090E002C08FEF9FEF0F90DF91CF9108959E
:10190000FF920F931F93CF93DF93F82E80E590E023
:101910000E947B14C0E0D0E08F2D0E94240B8C012C
:10192000892B21F08F2D0E94240BEC01C017D107C9
:1019300099F70E947A14CE01DF91CF911F910F91F8
:10194000FF900895AF92BF92CF92DF92EF92FF92F5
:101950001F93CF93DF93182F5B017A0180E590E00E
:101960000E947B14C0E0D0E0812F0E94240B6C0108
:10197000892B21F0812F0E94240BEC01CC15DD0571
:1019800099F7209799F463E070E0812F0E94E218A4
:101990008431F1F08823E1F0C1E0D0E08C3111F422
:1019A000C0E0D0E0D195C195D10912C0EC16FD067A
:1019B0000CF4E7011C161D065CF420E0AE01B50135
:1019C000812F0E94AC0E60E470E0812F0E941B0EFC
:1019D0000E947A14CE01DF91CF911F91FF90EF907A
:1019E000DF90CF90BF90AF900895CF93DF93FC012D
:1019F000218D328D2115310519F48FEF9FEF11C024
:101A0000EC014217530708F0A901888D0E94A20C2F
:101A10001816190694F7298D3A8D281B390B3A8F21
:101A2000298FDF91CF910895CF93C82F80E590E063
:101A30000E947B1460E170E08C2F0E941B0E4FEF20
:101A400062E070E08C2F0E94D818CF910C947A1429
:101A5000FF920F931F93CF93DF9300D0CDB7DEB7E4
:101A6000F82E8A012A8369830E94140D80E590E094
:101A70000E947B142A816981462F422B60E070E02E
:101A80008F2D0E94D8180115110551F400919F0364
:101A90001091A0030F5F1F4F1093A00300939F03AB
:101AA000412F64E070E08F2D0E94D818402F65E030
:101AB00070E08F2D0E94D81861E070E08F2D0E9499
:101AC0001B0E0E947A1481E00F900F90DF91CF914E
:101AD0001F910F91FF900895BF92CF92DF92EF92E6
:101AE000FF920F931F93CF93DF9300D000D000D0CD
:101AF000CDB7DEB7FC01208D243009F053C06A0158
:101B00007B018C01B12C63E070E08B2D0E94E21808
:101B1000811103C0F801B08E06C08831D9F3B394A7
:101B2000F4E0BF12F0CFF801808D8430D9F196E057
:101B3000EEEDF1E0DE01119601900D929A95E1F73C
:101B4000F70193819F779C8394819D8395819E83E8
:101B5000B7016E5F7F4F90E0982F882744E050E0F8
:101B6000845F9B4F0E94F70BB601F801808D0E94A5
:101B70004019F801808D90E0982F882746E050E0CA
:101B8000BE016F5F7F4F8A5F9B4F0E94F70BF8018A
:101B9000128E118E20E8A60162E0808D0E94280D31
:101BA00081E001C080E026960FB6F894DEBF0FBE3C
:101BB000CDBFDF91CF911F910F91FF90EF90DF90FC
:101BC000CF90BF9008951F93CF93DF931F92CDB70F
:101BD000DEB7182F80E590E00E947B1463E070E090
:101BE000812F0E94E21889830E947A1489810F90C4
:101BF000DF91CF911F91089590E0FC01EC55FF4FCC
:101C00002491FC01E057FF4F8491882399F090E0E4
:101C1000880F991FFC01EA57FF4FA591B491FC0171
:101C2000E458FF4F859194918FB7F894EC91E22B93
:101C3000EC938FBF0895CF93C82F462F61E070E0DB
:101C40000E94D81861E070E08C2F0E94E218811188
:101C5000F9CFCF9108959F92AF92BF92CF92DF922A
:101C6000EF92FF920F931F93CF93DF93982E8B01E8
:101C70005A01690164E270E00E94E218E82EF12C3A
:101C800065E270E0892D0E94E218FE2CEE24E82A1D
:101C9000E701C00FD11F9E013770E92CF12CC7015D
:101CA000880F991FAC014F555C4F7A01FA01808172
:101CB0009181820F931FA9014C0D5D1D4130584049
:101CC00090F000E018E0021B130BA801B5010E9480
:101CD000F70BA601401B510BB501600F711FF701F7
:101CE0008081918102C0A601B5010E94F70BCC0D45
:101CF000DD1D4D2F64E270E0892D0E94D8184C2F15
:101D000065E270E0892DDF91CF911F910F91FF90D7
:101D1000EF90DF90CF90BF90AF909F900C94D81829
:101D2000FF920F931F93CF93DF93F82EC0E0D0E084
:101D30008F2D0E94A80B8C01892B21F08F2D0E94E2
:101D4000A80BEC01C017D10799F7CE01DF91CF9115
:101D50001F910F91FF9008958F929F92AF92BF9223
:101D6000CF92DF92EF92FF920F931F93CF93DF9367
:101D7000B82E4B018A01A22E68E270E00E94E218A0
:101D8000C82FD0E069E270E08B2D0E94E218DC2FB2
:101D9000CC27C82B9E013770CB2CD12CC601880FC5
:101DA000991FAC0147555C4F6A01FA01808191810E
:101DB000820F931FA801420F531F4130584098F0E3
:101DC00060E078E07B01E21AF30AA701B4010E9407
:101DD000C70BA8014E195F09B4016E0D7F1DF601F6
:101DE0008081918102C0A801B4010E94C70BA1109B
:101DF0000EC0C00FD11F4D2F68E270E08B2D0E94E6
:101E0000D8184C2F69E270E08B2D0E94D818DF9112
:101E1000CF911F910F91FF90EF90DF90CF90BF90E7
:101E2000AF909F908F9008952F923F924F925F9224
:101E30006F927F928F929F92AF92BF92CF92DF92DA
:101E4000EF92FF920F931F93CF93DF93CDB7DEB73F
:101E500065970FB6F894DEBF0FBECDBF7C016B0156
:101E60003A01FB0120E080E090E06AE03191332309
:101E700009F140ED430F4A3080F4689FA001699F4B
:101E8000500D1124CA01C097830F911D37FD9A95FB
:101E90008F3F910559F350F313C03E3289F423303C
:101EA00079F0D301A20FB11D12968C932F5F80E0C1
:101EB00090E0DCCF233021F4F301858381E021C061
:101EC000F70142815381648175818091640490910E
:101ED0006504A0916604B0916704481759076A0722
:101EE0007B0709F49EC10E944B088701085F1F4FC2
:101EF0006F7077277C5FC8010E948818813019F0C5
:101F000080E090E0F3C188E192E09A838983F70151
:101F100082819381A481B5818B839C83AD83BE83B1
:101F200045E350E0BE016F5F7F4FC8010E94511929
:101F3000892B19F4C12CD12C6FC10E944B08F701D9
:101F4000778366837627672776277A83698342E0DB
:101F500050E0BE016F5F7F4FC8010E94C81781E04B
:101F600090E09E878D8742E050E0BE01635F7F4F27
:101F7000C8010E94C81780E091E09E878D8742E0EB
:101F800050E0BE01635F7F4FC8010E94C8171E86E4
:101F90001D8642E050E0BE01635F7F4FC8010E9492
:101FA000C81742E050E0BE01635F7F4FC8010E9446
:101FB000C81742E050E0BE01635F7F4FC8010E9436
:101FC000C8175601F5018081882311F1F6015F01E0
:101FD0008191811115C045018C189D0818141904B0
:101FE00094F48F8641E050E0BE01615F7F4FC801ED
:101FF0000E94C817A401B601C8010E94C81703C0F7
:102000008E3229F7E8CF6501FFEFCF1ADF0ADACF6A
:102010001F8641E050E0BE01615F7F4FC8010E9412
:10202000C817C12CDD24D394DE86CD8642E050E073
:10203000BE01635F7F4FC8010E94C817DE86CD8650
:1020400042E050E0BE01635F7F4FC8010E94C817A5
:10205000C8010E940819892B09F46CCF63E0A62EF1
:10206000B12CF2E06F0E711C0E944B081B012C0179
:10207000C8010E946F1718161906A4F00E944B0899
:10208000DC01CB0182199309A409B5098938934170
:10209000A105B105D0F462E370E080E090E00E9419
:1020A0001108E6CFF7014281538164817581808DEB
:1020B000918DA28DB38D481759076A077B0741F4AC
:1020C000848D958DC59721F406C02FEF3FEF9AC000
:1020D0002EEF3FEF97C0F70181A192A10C970CF46E
:1020E000A6C04CE050E0BE016F5F7F4FC8010E9468
:1020F000F50C8B8190E0982F88272C81822B9A8B6E
:10210000898B298130E0322F22274A81242BF70145
:10211000468157814217530709F086C097FF84C054
:102120008F709270892B09F0DEC0CF80D12CDC2C0F
:10213000CC248885C82AC114D10409F4D1C0812CCB
:10214000912C8D8190E0982F88272E81822B8816E4
:10215000990608F46FC0812C912C41E050E0BE013B
:102160006D5E7F4FC8010E94F50C8B89982F907C83
:1021700009F093C0811186C08B898111EECF42E0B6
:1021800050E0BE01615F7F4FC8010E94F50C42E044
:1021900050E0BE01635F7F4FC8010E94F50CC8018B
:1021A0000E941F17C8010E941F17C8010E941F1715
:1021B000C8010E941F1742E050E0BE016F5E7F4FD2
:1021C000C8010E94F50C8F8598898115914009F00E
:1021D00069C02D853E8532272327322721303105DE
:1021E00009F060C089899A898115944009F075C009
:1021F00044E050E0B301C8012C8B3D8B0E94F50CEC
:102200002C893D896901F1E0AF1AB10829F02FEF5F
:10221000C216D20609F428CFC8010E947318C6015D
:1022200065C08EEF9FEF62C02CEF3FEFEBCF2DEF3D
:102230003FEFE8CF41E050E0BE01635F7F4FC80150
:102240000E94F50C8D85811113C08D858111F2CF0F
:10225000C8010E941F17C8010E941F17C8010E94D1
:102260001F17C8010E941F17FFEF8F1A9F0A69CF1F
:102270008D859FEF980F9D87882339F3C8010E94B1
:102280001F17F6CF8B899FEF980F9B8B882309F43C
:1022900073CFC8010E941F17F5CFC8010E941F17F6
:1022A0001B8A6ACF412C512C89899A8998278927C2
:1022B00098274816590638F4C8010E941F178FEF57
:1022C000481A580AF1CFEFEF8E1A9E0A8C149D041B
:1022D00009F043CF26EF3FEF95CF27EF3FEF92CFA7
:1022E0002AEF3FEF8FCF2BEF3FEF8CCF65960FB6E6
:1022F000F894DEBF0FBECDBFDF91CF911F910F913C
:10230000FF90EF90DF90CF90BF90AF909F908F9015
:102310007F906F905F904F903F902F90089580E353
:10232000FB0180833296842F82958F7090E1899F84
:10233000401911244A3014F4405D01C0495C4293B5
:10234000482F8111F0CF08952F923F924F925F92C4
:102350006F927F928F929F92AF92BF92CF92DF92B5
:10236000EF92FF920F931F93CF93DF93CDB7DEB71A
:10237000E3970FB6F894DEBF0FBECDBF7C011A0104
:102380002B0139010E944B084B015C0187010D5B59
:102390001F4FC8010E946F1718161906A4F00E945B
:1023A0004B08DC01CB0188199909AA09BB09281639
:1023B00039064A065B06D8F062E370E080E090E000
:1023C0000E941108E6CF42E250E0BE016F5F7F4FEE
:1023D000C8010E94F50C8981823011F080E061C152
:1023E000F8018489958983349105C1F702C08FEF84
:1023F00058C16D817E818F8198850E94161F4B0187
:102400005C01F301608371838283938346E050E033
:10241000B701685F7F4FCE014D960E941F21892B27
:10242000E9F6F70180819181A281B381881699062E
:10243000AA06BB0698F284819581A681B78188158A
:102440009905AA05BB0550F289899A89AB89BC898F
:1024500086879787A08BB18B8EECA82EB12CC801F4
:102460000E941F17F1E0AF1AB108C9F719A667015A
:1024700082E2C80ED11CF701B696FBA7EAA7C701F6
:102480008A969DA78CA73C974F0189969FA78EA7F8
:102490003897F9ABE8AB1701F6E12F0E311CC59761
:1024A0009BAB8AABF801818D928D181619060CF042
:1024B000F7C0C8010E941F178333910509F4CBC0F0
:1024C000FCF481309105C9F11CF4892B59F3DCC06F
:1024D00083309105D1F1069709F0D6C0C8010E945A
:1024E0001F175C0144E050E06AA97BA9C8010E9463
:1024F000F50C412C512CBB24F4E0AF1AB10840C0BC
:102500008A33910509F47BC03CF48533910569F069
:10251000C69709F440C0B8C08B33910509F485C053
:102520008F3F910509F4BECFAFC0C8010E941F17AD
:10253000C8010E941F1789A7B5CFC8010E941F17A5
:1025400044E050E068A979A93AC0C8010E941F1769
:102550005C0144E050E0B101C8010E94F50C412C3F
:10256000512CBB2494E0A91AB1084A145B040CF066
:1025700099CFC8010E941F17EFEF4E1A5E0AF5CFE0
:102580004A145B040CF08ECFC8010E941F178FEF16
:10259000481A580AF5CFC8010E941F17B82EF70134
:1025A000828D811110C0838D81110DC0848D8111A8
:1025B0000AC0858D811107C044E050E0B401C80114
:1025C0000E94F50C6FCFEEA5FFA540805180628080
:1025D0007380B401CE0183960E943C0B8DA19EA115
:1025E000AFA1B8A584159505A605B70529F3BB20AD
:1025F00009F458CFC8010E941F17BA94F8CFC80138
:102600000E941F1744E050E06AA57BA5C8010E9404
:10261000F50CF70166A177A180A591A50E94161F70
:1026200066A377A380A791A73DCFC8010E941F177B
:1026300044E050E06CA57DA5C8010E94F50CF701AF
:1026400062A573A584A595A50E94161F62A773A70E
:1026500084A795A727CFC8010E941F1744E050E028
:10266000B601C8010E94F50CF70162A173A184A113
:1026700095A10E94161F62A373A384A395A366A7C6
:1026800077A780AB91AB0ECFC8010E941F17B82E61
:10269000BB2009F407CFC8010E941F17BA94F8CFD6
:1026A00089A5E3960FB6F894DEBF0FBECDBFDF91CC
:1026B000CF911F910F91FF90EF90DF90CF90BF903F
:1026C000AF909F908F907F906F905F904F903F90D2
:1026D0002F900895CF93DF931F92CDB7DEB7698314
:1026E000DC01ED91FC910280F381E02D41E050E0AE
:1026F000BE016F5F7F4F09950F90DF91CF910895D5
:10270000DC01ED91FC91068CF78DE02D099591E0AF
:1027100089270895862F089581E0862708950895D2
:1027200080E090E0089583B7662311F0816001C0D6
:102730008E7F83BF0895FC0164830895FC0184812A
:1027400090E00895FC01828193810895DC01ED9170
:10275000FC910484F585E02D61E009958895089544
:1027600044EC450390011124261B3109205F314FB1
:1027700037FF02C0295F3F4F43E0359527954A95C3
:10278000E1F7FC01338322830895FC012281338128
:1027900021503109338322830895CF92DF92EF9243
:1027A000FF920F931F93CF93DF93CDB7DEB7AF9711
:1027B0000FB6F894DEBF0FBECDBF7C016A0108E101
:1027C00012E01A8309831C861B8688EE93E0A0E042
:1027D000B0E08D879E87AF87B88B8CE492E09A87B4
:1027E0008987188F0F8B198E1A8E1B8E1C8E84E092
:1027F00089A31DA30CA31EA21FA218A619A680912F
:10280000500490915104A0915204B09153048CA7AC
:102810009DA7AEA7BFA78B839C83AD83BE8318867D
:102820001F82AE014C5D5F4FCE0101960E94140FD6
:1028300081309105B1F4D701ED91FC910684F785C3
:10284000E02D1BA70AA78EA19FA1A8A5B9A58CA7BB
:102850009DA7AEA7BFA7A601BE01665D7F4FC701BA
:102860000995AF960FB6F894DEBF0FBECDBFDF91CE
:10287000CF911F910F91FF90EF90DF90CF9008952F
:10288000672B11F460E001C061E0FC0182810C94CF
:10289000C507CF92DF92EF92FF920F931F93CF93D2
:1028A000DF93EC017B0160E08E810E94C50700E0B0
:1028B00010E08FE0C82ED12C61E00E151F056CF4DE
:1028C0008C810E94C507C6010197F1F760E08C81F9
:1028D0000E94C5070F5F1F4FEFCF8E81DF91CF9111
:1028E0001F910F91FF90EF90DF90CF900C94C50750
:1028F0000C94B81F08958CBD9DBD08958F929F9232
:10290000AF92BF92CF92DF92EF92FF920F931F93FD
:10291000CF936C015B017A01FC01C485C43041F4A2
:1029200081E090E0F6019383828380E090E04EC0E6
:102930008A014130584010F000E018E080E590E056
:102940000E947B148C2F0E94900E4C0163E070E07B
:102950008C2F0E94E218873111F08C3121F48016FF
:10296000910660F302C000E010E080E590E00E9474
:102970007B149801A50160E070E08C2F0E942B0E63
:1029800060E270E08C2F0E941B0E62E070E08C2FE2
:102990000E94E21884FD10C063E070E08C2F0E945A
:1029A000E218811104C08C2F0E94140DB9CF80E56C
:1029B00090E00E947B14E9CF40E162E070E08C2F50
:1029C0000E94D818012B09F4ABCFC701CF911F91FA
:1029D0000F91FF90EF90DF90CF90BF90AF909F90BE
:1029E0008F900895CF92DF92FF920F931F93CF9312
:1029F000DF93FC012485243009F077C06A01EB01E4
:102A00008C01F12C8F2D0E94E30D811103C0F80180
:102A1000F48607C08B7F8831D1F3F394F4E0FF1282
:102A2000F1CFF8018485843009F45FC0209106015C
:102A3000309107012F5F3F4F11F420E030EC3093CD
:102A4000070120930601409106015091070120E003
:102A500061E00E94280DF801F4848A818F3F51F4CF
:102A60008B818F3F91F48C818F3F79F48D818F3FE3
:102A700061F438C0811109C08B81811106C08C813D
:102A8000811103C08D81882369F1C114D10451F1F2
:102A900080E590E00E947B14BE016E5F7F4F8F2D1A
:102AA00090E0982F882744E050E0845F9B4F0E947D
:102AB000F70BB6018F2D0E94401964E070E08F2D56
:102AC0000E941B0EC8010E949119873189F061E0B4
:102AD00070E080E090E00E941108C8010E94911906
:102AE0008111F0CF84E0F801848780E090E002C09B
:102AF00081E090E0DF91CF911F910F91FF90DF90E7
:102B0000CF9008951F920F920FB60F9211242F931A
:102B10003F934F935F936F937F938F939F93AF9365
:102B2000BF93EF93FF938091870390918803DC011B
:102B3000ED91FC910284F385E02D61E0099580918F
:102B4000870390918803DC01ED91FC910484F58565
:102B5000E02D60E00995FF91EF91BF91AF919F91BA
:102B60008F917F916F915F914F913F912F910F9036
:102B70000FBE0F901F90189508954F925F927F920D
:102B80008F929F92AF92BF92CF92DF92EF92FF927D
:102B90000F931F93CF93DF9300D000D000D0CDB719
:102BA000DEB78C01CB018DB69EB6690161E0C61A15
:102BB000D108E0E0F0E060E070E0A1EDB7E05D0199
:102BC000A21AB30AEA15FB050CF05EC0DC01AE0FD9
:102BD000BF1FDD963C91DA01A60FB71F2C9132136F
:102BE0004DC06F5F7F4F6C157D0509F04BC09F0195
:102BF0002F5F3F4FB901412C512C603DA7E07A0770
:102C00004CF57201EE0EFF1EE80EF91ED701DE969E
:102C10007C90D20111967D01BCE37B1217C0CDB62A
:102C2000DEB6EDB7FEB7EE19FF090FB6F894FEBF9A
:102C30000FBEEDBF6DB77EB76F5F7F4F235C3F4F19
:102C4000820F931FFB01460E571E06C027016F5FC0
:102C50007F4FD3CFB60116C0E415F50529F0DC018E
:102C60002D91CD012193F8CF1082C8010E94100947
:102C70000FB6F894DEBE0FBECDBE23C0E61BF70B29
:102C800060E070E031969ECF62E972E0CE0101967D
:102C90000E94100989819A81F801918380838B8138
:102CA0009C81938382838D819E81958384831A8204
:102CB00019821C821B821E821D82CE0101960E94F7
:102CC0000B09C8010FB6F8949EBE0FBE8DBE2696A6
:102CD0000FB6F894DEBF0FBECDBFDF91CF911F912D
:102CE0000F91FF90EF90DF90CF90BF90AF909F90AB
:102CF0008F907F905F904F9008950F931F93CF9385
:102D0000DF93CDB7DEB7AB970FB6F894DEBF0FBE3B
:102D1000CDBF8C0185E2EAEFF2E0DE011196019071
:102D20000D928A95E1F725E230E0AE014F5F5F4FEB
:102D3000B801CE0186960E94BD1562E972E0CE010F
:102D400086960E94AC0881111BC067E872E0CE0134
:102D500086960E94AC08882321F081E0F80183A3C5
:102D60000AC068EF72E0CE0186960E94AC08882304
:102D700011F0F80113A281E0F801828311E004C090
:102D800081E0F801838310E0CE0186960E940B0952
:102D9000812FAB960FB6F894DEBF0FBECDBFDF918B
:102DA000CF911F910F910895CF93DF931F92CDB7CD
:102DB000DEB76983DC01ED91FC910280F381E02DA7
:102DC00041E050E0BE016F5F7F4F09950F90DF91AA
:102DD000CF910895FC01818D928D0895FC01848925
:102DE0009589089528E132E0FC0131832083FB01BD
:102DF0004089518962897389FC01428353836483CA
:102E000075830895DC01ED91FC91048CF58DE02D26
:102E1000099480E00895FC019485FB018485981352
:102E200003C081E0943009F480E0089521E0FC01C2
:102E30008485843009F420E0822F089508950F934B
:102E40001F93CF93DF931F92CDB7DEB7FC01218D87
:102E5000328D232B61F08C0141E050E0BE016F5FA9
:102E60007F4F808D0E94A20C181619061CF08FEF60
:102E70009FEF08C0F801818D928D0197928F818F0D
:102E8000898190E00F90DF91CF911F910F9108956C
:102E9000FC0184850C94A20CCF93DF931F92CDB7D5
:102EA000DEB741E050E0BE016F5F7F4FFC018485DB
:102EB0000E94A20C181619061CF4898190E002C029
:102EC0008FEF9FEF0F90DF91CF910895FC018485E4
:102ED000843011F00C94800C80E090E008950F9302
:102EE0001F93CF93DF93CDB7DEB728970FB6F89433
:102EF000DEBF0FBECDBF8C01F801818D928D892B75
:102F000049F0D801ED91FC910284F385E02DC801D0
:102F10000995F2CF808D0E94800C181619065CF579
:102F200048E050E0BE016F5F7F4FD80158968C910A
:102F30000E94A20C9C0118161906DCF489819A8162
:102F4000AB81BC81F801808B918BA28BB38B8D817F
:102F500090E0982F88272E81820F911D958B848B6E
:102F60002F8130E0322F22278885280F311D328FA4
:102F7000218FC90102C080E090E028960FB6F89436
:102F8000DEBF0FBECDBFDF91CF911F910F9108958E
:102F9000AF92BF92CF92DF92FF920F931F93CF9386
:102FA000DF938C015B01EA01FC01C688D788F08CB5
:102FB00080E590E00E947B148F2D0E94900E8C176C
:102FC0009D0720F48F2D0E94900EEC019E01A5011B
:102FD000B6018F2D0E942B0E0E947A14F80186896B
:102FE00097898C0F9D1F978B868BCE01DF91CF9198
:102FF0001F910F91FF90DF90CF90BF90AF900895F9
:10300000CF92DF92EF92FF920F931F93CF93DF93B4
:10301000CDB7DEB7AF970FB6F894DEBF0FBECDBF0A
:103020007C016A0108E112E01A8309831C861B8671
:1030300088EE93E0A0E0B0E08D879E87AF87B88BE5
:103040008CE492E09A878987188F0F8B198E1A8EDD
:103050001B8E1C8E84E089A31DA30CA31EA21FA29D
:1030600018A619A68091500490915104A091520481
:10307000B09153048CA79DA7AEA7BFA78B839C8359
:10308000AD83BE8318861F82AE014C5D5F4FCE01BB
:1030900001960E94140F81309105B1F4D701ED9192
:1030A000FC910488F589E02D1BA70AA78EA19FA19A
:1030B000A8A5B9A58CA79DA7AEA7BFA7A601BE01CD
:1030C000665D7F4FC7010995AF960FB6F894DEBFD6
:1030D0000FBECDBFDF91CF911F910F91FF90EF9069
:1030E000DF90CF900895CF93DF93EC01888D8430EB
:1030F00061F00E94140DE88DF0E0EE0FFF1FE45721
:10310000FB4F1182108284E0888FDF91CF91089568
:10311000EF92FF921F93CF93DF93FC01208D243019
:1031200011F080E01CC07B01EC0110E0812F0E94B7
:10313000E30D811102C0188F05C08831E1F31F5FD4
:103140001430A1F7888D843061F3FD86EC861A8EE9
:10315000198E20E0A70162E00E94280D81E0DF9136
:10316000CF911F91FF90EF9008950F931F93CF93EE
:10317000DF931F92CDB7DEB78C01DC01ED91FC919E
:103180000084F185E02D0995892B51F0BE016F5F18
:103190007F4FF80184850E94480C898190E002C02D
:1031A0008FEF9FEF0F90DF91CF911F910F910895B7
:1031B0009B0190E00496982F8827642F820F931F1D
:1031C0000C94260C0F931F93CF93DF931F92CDB7D0
:1031D000DEB790E00496982F88278C01060F171F02
:1031E0000E94A60B8FE00E94C00B812F0E94C00B93
:1031F000802F0E94C00B80E00E94C00B89830E9438
:10320000A40B89810F90DF91CF911F910F910895A9
:10321000CF93FC01C08D80E590E00E947B1460E2BA
:1032200070E08C2F0E941B0E62E070E08C2F0E94D9
:10323000E21884FD19C062E070E08C2F0E94E21851
:1032400083FF0BC048E162E070E08C2F0E94D81829
:103250000E947A1480E090E011C00E947A1480E508
:1032600090E00E947B14E0CF40E162E070E08C2FA0
:103270000E94D8180E947A1481E090E0CF910895BE
:10328000CF93DF93C82FD62F472F60E170E00E94C5
:10329000D8184D2F61E170E08C2FDF91CF910C9405
:1032A000D818FF920F931F93CF93DF93FB01DC019C
:1032B00057961C921E9256975896FC9082818111C7
:1032C00009C08381811106C08481811103C0858179
:1032D0008823F9F041155105E1F08A01EF0180E5FD
:1032E00090E00E947B14BE016E5F7F4F2F2D30E077
:1032F000922F882744E050E0845F9B4F0E94F70B99
:10330000B8018F2D0E9440190E947A1481E090E04C
:1033100002C080E090E0DF91CF911F910F91FF906C
:103320000895FC018485843011F00C94E30D80E055
:103330000895CF93DF93FC0124852430D1F0EC0174
:103340000E949119843181F0882371F0883161F0F5
:103350008C3161F4E881F9810084F185E02DCE01A2
:10336000099521E0892B19F420E001C021E0822F8A
:1033700001C080E0DF91CF910895CF92DF92EF926C
:10338000FF921F93CF93DF93FC0114851430A9F1B2
:10339000EC0180E590E00E947B1468E070E0812FF2
:1033A0000E941B0E0E947A140E944B086B017C0144
:1033B000CE010E9491198823B1F061E070E080E0B5
:1033C00090E00E9411080E944B08DC01CB018C198F
:1033D0009D09AE09BF09883E9340A105B10540F3A0
:1033E0008C850E94140DEC85F0E0EE0FFF1FE45772
:1033F000FB4F1182108284E08C87DF91CF911F9167
:10340000FF90EF90DF90CF90089586E594E00C94C4
:103410000B09CF93DF93CDB7DEB7A5970FB6F8941E
:10342000DEBF0FBECDBF789484B5826084BD84B505
:10343000816084BD85B5826085BD85B5816085BDAF
:1034400080916E00816080936E0010928100809167
:1034500081008260809381008091810081608093EF
:103460008100809180008160809380008091B10014
:1034700084608093B1008091B00081608093B0003F
:1034800080917A00846080937A0080917A008260D3
:1034900080937A0080917A00816080937A00809195
:1034A0007A00806880937A001092C100E091C10395
:1034B000F091C20382E08083E091BD03F091BE03EE
:1034C0001082E091BF03F091C0038FEC80831092D3
:1034D000C903E091C503F091C60386E08083E091C3
:1034E000C303F091C403808180618083E091C303B2
:1034F000F091C403808188608083E091C303F091E0
:10350000C403808180688083E091C303F091C40389
:1035100080818F7D808376E9472E71E0572ECE0122
:1035200001967C015E0199E1A90EB11C3701DE2CE8
:10353000CF2C26E01501EAE58E2EE1E09E2EF20169
:10354000DE015F96822F01900D928A95E1F78BE064
:1035500090E02DA30E94231F8C01FE017F96D101D4
:103560002DA1822F01900D928A95E1F7D8018D92BD
:103570009D92F101822F01900D928A95E1F7D80179
:1035800019961C921E9218971A961C921A971296C8
:103590008C912DA30E94FC0DF80184810E94FC0DEA
:1035A000D80116968C910E94FC0DF30101931193A2
:1035B0003F01F6E04F0E511C2DA16A147B0409F067
:1035C000BECF81E090E00E94231F8C0190938A037C
:1035D000809389038DE190E00E94231FFC0182E724
:1035E00091E091838083128E148F038F9F012E5F51
:1035F0003F4FD7018D919D917D01D9018D939D9371
:103600009D01EA14FB04A9F7F0938C03E0938B036C
:1036100018A21F8E1AA219A21CA21BA26091560406
:10362000709157046115710541F040915A04509111
:103630005B04CE014F960E94CB088DE098E00E947B
:10364000231F8C01AE01415E5F4F60E071E00E947C
:103650001A0610938E0300938D03CE014F960E949D
:103660000B0985E090E00E94231F8C0188E891E01F
:10367000F80191838083138212821482109388034D
:1036800000938703F89484B7877F84BF83B78460EF
:1036900083BF88E18093600081E680936000789426
:1036A0001093900300938F0386E090E00E94231F05
:1036B000DC0112961D921D921D921C9215979093FB
:1036C00093038093920388E090E00E94231FFC0103
:1036D00080918D0390918E0320918B0330918C0308
:1036E0001182108233832283958384831783068318
:1036F000F0939503E093940310929103FF24F394C5
:1037000080918F0390919003DC01ED91FC910084F6
:10371000F185E02D0995892B79F080918F039091A7
:103720009003DC01ED91FC910284F385E02D60E0D3
:10373000099584E090E06BC080918D0390918E0399
:10374000DC01ED91FC910288F389E02D0995A091AF
:103750008D03B0918E03ED91FC911197882349F070
:103760000280F381E02D60E0CD01099580E090E0DA
:103770004EC00088F189E02DCD010995882379F0AC
:1037800080918D0390918E03DC01ED91FC9101906D
:10379000F081E02D60E0099581E090E038C08091F3
:1037A0008B0390918C03DC01ED91FC910484F585F1
:1037B000E02D0995882379F080918B0390918C03FB
:1037C000DC01ED91FC910088F189E02D60E0099524
:1037D00082E090E01CC080918F0390919003DC0107
:1037E000ED91FC910680F781E02D099518161906D8
:1037F0004CF480919103882341F01092910385E06D
:1038000090E005C083E090E002C086E090E0009187
:10381000940310919503F801208131812130310505
:1038200009F44BC02230310509F404C1232B09F0FF
:1038300023C18230910509F417C18530910589F1C2
:103840000197C1F5D8010280F381E02D0190F0814C
:10385000E02DA280B38014968D919C911597DC0188
:10386000ED91FC910484F585E02D09952CE030E084
:103870004D2D5C2DBC01F80182819381F5010995E4
:10388000D80112968D919C911397DC01ED91FC91DA
:103890000284F385E02D4CE050E06D2D7C2D0995E0
:1038A00009C084819581DC01ED91FC910688F7893E
:1038B000E02D099580E090E0DCC08130910509F1B0
:1038C0008530910509F493C0892B09F0ADC0F8014A
:1038D00084819581DC01ED91FC910480F581E02DDE
:1038E00060E00995F80182819381DC01ED91FC9102
:1038F0000680F781E02D6CE070E0099580E090E0B3
:1039000095C084819581DC01ED91FC910480F58165
:10391000E02D60E00995F80184819581DC01ED914D
:10392000FC910284F385E02D09955C01F801828108
:103930009381DC01ED91FC910480F581E02DB501CE
:103940000995F80184819581DC01ED91FC91048455
:10395000F585E02D0995F801A281B3814D915C9127
:1039600011979501220F331F820F931FFC01608175
:103970007181FA0120813181CD01F9010995F801A8
:10398000A281B381ED91FC9111970084F185E02D26
:10399000AC01B501CD010995D8011696ED91FC91C8
:1039A00017970190F081E02DA280B38014968D913D
:1039B0009C911597DC01ED91FC910680F781E02D3B
:1039C0000995AB01682FF80186819781F50109956A
:1039D000D80116968D919C911797DC01ED91FC9181
:1039E0000480F581E02D099582E090E01FC0F80188
:1039F00084819581DC01ED91FC910488F589E02DAD
:103A00000995F801A481B581ED91FC911197882366
:103A100031F00688F789E02DCD01099505C0008CAD
:103A2000F18DE02DCD01099581E090E0D8018D93D5
:103A30009C9322C083309105B9F00497C1F4F8013A
:103A400086819781DC01ED91FC910190F081E02D60
:103A50000995F80186819781DC01ED91FC91048044
:103A6000F581E02D099503C081E090E002C082E07D
:103A700090E0F80191838083009192031091930369
:103A80000E944B08D80112968D909D90AD90BC90ED
:103A90001597AB01BC01481959096A097B098D9139
:103AA0009C91092E000CAA0BBB0B481759076A07FB
:103AB0007B0718F40E94CD0A23CEF0929103FACF2F
:103AC000E2E6F4E088E192E091838083128213823F
:103AD00014821582E8E6F4E09183808312821382D7
:103AE00014821582EEE6F4E09183808312821382C1
:103AF00014821582E1EBF3E01382128248EE53E068
:103B000060E070E0448355836683778328EE31E07C
:103B10003183208325EC30E03587248724EC30E0A6
:103B20003787268720EC30E0318B208B21EC30E08A
:103B3000338B228B22EC30E0358B248B26EC30E06B
:103B4000378B268B118E128E138E148EE4E7F4E0E1
:103B5000918380831282138214821582EAE7F4E053
:103B6000918380831282138214821582E0E8F4E04C
:103B7000918380831282138214821582EEE4F4E032
:103B8000918380831282138214821582E6E8F4E026
:103B9000918380831282138214821582ECE5F4E013
:103BA00091838083128213821482158269ED72E000
:103BB00086E594E00C9410098F929F92AF92BF9289
:103BC000CF92DF92EF92FF92CF93DF93EC01688167
:103BD00079818A819B81611571058105910521F4A7
:103BE00064E279ED8BE597E02DE133EF41E050E0C1
:103BF0000E947C1E49015A019B01AC01A7EAB1E475
:103C00000E949B1E6B017C01ACEEB4EFA5019401F8
:103C10000E94A91EDC01CB018C0D9D1DAE1DBF1D98
:103C2000B7FF03C00197A109B04888839983AA838D
:103C3000BB83BC01CD019F77DF91CF91FF90EF90C7
:103C4000DF90CF90BF90AF909F908F9008950E948B
:103C5000DC1D089588E091E00E94DC1D08956093CA
:103C600008017093090180930A0190930B01089554
:103C70001F93FC0199278827BC01E8941191103209
:103C8000E9F3193010F01E30C8F31B3251F01D3229
:103C900049F4689406C00E945F1E610F711D811D6A
:103CA000911D119110531A30B0F33EF49095809508
:103CB000709561957F4F8F4F9F4F1F910895592F9A
:103CC000482F372F262F660F771F881F991F660FE3
:103CD000771F881F991F620F731F841F951F660F20
:103CE000771F881F991F0895F999FECF92BD81BD56
:103CF000F89A992780B50895052E97FB1EF4009435
:103D00000E94931E57FD07D00E94E51E07FC03D0BA
:103D10004EF40C94931E50954095309521953F4F4D
:103D20004F4F5F4F089590958095709561957F4FA7
:103D30008F4F9F4F08950E94071FA59F900DB49F1E
:103D4000900DA49F800D911D11240895B7FF0C9430
:103D50009B1E0E949B1E821B930B08952F923F92E5
:103D60004F925F926F927F928F929F92AF92BF928B
:103D7000CF92DF92EF92FF920F931F93CF93DF9337
:103D8000CDB7DEB7CA1BDB0B0FB6F894DEBF0FBE94
:103D9000CDBF09942A88398848885F846E847D84E1
:103DA0008C849B84AA84B984C884DF80EE80FD80E3
:103DB0000C811B81AA81B981CE0FD11D0FB6F89459
:103DC000DEBF0FBECDBFED010895A1E21A2EAA1BE2
:103DD000BB1BFD010DC0AA1FBB1FEE1FFF1FA217BB
:103DE000B307E407F50720F0A21BB30BE40BF50BB8
:103DF000661F771F881F991F1A9469F76095709541
:103E0000809590959B01AC01BD01CF010895A29FC3
:103E1000B001B39FC001A39F700D811D1124911D9E
:103E2000B29F700D811D1124911D08956927962759
:103E300069277827872778270895EE0FFF1F0590B9
:103E4000F491E02D0994CF93DF938230910510F423
:103E500082E090E0E0919604F091970420E030E059
:103E6000C0E0D0E0309711F14081518148175907E7
:103E7000C0F04817590761F482819381209719F0A7
:103E80009B838A832BC0909397048093960426C0CB
:103E90002115310519F04217530718F49A01BE0194
:103EA000DF01EF010280F381E02DDCCF2115310528
:103EB00009F1281B390B2430310590F412968D91AD
:103EC0009C9113976115710521F0FB019383828307
:103ED00004C09093970480939604FD01329644C0E9
:103EE000FD01E20FF31F81939193225031092D932D
:103EF0003C933AC02091940430919504232B41F4D3
:103F000020910E0130910F01309395042093940479
:103F100020910C0130910D012115310541F42DB78F
:103F20003EB74091100150911101241B350BE091D7
:103F30009404F0919504E217F307A0F42E1B3F0BB5
:103F40002817390778F0AC014E5F5F4F241735070B
:103F500048F04E0F5F1F5093950440939404819353
:103F6000919302C0E0E0F0E0CF01DF91CF9108959E
:103F70000F931F93CF93DF93009709F48CC0FC013C
:103F800032971382128200919604109197040115C2
:103F9000110581F420813181820F931F20919404B7
:103FA000309195042817390779F5F0939504E0933B
:103FB000940471C0D80140E050E0AE17BF0750F440
:103FC00012962D913C911397AD012115310509F100
:103FD000D901F3CF9D01DA0133832283608171819E
:103FE000860F971F8217930769F4EC0128813981A6
:103FF000260F371F2E5F3F4F318320838A819B819D
:1040000093838283452B29F4F0939704E0939604DD
:1040100042C01396FC93EE931297ED01499159918A
:104020009E01240F351FE217F30771F480819181FF
:10403000840F951F029611969C938E938281938193
:1040400013969C938E931297E0E0F0E0D8011296BD
:104050008D919C911397009719F0F8018C01F6CF80
:104060008D919C9198012E5F3F4F820F931F20915D
:104070009404309195042817390769F4309729F48E
:10408000109297041092960402C013821282109329
:10409000950400939404DF91CF911F910F9108959F
:1040A000A0E0B0E0E6E5F0E20C94B21EEC0100976F
:1040B00021F4CB010E94231FB8C0FC01E60FF71FBB
:1040C0009C0122503109E217F30708F4ACC0D90172
:1040D0000D911C91119706171707B0F005301105C7
:1040E00008F49FC0C80104978617970708F499C081
:1040F00002501109061B170B019311936D937C93CA
:10410000CF010E94B81F8DC05B01A01AB10A4C01FB
:10411000800E911EA0919604B091970440E050E06B
:10412000E12CF12C109709F44AC0A815B905D1F576
:104130006D907C901197630182E0C80ED11CCA1467
:10414000DB0480F1A3014A195B096A0182E0C80E11
:10415000D11C1296BC9012971396AC91B5E0CB1679
:10416000D10440F0B282A38351834083D9016D937F
:104170007C930AC00E5F1F4FC301800F911FF9018E
:1041800091838083EB2DFA2FE114F10431F0D701F4
:104190001396FC93EE93129744C0F0939704E09328
:1041A00096043FC08D919C9111974817590708F4C8
:1041B000AC017D0112960D90BC91A02DB3CF8091E2
:1041C00094049091950488159905E1F446175707D2
:1041D000C8F480910C0190910D01009741F48DB7C6
:1041E0009EB74091100150911101841B950BE81767
:1041F000F907C8F4F0939504E0939404F9017183EE
:1042000060830FC0CB010E94231F7C01009759F0EF
:10421000A801BE010E942C21CE010E94B81FC70137
:1042200004C0CE0102C080E090E0CDB7DEB7EEE082
:104230000C94CE1E81E090E0F8940C94F523FB01E1
:10424000DC0104C08D910190801921F4415050404F
:10425000C8F7881B990B0895FB01DC0102C001908F
:104260000D9241505040D8F70895FB01DC018D912B
:10427000019080190110D9F3990B0895FB01DC011D
:1042800001900D920020E1F70895FB01DC014150FF
:10429000504048F001900D920020C9F701C01D92D6
:1042A00041505040E0F70895AEE0B0E0EAE5F1E2B9
:1042B0000C94BC1E0D891E8986E08C831A830983A9
:1042C0008FEF9FE79E838D83AE01475E5F4F6F89BF
:1042D000788DCE0101960E9477212F813885F801D3
:1042E000E20FF31F10822E96E4E00C94D81EACE08F
:1042F000B0E0EDE7F1E20C94AE1E7C016B018A01A7
:10430000FC0117821682838181FFBDC1CE01019617
:104310004C01F7019381F60193FD859193FF819103
:104320006F01882309F4ABC1853239F493FD85917F
:1043300093FF81916F01853229F4B70190E00E94CB
:104340005F23E7CF512C312C20E02032A0F48B32B8
:1043500069F030F4803259F0833269F420612CC066
:104360008D3239F0803339F4216026C02260246018
:1043700023C0286021C027FD27C030ED380F3A3018
:1043800078F426FF06C0FAE05F9E300D1124532E0C
:1043900013C08AE0389E300D1124332E20620CC0E9
:1043A0008E3221F426FD6BC1206406C08C3611F4D8
:1043B000206802C0883641F4F60193FD859193FF91
:1043C00081916F018111C1CF982F9F7D95549330BA
:1043D00028F40C5F1F4FFFE3F9830DC0833631F0E3
:1043E000833771F0833509F05BC022C0F80180810A
:1043F00089830E5F1F4F44244394512C540115C0F0
:104400003801F2E06F0E711CF801A080B18026FF28
:1044100003C0652D70E002C06FEF7FEFC5012C87F0
:104420000E9454232C0183012C852F77222E17C044
:104430003801F2E06F0E711CF801A080B18026FFF8
:1044400003C0652D70E002C06FEF7FEFC5012C87C0
:104450000E9449232C012C852068222E830123FCF5
:104460001BC0832D90E048165906B0F4B70180E2D6
:1044700090E00E945F233A94F4CFF50127FC8591E8
:1044800027FE81915F01B70190E00E945F23311008
:104490003A94F1E04F1A51084114510471F7E5C004
:1044A000843611F0893639F5F80127FF07C060819D
:1044B0007181828193810C5F1F4F08C0608171817F
:1044C000072E000C880B990B0E5F1F4F2F76722E54
:1044D00097FF09C090958095709561957F4F8F4F9C
:1044E0009F4F2068722E2AE030E0A4010E9497239B
:1044F000A82EA81844C0853729F42F7EB22E2AE0B2
:1045000030E025C0F22FF97FBF2E8F36C1F018F4AE
:10451000883579F0B4C0803719F0883721F0AFC002
:104520002F2F2061B22EB4FE0DC08B2D8460B82ECB
:1045300009C024FF0AC09F2F9660B92E06C028E04C
:1045400030E005C020E130E002C020E132E0F801B7
:10455000B7FE07C060817181828193810C5F1F4F1C
:1045600006C06081718180E090E00E5F1F4FA40162
:104570000E949723A82EA818FB2DFF777F2E76FE8A
:104580000BC0372D3E7FA51450F474FE0AC072FC98
:1045900008C0372D3E7E05C0BA2C372D03C0BA2C7B
:1045A00001C0B52C34FF0DC0FE01EA0DF11D808164
:1045B000803311F4397E09C032FF06C0B394B3943E
:1045C00004C0832F867809F0B39433FD13C030FF05
:1045D00006C05A2CB31418F4530C5B18B32CB31444
:1045E00068F4B70180E290E03C870E945F23B394B7
:1045F0003C85F5CFB31410F43B1801C0312C34FFC7
:1046000012C0B70180E390E03C870E945F233C85A5
:1046100032FF17C031FD03C088E790E002C088E593
:1046200090E0B7010CC0832F867859F031FF02C0AB
:104630008BE201C080E237FD8DE2B70190E00E947D
:104640005F23A51438F4B70180E390E00E945F2354
:104650005A94F7CFAA94F401EA0DF11D8081B701B5
:1046600090E00E945F23A110F5CF332009F451CED2
:10467000B70180E290E00E945F233A94F6CFF70101
:104680008681978102C08FEF9FEF2C96E2E10C9418
:10469000CA1EFC010590615070400110D8F780954A
:1046A00090958E0F9F1F0895FC01615070400190FE
:1046B0000110D8F7809590958E0F9F1F08950F9346
:1046C0001F93CF93DF93FB01238121FD03C08FEF65
:1046D0009FEF28C022FF16C0468157812481358173
:1046E0004217530744F4A081B1819D012F5F3F4FD2
:1046F000318320838C93268137812F5F3F4F37830F
:10470000268310C0EB01092F182F0084F185E02DBE
:104710000995892BE1F68E819F8101969F838E8377
:10472000812F902FDF91CF911F910F910895FA0162
:10473000AA27283051F1203181F1E8946F936E7FE0
:104740006E5F7F4F8F4F9F4FAF4FB1E03ED0B4E0D1
:104750003CD0670F781F891F9A1FA11D680F791F12
:104760008A1F911DA11D6A0F711D811D911DA11D23
:1047700020D009F468943F912AE0269F1124301933
:10478000305D3193DEF6CF010895462F4770405DCE
:104790004193B3E00FD0C9F7F6CF462F4F70405D7D
:1047A0004A3318F0495D31FD4052419302D0A9F7D8
:1047B000EACFB4E0A6959795879577956795BA95D2
:1047C000C9F700976105710508959B01AC010A2E98
:1047D00006945795479537952795BA95C9F7620F6F
:1047E000731F841F951FA01D089510E0CDE5D0E034
:1047F00004C0FE010E941D1F2196CE35D107C9F7C6
:04480000F894FFCF5A
:1048040001010101010100C0010000000000980441
:104814008000000000006A137E1490131E176617B0
:104824004C17B518F214CD134817BD19991916175A
:104834008C138A130B17801300000000A800A70034
:10484400A4009F009B009300910065018E008B00E3
:1048540088006E017D1600000000BC157814491410
:1048640040140000000000000000220B220B000096
:10487400000063012E01D3050F01E100B900B60069
:10488400AC00A90000000000C513B013A613A213C6
:104894009E139B1393130200030004000200030001
:1048A40004000200030004000200030004000200EC
:1048B40003000400020003000400020003000400DB
:1048C40002000300040002000300040002000300CD
:1048D40004000200030004000200030004000100BD
:1048E4005E00000000000000640A8C06FC09AB0AAC
:1048F4002D0A0B0A1F0A00000000220B8C069013DD
:104904008F13220B220B220B00000000220B8C06BB
:1049140090138F1300000000D80A00000000220B3F
:1049240000000000220B220B9013220B220B220BFF
:10493400220B220B0917220B220B220B220B220B18
:10494400220B220B220B220B00000000D416C817E6
:104954009013D70AEA161F17670C88186C0D731882
:104964005119001808196F17F50C0217F216EE16F4
:10497400436F6E6E656374656400474554202F2051
:10498400485454502F312E3100486F73743A20002C
:104994000D0A00436F6E6E656374696F6E3A20632F
:1049A4006C6F7365003C7370616E2069643D2263B3
:1049B400746C30315F4C5F2564223E003C7370613F
:1049C4006E2069643D2263746C30315F4C5F302229
:1049D4003E0057495A6E6574007669727475657540
:1049E400736167652E617A75726577656273697440
:1049F40065732E6E65742F0030003C7370616E20F9
:104A040069643D22446174614C697374315F616C03
:104A14006C6F7765644C6162656C5F30223E0000A8
:00000001FF
