:100000000C94C7010C94F8010C94F8010C94F801BD
:100010000C94F8010C94F8010C94F8010C94F8017C
:100020000C94F8010C94F8010C94F8010C94F8016C
:100030000C94CB190C94F8010C94F8010C94F80171
:100040000C94F8010C94F8010C94F8010C94F8014C
:100050000C94F8010C94F8010C94F8010C948211A2
:100060000C94F8010C9454170C942A170C94F80172
:100070000C94F8010C94F8010C94F8010C94F8011C
:100080000C94F8010C94F8010C94F8010C94F8010C
:100090000C94F8010C94F8010C94F8010C94F801FC
:1000A0000C94F8010C94F8010C94F8010C94F801EC
:1000B0000C94F8010C94F8010C94F8010C94F801DC
:1000C0000C94F8010C94F8010C94F8010C94F801CC
:1000D0000C94F8010C94F8010C94F8010C94F801BC
:1000E0000C94F801AD0CB00C9F0CA30CA70CE70C02
:1000F000B40CB80CBE0CC20CC60CCC0CD00CD40C7E
:10010000E70CDA0CDE0CE20C0C9463090C94F20997
:100110000C9415020C9408020C94FA010C944608F5
:100120000C94EC180C9435190C946B180C945D1805
:100130000C94B00C0C9422020C9440180C94CD1327
:100140000C94BC160C9440090C94D40C0C948B08A1
:100150000C94FE080C9498120C945A180C944A189B
:100160000C94C3020C94F7120C94091A0C944A08CC
:100170000C9447160C9474080C94BE0C0C941E023C
:100180000C940D020C94CC0C0C94AF020C943D1505
:100190000C9442080C94E20C0C9426020C948513E7
:1001A0000C945B020C94A7070C94D00C0C94201CAC
:1001B0000C9461180C946E150C94820A0C94E70C44
:1001C0000C9481120C940E150C94DA0C0C944F18AC
:1001D0000C943A150C94B80C0C94BA090C944C1865
:1001E0000C943B190C9461080C9471180C945A08E7
:1001F0000C9419020C9467090C94B40C0C947F14A1
:100200000C9462070C9405020C94A30C0C9423022A
:100210000C9475080C9430020C94EE0A0C94CA0AE3
:100220000C94A4130C946C080C9413090C94AD0C4E
:100230000C9482120C9439150C940B020C9433021A
:100240000C94C20C0C944C150C94C60C0C94EC152C
:100250000C9457180C94DE0C0C9479180C949F0C89
:100260000C9460150C9481090C94F5180C942102DF
:100270000C94CC020C94A70C0C94A5150C94F71DAF
:100280000C947A0200000A0B02090C0D0E080703F9
:100290000401000000000000000000000000000059
:1002A000000000000000000000000000000000004E
:1002B000121110000000000000000000000000000B
:1002C00000000000000000000000000022002500E7
:1002D00028002B002E00310034000201000005012F
:1002E00008010B0100002100240027002A002D0036
:1002F0003000330001010000040107010A01050577
:100300000505070508080808020202020A0A08088B
:1003100004040404010101010101010103030303B9
:1003200003030303040707070C0C0C0C0C0C0C0C48
:100330000202020206060606060606060B0B0B0B59
:100340000B0B0B0B0102102020080810204010207E
:100350004080020102010804020101020408102089
:100360004080804020100804020180040201804087
:1003700020100804020108040201010204081020F0
:1003800040800102040810204080F71D201C112429
:100390001FBECFEFD1E2DEBFCDBF00E00CBF14E047
:1003A000A0E0B2E0EEEEFBE400E00BBF02C007907D
:1003B0000D92AE30B107D9F725E0AEE0B4E001C050
:1003C0001D92A638B207E1F711E0C6ECD1E000E0DB
:1003D00006C021970109802FFE010E94B820C53C6C
:1003E000D10780E00807A9F70E94241C0C94E5259A
:1003F0000C940000FC0183A1811105C0858182302D
:1004000010F481E083A381E00895FC0183810895C5
:10041000FC01828108950B960895FC012481822FAE
:1004200090E02C3008F00C970895FC0187819085AE
:100430000895FC016481758186810895FC0163A3A0
:10044000089508950895FC01628F08956F5F7F4FAE
:10045000660F771F860F971FFC0180819181089599
:10046000FC01828D0895CF92DF92EF92FF920F935D
:100470001F93CF93DF937C016A018B01C0E0D0E032
:10048000CC15DD057CF4D8016D917D918D01D701EE
:10049000ED91FC910084F185E02DAE01C701199525
:1004A0002196EECFDF91CF911F910F91FF90EF90AA
:1004B000DF90CF900895EF92FF920F931F93CF9309
:1004C000DF938C017B01C0E0D0E0CE15DF055CF44A
:1004D000D801ED91FC910480F581E02DBE01C801A9
:1004E00019952196F2CFDF91CF911F910F91FF9037
:1004F000EF900895AF92BF92CF92DF92EF92FF926A
:100500000F931F93CF93DF9361157105E9F01216D6
:100510001306D4F479016C01EB018A01A12CB12CF2
:1005200069917991D601ED91FC910190F081E02DD6
:10053000C6011995F801819391938F01FFEFAF1ACE
:10054000BF0AAE14BF0461F7DF91CF911F910F91E5
:10055000FF90EF90DF90CF90BF90AF9008956853D9
:100560007F4F660F771F072E000C880B990B0E9498
:100570000B1F20E030E040E250E40E9410200E9477
:100580008220CB010895C0960E94CA0A91E0811191
:1005900001C090E0892F08952F923F924F925F9271
:1005A0006F927F928F929F92AF92BF92CF92DF9283
:1005B000EF92FF920F931F93CF93DF93CDB7DEB7E8
:1005C000A6970FB6F894DEBF0FBECDBF7C012DB647
:1005D0003EB63CA22BA26C0124E2C20ED11C80913B
:1005E0006D0481112AC0109255041092540488EEB3
:1005F00093E0A0E0B0E08093560490935704A0935A
:100600005804B09359048AE792E09093530480937E
:10061000520484E793E09093610480936004109205
:10062000620410926304109264041092650484E0E2
:1006300080936A0481E080936D048FE094E090934E
:100640005105809350056CE271E080E090E00E94DB
:10065000FB0C1FB7F89480910E04811124C0E3E3D2
:10066000F3E08491E9E7F3E0249190E0880F991F8B
:100670008C519D4FFC01A591B491EC91E22321F4A2
:1006800061E085E30E947E0C85E30E94C91A8CB567
:1006900080618CBD8CB580648CBD84E30E94C91AD6
:1006A00083E30E94C91A80910E048F5F80930E0429
:1006B0001FBF249A80E590E00E94381960E880E02E
:1006C00090E00E94ED1765E58BE190E00E94ED1748
:1006D00065E58AE190E00E94ED170E94371980E0FD
:1006E00090E4909398048093970480E090E6909330
:1006F000A00480939F0480E098E490939A048093F0
:10070000990480E098E69093A2048093A10480E08D
:1007100090E590939C0480939B0480E090E79093F5
:10072000A4048093A30480E098E590939E048093B2
:100730009D0480E098E79093A6048093A50480E54B
:1007400090E00E94381946E050E0B60189E090E060
:100750000E94BE1784E793E09A8389831B821C82E0
:100760001D821E8244E050E0BE016D5F7F4F8FE02E
:1007700090E00E94BE170E94371900915005109119
:100780005105D80192961D921D921D921C9295972B
:10079000F80116A217A210A611A69A961D921D92F4
:1007A0001D921C929D9780E69AEEA0E0B0E086AB89
:1007B00097ABA0AFB1AF80EA9FE0A0E0B0E082AF1E
:1007C00093AFA4AFB5AFD801189686E0FD01282EEF
:1007D00011922A94E9F79801225F3F4F94E1F901C1
:1007E00011929A95E9F7F60101900D928A95E1F739
:1007F0004801F2E48F0E911CD4011C920E94C01E8D
:100800002FEC37E040E050E00E94AD1FDC01CB014F
:100810000196A11DB11DF80184839583A683B7833A
:1008200080839183A283B3835801F3E4AF0EB11C9C
:10083000C5010E94FE0864E470E0C5010E9413092E
:10084000882309F412C30E94350D2B013C01212C91
:10085000312CD12C42E0C42ED4018C91833009F488
:1008600005C1811121C0F80184819581A681B781DC
:100870000196A11DB11D84839583A683B7830E9431
:10088000350D641975098609970928EE33E040E0B3
:1008900050E00E94DF1FA90161E0C8010E94700BB7
:1008A00081E0D4018C93C4C0843001F5F8018481C7
:1008B0009581A681B7810196A11DB11D8483958381
:1008C000A683B7830E94350D6419750986099709B7
:1008D00028EE33E040E050E00E94DF1FA90163E012
:1008E000C8010E94700BD401CC92A2C0813061F586
:1008F000F80142AD53AD64AD75AD9E012F5F3F4F22
:10090000C8010E94BC0FD82EF2E08F1391C08981DC
:100910009A81AB81BC81F80184839583A683B783D8
:100920000E94350D641975098609970928EE33E090
:1009300040E050E00E94DF1FA90163E0C8010E946F
:10094000700BD401DC927AC0823009F071C0F801DA
:1009500042AD53AD64AD75AD9E012F5F3F4FC801F1
:100960000E94BC0FD82EF5E08F135CC0E3E0D401E9
:10097000EC93F80182A193A1A4A1B5A1892B8A2BA4
:100980008B2B41F484E893E0A0E0B0E082A393A332
:10099000A4A3B5A3F80186A197A1A0A5B1A5892B11
:1009A0008A2B8B2B61F482A193A1A4A1B5A1B6954A
:1009B000A7959795879586A397A3A0A7B1A7F801B8
:1009C00082A593A5A4A5B5A5892B8A2B8B2BA9F469
:1009D00082A193A1A4A1B5A1AC01BD0123E07695AC
:1009E0006795579547952A95D1F7841B950BA60BCC
:1009F000B70B82A793A7A4A7B5A7F80186A197A1D3
:100A0000A0A5B1A586A797A7A0ABB1AB82A593A5DA
:100A1000A4A5B5A582AB93ABA4ABB5AB222423941C
:100A2000312C0CC0F6E08F1303C0D4011C9206C019
:100A3000BFEFDB1203C0F4011082D12CF1E02F16BE
:100A4000310409F409CF0E94350DDC01CB01841972
:100A50009509A609B709F80126A937A940AD51ADF6
:100A6000281739074A075B0708F0F6CEC5010E9430
:100A7000FE08F80184819581A681B7810196A11DA8
:100A8000B11D84839583A683B7830E94350DF80139
:100A9000FE9660837183828393832A94232809F0CE
:100AA000E4C180E590E00E94381960915005709192
:100AB0005105625F7F4FCE0101960E941A1744E0F4
:100AC00050E0BE016D5F7F4F8FE090E00E94BE1747
:100AD00060915005709151056A5E7F4FCE0101967D
:100AE0000E941A1744E050E0BE016D5F7F4F81E025
:100AF00090E00E94BE1760915005709151056E5EA6
:100B00007F4FCE0101960E941A1744E050E0BE01CB
:100B10006D5F7F4F85E090E00E94BE170E943719FD
:100B20006091500570915105625E7F4FCE01019634
:100B30000E941A178B819C81AD81BE8180934C05E8
:100B400090934D05A0934E05B0934F05D70118968D
:100B50001C921E921797CDB6DEB69E960D911C91F3
:100B60009F97C8010196EDB7FEB7E81BF90B0FB6CA
:100B7000F894FEBF0FBEEDBF2DB73EB72F5F3F4FBE
:100B80005901892BA1F02115310589F001151105B5
:100B900019F4D9011C920BC0F70162A573A5A80135
:100BA000C9010E94FF22F501E00FF11F10828701A9
:100BB000005D1F4F40E550E0B501C8010E94791863
:100BC0000197B9F46CE773E0C8010E9406176BE85F
:100BD00073E0C8010E9406176FEA73E0C8010E9423
:100BE000061761EC73E0C8010E945E1677247394C7
:100BF00001C0712C0FB6F894DEBE0FBECDBE7720BB
:100C000009F42EC164EC73E08DEA94E00E940617AB
:100C100086E090E00E94C7205C010E94350DD5015E
:100C200012966D937D938D939C931597812C912CA7
:100C3000D701ED91FC910684F785E02DC701199548
:100C40008823D1F10E94350DF50122813381448141
:100C500055811B012C01221A330A440A550A80814E
:100C60009181092E000CAA0BBB0B281639064A06E7
:100C70005B0638F464012DE3C20ED11CCE0CDF1CE0
:100C80000AC00E94350DD50112966D937D938D9308
:100C90009C93159711C0C8010E948109892B41F2CC
:100CA000C8010E946709F60181936F01FFEF8F1A57
:100CB0009F0AD6011C92EFCF86E1E9EEF3E0DE0158
:100CC000119601900D928A95E1F726E130E0AE0190
:100CD0004F5F5F4FB701CE014D960E940A1A89A15E
:100CE0009AA1892B09F447C0ED8DFE8D8081882360
:100CF00009F441C022E030E040E050E0BE01635E14
:100D00007F4FCE0147960E941712CE0147960E9450
:100D1000CC11F7016483CE0147960E947C1225E036
:100D200030E043E050E0BE01635E7F4FCE01479666
:100D30000E941712CE0147960E94CC11D70115963A
:100D40006C93CE0147960E947C1228E030E046E08A
:100D500050E0BE01635E7F4FCE0147960E9417129E
:100D6000CE0147960E94CC11F7016683CE014796CB
:100D70000E947C1201C0712CCE014D960E947C1203
:100D8000772009F46DC05701FBE0AF0EB11C01E004
:100D900010E089EC882E83E0982ECDB6DEB60A30BE
:100DA00011051CF027E130E002C026E130E02DB64D
:100DB0003EB6221A330A0FB6F8943EBE0FBE2DBEC1
:100DC0008DB79EB701963C011F930F939F928F9210
:100DD0007F928F932DA33EA30E940E232DA13EA1AF
:100DE000A301B701CE0101960E940A1A0F900F903D
:100DF0000F900F900F900F908D819E81892B39F16C
:100E0000E981FA818081882311F1CE0101960E9447
:100E1000CC11D5016D937D935D01CE0101960E94A9
:100E20007C120FB6F894DEBE0FBECDBE0F5F1F4F13
:100E30000D30110509F0B1CF60EE73E08DEA94E05A
:100E40000E94061781E0D70112968C931BC0CE0139
:100E500001960E947C120FB6F894DEBE0FBECDBE86
:100E600081E0D70113968C930DC0F701878190859F
:100E70000196908787830A9729F481E0F70183839D
:100E8000108617822BA03CA00FB6F8943EBE0FBE72
:100E90002DBEA6960FB6F894DEBF0FBECDBFDF9174
:100EA000CF911F910F91FF90EF90DF90CF90BF9067
:100EB000AF909F908F907F906F905F904F903F90FA
:100EC0002F900895EF92FF920F931F93CF93DF938C
:100ED000EC018A01E881F9810190F081E02D1995FA
:100EE0007C01000F111FC00FD11F8A819B81DC0183
:100EF000ED91FC910680F781E02D60E070E019959E
:100F00008A819B81DC01ED91FC910480F581E02DCB
:100F1000B70119950A811B81F801C285D3856C2F11
:100F2000868197810E949F1FBE01660F672F661FF3
:100F3000770BD80116968D919C9117970196DF91AA
:100F4000CF911F910F91FF90EF900C949F1FCF9224
:100F5000DF92EF92FF920F931F93CF93DF93EB01FA
:100F6000CC0FDD1FC80FD91FEA80FB80D701169672
:100F7000CD90DC901797C60101960E94971FB0E8AC
:100F80008B9F80011124C6010E94971FF801E82B56
:100F9000CF01D7011B969C938E931A970E94E81A53
:100FA0008A819B81DC01ED91FC910680F781E02D27
:100FB00061E070E019958A819B81DC01ED91FC91E3
:100FC00011971A966D917C911B970480F581E02D05
:100FD0001995EA81FB811486DF91CF911F910F91C2
:100FE000FF90EF90DF90CF9008950F931F93CF93D2
:100FF000DF93EC018B018AE392E0998388831A8264
:101000001B8218861F828FEF9FEF9A8789871BA20A
:10101000CE018A961BA61AA61DA61CA61FA61EA652
:101020008417950751F0FA0160817181611571058E
:1010300021F0448155810E94D7111BAA1AAA88EE7B
:1010400093E0A0E0B0E08CAB9DABAEABBFAB86E174
:1010500092E099AB88AB84E08CAFF80180818CA3DF
:1010600081818DA382818EA383818FA3848188A7B0
:10107000858189A71C821D821E82DF91CF911F91DD
:101080000F910895FC01818D928D0895FC01848952
:101090009589089524E733E0FC0131832083FB0127
:1010A0004089518962897389FC0142835383648337
:1010B00075830895DC01ED91FC91008CF18DE02D9C
:1010C0001994FC019485FB018485981303C081E089
:1010D000943009F480E0089521E0FC018485843097
:1010E00009F420E0822F08950895CF93DF931F9293
:1010F000CDB7DEB76983DC01ED91FC910280F3810D
:10110000E02D41E050E0BE016F5F7F4F19950F90D9
:10111000DF91CF910895CF92DF92EF92FF920F93DC
:101120001F93CF93DF93CDB7DEB7AF970FB6F89489
:10113000DEBF0FBECDBF7C016A0104E713E01A8356
:1011400009831C861B8688EE93E0A0E0B0E08D87C3
:101150009E87AF87B88B8AE792E09A878987188F36
:101160000F8B198E1A8E1B8E1C8E84E089A31DA3F3
:101170000CA31EA21FA218A619A680914C0590913F
:101180004D05A0914E05B0914F058CA79DA7AEA728
:10119000BFA78B839C83AD83BE8318861F82AE015D
:1011A0004C5D5F4FCE0101960E94410D813091054B
:1011B000B1F4D701ED91FC910088F189E02D1BA7D6
:1011C0000AA78EA19FA1A8A5B9A58CA79DA7AEA788
:1011D000BFA7A601BE01665D7F4FC7011995AF96F7
:1011E0000FB6F894DEBF0FBECDBFDF91CF911F9138
:1011F0000F91FF90EF90DF90CF900895CF93DF9302
:10120000EC01888D843061F00E942614E88DF0E0B6
:10121000EE0FFF1FEB58FB4F1182108284E0888F86
:10122000DF91CF910895EF92FF921F93CF93DF93B9
:10123000FC01208D243011F080E01CC07B01EC010A
:1012400010E0812F0E94F514811102C0188F05C093
:101250008831E1F31F5F1430A1F7888D843061F38A
:10126000FD86EC861A8E198E20E0A70162E00E94AE
:101270003A1481E0DF91CF911F91FF90EF90089594
:101280000F931F93CF93DF931F92CDB7DEB78C01DF
:10129000DC01ED91FC910480F581E02D1995892BFD
:1012A00051F0BE016F5F7F4FF80184850E94D71215
:1012B000898190E002C08FEF9FEF0F90DF91CF9177
:1012C0001F910F910895FC0184850C943213CF93E4
:1012D000DF931F92CDB7DEB741E050E0BE016F5FF4
:1012E0007F4FFC0184850E943213181619061CF4E6
:1012F000898190E002C08FEF9FEF0F90DF91CF9137
:101300000895FC018485843011F00C94101380E062
:1013100090E008959B0190E00496982F8827642F11
:10132000820F931F0C94ED170F931F93CF93DF93AE
:101330001F92CDB7DEB790E00496982F88278C01D6
:10134000060F171F0E948C178FE00E94D012812F6A
:101350000E94D012802F0E94D01280E00E94D012F2
:1013600089830E948A1789810F90DF91CF911F9105
:101370000F910895CF93FC01C08D80E590E00E940D
:10138000381960E270E08C2F0E94271B62E070E049
:101390008C2F0E94940984FD19C062E070E08C2FAC
:1013A0000E94940983FF0BC048E162E070E08C2F3B
:1013B0000E948A090E94371980E090E011C00E94C3
:1013C000371980E590E00E943819E0CF40E162E0F3
:1013D00070E08C2F0E948A090E94371981E090E00A
:1013E000CF9108958F929F92AF92BF92CF92DF924A
:1013F000EF92FF920F931F93CF93DF936C015B01EA
:101400007A01FC01C485C43041F481E090E0F6012A
:101410009383828380E090E057C08A014130584036
:1014200010F000E018E080E590E00E9438198C2F61
:101430000E94041C4C0163E070E08C2F0E94940910
:10144000D82F0E943719D73111F0DC3121F48016E2
:10145000910648F302C000E010E080E590E00E94B1
:1014600038199801A50160E070E08C2F0E949F1B45
:1014700060E270E08C2F0E94271B62E070E08C2FEE
:101480000E94940984FD14C063E070E08C2F0E94D8
:101490009409811106C00E9437198C2F0E942614CE
:1014A000B4CF0E94371980E590E00E943819E5CF4B
:1014B00040E162E070E08C2F0E948A090E94371997
:1014C000012B09F4A2CFC701DF91CF911F910F919A
:1014D000FF90EF90DF90CF90BF90AF909F908F9054
:1014E0000895CF93DF93C82FD62F472F60E170E088
:1014F0000E948A094D2F61E170E08C2FDF91CF911E
:101500000C948A09FF920F931F93CF93DF93FB01F3
:10151000DC0157961C921E9256975896FC90828139
:10152000811109C08381811106C08481811103C0AA
:1015300085818823F9F041155105E1F08A01EF0119
:1015400080E590E00E943819BE016E5F7F4F2F2D1D
:1015500030E0922F882744E050E0845F9B4F0E9448
:10156000BE17B8018F2D0E94710A0E94371981E0C1
:1015700090E002C080E090E0DF91CF911F910F9149
:10158000FF900895FC018485843011F00C94F514CB
:1015900080E00895CF93DF93FC0124852430D1F0BF
:1015A000EC010E94C20A843181F0882371F08831F5
:1015B00061F08C3161F4E881F9810480F581E02DDE
:1015C000CE01199521E0892B19F420E001C021E01A
:1015D000822F01C080E0DF91CF910895CF92DF92FA
:1015E000EF92FF921F93CF93DF93FC011485143089
:1015F000A9F1EC0180E590E00E94381968E070E004
:10160000812F0E94271B0E9437190E94350D6B0104
:101610007C01CE010E94C20A8823B1F061E070E033
:1016200080E090E00E94FB0C0E94350DDC01CB01B4
:101630008C199D09AE09BF09883E9340A105B105EB
:1016400040F38C850E942614EC85F0E0EE0FFF1F1E
:10165000EB58FB4F1182108284E08C87DF91CF9191
:101660001F91FF90EF90DF90CF90089580E3FB01F2
:1016700080833296842F82958F7090E1899F4019E4
:1016800011244A3014F4405D01C0495C4293482F54
:101690008111F0CF08953FB7F89480918204909122
:1016A0008304A0918404B091850426B5A89B05C04D
:1016B0002F3F19F00196A11DB11D3FBFBA2FA92FD1
:1016C000982F8827820F911DA11DB11DBC01CD014E
:1016D00042E0660F771F881F991F4A95D1F708953A
:1016E0007F928F929F92AF92BF92CF92DF92EF92B2
:1016F000FF920F931F93CF93DF93CDB7DEB7A697DB
:101700000FB6F894DEBF0FBECDBF8C01762E942E9F
:10171000852E20E2B22ECE0101967C01FC012B2DFC
:1017200011922A95E9F784E793E09AA389A38FEFB2
:101730008BA38CA38DA38EA3680183E4C80ED11C58
:1017400043E450E0BE016F5D7F4FC6010E94820AF4
:10175000019609F4BFC081E089838A8386E0A82EC0
:10176000AB821C82F80164817581868197810E9419
:10177000C0206D837E838F83988789869A8680E8D0
:1017800090E09C878B874CE150E0B701C6010E9436
:101790009812F7012B2D11922A95E9F7480188E05C
:1017A000880E911CF401D70101900D92AA94E1F7E3
:1017B00040E150E0B701C6010E949812F701119272
:1017C000BA94E9F796E0A92EB12C40E250E0B701B7
:1017D000C6010E949812F1E0AF1AB108B1F783E692
:1017E000898392E89A8393E59B838C8385E38D8339
:1017F00081E08E837F829DE3988797E099878A872F
:1018000086E0F401DE011B9601900D928A95E1F7C6
:101810008CE0898B8A8B6FEF73E0CE0143960E9438
:10182000F822F8014385BE01675E7F4FC8010E9420
:10183000360BF8014485BE01655E7F4FC8010E94EA
:10184000360BF8014585BE01635E7F4FC8010E94DB
:10185000360B4EE150E0B701C6010E949812F3E04A
:101860007F121EC082E3898384E08A83F801968513
:101870009B8397859C8390899D8391899E8396E322
:101880009F838887828D8987838D8A87848D8B87C4
:10189000858D8C874CE050E0B701C6010E949812FC
:1018A00087E3898386E08A8391E09B8393E09C832E
:1018B0008D838FE08E838AE38F838BE388878FEF1E
:1018C000898749E050E0B701C6010E949812C6011D
:1018D0000E94BA09A6960FB6F894DEBF0FBECDBF20
:1018E000DF91CF911F910F91FF90EF90DF90CF90FC
:1018F000BF90AF909F908F907F900895362F90E08B
:10190000FC01EC57FD4F4491FC01EC5BFC4F249132
:10191000FC01E250FD4F9491992309F46BC04423DC
:1019200009F455C050E0FA013197E231F10508F0B1
:101930004EC08827EE58FF4F8F4F0C94B8208091EF
:1019400080008F7707C0809180008F7D03C08091D9
:101950008000877F809380003AC084B58F7702C073
:1019600084B58F7D84BD33C08091B0008F7703C074
:101970008091B0008F7D8093B00029C0809190004D
:101980008F7707C0809190008F7D03C08091900079
:10199000877F809390001BC08091A0008F7707C045
:1019A0008091A0008F7D03C08091A000877F8093ED
:1019B000A0000DC0809120018F7707C08091200189
:1019C0008F7D03C080912001877F80932001E92FC4
:1019D000F0E0EE0FFF1FE653FD4FA591B4918FB7D6
:1019E000F894EC91311103C020952E2301C02E2BC9
:1019F0002C938FBF08958F929F92AF92BF92CF92F8
:101A0000DF92EF92FF926B017C010E944B0B4B0126
:101A10005C01C114D104E104F104F1F00E944B0B0C
:101A2000DC01CB0188199909AA09BB09883E9340BA
:101A3000A105B10570F321E0C21AD108E108F1084F
:101A400088EE880E83E0981EA11CB11CC114D1043D
:101A5000E104F10419F7DDCFFF90EF90DF90CF9014
:101A6000BF90AF909F908F9008952FB7F89460919A
:101A70007E0470917F0480918004909181042FBF37
:101A800008952F923F924F925F926F927F928F9222
:101A90009F92AF92BF92CF92DF92EF92FF920F93FD
:101AA0001F93CF93DF93CDB7DEB765970FB6F8944A
:101AB000DEBF0FBECDBF7C016B013A01FB0120E010
:101AC00080E090E06AE03191332309F140ED430F6B
:101AD0004A3080F4689FA001699F500D1124CA010B
:101AE000C097830F911D37FD9A958F3F910559F34C
:101AF00050F313C03E3289F4233079F0D301A20FA2
:101B0000B11D12968C932F5F80E090E0DCCF2330E4
:101B100021F4F301858381E021C0F70142815381E3
:101B2000648175818091A9049091AA04A091AB046D
:101B3000B091AC04481759076A077B0709F49EC1A6
:101B40000E94350D8701085F1F4F6F7077277C5FFC
:101B5000C8010E941309813019F080E090E0F3C1C0
:101B600084E793E09A838983F70182819381A4813A
:101B7000B5818B839C83AD83BE8345E350E0BE017A
:101B80006F5F7F4FC8010E94820A892B19F4C12C14
:101B9000D12C6FC10E94350DF701778366837627BC
:101BA000672776277A83698342E050E0BE016F5F42
:101BB0007F4FC8010E94981281E090E09E878D8738
:101BC00042E050E0BE01635F7F4FC8010E9498125F
:101BD00080E091E09E878D8742E050E0BE01635F28
:101BE0007F4FC8010E9498121E861D8642E050E079
:101BF000BE01635F7F4FC8010E94981242E050E02F
:101C0000BE01635F7F4FC8010E94981242E050E01E
:101C1000BE01635F7F4FC8010E9498125601F50113
:101C20008081882311F1F6015F018191811115C036
:101C300045018C189D081814190494F48F8641E00E
:101C400050E0BE01615F7F4FC8010E949812A4015D
:101C5000B601C8010E94981203C08E3229F7E8CF5E
:101C60006501FFEFCF1ADF0ADACF1F8641E050E0AF
:101C7000BE01615F7F4FC8010E949812C12CDD2414
:101C8000D394DE86CD8642E050E0BE01635F7F4F95
:101C9000C8010E949812DE86CD8642E050E0BE0167
:101CA000635F7F4FC8010E949812C8010E94BA0961
:101CB000892B09F46CCF63E0A62EB12CF2E06F0EF5
:101CC000711C0E94350D1B012C01C8010E94CD130F
:101CD00018161906A4F00E94350DDC01CB018219FB
:101CE0009309A409B50989389341A105B105D0F438
:101CF00062E370E080E090E00E94FB0CE6CFF70129
:101D00004281538164817581808D918DA28DB38DC7
:101D1000481759076A077B0741F4848D958DC5974D
:101D200021F406C02FEF3FEF9AC02EEF3FEF97C090
:101D3000F70181A192A10C970CF4A6C04CE050E0F1
:101D4000BE016F5F7F4FC8010E9485138B8190E0B9
:101D5000982F88272C81822B9A8B898B298130E0C0
:101D6000322F22274A81242BF701468157814217BF
:101D7000530709F086C097FF84C08F709270892B3B
:101D800009F0DEC0CF80D12CDC2CCC248885C82A79
:101D9000C114D10409F4D1C0812C912C8D8190E023
:101DA000982F88272E81822B8816990608F46FC0F9
:101DB000812C912C41E050E0BE016D5E7F4FC80147
:101DC0000E9485138B89982F907C09F093C0811114
:101DD00086C08B898111EECF42E050E0BE01615F89
:101DE0007F4FC8010E94851342E050E0BE01635F4F
:101DF0007F4FC8010E948513C8010E94A413C80127
:101E00000E94A413C8010E94A413C8010E94A41335
:101E100042E050E0BE016F5E7F4FC8010E94851313
:101E20008F8598898115914009F069C02D853E857F
:101E30003227232732272130310509F060C08989F4
:101E40009A898115944009F075C044E050E0B301CF
:101E5000C8012C8B3D8B0E9485132C893D8969011B
:101E6000F1E0AF1AB10829F02FEFC216D20609F43B
:101E700028CFC8010E94FE08C60165C08EEF9FEF03
:101E800062C02CEF3FEFEBCF2DEF3FEFE8CF41E00B
:101E900050E0BE01635F7F4FC8010E9485138D85AE
:101EA000811113C08D858111F2CFC8010E94A41346
:101EB000C8010E94A413C8010E94A413C8010E9473
:101EC000A413FFEF8F1A9F0A69CF8D859FEF980F9C
:101ED0009D87882339F3C8010E94A413F6CF8B890C
:101EE0009FEF980F9B8B882309F473CFC8010E9442
:101EF000A413F5CFC8010E94A4131B8A6ACF412CFA
:101F0000512C89899A899827892798274816590634
:101F100038F4C8010E94A4138FEF481A580AF1CF71
:101F2000EFEF8E1A9E0A8C149D0409F043CF26EF22
:101F30003FEF95CF27EF3FEF92CF2AEF3FEF8FCFC5
:101F40002BEF3FEF8CCF65960FB6F894DEBF0FBE38
:101F5000CDBFDF91CF911F910F91FF90EF90DF9058
:101F6000CF90BF90AF909F908F907F906F905F9039
:101F70004F903F902F9008952F923F924F925F92F3
:101F80006F927F928F929F92AF92BF92CF92DF9289
:101F9000EF92FF920F931F93CF93DF93CDB7DEB7EE
:101FA000E3970FB6F894DEBF0FBECDBF7C011A01D8
:101FB0002B0139010E94350D4B015C0187010D5B3E
:101FC0001F4FC8010E94CD1318161906A4F00E94D5
:101FD000350DDC01CB0188199909AA09BB0928161E
:101FE00039064A065B06D8F062E370E080E090E0D4
:101FF0000E94FB0CE6CF42E250E0BE016F5F7F4FD4
:10200000C8010E9485138981823011F080E061C18E
:10201000F8018489958983349105C1F702C08FEF57
:1020200058C16D817E818F8198850E94C0204B01AF
:102030005C01F301608371838283938346E050E007
:10204000B701685F7F4FCE014D960E94E222892B37
:10205000E9F6F70180819181A281B3818816990602
:10206000AA06BB0698F284819581A681B78188155E
:102070009905AA05BB0550F289899A89AB89BC8963
:1020800086879787A08BB18B8EECA82EB12CC801C8
:102090000E94A413F1E0AF1AB108C9F719A66701AD
:1020A00082E2C80ED11CF701B696FBA7EAA7C701CA
:1020B0008A969DA78CA73C974F0189969FA78EA7CC
:1020C0003897F9ABE8AB1701F6E12F0E311CC59735
:1020D0009BAB8AABF801818D928D181619060CF016
:1020E000F7C0C8010E94A4138333910509F4CBC043
:1020F000FCF481309105C9F11CF4892B59F3DCC043
:1021000083309105D1F1069709F0D6C0C8010E942D
:10211000A4135C0144E050E06AA97BA9C8010E94B5
:102120008513412C512CBB24F4E0AF1AB10840C0F8
:102130008A33910509F47BC03CF48533910569F03D
:10214000C69709F440C0B8C08B33910509F485C027
:102150008F3F910509F4BECFAFC0C8010E94A41300
:10216000C8010E94A41389A7B5CFC8010E94A41377
:1021700044E050E068A979A93AC0C8010E94A413BC
:102180005C0144E050E0B101C8010E948513412C7C
:10219000512CBB2494E0A91AB1084A145B040CF03A
:1021A00099CFC8010E94A413EFEF4E1A5E0AF5CF33
:1021B0004A145B040CF08ECFC8010E94A4138FEF69
:1021C000481A580AF5CFC8010E94A413B82EF70187
:1021D000828D811110C0838D81110DC0848D81117C
:1021E0000AC0858D811107C044E050E0B401C801E8
:1021F0000E9485136FCFEEA5FFA5408051806280BD
:102200007380B401CE0183960E941A178DA19EA1FE
:10221000AFA1B8A584159505A605B70529F3BB2080
:1022200009F458CFC8010E94A413BA94F8CFC8018A
:102230000E94A41344E050E06AA57BA5C8010E9457
:102240008513F70166A177A180A591A50E94C02002
:1022500066A377A380A791A73DCFC8010E94A413CE
:1022600044E050E06CA57DA5C8010E948513F701EC
:1022700062A573A584A595A50E94C02062A773A737
:1022800084A795A727CFC8010E94A41344E050E07B
:10229000B601C8010E948513F70162A173A184A150
:1022A00095A10E94C02062A373A384A395A366A7EF
:1022B00077A780AB91AB0ECFC8010E94A413B82EB4
:1022C000BB2009F407CFC8010E94A413BA94F8CF29
:1022D00089A5E3960FB6F894DEBF0FBECDBFDF91A0
:1022E000CF911F910F91FF90EF90DF90CF90BF9013
:1022F000AF909F908F907F906F905F904F903F90A6
:102300002F9008951F920F920FB60F9211242F93C2
:102310003F938F939F93AF93BF9380917E0490914F
:102320007F04A0918004B091810430917D0423E06A
:10233000230F2D3720F40196A11DB11D05C026E8FD
:10234000230F0296A11DB11D20937D0480937E046E
:1023500090937F04A0938004B093810480918204C1
:1023600090918304A0918404B09185040196A11DED
:10237000B11D8093820490938304A0938404B0934E
:102380008504BF91AF919F918F913F912F910F90B5
:102390000FBE0F901F901895FC01808191810097CE
:1023A00011F00C94CD1E60E070E0CB010895EF9227
:1023B000FF920F931F93CF93DF93EC017B018A0170
:1023C00088819981009729F02A813B81241735075C
:1023D000F8F4B8016F5F7F4F0E94F421009759F025
:1023E000998388831B830A832C813D81232B81F46D
:1023F000FC0110820DC088819981009711F00E9424
:102400005C21198218821D821C821B821A8207C0DD
:102410001D830C83B701888199810E94F822CE0127
:10242000DF91CF911F910F91FF90EF900895BF9290
:10243000CF92DF92EF92FF920F931F93CF93DF9390
:102440007C016B01EA0189012417350720F48D2FE7
:10245000E901042F182F63EC73E0C7010E944916AD
:10246000D60114968D919C911597C817D907C8F578
:102470008017910708F48C01D601ED91FC9111971A
:10248000E00FF11FB08010824D915C91BA016C0F8A
:102490007D1F6115710561F0FB0101900020E9F7D6
:1024A0003197AF01461B570BC7010E94D71113C0CC
:1024B000F70180819181009711F00E945C21D70182
:1024C00011961C921E9215961C921E9214971396AA
:1024D0001C921E921297D601ED91FC91E00FF11F14
:1024E000B082C701DF91CF911F910F91FF90EF90C4
:1024F000DF90CF90BF900895FC01808191810C9472
:102500005C210895CF93DF931F92CDB7DEB7698327
:10251000DC01ED91FC910280F381E02D41E050E07F
:10252000BE016F5F7F4F19950F90DF91CF91089596
:10253000AF92BF92CF92DF92FF920F931F93CF93F0
:10254000DF938C015B01EA01FC01C688D788F08C1F
:1025500080E590E00E9438198F2D0E94041C8C1792
:102560009D0720F48F2D0E94041CEC019E01A50103
:10257000B6018F2D0E949F1B0E943719F801868992
:1025800097898C0F9D1F978B868BCE01DF91CF9102
:102590001F910F91FF90DF90CF90BF90AF90089563
:1025A0008EBD00000DB407FEFDCF8EB508951F93BC
:1025B000CF93DF931F921F92CDB7DEB7182F80E520
:1025C00090E069837A830E94381921E041E050E06D
:1025D00069817A81812F0E94371B0E94371981E01F
:1025E00090E00F900F90DF91CF911F910895CF93BE
:1025F000DF931F92CDB7DEB7FC01218D328D232BE7
:1026000049F0BE016F5F7F4F808D0E94D712898194
:1026100090E002C08FEF9FEF0F90DF91CF91089570
:10262000FF920F931F93CF93DF93F82E80E590E0F6
:102630000E943819C0E0D0E08F2D0E9410188C0144
:10264000892B21F08F2D0E941018EC01C017D107A3
:1026500099F70E943719CE01DF91CF911F910F9109
:10266000FF900895AF92BF92CF92DF92EF92FF92C8
:102670001F93CF93DF93182F5B017A0180E590E0E1
:102680000E943819C0E0D0E0812F0E9410186C0120
:10269000892B21F0812F0E941018EC01CC15DD054B
:1026A00099F7209799F463E070E0812F0E949409D4
:1026B0008431F1F08823E1F0C1E0D0E08C3111F4F5
:1026C000C0E0D0E0D195C195D10912C0EC16FD064D
:1026D0000CF4E7011C161D065CF420E0AE01B50108
:1026E000812F0E94371B60E470E0812F0E94271B1E
:1026F0000E943719CE01DF91CF911F91FF90EF908B
:10270000DF90CF90BF90AF900895CF93DF93FC01FF
:10271000218D328D2115310519F48FEF9FEF11C0F6
:10272000EC014217530708F0A901888D0E9432136B
:102730001816190694F7298D3A8D281B390B3A8FF4
:10274000298FDF91CF9108950F931F93CF93DF933C
:102750001F92CDB7DEB7FC01218D328D232B61F0A6
:102760008C0141E050E0BE016F5F7F4F808D0E9481
:102770003213181619061CF08FEF9FEF08C0F801EE
:10278000818D928D0197928F818F898190E00F903A
:10279000DF91CF911F910F9108950F931F93CF93C6
:1027A000DF93CDB7DEB728970FB6F894DEBF0FBE24
:1027B000CDBF8C01F801818D928D892B49F0D80114
:1027C000ED91FC910680F781E02DC8011995F2CFBB
:1027D000808D0E941013181619065CF548E050E031
:1027E000BE016F5F7F4FD80158968C910E943213C3
:1027F0009C0118161906DCF489819A81AB81BC8191
:10280000F801808B918BA28BB38B8D8190E0982FF8
:1028100088272E81820F911D958B848B2F8130E02C
:10282000322F22278885280F311D328F218FC90131
:1028300002C080E090E028960FB6F894DEBF0FBE8D
:10284000CDBFDF91CF911F910F910895CF93C82FE6
:1028500080E590E00E94381960E170E08C2F0E94C2
:10286000271B4FEF62E070E08C2F0E948A09CF9106
:102870000C943719FF920F931F93CF93DF931F92FE
:102880001F92CDB7DEB7F82E8A012A8369830E9492
:10289000261480E590E00E9438192A816981462F2C
:1028A000422B60E070E08F2D0E948A09011511050E
:1028B00051F400918604109187040F5F1F4F10930D
:1028C000870400938604412F64E070E08F2D0E94FE
:1028D0008A09402F65E070E08F2D0E948A0961E02F
:1028E00070E08F2D0E94271B0E94371981E00F9006
:1028F0000F90DF91CF911F910F91FF900895BF929C
:10290000CF92DF92EF92FF920F931F93CF93DF93BB
:1029100000D000D0CDB7DEB7FC01208D243009F007
:1029200053C06A017B018C01B12C63E070E08B2DF8
:102930000E949409811103C0F801B08E06C088314D
:10294000D9F3B394F4E0BF12F0CFF801808D843056
:10295000D9F196E0ECE9F2E0DE01119601900D92DA
:102960009A95E1F7F70193819F779C8394819D83EA
:1029700095819E83B7016E5F7F4F90E0982F8827E7
:1029800044E050E0845F9B4F0E94BE17B601F801FF
:10299000808D0E94710AF801808D90E0982F882721
:1029A00046E050E0BE016F5F7F4F8A5F9B4F0E9401
:1029B000BE17F801128E118E20E8A60162E0808D0C
:1029C0000E943A1481E001C080E026960FB6F89488
:1029D000DEBF0FBECDBFDF91CF911F910F91FF9052
:1029E000EF90DF90CF90BF9008951F93CF93DF9328
:1029F0001F92CDB7DEB7182F80E590E00E943819FE
:102A000063E070E0812F0E94940989830E94371946
:102A100089810F90DF91CF911F910895CF92DF921E
:102A2000EF92FF920F931F93CF93DF936C017A0184
:102A30008B01C0E0D0E0CE15DF0589F0D8016D91A3
:102A40008D01D601ED91FC910190F081E02DC60140
:102A50001995892B11F47E0102C02196ECCFC70194
:102A6000DF91CF911F910F91FF90EF90DF90CF906A
:102A70000895089580E090E00895FC01538D448D01
:102A8000252F30E0842F90E0821B930B541710F019
:102A9000CF96089501970895FC01918D828D981726
:102AA00061F0828DDF01A80FB11D5D968C91928D32
:102AB0009F5F9F73928F90E008958FEF9FEF08952F
:102AC000FC01918D828D981731F0828DE80FF11DF8
:102AD000858D90E008958FEF9FEF0895FC01918D13
:102AE000228D892F90E0805C9F4F821B91098F730C
:102AF000992708958DEA94E00E946E1521E0892BB4
:102B000009F420E0822F0895FC01848DDF01A80FD5
:102B1000B11DA35ABF4F2C91848D90E001968F7305
:102B20009927848FA689B7892C93A089B1898C9124
:102B300080648C93938D848D981306C00288F389EA
:102B4000E02D80818F7D80830895EF92FF920F9317
:102B50001F93CF93DF93EC0181E0888F9B8D8C8D49
:102B6000981305C0E889F989808185FD24C0F62E77
:102B70000B8D10E00F5F1F4F0F731127E02E8C8D10
:102B8000E8120CC00FB607FCFACFE889F9898081FA
:102B900085FFF5CFCE010E948415F1CF8B8DFE010C
:102BA000E80FF11DE35AFF4FF0820B8FEA89FB8992
:102BB0008081806207C0EE89FF896083E889F98996
:102BC00080818064808381E090E0DF91CF911F91CC
:102BD0000F91FF90EF900895CF93DF93EC01888DD4
:102BE0008823C9F0EA89FB89808185FD05C0A88911
:102BF000B9898C9186FD0FC00FB607FCF5CF808197
:102C000085FFF2CFA889B9898C9185FFEDCFCE01E0
:102C10000E948415E7CFDF91CF91089580E090E086
:102C2000892B21F00E947A15811125C080E090E067
:102C3000892B41F080E090E0892B21F00E94000078
:102C400081111CC080E090E0892B41F080E090E091
:102C5000892B21F00E940000811113C080E090E0D8
:102C6000892BA1F080E090E0892B81F00E94000088
:102C700081110AC008950E940000D8CF0E94000070
:102C8000E1CF0E940000EACF0C94000008950E945A
:102C9000DD22FC01118210821382128215821482BD
:102CA0006115710551F0FB0101900020E9F73197A2
:102CB000AF01461B570B0C94D71108956115710590
:102CC00079F0FB0101900020E9F73197AF01461B35
:102CD000570BDC01ED91FC910280F381E02D1994FA
:102CE00080E090E008954F925F926F927F92EF9212
:102CF000FF920F931F93CF93DF93CDB7DEB7A197CA
:102D00000FB6F894DEBF0FBECDBF7C01FA01CB0138
:102D100019A2223008F42AE08E010F5D1F4F422EC7
:102D2000512C612C712CBF01A30192010E94DF1F65
:102D3000F901CA01015011096A3014F4605D01C043
:102D4000695CD8016C93232B242B252B61F7B801E8
:102D5000C7010E945E16A1960FB6F894DEBF0FBEA3
:102D6000CDBFDF91CF911F910F91FF90EF907F909A
:102D70006F905F904F9008958F929F92AF92BF9205
:102D8000CF92DF92EF92FF920F931F93CF93DF9337
:102D90007C01EB016C0182E0C80ED11C4701E5E02B
:102DA0008E0E911C00E010E0F60141916F0150E0A1
:102DB00060E070E02AE0CE010E9473165C01E881B9
:102DC000F9810190F081E02D6EE2CE0119958A0D16
:102DD0009B1D080F191FC814D90431F7F70145814D
:102DE00050E060E070E02AE0CE010E947316800F90
:102DF000911FDF91CF911F910F91FF90EF90DF9086
:102E0000CF90BF90AF909F908F9008950F931F9396
:102E1000CF93DF93EC010E945E168C0161EC73E0AE
:102E2000CE010E945E16800F911FDF91CF911F91FE
:102E30000F91089524E733E0FC0131832083FB01E7
:102E40004081518162817381FC0142835383648399
:102E5000758308951F920F920FB60F9211240BB62F
:102E60000F922F933F934F935F936F937F938F9323
:102E70009F93AF93BF93EF93FF938DEA94E00E94EB
:102E80008415FF91EF91BF91AF919F918F917F91A9
:102E90006F915F914F913F912F910F900BBE0F90CB
:102EA0000FBE0F901F9018951F920F920FB60F92A2
:102EB00011240BB60F922F938F939F93EF93FF9351
:102EC000E091BD04F091BE048081E091C304F091D3
:102ED000C40482FD12C090818091C6048F5F8F73FD
:102EE0002091C704821751F0E091C604F0E0E35549
:102EF000FB4F958F8093C60401C08081FF91EF91B5
:102F00009F918F912F910F900BBE0F900FBE0F903E
:102F10001F9018952C9A08952C980895CF92DF92BF
:102F2000EF92FF920F931F93CF93DF93EC017A01FF
:102F30008B016C01C40ED51ECC15DD05A9F00E94D5
:102F40008C178FE00E94D0128D2F0E94D0128C2FF0
:102F50000E94D012219680E00E94D012F801819345
:102F60008F010E948A17E8CFC701DF91CF911F918F
:102F70000F91FF90EF90DF90CF900895CF92DF9266
:102F8000EF92FF920F931F93CF93DF93EC017A019F
:102F90008B016C01C40ED51ECC15DD05A1F00E947D
:102FA0008C1780EF0E94D0128D2F0E94D0128C2F90
:102FB0000E94D0122196F80181918F010E94D012B7
:102FC0000E948A17E9CFC701DF91CF911F910F911E
:102FD000FF90EF90DF90CF9008951F93CF93DF93F2
:102FE0001F921F92CDB7DEB7182F6A8399830E9474
:102FF0008C1780EF0E94D0129981892F0E94D012E5
:10300000812F0E94D0126A81862F0E94D0120E94C6
:103010008A1781E00F900F90DF91CF911F91089553
:103020001F93CF93DF93182F66E270E00E949409FC
:10303000C82FD0E067E270E0812F0E949409DC2F56
:10304000CC279E01282BC901DF91CF911F910895B4
:103050001F93CF93DF93182F60E270E00E949409D2
:10306000C82FD0E061E270E0812F0E949409DC2F2C
:10307000CC279E01282BC901DF91CF911F91089584
:10308000DC01ED91FC91048CF58DE02D199591E01A
:1030900089270895862F089581E08627089583B7AC
:1030A000662311F0816001C08E7F83BF0895FC010B
:1030B00064830895FC0184810895FC0182819381D9
:1030C0000895DC01ED91FC910484F585E02D61E02B
:1030D00019958895089521E030E0FC01338322831F
:1030E0000895FC01228133812150310933832283E9
:1030F0000895CF92DF92EF92FF920F931F93CF9399
:10310000DF93CDB7DEB7AF970FB6F894DEBF0FBE33
:10311000CDBF7C016A0104E713E01A8309831C8692
:103120001B8688EE93E0A0E0B0E08D879E87AF8796
:10313000B88B8AE792E09A878987188F0F8B198E50
:103140001A8E1B8E1C8E84E089A31DA30CA31EA2C5
:103150001FA218A619A680914C0590914D05A0912B
:103160004E05B0914F058CA79DA7AEA7BFA78B8337
:103170009C83AD83BE8318861F82AE014C5D5F4F7A
:10318000CE0101960E94410D81309105B1F4D70125
:10319000ED91FC910484F585E02D1BA70AA78EA173
:1031A0009FA1A8A5B9A58CA79DA7AEA7BFA7A6015B
:1031B000BE01665D7F4FC7011995AF960FB6F894B3
:1031C000DEBF0FBECDBFDF91CF911F910F91FF905A
:1031D000EF90DF90CF900895672B11F460E001C06D
:1031E00061E0FC0184810C947E0CCF92DF92EF921F
:1031F000FF920F931F93CF93DF93EC017B0161E06C
:103200008A810E947E0C60E088850E947E0C00E02E
:1032100010E08FE0C82ED12C61E00E151F059CF444
:103220008E810E947E0CC6010197F1F760E08E81CD
:103230000E947E0C61E070E080E090E00E94FB0C58
:103240000F5F1F4FE9CF88850E947E0C60E08A8166
:103250000E947E0CFB86EA86DF91CF911F910F9131
:10326000FF90EF90DF90CF9008950C945C2108952B
:103270008CBD9DBD0895CF92DF92FF920F931F9357
:10328000CF93DF93FC012485243009F077C06A01D5
:10329000EB018C01F12C8F2D0E94F514811103C0DC
:1032A000F801F48607C08B7F8831D1F3F394F4E002
:1032B000FF12F1CFF8018485843009F45FC02091BA
:1032C0000602309107022F5F3F4F11F420E030ECEF
:1032D00030930702209306024091060250910702A4
:1032E00020E061E00E943A14F801F4848A818F3F63
:1032F00051F48B818F3F91F48C818F3F79F48D81D4
:103300008F3F61F438C0811109C08B81811106C0E3
:103310008C81811103C08D81882369F1C114D1048E
:1033200051F180E590E00E943819BE016E5F7F4F39
:103330008F2D90E0982F882744E050E0845F9B4FCA
:103340000E94BE17B6018F2D0E94710A64E070E0E2
:103350008F2D0E94271BC8010E94C20A873189F065
:1033600061E070E080E090E00E94FB0CC8010E94E8
:10337000C20A8111F0CF84E0F801848780E090E0F8
:1033800002C081E090E0DF91CF911F910F91FF90FB
:10339000DF90CF9008951F920F920FB60F921124D5
:1033A0000BB60F922F933F934F935F936F937F933F
:1033B0008F939F93AF93BF93EF93FF938091880474
:1033C00090918904DC01ED91FC910284F385E02D5C
:1033D00061E019958091880490918904DC01ED9158
:1033E000FC910484F585E02D60E01995FF91EF9143
:1033F000BF91AF919F918F917F916F915F914F910D
:103400003F912F910F900BBE0F900FBE0F901F900A
:10341000189508954F925F927F928F929F92AF92EC
:10342000BF92CF92DF92EF92FF920F931F93CF93B1
:10343000DF9300D000D0CDB7DEB78C01CB018DB6C5
:103440009EB6690161E0C61AD108E0E0F0E060E0F4
:1034500070E0A5ECB9E05D01A21AB30AEA15FB051C
:103460000CF05EC0DC01AE0FBF1FDD963C91DA01AF
:10347000A60FB71F2C9132134DC06F5F7F4F6C1595
:103480007D0509F04BC09F012F5F3F4FB901412CD3
:10349000512C643CA9E07A074CF57201EE0EFF1E38
:1034A000E80EF91ED701DE967C90D20111967D01BF
:1034B000BCE37B1217C0CDB6DEB6EDB7FEB7EE1992
:1034C000FF090FB6F894FEBF0FBEEDBF6DB77EB714
:1034D0006F5F7F4F235C3F4F820F931FFB01460EB0
:1034E000571E06C027016F5F7F4FD3CFB60116C0AE
:1034F000E415F50529F0DC012D91CD012193F8CFDC
:103500001082C8010E9449160FB6F894DEBE0FBEA5
:10351000CDBE23C0E61BF70B60E070E031969ECF76
:1035200063EC73E0CE0101960E94491689819A816D
:10353000F801918380838B819C81938382838D8129
:103540009E81958384831A8219821C821B821E822B
:103550001D82CE0101960E947C12C8010FB6F8941C
:103560009EBE0FBE8DBE26960FB6F894DEBF0FBE70
:10357000CDBFDF91CF911F910F91FF90EF90DF9022
:10358000CF90BF90AF909F908F907F905F904F9023
:10359000089590E0FC01EC5BFC4F2491FC01E250AB
:1035A000FD4F8491882399F090E0880F991FFC01CA
:1035B000EC51FD4FA591B491FC01E653FD4F85916F
:1035C00094918FB7F894EC91E22BEC938FBF089510
:1035D000CF92DF92EF92FF92CF93DF936C01990F1E
:1035E000EE08FF08F7FE1CC0E091AD04F091AE04B8
:1035F0000190F081E02D6DE28DEA94E01995EC01E7
:1036000044275527BA014C195D096E097F092AE044
:103610008DEA94E00E9473167C01EC0EFD1E08C03A
:103620002AE0B701A6018DEA94E00E9473167C019E
:1036300061EC73E08DEA94E00E945E168E0D9F1D92
:10364000DF91CF91FF90EF90DF90CF900895CF93CF
:10365000C82F462F61E070E00E948A0961E070E0A7
:103660008C2F0E9494098111F9CFCF9108958F92E8
:103670009F92AF92BF92CF92DF92EF92FF920F9301
:103680001F93CF93DF93B82E4B018A01A22E68E2DD
:1036900070E00E949409C82FD0E069E270E08B2DA1
:1036A0000E949409DC2FCC27C82B9E013770CB2CAD
:1036B000D12CC601880F991FAC0141565B4F6A019E
:1036C000FA0180819181820F931FA801420F531F3D
:1036D0004130584098F060E078E07B01E21AF30A4C
:1036E000A701B4010E948E17A8014E195F09B40109
:1036F0006E0D7F1DF6018081918102C0A801B40189
:103700000E948E17A1100EC0C00FD11F4D2F68E26E
:1037100070E08B2D0E948A094C2F69E270E08B2D9E
:103720000E948A09DF91CF911F910F91FF90EF9036
:10373000DF90CF90BF90AF909F908F9008959F9211
:10374000AF92BF92CF92DF92EF92FF920F931F93AF
:10375000CF93DF93982E8B015A01690164E270E0E8
:103760000E949409E82EF12C65E270E0892D0E94F8
:103770009409FE2CEE24E82AE701C00FD11F9E0118
:103780003770E92CF12CC701880F991FAC014956FD
:103790005B4F7A01FA0180819181820F931FA90109
:1037A0004C0D5D1D4130584090F000E018E0021BC8
:1037B000130BA801B5010E94BE17A601401B510BB7
:1037C000B501600F711FF7018081918102C0A601D0
:1037D000B5010E94BE17CC0DDD1D4D2F64E270E0D7
:1037E000892D0E948A094C2F65E270E0892DDF91B6
:1037F000CF911F910F91FF90EF90DF90CF90BF90EE
:10380000AF909F900C948A09FF920F931F93CF93D0
:10381000DF93F82EC0E0D0E08F2D0E9428188C0195
:10382000892B21F08F2D0E942818EC01C017D10799
:1038300099F7CE01DF91CF911F910F91FF900895DD
:1038400082E595E00C947C12CF93DF93CDB7DEB781
:10385000A8970FB6F894DEBF0FBECDBF789484B59D
:10386000826084BD84B5816084BD85B5826085BD7C
:1038700085B5816085BD80916E00816080936E000A
:1038800010928100809181008260809381008091FC
:1038900081008160809381008091800081608093AD
:1038A00080008091B10084608093B1008091B0006D
:1038B00081608093B000809191008260809391003C
:1038C000809191008160809391008091900081604F
:1038D000809390008091A10082608093A1008091EC
:1038E000A10081608093A1008091A00081608093FD
:1038F000A0008091210182608093210180912101AB
:10390000816080932101809120018160809320015A
:1039100080917A00846080937A0080917A0082603E
:1039200080937A0080917A00816080937A00809100
:103930007A00806880937A001092C100E091BD0403
:10394000F091BE0482E08083E091B904F091BA0462
:103950001082E091BB04F091BC048FEC8083109244
:10396000C504E091C104F091C20486E08083E09137
:10397000BF04F091C004808180618083E091BF0426
:10398000F091C004808188608083E091BF04F09151
:10399000C004808180688083E091BF04F091C004FE
:1039A00080818F7D808382EE682E82E0782ECE012A
:1039B00001966C017E0199E1E90EF11C560198E037
:1039C000592E3E2C4F2C26EA822E22E0922EF30115
:1039D000DE019196852D01900D928A95E1F78DE09B
:1039E00090E00E94C7208C01FE01B196A32DB42D5A
:1039F000852D01900D928A95E1F7D8018D929D92C7
:103A0000E32DF42D852D01900D928A95E1F7D801D3
:103A10001B961C921E921A971C961C921C97149629
:103A20008C910E94C91AF80186810E94C91AD80196
:103A300018968C910E94C91AF80182810E94C91AB5
:103A4000D5010D931D935D01B8E06B0E711CAE1492
:103A5000BF0409F0BCCF81E090E00E94C7205C0168
:103A600090939404809393048DE190E00E94C7208A
:103A70008C018EEB92E0F80191838083128EB48EDC
:103A8000A38E3296D6018D919D916D018193919374
:103A9000AE15BF05B9F782E30E94C91A10939604C8
:103AA000009395041AA219A21CA21BA21EA21DA279
:103AB00060915205709153056115710541F0409177
:103AC000560550915705CE0181960E94D71181E08D
:103AD0009AE00E94C7208C01AE014F5D5F4F60E00D
:103AE00072E00E94F5071093920400939104CE01B6
:103AF00081960E947C1285E090E00E94C7208C0194
:103B000084ED92E0F8019183808313821282148203
:103B10001093890400938804F89484B7877F84BF46
:103B200083B7846083BF88E18093600081E68093DF
:103B30006000789483B78E7F83BF109390040093C6
:103B40008F0486E090E00E94C7207C010E94350D22
:103B5000D70112966D937D938D939C931597F09258
:103B60008E04E0928D0488E090E00E94C720FC0162
:103B70002091910430919204809195049091960443
:103B80001182108293838283358324831783068373
:103B9000F0938C04E0938B0410928A04DC01ED9185
:103BA000FC910680F781E02D6CE070E01995809122
:103BB000950490919604DC01ED91FC910190F081C7
:103BC000E02D6BED74E019958C0166E074E08DEAF0
:103BD00094E00E945E16C8010E94E81A60E87AE14B
:103BE00086E090E00E94FB0C0E940E16E0CFE7EA10
:103BF000F4E084E793E0918380831282138214823D
:103C00001582EEE5F5E0918380831282138214829F
:103C10001582E4E6F5E09183808312821382148298
:103C20001582EDEAF4E01382128248EE53E060E080
:103C300070E0448355836683778326E433E03183E1
:103C4000208325EC30E03587248724EC30E037876B
:103C5000268720EC30E0318B208B21EC30E0338B59
:103C6000228B22EC30E0358B248B26EC30E0378B36
:103C7000268B118E128E138E148EEAE6F5E0918358
:103C800080831282138214821582E0E7F5E091832B
:103C900080831282138214821582E6E7F5E0918315
:103CA00080831282138214821582EAE4F5E0918304
:103CB00080831282138214821582ECE7F5E09183EF
:103CC00080831282138214821582E8E5F5E09183E5
:103CD0008083128213821482158261E973E082E587
:103CE00095E00C9449168F929F92AF92BF92CF921B
:103CF000DF92EF92FF92CF93DF93EC01688179819D
:103D00008A819B81611571058105910521F464E229
:103D100079ED8BE597E02DE133EF41E050E00E9433
:103D2000AD1F49015A019B01AC01A7EAB1E40E9411
:103D3000CC1F6B017C01ACEEB4EFA50194010E9495
:103D4000DA1FDC01CB018C0D9D1DAE1DBF1DB7FF21
:103D500003C00197A109B04888839983AA83BB83D4
:103D6000BC01CD019F77DF91CF91FF90EF90DF9065
:103D7000CF90BF90AF909F908F9008950C94731E3A
:103D800088E092E00C94731E60930802709309021D
:103D900080930A0290930B0208951F93FC019927C8
:103DA0008827BC01E89411911032E9F3193010F022
:103DB0001E30C8F31B3251F01D3249F4689406C01E
:103DC0000E94F41E610F711D811D911D11911053F0
:103DD0001A30B0F33EF490958095709561957F4FC1
:103DE0008F4F9F4F1F910895592F482F372F262F00
:103DF000660F771F881F991F660F771F881F991FEF
:103E0000620F731F841F951F660F771F881F991FEE
:103E10000895E89409C097FB3EF4909580957095BD
:103E200061957F4F8F4F9F4F9923A9F0F92F96E906
:103E3000BB279395F695879577956795B795F1117B
:103E4000F8CFFAF4BB0F11F460FF1BC06F5F7F4F18
:103E50008F4F9F4F16C0882311F096E911C077232A
:103E600021F09EE8872F762F05C0662371F096E833
:103E7000862F70E060E02AF09A95660F771F881F02
:103E8000DAF7880F9695879597F9089597F99F67C0
:103E900080E870E060E008959FEF80EC08950024D2
:103EA0000A941616170618060906089500240A949F
:103EB00012161306140605060895092E0394000C25
:103EC00011F4882352F0BB0F40F4BF2B11F460FFB4
:103ED00004C06F5F7F4F8F4F9F4F089557FD9058DD
:103EE000440F551F59F05F3F71F04795880F97FBBE
:103EF000991F61F09F3F79F0879508951216130678
:103F00001406551FF2CF4695F1DF08C016161706A6
:103F10001806991FF1CF86957105610508940895DB
:103F2000E894BB2766277727CB0197F90895F9997D
:103F3000FECF92BD81BDF89A992780B50895262FAE
:103F4000F999FECF1FBA92BD81BD20BD0FB6F8947E
:103F5000FA9AF99A0FBE01960895052E97FB1EF462
:103F600000940E94C41F57FD07D00E94DF1F07FC6A
:103F700003D04EF40C94C41F509540953095219574
:103F80003F4F4F4F5F4F0895909580957095619585
:103F90007F4F8F4F9F4F08950E940120A59F900D46
:103FA000B49F900DA49F800D911D11240895B7FF1B
:103FB0000C94CC1F0E94CC1F821B930B0895A1E28E
:103FC0001A2EAA1BBB1BFD010DC0AA1FBB1FEE1F93
:103FD000FF1FA217B307E407F50720F0A21BB30BDE
:103FE000E40BF50B661F771F881F991F1A9469F75A
:103FF00060957095809590959B01AC01BD01CF01B6
:104000000895A29FB001B39FC001A39F700D811DB1
:104010001124911DB29F700D811D1124911D0895D1
:104020000E9424200C945D1F0E94561F58F00E948D
:104030004F1F40F029F45F3F29F00C94461F5111A7
:104040000C94911F0C944C1F0E946E1F68F39923CF
:10405000B1F3552391F3951B550BBB27AA27621784
:104060007307840738F09F5F5F4F220F331F441F91
:10407000AA1FA9F335D00E2E3AF0E0E832D09150C5
:104080005040E695001CCAF72BD0FE2F29D0660FB2
:10409000771F881FBB1F261737074807AB07B0E8F5
:1040A00009F0BB0B802DBF01FF2793585F4F3AF0FB
:1040B0009E3F510578F00C94461F0C94911F5F3F72
:1040C000E4F3983ED4F3869577956795B795F79581
:1040D0009F5FC9F7880F911D9695879597F9089569
:1040E000E1E0660F771F881FBB1F62177307840705
:1040F000BA0720F0621B730B840BBA0BEE1F88F714
:10410000E09508950E9489206894B1110C94911F44
:1041100008950E94761F88F09F5798F0B92F99272D
:10412000B751B0F0E1F0660F771F881F991F1AF0A2
:10413000BA95C9F714C0B13091F00E94901FB1E058
:1041400008950C94901F672F782F8827B85F39F057
:10415000B93FCCF3869577956795B395D9F73EF43B
:1041600090958095709561957F4F8F4F9F4F0895E3
:10417000EE0FFF1F881F8BBF0790F691E02D19945B
:104180006927962769277827872778270895CF9367
:10419000DF938230910510F482E090E0E091840595
:1041A000F091850520E030E0C0E0D0E0309711F1DB
:1041B0004081518148175907C0F04817590761F4E9
:1041C00082819381209719F09B838A832BC09093DF
:1041D00085058093840526C02115310519F0421705
:1041E000530718F49A01BE01DF01EF010280F38149
:1041F000E02DDCCF2115310509F1281B390B2430C6
:10420000310590F412968D919C911397611571056B
:1042100021F0FB019383828304C0909385058093F2
:104220008405FD01329644C0FD01E20FF31F819326
:104230009193225031092D933C933AC020918205ED
:1042400030918305232B41F420910E0230910F020F
:10425000309383052093820520910C0230910D024A
:104260002115310541F42DB73EB740911002509110
:104270001102241B350BE0918205F0918305E217B2
:10428000F307A0F42E1B3F0B2817390778F0AC0179
:104290004E5F5F4F2417350748F04E0F5F1F509356
:1042A0008305409382058193919302C0E0E0F0E0A2
:1042B000CF01DF91CF9108950F931F93CF93DF9399
:1042C000009709F48CC0FC0132971382128200918E
:1042D0008405109185050115110581F42081318136
:1042E000820F931F2091820530918305281739078B
:1042F00079F5F0938305E093820571C0D80140E021
:1043000050E0AE17BF0750F412962D913C911397D1
:10431000AD012115310509F1D901F3CF9D01DA0174
:104320003383228360817181860F971F82179307E1
:1043300069F4EC0128813981260F371F2E5F3F4F2A
:10434000318320838A819B8193838283452B29F447
:10435000F0938505E093840542C01396FC93EE9399
:104360001297ED01499159919E01240F351FE217D3
:10437000F30771F480819181840F951F0296119645
:104380009C938E938281938113969C938E93129724
:10439000E0E0F0E0D80112968D919C911397009780
:1043A00019F0F8018C01F6CF8D919C9198012E5F48
:1043B0003F4F820F931F209182053091830528176C
:1043C000390769F4309729F4109285051092840515
:1043D00002C0138212821093830500938205DF913D
:1043E000CF911F910F9108956F927F928F929F921C
:1043F000AF92BF92CF92DF92EF92FF920F931F93F3
:10440000CF93DF93EC01009789F4CB01DF91CF913B
:104410001F910F91FF90EF90DF90CF90BF90AF90E2
:104420009F908F907F906F900C94C720FC01E60FB7
:10443000F71F9C0122503109E217F30708F4ACC0C2
:10444000D9010D911C91119706171707B0F005308F
:10445000110508F49FC0C80104978617970708F450
:1044600099C002501109061B170B019311936D930C
:104470007C93CF010E945C218DC05B01A01AB10A20
:104480004C01800E911EA0918405B091850540E0FD
:1044900050E0E12CF12C109709F44AC0A815B90599
:1044A000D1F56D907C901197630182E0C80ED11C0C
:1044B000CA14DB0480F1A3014A195B096A0182E096
:1044C000C80ED11C1296BC9012971396AC91B5E011
:1044D000CB16D10440F0B282A38351834083D9012B
:1044E0006D937C930AC00E5F1F4FC301800F911F15
:1044F000F90191838083EB2DFA2FE114F10431F05F
:10450000D7011396FC93EE93129744C0F093850560
:10451000E09384053FC08D919C91119748175907EE
:1045200008F4AC017D0112960D90BC91A02DB3CF83
:10453000809182059091830588159905E1F44617CD
:104540005707C8F480910C0290910D02009741F436
:104550008DB79EB74091100250911102841B950BAC
:10456000E817F907C8F4F0938305E0938205F90191
:10457000718360830FC0CB010E94C7207C0100972C
:1045800059F0A801BE010E94EF22CE010E945C21D9
:10459000C70104C0CE0102C080E090E0DF91CF915E
:1045A0001F910F91FF90EF90DF90CF90BF90AF9051
:1045B0009F908F907F906F90089581E090E0F894A5
:1045C0000C94E525FB01DC0104C08D91019080195C
:1045D00021F441505040C8F7881B990B0895FB0106
:1045E000DC0102C001900D9241505040D8F708956F
:1045F000FB01DC0101900D920020E1F70895FB0121
:10460000DC014150504048F001900D920020C9F764
:1046100001C01D9241505040E0F708950F931F9341
:10462000CF93DF93CDB7DEB72E970FB6F894DEBFEA
:104630000FBECDBF0E891F8986E08C831A83098344
:104640008FEF9FE79E838D83AE01465E5F4F688D3F
:10465000798DCE0101960E943E232F813885F80185
:10466000E20FF31F10822E960FB6F894DEBF0FBE36
:10467000CDBFDF91CF911F910F9108952F923F925F
:104680004F925F926F927F928F929F92AF92BF9262
:10469000CF92DF92EF92FF920F931F93CF93DF930E
:1046A000CDB7DEB72C970FB6F894DEBF0FBECDBFE7
:1046B0007C016B018A01FC0117821682838181FFD4
:1046C000BDC1CE0101964C01F7019381F60193FD26
:1046D000859193FF81916F01882309F4ABC18532E5
:1046E00039F493FD859193FF81916F01853229F40F
:1046F000B70190E00E944F25E7CF512C312C20E0EC
:104700002032A0F48B3269F030F4803259F08332D9
:1047100069F420612CC08D3239F0803339F4216086
:1047200026C02260246023C0286021C027FD27C046
:1047300030ED380F3A3078F426FF06C0FAE05F9E7D
:10474000300D1124532E13C08AE0389E300D1124F1
:10475000332E20620CC08E3221F426FD6BC1206402
:1047600006C08C3611F4206802C0883641F4F60188
:1047700093FD859193FF81916F018111C1CF982F96
:104780009F7D9554933028F40C5F1F4FFFE3F9830E
:104790000DC0833631F0833771F0833509F05BC08B
:1047A00022C0F801808189830E5F1F4F4424439407
:1047B000512C540115C03801F2E06F0E711CF80144
:1047C000A080B18026FF03C0652D70E002C06FEFAE
:1047D0007FEFC5012C870E9444252C0183012C8585
:1047E0002F77222E17C03801F2E06F0E711CF801EE
:1047F000A080B18026FF03C0652D70E002C06FEF7E
:104800007FEFC5012C870E9439252C012C8520685B
:10481000222E830123FC1BC0832D90E048165906ED
:10482000B0F4B70180E290E00E944F253A94F4CFB3
:10483000F50127FC859127FE81915F01B70190E08A
:104840000E944F2531103A94F1E04F1A510841145B
:10485000510471F7E5C0843611F0893639F5F80155
:1048600027FF07C060817181828193810C5F1F4F98
:1048700008C060817181072E000C880B990B0E5FB8
:104880001F4F2F76722E97FF09C0909580957095D7
:1048900061957F4F8F4F9F4F2068722E2AE030E046
:1048A000A4010E948725A82EA81844C0853729F4A2
:1048B0002F7EB22E2AE030E025C0F22FF97FBF2EE6
:1048C0008F36C1F018F4883579F0B4C0803719F00C
:1048D000883721F0AFC02F2F2061B22EB4FE0DC05B
:1048E0008B2D8460B82E09C024FF0AC09F2F9660CC
:1048F000B92E06C028E030E005C020E130E002C05B
:1049000020E132E0F801B7FE07C060817181828149
:1049100093810C5F1F4F06C06081718180E090E041
:104920000E5F1F4FA4010E948725A82EA818FB2DFB
:10493000FF777F2E76FE0BC0372D3E7FA51450F4F7
:1049400074FE0AC072FC08C0372D3E7E05C0BA2C2A
:10495000372D03C0BA2C01C0B52C34FF0DC0FE01A9
:10496000EA0DF11D8081803311F4397E09C032FFD8
:1049700006C0B394B39404C0832F867809F0B3942F
:1049800033FD13C030FF06C05A2CB31418F4530C77
:104990005B18B32CB31468F4B70180E290E03C8755
:1049A0000E944F25B3943C85F5CFB31410F43B1807
:1049B00001C0312C34FF12C0B70180E390E03C8786
:1049C0000E944F253C8532FF17C031FD03C088E7A8
:1049D00090E002C088E590E0B7010CC0832F867894
:1049E00059F031FF02C08BE201C080E237FD8DE259
:1049F000B70190E00E944F25A51438F4B70180E379
:104A000090E00E944F255A94F7CFAA94F401EA0D42
:104A1000F11D8081B70190E00E944F25A110F5CFD4
:104A2000332009F451CEB70180E290E00E944F2577
:104A30003A94F6CFF7018681978102C08FEF9FEFFE
:104A40002C960FB6F894DEBF0FBECDBFDF91CF918D
:104A50001F910F91FF90EF90DF90CF90BF90AF909C
:104A60009F908F907F906F905F904F903F902F908E
:104A70000895FC010590615070400110D8F78095B1
:104A800090958E0F9F1F0895FC016150704001901A
:104A90000110D8F7809590958E0F9F1F08950F9362
:104AA0001F93CF93DF93FB01238121FD03C08FEF81
:104AB0009FEF28C022FF16C046815781248135818F
:104AC0004217530744F4A081B1819D012F5F3F4FEE
:104AD000318320838C93268137812F5F3F4F37832B
:104AE000268310C0EB01092F182F0084F185E02DDB
:104AF0001995892BE1F68E819F8101969F838E8384
:104B0000812F902FDF91CF911F910F910895FA017E
:104B1000AA27283051F1203181F1E8946F936E7FFC
:104B20006E5F7F4F8F4F9F4FAF4FB1E03ED0B4E0ED
:104B30003CD0670F781F891F9A1FA11D680F791F2E
:104B40008A1F911DA11D6A0F711D811D911DA11D3F
:104B500020D009F468943F912AE0269F112430194F
:104B6000305D3193DEF6CF010895462F4770405DEA
:104B70004193B3E00FD0C9F7F6CF462F4F70405D99
:104B80004A3318F0495D31FD4052419302D0A9F7F4
:104B9000EACFB4E0A6959795879577956795BA95EE
:104BA000C9F700976105710508959B01AC010A2EB4
:104BB00006945795479537952795BA95C9F7620F8B
:104BC000731F841F951FA01D089511E0C6ECD1E04E
:104BD00000E006C0802FFE010E94B8202196011D32
:0E4BE000C73CD10780E00807A9F7F894FFCF83
:104BEE0090A2DA0D1A6A00C00100000000008605CE
:104BFE008000000000007508F2098109670940096C
:104C0E0074083B1979186309EE0ACA0A6C084C1825
:104C1E004A186108401800000000220221021E02FC
:104C2E00190215020D020B02C30208020502FA0157
:104C3E00CC020000000047164716471647164716C7
:104C4E00471647164716471647164716471647166E
:104C5E0047164716471600000000821298124208A7
:104C6E00A413F71281121309FE08820A8B08BA09DF
:104C7E00CD1385135A084A0846087F1401005E00BA
:104C8E00000000000000091A3519F518EC18000094
:104C9E000000000000004716471600000000AF029B
:104CAE007A02A7075B026207330230022602230252
:104CBE000000000071186B1861185D185A1857180B
:104CCE004F181F001E001D001C00190018001700B1
:104CDE00160006000200030004000100020003009B
:104CEE0004000100020003000400010002000300A2
:104CFE000400010002000300040001000200030092
:104D0E000400010002000300040001000200030081
:104D1E000400010002000300040001000200030071
:104D2E00040000000000A5150E153D15EC156E15BE
:104D3E004C1560150000000047160E154716471655
:104D4E00471647160000000047160E153A1539157E
:104D5E0000000000BC160000000047164745542016
:104D6E002F20485454502F312E3100486F73743A0F
:104D7E002076697274756575736167652E617A75D3
:104D8E00726577656273697465732E6E6574004320
:104D9E006F6E6E656374696F6E3A20636C6F7365C8
:104DAE00000D0A0073656E64003C7370616E2069BD
:104DBE00643D2263746C30315F4C5F2564223E008B
:104DCE007265636569766564003C7370616E206917
:104DDE00643D2263746C30315F4C5F30223E00576D
:0E4DEE00495A6E65740053746570733A000084
:00000001FF
